{"contracts/mantle/FarmerVerification.sol":{"FarmerVerification":{"abi":[{"inputs":[],"stateMutability":"nonpayable","type":"constructor"},{"anonymous":false,"inputs":[{"indexed":true,"internalType":"address","name":"farmer","type":"address"},{"indexed":false,"internalType":"string","name":"name","type":"string"},{"indexed":false,"internalType":"string","name":"location","type":"string"},{"indexed":false,"internalType":"uint256","name":"timestamp","type":"uint256"}],"name":"FarmerRegistered","type":"event"},{"anonymous":false,"inputs":[{"indexed":true,"internalType":"address","name":"farmer","type":"address"},{"indexed":false,"internalType":"uint256","name":"timestamp","type":"uint256"}],"name":"FarmerRevoked","type":"event"},{"anonymous":false,"inputs":[{"indexed":true,"internalType":"address","name":"farmer","type":"address"},{"indexed":false,"internalType":"string","name":"documentHash","type":"string"},{"indexed":false,"internalType":"uint256","name":"timestamp","type":"uint256"}],"name":"FarmerVerified","type":"event"},{"inputs":[],"name":"admin","outputs":[{"internalType":"address","name":"","type":"address"}],"stateMutability":"view","type":"function"},{"inputs":[{"internalType":"address","name":"","type":"address"}],"name":"farmers","outputs":[{"internalType":"address","name":"farmerAddress","type":"address"},{"internalType":"string","name":"name","type":"string"},{"internalType":"string","name":"location","type":"string"},{"internalType":"string","name":"contactInfo","type":"string"},{"internalType":"bool","name":"isVerified","type":"bool"},{"internalType":"uint256","name":"verificationDate","type":"uint256"},{"internalType":"string","name":"verificationDocumentHash","type":"string"}],"stateMutability":"view","type":"function"},{"inputs":[{"internalType":"address","name":"_farmer","type":"address"}],"name":"getFarmerProfile","outputs":[{"components":[{"internalType":"address","name":"farmerAddress","type":"address"},{"internalType":"string","name":"name","type":"string"},{"internalType":"string","name":"location","type":"string"},{"internalType":"string","name":"contactInfo","type":"string"},{"internalType":"bool","name":"isVerified","type":"bool"},{"internalType":"uint256","name":"verificationDate","type":"uint256"},{"internalType":"string","name":"verificationDocumentHash","type":"string"}],"internalType":"struct FarmerVerification.FarmerProfile","name":"","type":"tuple"}],"stateMutability":"view","type":"function"},{"inputs":[],"name":"getVerifiedFarmers","outputs":[{"internalType":"address[]","name":"","type":"address[]"}],"stateMutability":"view","type":"function"},{"inputs":[{"internalType":"address","name":"_farmer","type":"address"}],"name":"isVerifiedFarmer","outputs":[{"internalType":"bool","name":"","type":"bool"}],"stateMutability":"view","type":"function"},{"inputs":[{"internalType":"string","name":"_name","type":"string"},{"internalType":"string","name":"_location","type":"string"},{"internalType":"string","name":"_contactInfo","type":"string"}],"name":"registerFarmer","outputs":[],"stateMutability":"nonpayable","type":"function"},{"inputs":[{"internalType":"address","name":"_farmer","type":"address"}],"name":"revokeFarmer","outputs":[],"stateMutability":"nonpayable","type":"function"},{"inputs":[{"internalType":"uint256","name":"","type":"uint256"}],"name":"verifiedFarmers","outputs":[{"internalType":"address","name":"","type":"address"}],"stateMutability":"view","type":"function"},{"inputs":[{"internalType":"address","name":"_farmer","type":"address"},{"internalType":"string","name":"_documentHash","type":"string"}],"name":"verifyFarmer","outputs":[],"stateMutability":"nonpayable","type":"function"}],"evm":{"bytecode":{"linkReferences":{},"object":"6080604052348015600e575f5ffd5b505f80546001600160a01b0319163317905561117d8061002d5f395ff3fe608060405234801561000f575f5ffd5b5060043610610090575f3560e01c806385e8aefa1161006357806385e8aefa1461010b578063a5bbd26414610136578063c05806991461014b578063c2b0513a14610189578063f851a4401461019c575f5ffd5b806329a566d21461009457806338cdf135146100a9578063401b2168146100bc5780634410b6b6146100eb575b5f5ffd5b6100a76100a2366004610ce7565b6101ae565b005b6100a76100b7366004610d90565b6103b5565b6100cf6100ca366004610ddb565b610580565b6040516100e29796959493929190610e29565b60405180910390f35b6100fe6100f9366004610ddb565b6107e5565b6040516100e29190610ea2565b61011e610119366004610f50565b610ac2565b6040516001600160a01b0390911681526020016100e2565b61013e610aea565b6040516100e29190610f67565b610179610159366004610ddb565b6001600160a01b03165f9081526001602052604090206004015460ff1690565b60405190151581526020016100e2565b6100a7610197366004610ddb565b610b4a565b5f5461011e906001600160a01b031681565b335f908152600160205260409020546001600160a01b03161561020d5760405162461bcd60e51b8152602060048201526012602482015271105b1c9958591e481c9959da5cdd195c995960721b60448201526064015b60405180910390fd5b5f83511161024d5760405162461bcd60e51b815260206004820152600d60248201526c13985b59481c995c5d5a5c9959609a1b6044820152606401610204565b5f8251116102915760405162461bcd60e51b8152602060048201526011602482015270131bd8d85d1a5bdb881c995c5d5a5c9959607a1b6044820152606401610204565b6040805160e081018252338082526020808301878152838501879052606084018690525f6080850181905260a085018190528551808401875281815260c086015292835260019182905293909120825181546001600160a01b0319166001600160a01b0390911617815592519192919082019061030e9082611036565b50604082015160028201906103239082611036565b50606082015160038201906103389082611036565b50608082015160048201805460ff191691151591909117905560a0820151600582015560c0820151600682019061036f9082611036565b50506040513391507f90021170cf4723f0d0126a8b974a18550b45db58817cbc0ece1e4343e2551e22906103a8908690869042906110f1565b60405180910390a2505050565b5f546001600160a01b031633146103fb5760405162461bcd60e51b815260206004820152600a60248201526927b7363c9030b236b4b760b11b6044820152606401610204565b6001600160a01b038281165f90815260016020526040902054166104595760405162461bcd60e51b815260206004820152601560248201527411985c9b595c881b9bdd081c9959da5cdd195c9959605a1b6044820152606401610204565b6001600160a01b0382165f9081526001602052604090206004015460ff16156104b75760405162461bcd60e51b815260206004820152601060248201526f105b1c9958591e481d995c9a599a595960821b6044820152606401610204565b6001600160a01b0382165f90815260016020819052604090912060048101805460ff19169092179091554260058201556006016104f48282611036565b50600280546001810182555f919091527f405787fa12a823e0f2b7631cc41b3ba8828b3321ca811111fa75cd3aa3bb5ace0180546001600160a01b0319166001600160a01b0384169081179091556040517f87a94731dceda5368e7b3ce1666d63708f498e89e7bf77d980851a9e7ec5cb37906105749084904290611126565b60405180910390a25050565b600160208190525f9182526040909120805491810180546001600160a01b03909316926105ac90610fb2565b80601f01602080910402602001604051908101604052809291908181526020018280546105d890610fb2565b80156106235780601f106105fa57610100808354040283529160200191610623565b820191905f5260205f20905b81548152906001019060200180831161060657829003601f168201915b50505050509080600201805461063890610fb2565b80601f016020809104026020016040519081016040528092919081815260200182805461066490610fb2565b80156106af5780601f10610686576101008083540402835291602001916106af565b820191905f5260205f20905b81548152906001019060200180831161069257829003601f168201915b5050505050908060030180546106c490610fb2565b80601f01602080910402602001604051908101604052809291908181526020018280546106f090610fb2565b801561073b5780601f106107125761010080835404028352916020019161073b565b820191905f5260205f20905b81548152906001019060200180831161071e57829003601f168201915b5050505060048301546005840154600685018054949560ff909316949193509061076490610fb2565b80601f016020809104026020016040519081016040528092919081815260200182805461079090610fb2565b80156107db5780601f106107b2576101008083540402835291602001916107db565b820191905f5260205f20905b8154815290600101906020018083116107be57829003601f168201915b5050505050905087565b61082d6040518060e001604052805f6001600160a01b031681526020016060815260200160608152602001606081526020015f151581526020015f8152602001606081525090565b6001600160a01b038083165f90815260016020818152604092839020835160e081019094528054909416835290830180549293929184019161086e90610fb2565b80601f016020809104026020016040519081016040528092919081815260200182805461089a90610fb2565b80156108e55780601f106108bc576101008083540402835291602001916108e5565b820191905f5260205f20905b8154815290600101906020018083116108c857829003601f168201915b505050505081526020016002820180546108fe90610fb2565b80601f016020809104026020016040519081016040528092919081815260200182805461092a90610fb2565b80156109755780601f1061094c57610100808354040283529160200191610975565b820191905f5260205f20905b81548152906001019060200180831161095857829003601f168201915b5050505050815260200160038201805461098e90610fb2565b80601f01602080910402602001604051908101604052809291908181526020018280546109ba90610fb2565b8015610a055780601f106109dc57610100808354040283529160200191610a05565b820191905f5260205f20905b8154815290600101906020018083116109e857829003601f168201915b5050509183525050600482015460ff161515602082015260058201546040820152600682018054606090920191610a3b90610fb2565b80601f0160208091040260200160405190810160405280929190818152602001828054610a6790610fb2565b8015610ab25780601f10610a8957610100808354040283529160200191610ab2565b820191905f5260205f20905b815481529060010190602001808311610a9557829003601f168201915b5050505050815250509050919050565b60028181548110610ad1575f80fd5b5f918252602090912001546001600160a01b0316905081565b60606002805480602002602001604051908101604052809291908181526020018280548015610b4057602002820191905f5260205f20905b81546001600160a01b03168152600190910190602001808311610b22575b5050505050905090565b5f546001600160a01b03163314610b905760405162461bcd60e51b815260206004820152600a60248201526927b7363c9030b236b4b760b11b6044820152606401610204565b6001600160a01b0381165f9081526001602052604090206004015460ff16610be95760405162461bcd60e51b815260206004820152600c60248201526b139bdd081d995c9a599a595960a21b6044820152606401610204565b6001600160a01b0381165f8181526001602052604090819020600401805460ff19169055517fbb020880861199de9880abc3d9599dd5882ac8083ca3b0eb28bb436f7d3a9eca90610c3d9042815260200190565b60405180910390a250565b634e487b7160e01b5f52604160045260245ffd5b5f82601f830112610c6b575f5ffd5b813567ffffffffffffffff811115610c8557610c85610c48565b604051601f8201601f19908116603f0116810167ffffffffffffffff81118282101715610cb457610cb4610c48565b604052818152838201602001851015610ccb575f5ffd5b816020850160208301375f918101602001919091529392505050565b5f5f5f60608486031215610cf9575f5ffd5b833567ffffffffffffffff811115610d0f575f5ffd5b610d1b86828701610c5c565b935050602084013567ffffffffffffffff811115610d37575f5ffd5b610d4386828701610c5c565b925050604084013567ffffffffffffffff811115610d5f575f5ffd5b610d6b86828701610c5c565b9150509250925092565b80356001600160a01b0381168114610d8b575f5ffd5b919050565b5f5f60408385031215610da1575f5ffd5b610daa83610d75565b9150602083013567ffffffffffffffff811115610dc5575f5ffd5b610dd185828601610c5c565b9150509250929050565b5f60208284031215610deb575f5ffd5b610df482610d75565b9392505050565b5f81518084528060208401602086015e5f602082860101526020601f19601f83011685010191505092915050565b6001600160a01b038816815260e0602082018190525f90610e4c90830189610dfb565b8281036040840152610e5e8189610dfb565b90508281036060840152610e728188610dfb565b905085151560808401528460a084015282810360c0840152610e948185610dfb565b9a9950505050505050505050565b602080825282516001600160a01b03168282015282015160e060408301525f90610ed0610100840182610dfb565b90506040840151601f19848303016060850152610eed8282610dfb565b9150506060840151601f19848303016080850152610f0b8282610dfb565b9150506080840151610f2160a085018215159052565b5060a084015160c084015260c0840151601f198483030160e0850152610f478282610dfb565b95945050505050565b5f60208284031215610f60575f5ffd5b5035919050565b602080825282518282018190525f918401906040840190835b81811015610fa75783516001600160a01b0316835260209384019390920191600101610f80565b509095945050505050565b600181811c90821680610fc657607f821691505b602082108103610fe457634e487b7160e01b5f52602260045260245ffd5b50919050565b601f82111561103157805f5260205f20601f840160051c8101602085101561100f5750805b601f840160051c820191505b8181101561102e575f815560010161101b565b50505b505050565b815167ffffffffffffffff81111561105057611050610c48565b6110648161105e8454610fb2565b84610fea565b6020601f821160018114611096575f831561107f5750848201515b5f19600385901b1c1916600184901b17845561102e565b5f84815260208120601f198516915b828110156110c557878501518255602094850194600190920191016110a5565b50848210156110e257868401515f19600387901b60f8161c191681555b50505050600190811b01905550565b606081525f6111036060830186610dfb565b82810360208401526111158186610dfb565b915050826040830152949350505050565b604081525f6111386040830185610dfb565b9050826020830152939250505056fea26469706673582212206ea5216f5635cbb8e8efe23cd22a05f748ed7d620ff7c7b51b37da9d9b78a69b64736f6c634300081d0033","opcodes":"PUSH1 0x80 PUSH1 0x40 MSTORE CALLVALUE DUP1 ISZERO PUSH1 0xE JUMPI PUSH0 PUSH0 REVERT JUMPDEST POP PUSH0 DUP1 SLOAD PUSH1 0x1 PUSH1 0x1 PUSH1 0xA0 SHL SUB NOT AND CALLER OR SWAP1 SSTORE PUSH2 0x117D DUP1 PUSH2 0x2D PUSH0 CODECOPY PUSH0 RETURN INVALID PUSH1 0x80 PUSH1 0x40 MSTORE CALLVALUE DUP1 ISZERO PUSH2 0xF JUMPI PUSH0 PUSH0 REVERT JUMPDEST POP PUSH1 0x4 CALLDATASIZE LT PUSH2 0x90 JUMPI PUSH0 CALLDATALOAD PUSH1 0xE0 SHR DUP1 PUSH4 0x85E8AEFA GT PUSH2 0x63 JUMPI DUP1 PUSH4 0x85E8AEFA EQ PUSH2 0x10B JUMPI DUP1 PUSH4 0xA5BBD264 EQ PUSH2 0x136 JUMPI DUP1 PUSH4 0xC0580699 EQ PUSH2 0x14B JUMPI DUP1 PUSH4 0xC2B0513A EQ PUSH2 0x189 JUMPI DUP1 PUSH4 0xF851A440 EQ PUSH2 0x19C JUMPI PUSH0 PUSH0 REVERT JUMPDEST DUP1 PUSH4 0x29A566D2 EQ PUSH2 0x94 JUMPI DUP1 PUSH4 0x38CDF135 EQ PUSH2 0xA9 JUMPI DUP1 PUSH4 0x401B2168 EQ PUSH2 0xBC JUMPI DUP1 PUSH4 0x4410B6B6 EQ PUSH2 0xEB JUMPI JUMPDEST PUSH0 PUSH0 REVERT JUMPDEST PUSH2 0xA7 PUSH2 0xA2 CALLDATASIZE PUSH1 0x4 PUSH2 0xCE7 JUMP JUMPDEST PUSH2 0x1AE JUMP JUMPDEST STOP JUMPDEST PUSH2 0xA7 PUSH2 0xB7 CALLDATASIZE PUSH1 0x4 PUSH2 0xD90 JUMP JUMPDEST PUSH2 0x3B5 JUMP JUMPDEST PUSH2 0xCF PUSH2 0xCA CALLDATASIZE PUSH1 0x4 PUSH2 0xDDB JUMP JUMPDEST PUSH2 0x580 JUMP JUMPDEST PUSH1 0x40 MLOAD PUSH2 0xE2 SWAP8 SWAP7 SWAP6 SWAP5 SWAP4 SWAP3 SWAP2 SWAP1 PUSH2 0xE29 JUMP JUMPDEST PUSH1 0x40 MLOAD DUP1 SWAP2 SUB SWAP1 RETURN JUMPDEST PUSH2 0xFE PUSH2 0xF9 CALLDATASIZE PUSH1 0x4 PUSH2 0xDDB JUMP JUMPDEST PUSH2 0x7E5 JUMP JUMPDEST PUSH1 0x40 MLOAD PUSH2 0xE2 SWAP2 SWAP1 PUSH2 0xEA2 JUMP JUMPDEST PUSH2 0x11E PUSH2 0x119 CALLDATASIZE PUSH1 0x4 PUSH2 0xF50 JUMP JUMPDEST PUSH2 0xAC2 JUMP JUMPDEST PUSH1 0x40 MLOAD PUSH1 0x1 PUSH1 0x1 PUSH1 0xA0 SHL SUB SWAP1 SWAP2 AND DUP2 MSTORE PUSH1 0x20 ADD PUSH2 0xE2 JUMP JUMPDEST PUSH2 0x13E PUSH2 0xAEA JUMP JUMPDEST PUSH1 0x40 MLOAD PUSH2 0xE2 SWAP2 SWAP1 PUSH2 0xF67 JUMP JUMPDEST PUSH2 0x179 PUSH2 0x159 CALLDATASIZE PUSH1 0x4 PUSH2 0xDDB JUMP JUMPDEST PUSH1 0x1 PUSH1 0x1 PUSH1 0xA0 SHL SUB AND PUSH0 SWAP1 DUP2 MSTORE PUSH1 0x1 PUSH1 0x20 MSTORE PUSH1 0x40 SWAP1 KECCAK256 PUSH1 0x4 ADD SLOAD PUSH1 0xFF AND SWAP1 JUMP JUMPDEST PUSH1 0x40 MLOAD SWAP1 ISZERO ISZERO DUP2 MSTORE PUSH1 0x20 ADD PUSH2 0xE2 JUMP JUMPDEST PUSH2 0xA7 PUSH2 0x197 CALLDATASIZE PUSH1 0x4 PUSH2 0xDDB JUMP JUMPDEST PUSH2 0xB4A JUMP JUMPDEST PUSH0 SLOAD PUSH2 0x11E SWAP1 PUSH1 0x1 PUSH1 0x1 PUSH1 0xA0 SHL SUB AND DUP2 JUMP JUMPDEST CALLER PUSH0 SWAP1 DUP2 MSTORE PUSH1 0x1 PUSH1 0x20 MSTORE PUSH1 0x40 SWAP1 KECCAK256 SLOAD PUSH1 0x1 PUSH1 0x1 PUSH1 0xA0 SHL SUB AND ISZERO PUSH2 0x20D JUMPI PUSH1 0x40 MLOAD PUSH3 0x461BCD PUSH1 0xE5 SHL DUP2 MSTORE PUSH1 0x20 PUSH1 0x4 DUP3 ADD MSTORE PUSH1 0x12 PUSH1 0x24 DUP3 ADD MSTORE PUSH18 0x105B1C9958591E481C9959DA5CDD195C9959 PUSH1 0x72 SHL PUSH1 0x44 DUP3 ADD MSTORE PUSH1 0x64 ADD JUMPDEST PUSH1 0x40 MLOAD DUP1 SWAP2 SUB SWAP1 REVERT JUMPDEST PUSH0 DUP4 MLOAD GT PUSH2 0x24D JUMPI PUSH1 0x40 MLOAD PUSH3 0x461BCD PUSH1 0xE5 SHL DUP2 MSTORE PUSH1 0x20 PUSH1 0x4 DUP3 ADD MSTORE PUSH1 0xD PUSH1 0x24 DUP3 ADD MSTORE PUSH13 0x13985B59481C995C5D5A5C9959 PUSH1 0x9A SHL PUSH1 0x44 DUP3 ADD MSTORE PUSH1 0x64 ADD PUSH2 0x204 JUMP JUMPDEST PUSH0 DUP3 MLOAD GT PUSH2 0x291 JUMPI PUSH1 0x40 MLOAD PUSH3 0x461BCD PUSH1 0xE5 SHL DUP2 MSTORE PUSH1 0x20 PUSH1 0x4 DUP3 ADD MSTORE PUSH1 0x11 PUSH1 0x24 DUP3 ADD MSTORE PUSH17 0x131BD8D85D1A5BDB881C995C5D5A5C9959 PUSH1 0x7A SHL PUSH1 0x44 DUP3 ADD MSTORE PUSH1 0x64 ADD PUSH2 0x204 JUMP JUMPDEST PUSH1 0x40 DUP1 MLOAD PUSH1 0xE0 DUP2 ADD DUP3 MSTORE CALLER DUP1 DUP3 MSTORE PUSH1 0x20 DUP1 DUP4 ADD DUP8 DUP2 MSTORE DUP4 DUP6 ADD DUP8 SWAP1 MSTORE PUSH1 0x60 DUP5 ADD DUP7 SWAP1 MSTORE PUSH0 PUSH1 0x80 DUP6 ADD DUP2 SWAP1 MSTORE PUSH1 0xA0 DUP6 ADD DUP2 SWAP1 MSTORE DUP6 MLOAD DUP1 DUP5 ADD DUP8 MSTORE DUP2 DUP2 MSTORE PUSH1 0xC0 DUP7 ADD MSTORE SWAP3 DUP4 MSTORE PUSH1 0x1 SWAP2 DUP3 SWAP1 MSTORE SWAP4 SWAP1 SWAP2 KECCAK256 DUP3 MLOAD DUP2 SLOAD PUSH1 0x1 PUSH1 0x1 PUSH1 0xA0 SHL SUB NOT AND PUSH1 0x1 PUSH1 0x1 PUSH1 0xA0 SHL SUB SWAP1 SWAP2 AND OR DUP2 SSTORE SWAP3 MLOAD SWAP2 SWAP3 SWAP2 SWAP1 DUP3 ADD SWAP1 PUSH2 0x30E SWAP1 DUP3 PUSH2 0x1036 JUMP JUMPDEST POP PUSH1 0x40 DUP3 ADD MLOAD PUSH1 0x2 DUP3 ADD SWAP1 PUSH2 0x323 SWAP1 DUP3 PUSH2 0x1036 JUMP JUMPDEST POP PUSH1 0x60 DUP3 ADD MLOAD PUSH1 0x3 DUP3 ADD SWAP1 PUSH2 0x338 SWAP1 DUP3 PUSH2 0x1036 JUMP JUMPDEST POP PUSH1 0x80 DUP3 ADD MLOAD PUSH1 0x4 DUP3 ADD DUP1 SLOAD PUSH1 0xFF NOT AND SWAP2 ISZERO ISZERO SWAP2 SWAP1 SWAP2 OR SWAP1 SSTORE PUSH1 0xA0 DUP3 ADD MLOAD PUSH1 0x5 DUP3 ADD SSTORE PUSH1 0xC0 DUP3 ADD MLOAD PUSH1 0x6 DUP3 ADD SWAP1 PUSH2 0x36F SWAP1 DUP3 PUSH2 0x1036 JUMP JUMPDEST POP POP PUSH1 0x40 MLOAD CALLER SWAP2 POP PUSH32 0x90021170CF4723F0D0126A8B974A18550B45DB58817CBC0ECE1E4343E2551E22 SWAP1 PUSH2 0x3A8 SWAP1 DUP7 SWAP1 DUP7 SWAP1 TIMESTAMP SWAP1 PUSH2 0x10F1 JUMP JUMPDEST PUSH1 0x40 MLOAD DUP1 SWAP2 SUB SWAP1 LOG2 POP POP POP JUMP JUMPDEST PUSH0 SLOAD PUSH1 0x1 PUSH1 0x1 PUSH1 0xA0 SHL SUB AND CALLER EQ PUSH2 0x3FB JUMPI PUSH1 0x40 MLOAD PUSH3 0x461BCD PUSH1 0xE5 SHL DUP2 MSTORE PUSH1 0x20 PUSH1 0x4 DUP3 ADD MSTORE PUSH1 0xA PUSH1 0x24 DUP3 ADD MSTORE PUSH10 0x27B7363C9030B236B4B7 PUSH1 0xB1 SHL PUSH1 0x44 DUP3 ADD MSTORE PUSH1 0x64 ADD PUSH2 0x204 JUMP JUMPDEST PUSH1 0x1 PUSH1 0x1 PUSH1 0xA0 SHL SUB DUP3 DUP2 AND PUSH0 SWAP1 DUP2 MSTORE PUSH1 0x1 PUSH1 0x20 MSTORE PUSH1 0x40 SWAP1 KECCAK256 SLOAD AND PUSH2 0x459 JUMPI PUSH1 0x40 MLOAD PUSH3 0x461BCD PUSH1 0xE5 SHL DUP2 MSTORE PUSH1 0x20 PUSH1 0x4 DUP3 ADD MSTORE PUSH1 0x15 PUSH1 0x24 DUP3 ADD MSTORE PUSH21 0x11985C9B595C881B9BDD081C9959DA5CDD195C9959 PUSH1 0x5A SHL PUSH1 0x44 DUP3 ADD MSTORE PUSH1 0x64 ADD PUSH2 0x204 JUMP JUMPDEST PUSH1 0x1 PUSH1 0x1 PUSH1 0xA0 SHL SUB DUP3 AND PUSH0 SWAP1 DUP2 MSTORE PUSH1 0x1 PUSH1 0x20 MSTORE PUSH1 0x40 SWAP1 KECCAK256 PUSH1 0x4 ADD SLOAD PUSH1 0xFF AND ISZERO PUSH2 0x4B7 JUMPI PUSH1 0x40 MLOAD PUSH3 0x461BCD PUSH1 0xE5 SHL DUP2 MSTORE PUSH1 0x20 PUSH1 0x4 DUP3 ADD MSTORE PUSH1 0x10 PUSH1 0x24 DUP3 ADD MSTORE PUSH16 0x105B1C9958591E481D995C9A599A5959 PUSH1 0x82 SHL PUSH1 0x44 DUP3 ADD MSTORE PUSH1 0x64 ADD PUSH2 0x204 JUMP JUMPDEST PUSH1 0x1 PUSH1 0x1 PUSH1 0xA0 SHL SUB DUP3 AND PUSH0 SWAP1 DUP2 MSTORE PUSH1 0x1 PUSH1 0x20 DUP2 SWAP1 MSTORE PUSH1 0x40 SWAP1 SWAP2 KECCAK256 PUSH1 0x4 DUP2 ADD DUP1 SLOAD PUSH1 0xFF NOT AND SWAP1 SWAP3 OR SWAP1 SWAP2 SSTORE TIMESTAMP PUSH1 0x5 DUP3 ADD SSTORE PUSH1 0x6 ADD PUSH2 0x4F4 DUP3 DUP3 PUSH2 0x1036 JUMP JUMPDEST POP PUSH1 0x2 DUP1 SLOAD PUSH1 0x1 DUP2 ADD DUP3 SSTORE PUSH0 SWAP2 SWAP1 SWAP2 MSTORE PUSH32 0x405787FA12A823E0F2B7631CC41B3BA8828B3321CA811111FA75CD3AA3BB5ACE ADD DUP1 SLOAD PUSH1 0x1 PUSH1 0x1 PUSH1 0xA0 SHL SUB NOT AND PUSH1 0x1 PUSH1 0x1 PUSH1 0xA0 SHL SUB DUP5 AND SWAP1 DUP2 OR SWAP1 SWAP2 SSTORE PUSH1 0x40 MLOAD PUSH32 0x87A94731DCEDA5368E7B3CE1666D63708F498E89E7BF77D980851A9E7EC5CB37 SWAP1 PUSH2 0x574 SWAP1 DUP5 SWAP1 TIMESTAMP SWAP1 PUSH2 0x1126 JUMP JUMPDEST PUSH1 0x40 MLOAD DUP1 SWAP2 SUB SWAP1 LOG2 POP POP JUMP JUMPDEST PUSH1 0x1 PUSH1 0x20 DUP2 SWAP1 MSTORE PUSH0 SWAP2 DUP3 MSTORE PUSH1 0x40 SWAP1 SWAP2 KECCAK256 DUP1 SLOAD SWAP2 DUP2 ADD DUP1 SLOAD PUSH1 0x1 PUSH1 0x1 PUSH1 0xA0 SHL SUB SWAP1 SWAP4 AND SWAP3 PUSH2 0x5AC SWAP1 PUSH2 0xFB2 JUMP JUMPDEST DUP1 PUSH1 0x1F ADD PUSH1 0x20 DUP1 SWAP2 DIV MUL PUSH1 0x20 ADD PUSH1 0x40 MLOAD SWAP1 DUP2 ADD PUSH1 0x40 MSTORE DUP1 SWAP3 SWAP2 SWAP1 DUP2 DUP2 MSTORE PUSH1 0x20 ADD DUP3 DUP1 SLOAD PUSH2 0x5D8 SWAP1 PUSH2 0xFB2 JUMP JUMPDEST DUP1 ISZERO PUSH2 0x623 JUMPI DUP1 PUSH1 0x1F LT PUSH2 0x5FA JUMPI PUSH2 0x100 DUP1 DUP4 SLOAD DIV MUL DUP4 MSTORE SWAP2 PUSH1 0x20 ADD SWAP2 PUSH2 0x623 JUMP JUMPDEST DUP3 ADD SWAP2 SWAP1 PUSH0 MSTORE PUSH1 0x20 PUSH0 KECCAK256 SWAP1 JUMPDEST DUP2 SLOAD DUP2 MSTORE SWAP1 PUSH1 0x1 ADD SWAP1 PUSH1 0x20 ADD DUP1 DUP4 GT PUSH2 0x606 JUMPI DUP3 SWAP1 SUB PUSH1 0x1F AND DUP3 ADD SWAP2 JUMPDEST POP POP POP POP POP SWAP1 DUP1 PUSH1 0x2 ADD DUP1 SLOAD PUSH2 0x638 SWAP1 PUSH2 0xFB2 JUMP JUMPDEST DUP1 PUSH1 0x1F ADD PUSH1 0x20 DUP1 SWAP2 DIV MUL PUSH1 0x20 ADD PUSH1 0x40 MLOAD SWAP1 DUP2 ADD PUSH1 0x40 MSTORE DUP1 SWAP3 SWAP2 SWAP1 DUP2 DUP2 MSTORE PUSH1 0x20 ADD DUP3 DUP1 SLOAD PUSH2 0x664 SWAP1 PUSH2 0xFB2 JUMP JUMPDEST DUP1 ISZERO PUSH2 0x6AF JUMPI DUP1 PUSH1 0x1F LT PUSH2 0x686 JUMPI PUSH2 0x100 DUP1 DUP4 SLOAD DIV MUL DUP4 MSTORE SWAP2 PUSH1 0x20 ADD SWAP2 PUSH2 0x6AF JUMP JUMPDEST DUP3 ADD SWAP2 SWAP1 PUSH0 MSTORE PUSH1 0x20 PUSH0 KECCAK256 SWAP1 JUMPDEST DUP2 SLOAD DUP2 MSTORE SWAP1 PUSH1 0x1 ADD SWAP1 PUSH1 0x20 ADD DUP1 DUP4 GT PUSH2 0x692 JUMPI DUP3 SWAP1 SUB PUSH1 0x1F AND DUP3 ADD SWAP2 JUMPDEST POP POP POP POP POP SWAP1 DUP1 PUSH1 0x3 ADD DUP1 SLOAD PUSH2 0x6C4 SWAP1 PUSH2 0xFB2 JUMP JUMPDEST DUP1 PUSH1 0x1F ADD PUSH1 0x20 DUP1 SWAP2 DIV MUL PUSH1 0x20 ADD PUSH1 0x40 MLOAD SWAP1 DUP2 ADD PUSH1 0x40 MSTORE DUP1 SWAP3 SWAP2 SWAP1 DUP2 DUP2 MSTORE PUSH1 0x20 ADD DUP3 DUP1 SLOAD PUSH2 0x6F0 SWAP1 PUSH2 0xFB2 JUMP JUMPDEST DUP1 ISZERO PUSH2 0x73B JUMPI DUP1 PUSH1 0x1F LT PUSH2 0x712 JUMPI PUSH2 0x100 DUP1 DUP4 SLOAD DIV MUL DUP4 MSTORE SWAP2 PUSH1 0x20 ADD SWAP2 PUSH2 0x73B JUMP JUMPDEST DUP3 ADD SWAP2 SWAP1 PUSH0 MSTORE PUSH1 0x20 PUSH0 KECCAK256 SWAP1 JUMPDEST DUP2 SLOAD DUP2 MSTORE SWAP1 PUSH1 0x1 ADD SWAP1 PUSH1 0x20 ADD DUP1 DUP4 GT PUSH2 0x71E JUMPI DUP3 SWAP1 SUB PUSH1 0x1F AND DUP3 ADD SWAP2 JUMPDEST POP POP POP POP PUSH1 0x4 DUP4 ADD SLOAD PUSH1 0x5 DUP5 ADD SLOAD PUSH1 0x6 DUP6 ADD DUP1 SLOAD SWAP5 SWAP6 PUSH1 0xFF SWAP1 SWAP4 AND SWAP5 SWAP2 SWAP4 POP SWAP1 PUSH2 0x764 SWAP1 PUSH2 0xFB2 JUMP JUMPDEST DUP1 PUSH1 0x1F ADD PUSH1 0x20 DUP1 SWAP2 DIV MUL PUSH1 0x20 ADD PUSH1 0x40 MLOAD SWAP1 DUP2 ADD PUSH1 0x40 MSTORE DUP1 SWAP3 SWAP2 SWAP1 DUP2 DUP2 MSTORE PUSH1 0x20 ADD DUP3 DUP1 SLOAD PUSH2 0x790 SWAP1 PUSH2 0xFB2 JUMP JUMPDEST DUP1 ISZERO PUSH2 0x7DB JUMPI DUP1 PUSH1 0x1F LT PUSH2 0x7B2 JUMPI PUSH2 0x100 DUP1 DUP4 SLOAD DIV MUL DUP4 MSTORE SWAP2 PUSH1 0x20 ADD SWAP2 PUSH2 0x7DB JUMP JUMPDEST DUP3 ADD SWAP2 SWAP1 PUSH0 MSTORE PUSH1 0x20 PUSH0 KECCAK256 SWAP1 JUMPDEST DUP2 SLOAD DUP2 MSTORE SWAP1 PUSH1 0x1 ADD SWAP1 PUSH1 0x20 ADD DUP1 DUP4 GT PUSH2 0x7BE JUMPI DUP3 SWAP1 SUB PUSH1 0x1F AND DUP3 ADD SWAP2 JUMPDEST POP POP POP POP POP SWAP1 POP DUP8 JUMP JUMPDEST PUSH2 0x82D PUSH1 0x40 MLOAD DUP1 PUSH1 0xE0 ADD PUSH1 0x40 MSTORE DUP1 PUSH0 PUSH1 0x1 PUSH1 0x1 PUSH1 0xA0 SHL SUB AND DUP2 MSTORE PUSH1 0x20 ADD PUSH1 0x60 DUP2 MSTORE PUSH1 0x20 ADD PUSH1 0x60 DUP2 MSTORE PUSH1 0x20 ADD PUSH1 0x60 DUP2 MSTORE PUSH1 0x20 ADD PUSH0 ISZERO ISZERO DUP2 MSTORE PUSH1 0x20 ADD PUSH0 DUP2 MSTORE PUSH1 0x20 ADD PUSH1 0x60 DUP2 MSTORE POP SWAP1 JUMP JUMPDEST PUSH1 0x1 PUSH1 0x1 PUSH1 0xA0 SHL SUB DUP1 DUP4 AND PUSH0 SWAP1 DUP2 MSTORE PUSH1 0x1 PUSH1 0x20 DUP2 DUP2 MSTORE PUSH1 0x40 SWAP3 DUP4 SWAP1 KECCAK256 DUP4 MLOAD PUSH1 0xE0 DUP2 ADD SWAP1 SWAP5 MSTORE DUP1 SLOAD SWAP1 SWAP5 AND DUP4 MSTORE SWAP1 DUP4 ADD DUP1 SLOAD SWAP3 SWAP4 SWAP3 SWAP2 DUP5 ADD SWAP2 PUSH2 0x86E SWAP1 PUSH2 0xFB2 JUMP JUMPDEST DUP1 PUSH1 0x1F ADD PUSH1 0x20 DUP1 SWAP2 DIV MUL PUSH1 0x20 ADD PUSH1 0x40 MLOAD SWAP1 DUP2 ADD PUSH1 0x40 MSTORE DUP1 SWAP3 SWAP2 SWAP1 DUP2 DUP2 MSTORE PUSH1 0x20 ADD DUP3 DUP1 SLOAD PUSH2 0x89A SWAP1 PUSH2 0xFB2 JUMP JUMPDEST DUP1 ISZERO PUSH2 0x8E5 JUMPI DUP1 PUSH1 0x1F LT PUSH2 0x8BC JUMPI PUSH2 0x100 DUP1 DUP4 SLOAD DIV MUL DUP4 MSTORE SWAP2 PUSH1 0x20 ADD SWAP2 PUSH2 0x8E5 JUMP JUMPDEST DUP3 ADD SWAP2 SWAP1 PUSH0 MSTORE PUSH1 0x20 PUSH0 KECCAK256 SWAP1 JUMPDEST DUP2 SLOAD DUP2 MSTORE SWAP1 PUSH1 0x1 ADD SWAP1 PUSH1 0x20 ADD DUP1 DUP4 GT PUSH2 0x8C8 JUMPI DUP3 SWAP1 SUB PUSH1 0x1F AND DUP3 ADD SWAP2 JUMPDEST POP POP POP POP POP DUP2 MSTORE PUSH1 0x20 ADD PUSH1 0x2 DUP3 ADD DUP1 SLOAD PUSH2 0x8FE SWAP1 PUSH2 0xFB2 JUMP JUMPDEST DUP1 PUSH1 0x1F ADD PUSH1 0x20 DUP1 SWAP2 DIV MUL PUSH1 0x20 ADD PUSH1 0x40 MLOAD SWAP1 DUP2 ADD PUSH1 0x40 MSTORE DUP1 SWAP3 SWAP2 SWAP1 DUP2 DUP2 MSTORE PUSH1 0x20 ADD DUP3 DUP1 SLOAD PUSH2 0x92A SWAP1 PUSH2 0xFB2 JUMP JUMPDEST DUP1 ISZERO PUSH2 0x975 JUMPI DUP1 PUSH1 0x1F LT PUSH2 0x94C JUMPI PUSH2 0x100 DUP1 DUP4 SLOAD DIV MUL DUP4 MSTORE SWAP2 PUSH1 0x20 ADD SWAP2 PUSH2 0x975 JUMP JUMPDEST DUP3 ADD SWAP2 SWAP1 PUSH0 MSTORE PUSH1 0x20 PUSH0 KECCAK256 SWAP1 JUMPDEST DUP2 SLOAD DUP2 MSTORE SWAP1 PUSH1 0x1 ADD SWAP1 PUSH1 0x20 ADD DUP1 DUP4 GT PUSH2 0x958 JUMPI DUP3 SWAP1 SUB PUSH1 0x1F AND DUP3 ADD SWAP2 JUMPDEST POP POP POP POP POP DUP2 MSTORE PUSH1 0x20 ADD PUSH1 0x3 DUP3 ADD DUP1 SLOAD PUSH2 0x98E SWAP1 PUSH2 0xFB2 JUMP JUMPDEST DUP1 PUSH1 0x1F ADD PUSH1 0x20 DUP1 SWAP2 DIV MUL PUSH1 0x20 ADD PUSH1 0x40 MLOAD SWAP1 DUP2 ADD PUSH1 0x40 MSTORE DUP1 SWAP3 SWAP2 SWAP1 DUP2 DUP2 MSTORE PUSH1 0x20 ADD DUP3 DUP1 SLOAD PUSH2 0x9BA SWAP1 PUSH2 0xFB2 JUMP JUMPDEST DUP1 ISZERO PUSH2 0xA05 JUMPI DUP1 PUSH1 0x1F LT PUSH2 0x9DC JUMPI PUSH2 0x100 DUP1 DUP4 SLOAD DIV MUL DUP4 MSTORE SWAP2 PUSH1 0x20 ADD SWAP2 PUSH2 0xA05 JUMP JUMPDEST DUP3 ADD SWAP2 SWAP1 PUSH0 MSTORE PUSH1 0x20 PUSH0 KECCAK256 SWAP1 JUMPDEST DUP2 SLOAD DUP2 MSTORE SWAP1 PUSH1 0x1 ADD SWAP1 PUSH1 0x20 ADD DUP1 DUP4 GT PUSH2 0x9E8 JUMPI DUP3 SWAP1 SUB PUSH1 0x1F AND DUP3 ADD SWAP2 JUMPDEST POP POP POP SWAP2 DUP4 MSTORE POP POP PUSH1 0x4 DUP3 ADD SLOAD PUSH1 0xFF AND ISZERO ISZERO PUSH1 0x20 DUP3 ADD MSTORE PUSH1 0x5 DUP3 ADD SLOAD PUSH1 0x40 DUP3 ADD MSTORE PUSH1 0x6 DUP3 ADD DUP1 SLOAD PUSH1 0x60 SWAP1 SWAP3 ADD SWAP2 PUSH2 0xA3B SWAP1 PUSH2 0xFB2 JUMP JUMPDEST DUP1 PUSH1 0x1F ADD PUSH1 0x20 DUP1 SWAP2 DIV MUL PUSH1 0x20 ADD PUSH1 0x40 MLOAD SWAP1 DUP2 ADD PUSH1 0x40 MSTORE DUP1 SWAP3 SWAP2 SWAP1 DUP2 DUP2 MSTORE PUSH1 0x20 ADD DUP3 DUP1 SLOAD PUSH2 0xA67 SWAP1 PUSH2 0xFB2 JUMP JUMPDEST DUP1 ISZERO PUSH2 0xAB2 JUMPI DUP1 PUSH1 0x1F LT PUSH2 0xA89 JUMPI PUSH2 0x100 DUP1 DUP4 SLOAD DIV MUL DUP4 MSTORE SWAP2 PUSH1 0x20 ADD SWAP2 PUSH2 0xAB2 JUMP JUMPDEST DUP3 ADD SWAP2 SWAP1 PUSH0 MSTORE PUSH1 0x20 PUSH0 KECCAK256 SWAP1 JUMPDEST DUP2 SLOAD DUP2 MSTORE SWAP1 PUSH1 0x1 ADD SWAP1 PUSH1 0x20 ADD DUP1 DUP4 GT PUSH2 0xA95 JUMPI DUP3 SWAP1 SUB PUSH1 0x1F AND DUP3 ADD SWAP2 JUMPDEST POP POP POP POP POP DUP2 MSTORE POP POP SWAP1 POP SWAP2 SWAP1 POP JUMP JUMPDEST PUSH1 0x2 DUP2 DUP2 SLOAD DUP2 LT PUSH2 0xAD1 JUMPI PUSH0 DUP1 REVERT JUMPDEST PUSH0 SWAP2 DUP3 MSTORE PUSH1 0x20 SWAP1 SWAP2 KECCAK256 ADD SLOAD PUSH1 0x1 PUSH1 0x1 PUSH1 0xA0 SHL SUB AND SWAP1 POP DUP2 JUMP JUMPDEST PUSH1 0x60 PUSH1 0x2 DUP1 SLOAD DUP1 PUSH1 0x20 MUL PUSH1 0x20 ADD PUSH1 0x40 MLOAD SWAP1 DUP2 ADD PUSH1 0x40 MSTORE DUP1 SWAP3 SWAP2 SWAP1 DUP2 DUP2 MSTORE PUSH1 0x20 ADD DUP3 DUP1 SLOAD DUP1 ISZERO PUSH2 0xB40 JUMPI PUSH1 0x20 MUL DUP3 ADD SWAP2 SWAP1 PUSH0 MSTORE PUSH1 0x20 PUSH0 KECCAK256 SWAP1 JUMPDEST DUP2 SLOAD PUSH1 0x1 PUSH1 0x1 PUSH1 0xA0 SHL SUB AND DUP2 MSTORE PUSH1 0x1 SWAP1 SWAP2 ADD SWAP1 PUSH1 0x20 ADD DUP1 DUP4 GT PUSH2 0xB22 JUMPI JUMPDEST POP POP POP POP POP SWAP1 POP SWAP1 JUMP JUMPDEST PUSH0 SLOAD PUSH1 0x1 PUSH1 0x1 PUSH1 0xA0 SHL SUB AND CALLER EQ PUSH2 0xB90 JUMPI PUSH1 0x40 MLOAD PUSH3 0x461BCD PUSH1 0xE5 SHL DUP2 MSTORE PUSH1 0x20 PUSH1 0x4 DUP3 ADD MSTORE PUSH1 0xA PUSH1 0x24 DUP3 ADD MSTORE PUSH10 0x27B7363C9030B236B4B7 PUSH1 0xB1 SHL PUSH1 0x44 DUP3 ADD MSTORE PUSH1 0x64 ADD PUSH2 0x204 JUMP JUMPDEST PUSH1 0x1 PUSH1 0x1 PUSH1 0xA0 SHL SUB DUP2 AND PUSH0 SWAP1 DUP2 MSTORE PUSH1 0x1 PUSH1 0x20 MSTORE PUSH1 0x40 SWAP1 KECCAK256 PUSH1 0x4 ADD SLOAD PUSH1 0xFF AND PUSH2 0xBE9 JUMPI PUSH1 0x40 MLOAD PUSH3 0x461BCD PUSH1 0xE5 SHL DUP2 MSTORE PUSH1 0x20 PUSH1 0x4 DUP3 ADD MSTORE PUSH1 0xC PUSH1 0x24 DUP3 ADD MSTORE PUSH12 0x139BDD081D995C9A599A5959 PUSH1 0xA2 SHL PUSH1 0x44 DUP3 ADD MSTORE PUSH1 0x64 ADD PUSH2 0x204 JUMP JUMPDEST PUSH1 0x1 PUSH1 0x1 PUSH1 0xA0 SHL SUB DUP2 AND PUSH0 DUP2 DUP2 MSTORE PUSH1 0x1 PUSH1 0x20 MSTORE PUSH1 0x40 SWAP1 DUP2 SWAP1 KECCAK256 PUSH1 0x4 ADD DUP1 SLOAD PUSH1 0xFF NOT AND SWAP1 SSTORE MLOAD PUSH32 0xBB020880861199DE9880ABC3D9599DD5882AC8083CA3B0EB28BB436F7D3A9ECA SWAP1 PUSH2 0xC3D SWAP1 TIMESTAMP DUP2 MSTORE PUSH1 0x20 ADD SWAP1 JUMP JUMPDEST PUSH1 0x40 MLOAD DUP1 SWAP2 SUB SWAP1 LOG2 POP JUMP JUMPDEST PUSH4 0x4E487B71 PUSH1 0xE0 SHL PUSH0 MSTORE PUSH1 0x41 PUSH1 0x4 MSTORE PUSH1 0x24 PUSH0 REVERT JUMPDEST PUSH0 DUP3 PUSH1 0x1F DUP4 ADD SLT PUSH2 0xC6B JUMPI PUSH0 PUSH0 REVERT JUMPDEST DUP2 CALLDATALOAD PUSH8 0xFFFFFFFFFFFFFFFF DUP2 GT ISZERO PUSH2 0xC85 JUMPI PUSH2 0xC85 PUSH2 0xC48 JUMP JUMPDEST PUSH1 0x40 MLOAD PUSH1 0x1F DUP3 ADD PUSH1 0x1F NOT SWAP1 DUP2 AND PUSH1 0x3F ADD AND DUP2 ADD PUSH8 0xFFFFFFFFFFFFFFFF DUP2 GT DUP3 DUP3 LT OR ISZERO PUSH2 0xCB4 JUMPI PUSH2 0xCB4 PUSH2 0xC48 JUMP JUMPDEST PUSH1 0x40 MSTORE DUP2 DUP2 MSTORE DUP4 DUP3 ADD PUSH1 0x20 ADD DUP6 LT ISZERO PUSH2 0xCCB JUMPI PUSH0 PUSH0 REVERT JUMPDEST DUP2 PUSH1 0x20 DUP6 ADD PUSH1 0x20 DUP4 ADD CALLDATACOPY PUSH0 SWAP2 DUP2 ADD PUSH1 0x20 ADD SWAP2 SWAP1 SWAP2 MSTORE SWAP4 SWAP3 POP POP POP JUMP JUMPDEST PUSH0 PUSH0 PUSH0 PUSH1 0x60 DUP5 DUP7 SUB SLT ISZERO PUSH2 0xCF9 JUMPI PUSH0 PUSH0 REVERT JUMPDEST DUP4 CALLDATALOAD PUSH8 0xFFFFFFFFFFFFFFFF DUP2 GT ISZERO PUSH2 0xD0F JUMPI PUSH0 PUSH0 REVERT JUMPDEST PUSH2 0xD1B DUP7 DUP3 DUP8 ADD PUSH2 0xC5C JUMP JUMPDEST SWAP4 POP POP PUSH1 0x20 DUP5 ADD CALLDATALOAD PUSH8 0xFFFFFFFFFFFFFFFF DUP2 GT ISZERO PUSH2 0xD37 JUMPI PUSH0 PUSH0 REVERT JUMPDEST PUSH2 0xD43 DUP7 DUP3 DUP8 ADD PUSH2 0xC5C JUMP JUMPDEST SWAP3 POP POP PUSH1 0x40 DUP5 ADD CALLDATALOAD PUSH8 0xFFFFFFFFFFFFFFFF DUP2 GT ISZERO PUSH2 0xD5F JUMPI PUSH0 PUSH0 REVERT JUMPDEST PUSH2 0xD6B DUP7 DUP3 DUP8 ADD PUSH2 0xC5C JUMP JUMPDEST SWAP2 POP POP SWAP3 POP SWAP3 POP SWAP3 JUMP JUMPDEST DUP1 CALLDATALOAD PUSH1 0x1 PUSH1 0x1 PUSH1 0xA0 SHL SUB DUP2 AND DUP2 EQ PUSH2 0xD8B JUMPI PUSH0 PUSH0 REVERT JUMPDEST SWAP2 SWAP1 POP JUMP JUMPDEST PUSH0 PUSH0 PUSH1 0x40 DUP4 DUP6 SUB SLT ISZERO PUSH2 0xDA1 JUMPI PUSH0 PUSH0 REVERT JUMPDEST PUSH2 0xDAA DUP4 PUSH2 0xD75 JUMP JUMPDEST SWAP2 POP PUSH1 0x20 DUP4 ADD CALLDATALOAD PUSH8 0xFFFFFFFFFFFFFFFF DUP2 GT ISZERO PUSH2 0xDC5 JUMPI PUSH0 PUSH0 REVERT JUMPDEST PUSH2 0xDD1 DUP6 DUP3 DUP7 ADD PUSH2 0xC5C JUMP JUMPDEST SWAP2 POP POP SWAP3 POP SWAP3 SWAP1 POP JUMP JUMPDEST PUSH0 PUSH1 0x20 DUP3 DUP5 SUB SLT ISZERO PUSH2 0xDEB JUMPI PUSH0 PUSH0 REVERT JUMPDEST PUSH2 0xDF4 DUP3 PUSH2 0xD75 JUMP JUMPDEST SWAP4 SWAP3 POP POP POP JUMP JUMPDEST PUSH0 DUP2 MLOAD DUP1 DUP5 MSTORE DUP1 PUSH1 0x20 DUP5 ADD PUSH1 0x20 DUP7 ADD MCOPY PUSH0 PUSH1 0x20 DUP3 DUP7 ADD ADD MSTORE PUSH1 0x20 PUSH1 0x1F NOT PUSH1 0x1F DUP4 ADD AND DUP6 ADD ADD SWAP2 POP POP SWAP3 SWAP2 POP POP JUMP JUMPDEST PUSH1 0x1 PUSH1 0x1 PUSH1 0xA0 SHL SUB DUP9 AND DUP2 MSTORE PUSH1 0xE0 PUSH1 0x20 DUP3 ADD DUP2 SWAP1 MSTORE PUSH0 SWAP1 PUSH2 0xE4C SWAP1 DUP4 ADD DUP10 PUSH2 0xDFB JUMP JUMPDEST DUP3 DUP2 SUB PUSH1 0x40 DUP5 ADD MSTORE PUSH2 0xE5E DUP2 DUP10 PUSH2 0xDFB JUMP JUMPDEST SWAP1 POP DUP3 DUP2 SUB PUSH1 0x60 DUP5 ADD MSTORE PUSH2 0xE72 DUP2 DUP9 PUSH2 0xDFB JUMP JUMPDEST SWAP1 POP DUP6 ISZERO ISZERO PUSH1 0x80 DUP5 ADD MSTORE DUP5 PUSH1 0xA0 DUP5 ADD MSTORE DUP3 DUP2 SUB PUSH1 0xC0 DUP5 ADD MSTORE PUSH2 0xE94 DUP2 DUP6 PUSH2 0xDFB JUMP JUMPDEST SWAP11 SWAP10 POP POP POP POP POP POP POP POP POP POP JUMP JUMPDEST PUSH1 0x20 DUP1 DUP3 MSTORE DUP3 MLOAD PUSH1 0x1 PUSH1 0x1 PUSH1 0xA0 SHL SUB AND DUP3 DUP3 ADD MSTORE DUP3 ADD MLOAD PUSH1 0xE0 PUSH1 0x40 DUP4 ADD MSTORE PUSH0 SWAP1 PUSH2 0xED0 PUSH2 0x100 DUP5 ADD DUP3 PUSH2 0xDFB JUMP JUMPDEST SWAP1 POP PUSH1 0x40 DUP5 ADD MLOAD PUSH1 0x1F NOT DUP5 DUP4 SUB ADD PUSH1 0x60 DUP6 ADD MSTORE PUSH2 0xEED DUP3 DUP3 PUSH2 0xDFB JUMP JUMPDEST SWAP2 POP POP PUSH1 0x60 DUP5 ADD MLOAD PUSH1 0x1F NOT DUP5 DUP4 SUB ADD PUSH1 0x80 DUP6 ADD MSTORE PUSH2 0xF0B DUP3 DUP3 PUSH2 0xDFB JUMP JUMPDEST SWAP2 POP POP PUSH1 0x80 DUP5 ADD MLOAD PUSH2 0xF21 PUSH1 0xA0 DUP6 ADD DUP3 ISZERO ISZERO SWAP1 MSTORE JUMP JUMPDEST POP PUSH1 0xA0 DUP5 ADD MLOAD PUSH1 0xC0 DUP5 ADD MSTORE PUSH1 0xC0 DUP5 ADD MLOAD PUSH1 0x1F NOT DUP5 DUP4 SUB ADD PUSH1 0xE0 DUP6 ADD MSTORE PUSH2 0xF47 DUP3 DUP3 PUSH2 0xDFB JUMP JUMPDEST SWAP6 SWAP5 POP POP POP POP POP JUMP JUMPDEST PUSH0 PUSH1 0x20 DUP3 DUP5 SUB SLT ISZERO PUSH2 0xF60 JUMPI PUSH0 PUSH0 REVERT JUMPDEST POP CALLDATALOAD SWAP2 SWAP1 POP JUMP JUMPDEST PUSH1 0x20 DUP1 DUP3 MSTORE DUP3 MLOAD DUP3 DUP3 ADD DUP2 SWAP1 MSTORE PUSH0 SWAP2 DUP5 ADD SWAP1 PUSH1 0x40 DUP5 ADD SWAP1 DUP4 JUMPDEST DUP2 DUP2 LT ISZERO PUSH2 0xFA7 JUMPI DUP4 MLOAD PUSH1 0x1 PUSH1 0x1 PUSH1 0xA0 SHL SUB AND DUP4 MSTORE PUSH1 0x20 SWAP4 DUP5 ADD SWAP4 SWAP1 SWAP3 ADD SWAP2 PUSH1 0x1 ADD PUSH2 0xF80 JUMP JUMPDEST POP SWAP1 SWAP6 SWAP5 POP POP POP POP POP JUMP JUMPDEST PUSH1 0x1 DUP2 DUP2 SHR SWAP1 DUP3 AND DUP1 PUSH2 0xFC6 JUMPI PUSH1 0x7F DUP3 AND SWAP2 POP JUMPDEST PUSH1 0x20 DUP3 LT DUP2 SUB PUSH2 0xFE4 JUMPI PUSH4 0x4E487B71 PUSH1 0xE0 SHL PUSH0 MSTORE PUSH1 0x22 PUSH1 0x4 MSTORE PUSH1 0x24 PUSH0 REVERT JUMPDEST POP SWAP2 SWAP1 POP JUMP JUMPDEST PUSH1 0x1F DUP3 GT ISZERO PUSH2 0x1031 JUMPI DUP1 PUSH0 MSTORE PUSH1 0x20 PUSH0 KECCAK256 PUSH1 0x1F DUP5 ADD PUSH1 0x5 SHR DUP2 ADD PUSH1 0x20 DUP6 LT ISZERO PUSH2 0x100F JUMPI POP DUP1 JUMPDEST PUSH1 0x1F DUP5 ADD PUSH1 0x5 SHR DUP3 ADD SWAP2 POP JUMPDEST DUP2 DUP2 LT ISZERO PUSH2 0x102E JUMPI PUSH0 DUP2 SSTORE PUSH1 0x1 ADD PUSH2 0x101B JUMP JUMPDEST POP POP JUMPDEST POP POP POP JUMP JUMPDEST DUP2 MLOAD PUSH8 0xFFFFFFFFFFFFFFFF DUP2 GT ISZERO PUSH2 0x1050 JUMPI PUSH2 0x1050 PUSH2 0xC48 JUMP JUMPDEST PUSH2 0x1064 DUP2 PUSH2 0x105E DUP5 SLOAD PUSH2 0xFB2 JUMP JUMPDEST DUP5 PUSH2 0xFEA JUMP JUMPDEST PUSH1 0x20 PUSH1 0x1F DUP3 GT PUSH1 0x1 DUP2 EQ PUSH2 0x1096 JUMPI PUSH0 DUP4 ISZERO PUSH2 0x107F JUMPI POP DUP5 DUP3 ADD MLOAD JUMPDEST PUSH0 NOT PUSH1 0x3 DUP6 SWAP1 SHL SHR NOT AND PUSH1 0x1 DUP5 SWAP1 SHL OR DUP5 SSTORE PUSH2 0x102E JUMP JUMPDEST PUSH0 DUP5 DUP2 MSTORE PUSH1 0x20 DUP2 KECCAK256 PUSH1 0x1F NOT DUP6 AND SWAP2 JUMPDEST DUP3 DUP2 LT ISZERO PUSH2 0x10C5 JUMPI DUP8 DUP6 ADD MLOAD DUP3 SSTORE PUSH1 0x20 SWAP5 DUP6 ADD SWAP5 PUSH1 0x1 SWAP1 SWAP3 ADD SWAP2 ADD PUSH2 0x10A5 JUMP JUMPDEST POP DUP5 DUP3 LT ISZERO PUSH2 0x10E2 JUMPI DUP7 DUP5 ADD MLOAD PUSH0 NOT PUSH1 0x3 DUP8 SWAP1 SHL PUSH1 0xF8 AND SHR NOT AND DUP2 SSTORE JUMPDEST POP POP POP POP PUSH1 0x1 SWAP1 DUP2 SHL ADD SWAP1 SSTORE POP JUMP JUMPDEST PUSH1 0x60 DUP2 MSTORE PUSH0 PUSH2 0x1103 PUSH1 0x60 DUP4 ADD DUP7 PUSH2 0xDFB JUMP JUMPDEST DUP3 DUP2 SUB PUSH1 0x20 DUP5 ADD MSTORE PUSH2 0x1115 DUP2 DUP7 PUSH2 0xDFB JUMP JUMPDEST SWAP2 POP POP DUP3 PUSH1 0x40 DUP4 ADD MSTORE SWAP5 SWAP4 POP POP POP POP JUMP JUMPDEST PUSH1 0x40 DUP2 MSTORE PUSH0 PUSH2 0x1138 PUSH1 0x40 DUP4 ADD DUP6 PUSH2 0xDFB JUMP JUMPDEST SWAP1 POP DUP3 PUSH1 0x20 DUP4 ADD MSTORE SWAP4 SWAP3 POP POP POP JUMP INVALID LOG2 PUSH5 0x6970667358 0x22 SLT KECCAK256 PUSH15 0xA5216F5635CBB8E8EFE23CD22A05F7 BASEFEE 0xED PUSH30 0x620FF7C7B51B37DA9D9B78A69B64736F6C634300081D0033000000000000 "},"methodIdentifiers":{"admin()":"f851a440","farmers(address)":"401b2168","getFarmerProfile(address)":"4410b6b6","getVerifiedFarmers()":"a5bbd264","isVerifiedFarmer(address)":"c0580699","registerFarmer(string,string,string)":"29a566d2","revokeFarmer(address)":"c2b0513a","verifiedFarmers(uint256)":"85e8aefa","verifyFarmer(address,string)":"38cdf135"}}}}}