{"contracts/mantle/CoffeeRevenueReserve.sol":{"CoffeeRevenueReserve":{"abi":[{"inputs":[{"internalType":"address","name":"_groveToken","type":"address"},{"internalType":"address","name":"_farmer","type":"address"},{"internalType":"address","name":"_usdc","type":"address"}],"stateMutability":"nonpayable","type":"constructor"},{"anonymous":false,"inputs":[{"indexed":true,"internalType":"address","name":"investor","type":"address"},{"indexed":false,"internalType":"uint256","name":"amount","type":"uint256"},{"indexed":false,"internalType":"uint256","name":"timestamp","type":"uint256"}],"name":"EarningsWithdrawn","type":"event"},{"anonymous":false,"inputs":[{"indexed":true,"internalType":"address","name":"farmer","type":"address"},{"indexed":false,"internalType":"uint256","name":"amount","type":"uint256"},{"indexed":false,"internalType":"uint256","name":"timestamp","type":"uint256"}],"name":"FarmerShareWithdrawn","type":"event"},{"anonymous":false,"inputs":[{"indexed":false,"internalType":"uint256","name":"amount","type":"uint256"},{"indexed":false,"internalType":"uint256","name":"timestamp","type":"uint256"}],"name":"RevenueDeposited","type":"event"},{"anonymous":false,"inputs":[{"indexed":true,"internalType":"uint256","name":"distributionId","type":"uint256"},{"indexed":false,"internalType":"uint256","name":"totalAmount","type":"uint256"},{"indexed":false,"internalType":"uint256","name":"timestamp","type":"uint256"}],"name":"RevenueDistributed","type":"event"},{"inputs":[],"name":"USDC","outputs":[{"internalType":"address","name":"","type":"address"}],"stateMutability":"view","type":"function"},{"inputs":[{"internalType":"uint256","name":"_amount","type":"uint256"}],"name":"deposit","outputs":[],"stateMutability":"nonpayable","type":"function"},{"inputs":[{"internalType":"address","name":"_token","type":"address"},{"internalType":"uint256","name":"_amount","type":"uint256"}],"name":"distributeRevenue","outputs":[],"stateMutability":"nonpayable","type":"function"},{"inputs":[{"internalType":"uint256","name":"_distributionId","type":"uint256"},{"internalType":"address[]","name":"_holders","type":"address[]"},{"internalType":"uint256[]","name":"_balances","type":"uint256[]"}],"name":"distributeRevenueToHolders","outputs":[],"stateMutability":"nonpayable","type":"function"},{"inputs":[],"name":"distributionCounter","outputs":[{"internalType":"uint256","name":"","type":"uint256"}],"stateMutability":"view","type":"function"},{"inputs":[{"internalType":"uint256","name":"","type":"uint256"}],"name":"distributions","outputs":[{"internalType":"uint256","name":"distributionId","type":"uint256"},{"internalType":"uint256","name":"totalAmount","type":"uint256"},{"internalType":"uint256","name":"timestamp","type":"uint256"},{"internalType":"bool","name":"completed","type":"bool"}],"stateMutability":"view","type":"function"},{"inputs":[],"name":"farmer","outputs":[{"internalType":"address","name":"","type":"address"}],"stateMutability":"view","type":"function"},{"inputs":[],"name":"getAvailableBalance","outputs":[{"internalType":"uint256","name":"","type":"uint256"}],"stateMutability":"view","type":"function"},{"inputs":[{"internalType":"address","name":"_investor","type":"address"}],"name":"getInvestorEarnings","outputs":[{"internalType":"uint256","name":"totalEarned","type":"uint256"},{"internalType":"uint256","name":"totalWithdrawn","type":"uint256"},{"internalType":"uint256","name":"available","type":"uint256"}],"stateMutability":"view","type":"function"},{"inputs":[],"name":"groveToken","outputs":[{"internalType":"address","name":"","type":"address"}],"stateMutability":"view","type":"function"},{"inputs":[{"internalType":"address","name":"","type":"address"}],"name":"investorEarnings","outputs":[{"internalType":"uint256","name":"","type":"uint256"}],"stateMutability":"view","type":"function"},{"inputs":[{"internalType":"address","name":"","type":"address"}],"name":"investorWithdrawals","outputs":[{"internalType":"uint256","name":"","type":"uint256"}],"stateMutability":"view","type":"function"},{"inputs":[],"name":"issuer","outputs":[{"internalType":"address","name":"","type":"address"}],"stateMutability":"view","type":"function"},{"inputs":[{"internalType":"uint256","name":"_amount","type":"uint256"},{"internalType":"address","name":"_recipient","type":"address"}],"name":"refund","outputs":[],"stateMutability":"nonpayable","type":"function"},{"inputs":[],"name":"totalDeposited","outputs":[{"internalType":"uint256","name":"","type":"uint256"}],"stateMutability":"view","type":"function"},{"inputs":[],"name":"totalDistributed","outputs":[{"internalType":"uint256","name":"","type":"uint256"}],"stateMutability":"view","type":"function"},{"inputs":[{"internalType":"uint256","name":"_amount","type":"uint256"}],"name":"withdrawEarnings","outputs":[],"stateMutability":"nonpayable","type":"function"},{"inputs":[{"internalType":"uint256","name":"_amount","type":"uint256"},{"internalType":"address","name":"_recipient","type":"address"}],"name":"withdrawFarmerShare","outputs":[],"stateMutability":"nonpayable","type":"function"}],"evm":{"bytecode":{"linkReferences":{},"object":"6080604052348015600e575f5ffd5b50604051611003380380611003833981016040819052602b916092565b5f80546001600160a01b039485166001600160a01b0319918216179091556001805493851693821693909317909255600280549190931690821617909155600380549091163317905560cb565b80516001600160a01b0381168114608d575f5ffd5b919050565b5f5f5f6060848603121560a3575f5ffd5b60aa846078565b925060b6602085016078565b915060c2604085016078565b90509250925092565b610f2b806100d85f395ff3fe608060405234801561000f575f5ffd5b5060043610610111575f3560e01c806388987aac1161009e578063d811fcf01161006e578063d811fcf01461029a578063efca2eed146102ad578063feafdaa7146102b6578063ff50abdc146102bf578063ff51e702146102c8575f5ffd5b806388987aac1461024357806389a3027114610255578063b6b55f2514610268578063c6b7d9611461027b575f5ffd5b80635a40af8e116100e45780635a40af8e146101e15780636d0a1cb3146101f45780636e70096e146102075780637ad226dc1461021a578063809dab6a1461022d575f5ffd5b80630c8bc60c146101155780631d143848146101485780634487d3df146101735780634755fd5d146101cc575b5f5ffd5b610128610123366004610b6d565b6102e7565b604080519384526020840192909252908201526060015b60405180910390f35b60035461015b906001600160a01b031681565b6040516001600160a01b03909116815260200161013f565b6101aa610181366004610b8d565b60076020525f908152604090208054600182015460028301546003909301549192909160ff1684565b604080519485526020850193909352918301521515606082015260800161013f565b6101df6101da366004610c76565b61031e565b005b6101df6101ef366004610d41565b610581565b6101df610202366004610d6b565b6106ae565b6101df610215366004610b8d565b610825565b6101df610228366004610d41565b610960565b610235610a49565b60405190815260200161013f565b5f5461015b906001600160a01b031681565b60025461015b906001600160a01b031681565b6101df610276366004610b8d565b610ab8565b610235610289366004610b6d565b60086020525f908152604090205481565b60015461015b906001600160a01b031681565b61023560055481565b61023560065481565b61023560045481565b6102356102d6366004610b6d565b60096020525f908152604090205481565b6001600160a01b0381165f90815260086020908152604080832054600990925282205490916103168284610da7565b929491935050565b6003546001600160a01b031633146103515760405162461bcd60e51b815260040161034890610dc0565b60405180910390fd5b80518251146103945760405162461bcd60e51b815260206004820152600f60248201526e098cadccee8d040dad2e6dac2e8c6d608b1b6044820152606401610348565b5f838152600760205260409020600381015460ff16156103ea5760405162461bcd60e51b8152602060048201526011602482015270105b1c9958591e4818dbdb5c1b195d1959607a1b6044820152606401610348565b5f5f5f9054906101000a90046001600160a01b03166001600160a01b03166318160ddd6040518163ffffffff1660e01b8152600401602060405180830381865afa15801561043a573d5f5f3e3d5ffd5b505050506040513d601f19601f8201168201806040525081019061045e9190610de5565b90505f81116104af5760405162461bcd60e51b815260206004820152601860248201527f4e6f20746f6b656e7320696e2063697263756c6174696f6e00000000000000006044820152606401610348565b5f5b845181101561056c575f8482815181106104cd576104cd610dfc565b60200260200101511115610564575f828583815181106104ef576104ef610dfc565b602002602001015185600101546105069190610e10565b6105109190610e27565b90508060085f88858151811061052857610528610dfc565b60200260200101516001600160a01b03166001600160a01b031681526020019081526020015f205f82825461055d9190610e46565b9091555050505b6001016104b1565b5050600301805460ff19166001179055505050565b6003546001600160a01b031633146105ab5760405162461bcd60e51b815260040161034890610dc0565b5f82116105ca5760405162461bcd60e51b815260040161034890610e59565b6105d2610a49565b8211156105f15760405162461bcd60e51b815260040161034890610e90565b60025460405163a9059cbb60e01b81526001600160a01b038381166004830152602482018590529091169063a9059cbb906044016020604051808303815f875af1158015610641573d5f5f3e3d5ffd5b505050506040513d601f19601f820116820180604052508101906106659190610ebe565b50604080518381524260208201526001600160a01b038316917fd4c4f034e6d88080144fb76dbfb71aab31394358b3639babebc2e5cf35c2b76691015b60405180910390a25050565b6003546001600160a01b031633146106d85760405162461bcd60e51b815260040161034890610dc0565b5f546001600160a01b038381169116146107245760405162461bcd60e51b815260206004820152600d60248201526c24b73b30b634b2103a37b5b2b760991b6044820152606401610348565b5f81116107435760405162461bcd60e51b815260040161034890610e59565b61074b610a49565b81111561076a5760405162461bcd60e51b815260040161034890610e90565b60068054905f61077983610edd565b9091555050604080516080810182526006548082526020808301858152428486019081525f6060860181815294815260079093529482209351845551600184015592516002830155516003909101805460ff1916911515919091179055600580548392906107e8908490610e46565b9091555050600654604080518381524260208201527f6215b003e186dbc79e3bd07b486dc69758f50dab026e5d485d4a945d5601544791016106a2565b335f9081526009602090815260408083205460089092528220546108499190610da7565b9050808211156108935760405162461bcd60e51b8152602060048201526015602482015274496e73756666696369656e74206561726e696e677360581b6044820152606401610348565b335f90815260096020526040812080548492906108b1908490610e46565b909155505060025460405163a9059cbb60e01b8152336004820152602481018490526001600160a01b039091169063a9059cbb906044016020604051808303815f875af1158015610904573d5f5f3e3d5ffd5b505050506040513d601f19601f820116820180604052508101906109289190610ebe565b506040805183815242602082015233917f90dac969af4a4897610ef8f0cd934c54409861eb7bd2205e552f8f2296ee5d3e91016106a2565b6003546001600160a01b0316331461098a5760405162461bcd60e51b815260040161034890610dc0565b5f82116109a95760405162461bcd60e51b815260040161034890610e59565b6109b1610a49565b8211156109d05760405162461bcd60e51b815260040161034890610e90565b60025460405163a9059cbb60e01b81526001600160a01b038381166004830152602482018590529091169063a9059cbb906044016020604051808303815f875af1158015610a20573d5f5f3e3d5ffd5b505050506040513d601f19601f82011682018060405250810190610a449190610ebe565b505050565b6002546040516370a0823160e01b81523060048201525f916001600160a01b0316906370a0823190602401602060405180830381865afa158015610a8f573d5f5f3e3d5ffd5b505050506040513d601f19601f82011682018060405250810190610ab39190610de5565b905090565b6003546001600160a01b03163314610ae25760405162461bcd60e51b815260040161034890610dc0565b5f8111610b015760405162461bcd60e51b815260040161034890610e59565b8060045f828254610b129190610e46565b9091555050604080518281524260208201527fb20d89f6552ecc9b6927807870a2e0a3ead94efac32d88ca11d3ff17b744aa90910160405180910390a150565b80356001600160a01b0381168114610b68575f5ffd5b919050565b5f60208284031215610b7d575f5ffd5b610b8682610b52565b9392505050565b5f60208284031215610b9d575f5ffd5b5035919050565b634e487b7160e01b5f52604160045260245ffd5b604051601f8201601f1916810167ffffffffffffffff81118282101715610be157610be1610ba4565b604052919050565b5f67ffffffffffffffff821115610c0257610c02610ba4565b5060051b60200190565b5f82601f830112610c1b575f5ffd5b8135610c2e610c2982610be9565b610bb8565b8082825260208201915060208360051b860101925085831115610c4f575f5ffd5b602085015b83811015610c6c578035835260209283019201610c54565b5095945050505050565b5f5f5f60608486031215610c88575f5ffd5b83359250602084013567ffffffffffffffff811115610ca5575f5ffd5b8401601f81018613610cb5575f5ffd5b8035610cc3610c2982610be9565b8082825260208201915060208360051b850101925088831115610ce4575f5ffd5b6020840193505b82841015610d0d57610cfc84610b52565b825260209384019390910190610ceb565b9450505050604084013567ffffffffffffffff811115610d2b575f5ffd5b610d3786828701610c0c565b9150509250925092565b5f5f60408385031215610d52575f5ffd5b82359150610d6260208401610b52565b90509250929050565b5f5f60408385031215610d7c575f5ffd5b610d8583610b52565b946020939093013593505050565b634e487b7160e01b5f52601160045260245ffd5b81810381811115610dba57610dba610d93565b92915050565b6020808252600b908201526a27b7363c9034b9b9bab2b960a91b604082015260600190565b5f60208284031215610df5575f5ffd5b5051919050565b634e487b7160e01b5f52603260045260245ffd5b8082028115828204841417610dba57610dba610d93565b5f82610e4157634e487b7160e01b5f52601260045260245ffd5b500490565b80820180821115610dba57610dba610d93565b60208082526017908201527f416d6f756e74206d75737420626520706f736974697665000000000000000000604082015260600190565b602080825260149082015273496e73756666696369656e742062616c616e636560601b604082015260600190565b5f60208284031215610ece575f5ffd5b81518015158114610b86575f5ffd5b5f60018201610eee57610eee610d93565b506001019056fea26469706673582212209a81fe33e2689bf281515c9a3b05797ce5747b204160c29ad1855466529ce44a64736f6c634300081d0033","opcodes":"PUSH1 0x80 PUSH1 0x40 MSTORE CALLVALUE DUP1 ISZERO PUSH1 0xE JUMPI PUSH0 PUSH0 REVERT JUMPDEST POP PUSH1 0x40 MLOAD PUSH2 0x1003 CODESIZE SUB DUP1 PUSH2 0x1003 DUP4 CODECOPY DUP2 ADD PUSH1 0x40 DUP2 SWAP1 MSTORE PUSH1 0x2B SWAP2 PUSH1 0x92 JUMP JUMPDEST PUSH0 DUP1 SLOAD PUSH1 0x1 PUSH1 0x1 PUSH1 0xA0 SHL SUB SWAP5 DUP6 AND PUSH1 0x1 PUSH1 0x1 PUSH1 0xA0 SHL SUB NOT SWAP2 DUP3 AND OR SWAP1 SWAP2 SSTORE PUSH1 0x1 DUP1 SLOAD SWAP4 DUP6 AND SWAP4 DUP3 AND SWAP4 SWAP1 SWAP4 OR SWAP1 SWAP3 SSTORE PUSH1 0x2 DUP1 SLOAD SWAP2 SWAP1 SWAP4 AND SWAP1 DUP3 AND OR SWAP1 SWAP2 SSTORE PUSH1 0x3 DUP1 SLOAD SWAP1 SWAP2 AND CALLER OR SWAP1 SSTORE PUSH1 0xCB JUMP JUMPDEST DUP1 MLOAD PUSH1 0x1 PUSH1 0x1 PUSH1 0xA0 SHL SUB DUP2 AND DUP2 EQ PUSH1 0x8D JUMPI PUSH0 PUSH0 REVERT JUMPDEST SWAP2 SWAP1 POP JUMP JUMPDEST PUSH0 PUSH0 PUSH0 PUSH1 0x60 DUP5 DUP7 SUB SLT ISZERO PUSH1 0xA3 JUMPI PUSH0 PUSH0 REVERT JUMPDEST PUSH1 0xAA DUP5 PUSH1 0x78 JUMP JUMPDEST SWAP3 POP PUSH1 0xB6 PUSH1 0x20 DUP6 ADD PUSH1 0x78 JUMP JUMPDEST SWAP2 POP PUSH1 0xC2 PUSH1 0x40 DUP6 ADD PUSH1 0x78 JUMP JUMPDEST SWAP1 POP SWAP3 POP SWAP3 POP SWAP3 JUMP JUMPDEST PUSH2 0xF2B DUP1 PUSH2 0xD8 PUSH0 CODECOPY PUSH0 RETURN INVALID PUSH1 0x80 PUSH1 0x40 MSTORE CALLVALUE DUP1 ISZERO PUSH2 0xF JUMPI PUSH0 PUSH0 REVERT JUMPDEST POP PUSH1 0x4 CALLDATASIZE LT PUSH2 0x111 JUMPI PUSH0 CALLDATALOAD PUSH1 0xE0 SHR DUP1 PUSH4 0x88987AAC GT PUSH2 0x9E JUMPI DUP1 PUSH4 0xD811FCF0 GT PUSH2 0x6E JUMPI DUP1 PUSH4 0xD811FCF0 EQ PUSH2 0x29A JUMPI DUP1 PUSH4 0xEFCA2EED EQ PUSH2 0x2AD JUMPI DUP1 PUSH4 0xFEAFDAA7 EQ PUSH2 0x2B6 JUMPI DUP1 PUSH4 0xFF50ABDC EQ PUSH2 0x2BF JUMPI DUP1 PUSH4 0xFF51E702 EQ PUSH2 0x2C8 JUMPI PUSH0 PUSH0 REVERT JUMPDEST DUP1 PUSH4 0x88987AAC EQ PUSH2 0x243 JUMPI DUP1 PUSH4 0x89A30271 EQ PUSH2 0x255 JUMPI DUP1 PUSH4 0xB6B55F25 EQ PUSH2 0x268 JUMPI DUP1 PUSH4 0xC6B7D961 EQ PUSH2 0x27B JUMPI PUSH0 PUSH0 REVERT JUMPDEST DUP1 PUSH4 0x5A40AF8E GT PUSH2 0xE4 JUMPI DUP1 PUSH4 0x5A40AF8E EQ PUSH2 0x1E1 JUMPI DUP1 PUSH4 0x6D0A1CB3 EQ PUSH2 0x1F4 JUMPI DUP1 PUSH4 0x6E70096E EQ PUSH2 0x207 JUMPI DUP1 PUSH4 0x7AD226DC EQ PUSH2 0x21A JUMPI DUP1 PUSH4 0x809DAB6A EQ PUSH2 0x22D JUMPI PUSH0 PUSH0 REVERT JUMPDEST DUP1 PUSH4 0xC8BC60C EQ PUSH2 0x115 JUMPI DUP1 PUSH4 0x1D143848 EQ PUSH2 0x148 JUMPI DUP1 PUSH4 0x4487D3DF EQ PUSH2 0x173 JUMPI DUP1 PUSH4 0x4755FD5D EQ PUSH2 0x1CC JUMPI JUMPDEST PUSH0 PUSH0 REVERT JUMPDEST PUSH2 0x128 PUSH2 0x123 CALLDATASIZE PUSH1 0x4 PUSH2 0xB6D JUMP JUMPDEST PUSH2 0x2E7 JUMP JUMPDEST PUSH1 0x40 DUP1 MLOAD SWAP4 DUP5 MSTORE PUSH1 0x20 DUP5 ADD SWAP3 SWAP1 SWAP3 MSTORE SWAP1 DUP3 ADD MSTORE PUSH1 0x60 ADD JUMPDEST PUSH1 0x40 MLOAD DUP1 SWAP2 SUB SWAP1 RETURN JUMPDEST PUSH1 0x3 SLOAD PUSH2 0x15B SWAP1 PUSH1 0x1 PUSH1 0x1 PUSH1 0xA0 SHL SUB AND DUP2 JUMP JUMPDEST PUSH1 0x40 MLOAD PUSH1 0x1 PUSH1 0x1 PUSH1 0xA0 SHL SUB SWAP1 SWAP2 AND DUP2 MSTORE PUSH1 0x20 ADD PUSH2 0x13F JUMP JUMPDEST PUSH2 0x1AA PUSH2 0x181 CALLDATASIZE PUSH1 0x4 PUSH2 0xB8D JUMP JUMPDEST PUSH1 0x7 PUSH1 0x20 MSTORE PUSH0 SWAP1 DUP2 MSTORE PUSH1 0x40 SWAP1 KECCAK256 DUP1 SLOAD PUSH1 0x1 DUP3 ADD SLOAD PUSH1 0x2 DUP4 ADD SLOAD PUSH1 0x3 SWAP1 SWAP4 ADD SLOAD SWAP2 SWAP3 SWAP1 SWAP2 PUSH1 0xFF AND DUP5 JUMP JUMPDEST PUSH1 0x40 DUP1 MLOAD SWAP5 DUP6 MSTORE PUSH1 0x20 DUP6 ADD SWAP4 SWAP1 SWAP4 MSTORE SWAP2 DUP4 ADD MSTORE ISZERO ISZERO PUSH1 0x60 DUP3 ADD MSTORE PUSH1 0x80 ADD PUSH2 0x13F JUMP JUMPDEST PUSH2 0x1DF PUSH2 0x1DA CALLDATASIZE PUSH1 0x4 PUSH2 0xC76 JUMP JUMPDEST PUSH2 0x31E JUMP JUMPDEST STOP JUMPDEST PUSH2 0x1DF PUSH2 0x1EF CALLDATASIZE PUSH1 0x4 PUSH2 0xD41 JUMP JUMPDEST PUSH2 0x581 JUMP JUMPDEST PUSH2 0x1DF PUSH2 0x202 CALLDATASIZE PUSH1 0x4 PUSH2 0xD6B JUMP JUMPDEST PUSH2 0x6AE JUMP JUMPDEST PUSH2 0x1DF PUSH2 0x215 CALLDATASIZE PUSH1 0x4 PUSH2 0xB8D JUMP JUMPDEST PUSH2 0x825 JUMP JUMPDEST PUSH2 0x1DF PUSH2 0x228 CALLDATASIZE PUSH1 0x4 PUSH2 0xD41 JUMP JUMPDEST PUSH2 0x960 JUMP JUMPDEST PUSH2 0x235 PUSH2 0xA49 JUMP JUMPDEST PUSH1 0x40 MLOAD SWAP1 DUP2 MSTORE PUSH1 0x20 ADD PUSH2 0x13F JUMP JUMPDEST PUSH0 SLOAD PUSH2 0x15B SWAP1 PUSH1 0x1 PUSH1 0x1 PUSH1 0xA0 SHL SUB AND DUP2 JUMP JUMPDEST PUSH1 0x2 SLOAD PUSH2 0x15B SWAP1 PUSH1 0x1 PUSH1 0x1 PUSH1 0xA0 SHL SUB AND DUP2 JUMP JUMPDEST PUSH2 0x1DF PUSH2 0x276 CALLDATASIZE PUSH1 0x4 PUSH2 0xB8D JUMP JUMPDEST PUSH2 0xAB8 JUMP JUMPDEST PUSH2 0x235 PUSH2 0x289 CALLDATASIZE PUSH1 0x4 PUSH2 0xB6D JUMP JUMPDEST PUSH1 0x8 PUSH1 0x20 MSTORE PUSH0 SWAP1 DUP2 MSTORE PUSH1 0x40 SWAP1 KECCAK256 SLOAD DUP2 JUMP JUMPDEST PUSH1 0x1 SLOAD PUSH2 0x15B SWAP1 PUSH1 0x1 PUSH1 0x1 PUSH1 0xA0 SHL SUB AND DUP2 JUMP JUMPDEST PUSH2 0x235 PUSH1 0x5 SLOAD DUP2 JUMP JUMPDEST PUSH2 0x235 PUSH1 0x6 SLOAD DUP2 JUMP JUMPDEST PUSH2 0x235 PUSH1 0x4 SLOAD DUP2 JUMP JUMPDEST PUSH2 0x235 PUSH2 0x2D6 CALLDATASIZE PUSH1 0x4 PUSH2 0xB6D JUMP JUMPDEST PUSH1 0x9 PUSH1 0x20 MSTORE PUSH0 SWAP1 DUP2 MSTORE PUSH1 0x40 SWAP1 KECCAK256 SLOAD DUP2 JUMP JUMPDEST PUSH1 0x1 PUSH1 0x1 PUSH1 0xA0 SHL SUB DUP2 AND PUSH0 SWAP1 DUP2 MSTORE PUSH1 0x8 PUSH1 0x20 SWAP1 DUP2 MSTORE PUSH1 0x40 DUP1 DUP4 KECCAK256 SLOAD PUSH1 0x9 SWAP1 SWAP3 MSTORE DUP3 KECCAK256 SLOAD SWAP1 SWAP2 PUSH2 0x316 DUP3 DUP5 PUSH2 0xDA7 JUMP JUMPDEST SWAP3 SWAP5 SWAP2 SWAP4 POP POP JUMP JUMPDEST PUSH1 0x3 SLOAD PUSH1 0x1 PUSH1 0x1 PUSH1 0xA0 SHL SUB AND CALLER EQ PUSH2 0x351 JUMPI PUSH1 0x40 MLOAD PUSH3 0x461BCD PUSH1 0xE5 SHL DUP2 MSTORE PUSH1 0x4 ADD PUSH2 0x348 SWAP1 PUSH2 0xDC0 JUMP JUMPDEST PUSH1 0x40 MLOAD DUP1 SWAP2 SUB SWAP1 REVERT JUMPDEST DUP1 MLOAD DUP3 MLOAD EQ PUSH2 0x394 JUMPI PUSH1 0x40 MLOAD PUSH3 0x461BCD PUSH1 0xE5 SHL DUP2 MSTORE PUSH1 0x20 PUSH1 0x4 DUP3 ADD MSTORE PUSH1 0xF PUSH1 0x24 DUP3 ADD MSTORE PUSH15 0x98CADCCEE8D040DAD2E6DAC2E8C6D PUSH1 0x8B SHL PUSH1 0x44 DUP3 ADD MSTORE PUSH1 0x64 ADD PUSH2 0x348 JUMP JUMPDEST PUSH0 DUP4 DUP2 MSTORE PUSH1 0x7 PUSH1 0x20 MSTORE PUSH1 0x40 SWAP1 KECCAK256 PUSH1 0x3 DUP2 ADD SLOAD PUSH1 0xFF AND ISZERO PUSH2 0x3EA JUMPI PUSH1 0x40 MLOAD PUSH3 0x461BCD PUSH1 0xE5 SHL DUP2 MSTORE PUSH1 0x20 PUSH1 0x4 DUP3 ADD MSTORE PUSH1 0x11 PUSH1 0x24 DUP3 ADD MSTORE PUSH17 0x105B1C9958591E4818DBDB5C1B195D1959 PUSH1 0x7A SHL PUSH1 0x44 DUP3 ADD MSTORE PUSH1 0x64 ADD PUSH2 0x348 JUMP JUMPDEST PUSH0 PUSH0 PUSH0 SWAP1 SLOAD SWAP1 PUSH2 0x100 EXP SWAP1 DIV PUSH1 0x1 PUSH1 0x1 PUSH1 0xA0 SHL SUB AND PUSH1 0x1 PUSH1 0x1 PUSH1 0xA0 SHL SUB AND PUSH4 0x18160DDD PUSH1 0x40 MLOAD DUP2 PUSH4 0xFFFFFFFF AND PUSH1 0xE0 SHL DUP2 MSTORE PUSH1 0x4 ADD PUSH1 0x20 PUSH1 0x40 MLOAD DUP1 DUP4 SUB DUP2 DUP7 GAS STATICCALL ISZERO DUP1 ISZERO PUSH2 0x43A JUMPI RETURNDATASIZE PUSH0 PUSH0 RETURNDATACOPY RETURNDATASIZE PUSH0 REVERT JUMPDEST POP POP POP POP PUSH1 0x40 MLOAD RETURNDATASIZE PUSH1 0x1F NOT PUSH1 0x1F DUP3 ADD AND DUP3 ADD DUP1 PUSH1 0x40 MSTORE POP DUP2 ADD SWAP1 PUSH2 0x45E SWAP2 SWAP1 PUSH2 0xDE5 JUMP JUMPDEST SWAP1 POP PUSH0 DUP2 GT PUSH2 0x4AF JUMPI PUSH1 0x40 MLOAD PUSH3 0x461BCD PUSH1 0xE5 SHL DUP2 MSTORE PUSH1 0x20 PUSH1 0x4 DUP3 ADD MSTORE PUSH1 0x18 PUSH1 0x24 DUP3 ADD MSTORE PUSH32 0x4E6F20746F6B656E7320696E2063697263756C6174696F6E0000000000000000 PUSH1 0x44 DUP3 ADD MSTORE PUSH1 0x64 ADD PUSH2 0x348 JUMP JUMPDEST PUSH0 JUMPDEST DUP5 MLOAD DUP2 LT ISZERO PUSH2 0x56C JUMPI PUSH0 DUP5 DUP3 DUP2 MLOAD DUP2 LT PUSH2 0x4CD JUMPI PUSH2 0x4CD PUSH2 0xDFC JUMP JUMPDEST PUSH1 0x20 MUL PUSH1 0x20 ADD ADD MLOAD GT ISZERO PUSH2 0x564 JUMPI PUSH0 DUP3 DUP6 DUP4 DUP2 MLOAD DUP2 LT PUSH2 0x4EF JUMPI PUSH2 0x4EF PUSH2 0xDFC JUMP JUMPDEST PUSH1 0x20 MUL PUSH1 0x20 ADD ADD MLOAD DUP6 PUSH1 0x1 ADD SLOAD PUSH2 0x506 SWAP2 SWAP1 PUSH2 0xE10 JUMP JUMPDEST PUSH2 0x510 SWAP2 SWAP1 PUSH2 0xE27 JUMP JUMPDEST SWAP1 POP DUP1 PUSH1 0x8 PUSH0 DUP9 DUP6 DUP2 MLOAD DUP2 LT PUSH2 0x528 JUMPI PUSH2 0x528 PUSH2 0xDFC JUMP JUMPDEST PUSH1 0x20 MUL PUSH1 0x20 ADD ADD MLOAD PUSH1 0x1 PUSH1 0x1 PUSH1 0xA0 SHL SUB AND PUSH1 0x1 PUSH1 0x1 PUSH1 0xA0 SHL SUB AND DUP2 MSTORE PUSH1 0x20 ADD SWAP1 DUP2 MSTORE PUSH1 0x20 ADD PUSH0 KECCAK256 PUSH0 DUP3 DUP3 SLOAD PUSH2 0x55D SWAP2 SWAP1 PUSH2 0xE46 JUMP JUMPDEST SWAP1 SWAP2 SSTORE POP POP POP JUMPDEST PUSH1 0x1 ADD PUSH2 0x4B1 JUMP JUMPDEST POP POP PUSH1 0x3 ADD DUP1 SLOAD PUSH1 0xFF NOT AND PUSH1 0x1 OR SWAP1 SSTORE POP POP POP JUMP JUMPDEST PUSH1 0x3 SLOAD PUSH1 0x1 PUSH1 0x1 PUSH1 0xA0 SHL SUB AND CALLER EQ PUSH2 0x5AB JUMPI PUSH1 0x40 MLOAD PUSH3 0x461BCD PUSH1 0xE5 SHL DUP2 MSTORE PUSH1 0x4 ADD PUSH2 0x348 SWAP1 PUSH2 0xDC0 JUMP JUMPDEST PUSH0 DUP3 GT PUSH2 0x5CA JUMPI PUSH1 0x40 MLOAD PUSH3 0x461BCD PUSH1 0xE5 SHL DUP2 MSTORE PUSH1 0x4 ADD PUSH2 0x348 SWAP1 PUSH2 0xE59 JUMP JUMPDEST PUSH2 0x5D2 PUSH2 0xA49 JUMP JUMPDEST DUP3 GT ISZERO PUSH2 0x5F1 JUMPI PUSH1 0x40 MLOAD PUSH3 0x461BCD PUSH1 0xE5 SHL DUP2 MSTORE PUSH1 0x4 ADD PUSH2 0x348 SWAP1 PUSH2 0xE90 JUMP JUMPDEST PUSH1 0x2 SLOAD PUSH1 0x40 MLOAD PUSH4 0xA9059CBB PUSH1 0xE0 SHL DUP2 MSTORE PUSH1 0x1 PUSH1 0x1 PUSH1 0xA0 SHL SUB DUP4 DUP2 AND PUSH1 0x4 DUP4 ADD MSTORE PUSH1 0x24 DUP3 ADD DUP6 SWAP1 MSTORE SWAP1 SWAP2 AND SWAP1 PUSH4 0xA9059CBB SWAP1 PUSH1 0x44 ADD PUSH1 0x20 PUSH1 0x40 MLOAD DUP1 DUP4 SUB DUP2 PUSH0 DUP8 GAS CALL ISZERO DUP1 ISZERO PUSH2 0x641 JUMPI RETURNDATASIZE PUSH0 PUSH0 RETURNDATACOPY RETURNDATASIZE PUSH0 REVERT JUMPDEST POP POP POP POP PUSH1 0x40 MLOAD RETURNDATASIZE PUSH1 0x1F NOT PUSH1 0x1F DUP3 ADD AND DUP3 ADD DUP1 PUSH1 0x40 MSTORE POP DUP2 ADD SWAP1 PUSH2 0x665 SWAP2 SWAP1 PUSH2 0xEBE JUMP JUMPDEST POP PUSH1 0x40 DUP1 MLOAD DUP4 DUP2 MSTORE TIMESTAMP PUSH1 0x20 DUP3 ADD MSTORE PUSH1 0x1 PUSH1 0x1 PUSH1 0xA0 SHL SUB DUP4 AND SWAP2 PUSH32 0xD4C4F034E6D88080144FB76DBFB71AAB31394358B3639BABEBC2E5CF35C2B766 SWAP2 ADD JUMPDEST PUSH1 0x40 MLOAD DUP1 SWAP2 SUB SWAP1 LOG2 POP POP JUMP JUMPDEST PUSH1 0x3 SLOAD PUSH1 0x1 PUSH1 0x1 PUSH1 0xA0 SHL SUB AND CALLER EQ PUSH2 0x6D8 JUMPI PUSH1 0x40 MLOAD PUSH3 0x461BCD PUSH1 0xE5 SHL DUP2 MSTORE PUSH1 0x4 ADD PUSH2 0x348 SWAP1 PUSH2 0xDC0 JUMP JUMPDEST PUSH0 SLOAD PUSH1 0x1 PUSH1 0x1 PUSH1 0xA0 SHL SUB DUP4 DUP2 AND SWAP2 AND EQ PUSH2 0x724 JUMPI PUSH1 0x40 MLOAD PUSH3 0x461BCD PUSH1 0xE5 SHL DUP2 MSTORE PUSH1 0x20 PUSH1 0x4 DUP3 ADD MSTORE PUSH1 0xD PUSH1 0x24 DUP3 ADD MSTORE PUSH13 0x24B73B30B634B2103A37B5B2B7 PUSH1 0x99 SHL PUSH1 0x44 DUP3 ADD MSTORE PUSH1 0x64 ADD PUSH2 0x348 JUMP JUMPDEST PUSH0 DUP2 GT PUSH2 0x743 JUMPI PUSH1 0x40 MLOAD PUSH3 0x461BCD PUSH1 0xE5 SHL DUP2 MSTORE PUSH1 0x4 ADD PUSH2 0x348 SWAP1 PUSH2 0xE59 JUMP JUMPDEST PUSH2 0x74B PUSH2 0xA49 JUMP JUMPDEST DUP2 GT ISZERO PUSH2 0x76A JUMPI PUSH1 0x40 MLOAD PUSH3 0x461BCD PUSH1 0xE5 SHL DUP2 MSTORE PUSH1 0x4 ADD PUSH2 0x348 SWAP1 PUSH2 0xE90 JUMP JUMPDEST PUSH1 0x6 DUP1 SLOAD SWAP1 PUSH0 PUSH2 0x779 DUP4 PUSH2 0xEDD JUMP JUMPDEST SWAP1 SWAP2 SSTORE POP POP PUSH1 0x40 DUP1 MLOAD PUSH1 0x80 DUP2 ADD DUP3 MSTORE PUSH1 0x6 SLOAD DUP1 DUP3 MSTORE PUSH1 0x20 DUP1 DUP4 ADD DUP6 DUP2 MSTORE TIMESTAMP DUP5 DUP7 ADD SWAP1 DUP2 MSTORE PUSH0 PUSH1 0x60 DUP7 ADD DUP2 DUP2 MSTORE SWAP5 DUP2 MSTORE PUSH1 0x7 SWAP1 SWAP4 MSTORE SWAP5 DUP3 KECCAK256 SWAP4 MLOAD DUP5 SSTORE MLOAD PUSH1 0x1 DUP5 ADD SSTORE SWAP3 MLOAD PUSH1 0x2 DUP4 ADD SSTORE MLOAD PUSH1 0x3 SWAP1 SWAP2 ADD DUP1 SLOAD PUSH1 0xFF NOT AND SWAP2 ISZERO ISZERO SWAP2 SWAP1 SWAP2 OR SWAP1 SSTORE PUSH1 0x5 DUP1 SLOAD DUP4 SWAP3 SWAP1 PUSH2 0x7E8 SWAP1 DUP5 SWAP1 PUSH2 0xE46 JUMP JUMPDEST SWAP1 SWAP2 SSTORE POP POP PUSH1 0x6 SLOAD PUSH1 0x40 DUP1 MLOAD DUP4 DUP2 MSTORE TIMESTAMP PUSH1 0x20 DUP3 ADD MSTORE PUSH32 0x6215B003E186DBC79E3BD07B486DC69758F50DAB026E5D485D4A945D56015447 SWAP2 ADD PUSH2 0x6A2 JUMP JUMPDEST CALLER PUSH0 SWAP1 DUP2 MSTORE PUSH1 0x9 PUSH1 0x20 SWAP1 DUP2 MSTORE PUSH1 0x40 DUP1 DUP4 KECCAK256 SLOAD PUSH1 0x8 SWAP1 SWAP3 MSTORE DUP3 KECCAK256 SLOAD PUSH2 0x849 SWAP2 SWAP1 PUSH2 0xDA7 JUMP JUMPDEST SWAP1 POP DUP1 DUP3 GT ISZERO PUSH2 0x893 JUMPI PUSH1 0x40 MLOAD PUSH3 0x461BCD PUSH1 0xE5 SHL DUP2 MSTORE PUSH1 0x20 PUSH1 0x4 DUP3 ADD MSTORE PUSH1 0x15 PUSH1 0x24 DUP3 ADD MSTORE PUSH21 0x496E73756666696369656E74206561726E696E6773 PUSH1 0x58 SHL PUSH1 0x44 DUP3 ADD MSTORE PUSH1 0x64 ADD PUSH2 0x348 JUMP JUMPDEST CALLER PUSH0 SWAP1 DUP2 MSTORE PUSH1 0x9 PUSH1 0x20 MSTORE PUSH1 0x40 DUP2 KECCAK256 DUP1 SLOAD DUP5 SWAP3 SWAP1 PUSH2 0x8B1 SWAP1 DUP5 SWAP1 PUSH2 0xE46 JUMP JUMPDEST SWAP1 SWAP2 SSTORE POP POP PUSH1 0x2 SLOAD PUSH1 0x40 MLOAD PUSH4 0xA9059CBB PUSH1 0xE0 SHL DUP2 MSTORE CALLER PUSH1 0x4 DUP3 ADD MSTORE PUSH1 0x24 DUP2 ADD DUP5 SWAP1 MSTORE PUSH1 0x1 PUSH1 0x1 PUSH1 0xA0 SHL SUB SWAP1 SWAP2 AND SWAP1 PUSH4 0xA9059CBB SWAP1 PUSH1 0x44 ADD PUSH1 0x20 PUSH1 0x40 MLOAD DUP1 DUP4 SUB DUP2 PUSH0 DUP8 GAS CALL ISZERO DUP1 ISZERO PUSH2 0x904 JUMPI RETURNDATASIZE PUSH0 PUSH0 RETURNDATACOPY RETURNDATASIZE PUSH0 REVERT JUMPDEST POP POP POP POP PUSH1 0x40 MLOAD RETURNDATASIZE PUSH1 0x1F NOT PUSH1 0x1F DUP3 ADD AND DUP3 ADD DUP1 PUSH1 0x40 MSTORE POP DUP2 ADD SWAP1 PUSH2 0x928 SWAP2 SWAP1 PUSH2 0xEBE JUMP JUMPDEST POP PUSH1 0x40 DUP1 MLOAD DUP4 DUP2 MSTORE TIMESTAMP PUSH1 0x20 DUP3 ADD MSTORE CALLER SWAP2 PUSH32 0x90DAC969AF4A4897610EF8F0CD934C54409861EB7BD2205E552F8F2296EE5D3E SWAP2 ADD PUSH2 0x6A2 JUMP JUMPDEST PUSH1 0x3 SLOAD PUSH1 0x1 PUSH1 0x1 PUSH1 0xA0 SHL SUB AND CALLER EQ PUSH2 0x98A JUMPI PUSH1 0x40 MLOAD PUSH3 0x461BCD PUSH1 0xE5 SHL DUP2 MSTORE PUSH1 0x4 ADD PUSH2 0x348 SWAP1 PUSH2 0xDC0 JUMP JUMPDEST PUSH0 DUP3 GT PUSH2 0x9A9 JUMPI PUSH1 0x40 MLOAD PUSH3 0x461BCD PUSH1 0xE5 SHL DUP2 MSTORE PUSH1 0x4 ADD PUSH2 0x348 SWAP1 PUSH2 0xE59 JUMP JUMPDEST PUSH2 0x9B1 PUSH2 0xA49 JUMP JUMPDEST DUP3 GT ISZERO PUSH2 0x9D0 JUMPI PUSH1 0x40 MLOAD PUSH3 0x461BCD PUSH1 0xE5 SHL DUP2 MSTORE PUSH1 0x4 ADD PUSH2 0x348 SWAP1 PUSH2 0xE90 JUMP JUMPDEST PUSH1 0x2 SLOAD PUSH1 0x40 MLOAD PUSH4 0xA9059CBB PUSH1 0xE0 SHL DUP2 MSTORE PUSH1 0x1 PUSH1 0x1 PUSH1 0xA0 SHL SUB DUP4 DUP2 AND PUSH1 0x4 DUP4 ADD MSTORE PUSH1 0x24 DUP3 ADD DUP6 SWAP1 MSTORE SWAP1 SWAP2 AND SWAP1 PUSH4 0xA9059CBB SWAP1 PUSH1 0x44 ADD PUSH1 0x20 PUSH1 0x40 MLOAD DUP1 DUP4 SUB DUP2 PUSH0 DUP8 GAS CALL ISZERO DUP1 ISZERO PUSH2 0xA20 JUMPI RETURNDATASIZE PUSH0 PUSH0 RETURNDATACOPY RETURNDATASIZE PUSH0 REVERT JUMPDEST POP POP POP POP PUSH1 0x40 MLOAD RETURNDATASIZE PUSH1 0x1F NOT PUSH1 0x1F DUP3 ADD AND DUP3 ADD DUP1 PUSH1 0x40 MSTORE POP DUP2 ADD SWAP1 PUSH2 0xA44 SWAP2 SWAP1 PUSH2 0xEBE JUMP JUMPDEST POP POP POP JUMP JUMPDEST PUSH1 0x2 SLOAD PUSH1 0x40 MLOAD PUSH4 0x70A08231 PUSH1 0xE0 SHL DUP2 MSTORE ADDRESS PUSH1 0x4 DUP3 ADD MSTORE PUSH0 SWAP2 PUSH1 0x1 PUSH1 0x1 PUSH1 0xA0 SHL SUB AND SWAP1 PUSH4 0x70A08231 SWAP1 PUSH1 0x24 ADD PUSH1 0x20 PUSH1 0x40 MLOAD DUP1 DUP4 SUB DUP2 DUP7 GAS STATICCALL ISZERO DUP1 ISZERO PUSH2 0xA8F JUMPI RETURNDATASIZE PUSH0 PUSH0 RETURNDATACOPY RETURNDATASIZE PUSH0 REVERT JUMPDEST POP POP POP POP PUSH1 0x40 MLOAD RETURNDATASIZE PUSH1 0x1F NOT PUSH1 0x1F DUP3 ADD AND DUP3 ADD DUP1 PUSH1 0x40 MSTORE POP DUP2 ADD SWAP1 PUSH2 0xAB3 SWAP2 SWAP1 PUSH2 0xDE5 JUMP JUMPDEST SWAP1 POP SWAP1 JUMP JUMPDEST PUSH1 0x3 SLOAD PUSH1 0x1 PUSH1 0x1 PUSH1 0xA0 SHL SUB AND CALLER EQ PUSH2 0xAE2 JUMPI PUSH1 0x40 MLOAD PUSH3 0x461BCD PUSH1 0xE5 SHL DUP2 MSTORE PUSH1 0x4 ADD PUSH2 0x348 SWAP1 PUSH2 0xDC0 JUMP JUMPDEST PUSH0 DUP2 GT PUSH2 0xB01 JUMPI PUSH1 0x40 MLOAD PUSH3 0x461BCD PUSH1 0xE5 SHL DUP2 MSTORE PUSH1 0x4 ADD PUSH2 0x348 SWAP1 PUSH2 0xE59 JUMP JUMPDEST DUP1 PUSH1 0x4 PUSH0 DUP3 DUP3 SLOAD PUSH2 0xB12 SWAP2 SWAP1 PUSH2 0xE46 JUMP JUMPDEST SWAP1 SWAP2 SSTORE POP POP PUSH1 0x40 DUP1 MLOAD DUP3 DUP2 MSTORE TIMESTAMP PUSH1 0x20 DUP3 ADD MSTORE PUSH32 0xB20D89F6552ECC9B6927807870A2E0A3EAD94EFAC32D88CA11D3FF17B744AA90 SWAP2 ADD PUSH1 0x40 MLOAD DUP1 SWAP2 SUB SWAP1 LOG1 POP JUMP JUMPDEST DUP1 CALLDATALOAD PUSH1 0x1 PUSH1 0x1 PUSH1 0xA0 SHL SUB DUP2 AND DUP2 EQ PUSH2 0xB68 JUMPI PUSH0 PUSH0 REVERT JUMPDEST SWAP2 SWAP1 POP JUMP JUMPDEST PUSH0 PUSH1 0x20 DUP3 DUP5 SUB SLT ISZERO PUSH2 0xB7D JUMPI PUSH0 PUSH0 REVERT JUMPDEST PUSH2 0xB86 DUP3 PUSH2 0xB52 JUMP JUMPDEST SWAP4 SWAP3 POP POP POP JUMP JUMPDEST PUSH0 PUSH1 0x20 DUP3 DUP5 SUB SLT ISZERO PUSH2 0xB9D JUMPI PUSH0 PUSH0 REVERT JUMPDEST POP CALLDATALOAD SWAP2 SWAP1 POP JUMP JUMPDEST PUSH4 0x4E487B71 PUSH1 0xE0 SHL PUSH0 MSTORE PUSH1 0x41 PUSH1 0x4 MSTORE PUSH1 0x24 PUSH0 REVERT JUMPDEST PUSH1 0x40 MLOAD PUSH1 0x1F DUP3 ADD PUSH1 0x1F NOT AND DUP2 ADD PUSH8 0xFFFFFFFFFFFFFFFF DUP2 GT DUP3 DUP3 LT OR ISZERO PUSH2 0xBE1 JUMPI PUSH2 0xBE1 PUSH2 0xBA4 JUMP JUMPDEST PUSH1 0x40 MSTORE SWAP2 SWAP1 POP JUMP JUMPDEST PUSH0 PUSH8 0xFFFFFFFFFFFFFFFF DUP3 GT ISZERO PUSH2 0xC02 JUMPI PUSH2 0xC02 PUSH2 0xBA4 JUMP JUMPDEST POP PUSH1 0x5 SHL PUSH1 0x20 ADD SWAP1 JUMP JUMPDEST PUSH0 DUP3 PUSH1 0x1F DUP4 ADD SLT PUSH2 0xC1B JUMPI PUSH0 PUSH0 REVERT JUMPDEST DUP2 CALLDATALOAD PUSH2 0xC2E PUSH2 0xC29 DUP3 PUSH2 0xBE9 JUMP JUMPDEST PUSH2 0xBB8 JUMP JUMPDEST DUP1 DUP3 DUP3 MSTORE PUSH1 0x20 DUP3 ADD SWAP2 POP PUSH1 0x20 DUP4 PUSH1 0x5 SHL DUP7 ADD ADD SWAP3 POP DUP6 DUP4 GT ISZERO PUSH2 0xC4F JUMPI PUSH0 PUSH0 REVERT JUMPDEST PUSH1 0x20 DUP6 ADD JUMPDEST DUP4 DUP2 LT ISZERO PUSH2 0xC6C JUMPI DUP1 CALLDATALOAD DUP4 MSTORE PUSH1 0x20 SWAP3 DUP4 ADD SWAP3 ADD PUSH2 0xC54 JUMP JUMPDEST POP SWAP6 SWAP5 POP POP POP POP POP JUMP JUMPDEST PUSH0 PUSH0 PUSH0 PUSH1 0x60 DUP5 DUP7 SUB SLT ISZERO PUSH2 0xC88 JUMPI PUSH0 PUSH0 REVERT JUMPDEST DUP4 CALLDATALOAD SWAP3 POP PUSH1 0x20 DUP5 ADD CALLDATALOAD PUSH8 0xFFFFFFFFFFFFFFFF DUP2 GT ISZERO PUSH2 0xCA5 JUMPI PUSH0 PUSH0 REVERT JUMPDEST DUP5 ADD PUSH1 0x1F DUP2 ADD DUP7 SGT PUSH2 0xCB5 JUMPI PUSH0 PUSH0 REVERT JUMPDEST DUP1 CALLDATALOAD PUSH2 0xCC3 PUSH2 0xC29 DUP3 PUSH2 0xBE9 JUMP JUMPDEST DUP1 DUP3 DUP3 MSTORE PUSH1 0x20 DUP3 ADD SWAP2 POP PUSH1 0x20 DUP4 PUSH1 0x5 SHL DUP6 ADD ADD SWAP3 POP DUP9 DUP4 GT ISZERO PUSH2 0xCE4 JUMPI PUSH0 PUSH0 REVERT JUMPDEST PUSH1 0x20 DUP5 ADD SWAP4 POP JUMPDEST DUP3 DUP5 LT ISZERO PUSH2 0xD0D JUMPI PUSH2 0xCFC DUP5 PUSH2 0xB52 JUMP JUMPDEST DUP3 MSTORE PUSH1 0x20 SWAP4 DUP5 ADD SWAP4 SWAP1 SWAP2 ADD SWAP1 PUSH2 0xCEB JUMP JUMPDEST SWAP5 POP POP POP POP PUSH1 0x40 DUP5 ADD CALLDATALOAD PUSH8 0xFFFFFFFFFFFFFFFF DUP2 GT ISZERO PUSH2 0xD2B JUMPI PUSH0 PUSH0 REVERT JUMPDEST PUSH2 0xD37 DUP7 DUP3 DUP8 ADD PUSH2 0xC0C JUMP JUMPDEST SWAP2 POP POP SWAP3 POP SWAP3 POP SWAP3 JUMP JUMPDEST PUSH0 PUSH0 PUSH1 0x40 DUP4 DUP6 SUB SLT ISZERO PUSH2 0xD52 JUMPI PUSH0 PUSH0 REVERT JUMPDEST DUP3 CALLDATALOAD SWAP2 POP PUSH2 0xD62 PUSH1 0x20 DUP5 ADD PUSH2 0xB52 JUMP JUMPDEST SWAP1 POP SWAP3 POP SWAP3 SWAP1 POP JUMP JUMPDEST PUSH0 PUSH0 PUSH1 0x40 DUP4 DUP6 SUB SLT ISZERO PUSH2 0xD7C JUMPI PUSH0 PUSH0 REVERT JUMPDEST PUSH2 0xD85 DUP4 PUSH2 0xB52 JUMP JUMPDEST SWAP5 PUSH1 0x20 SWAP4 SWAP1 SWAP4 ADD CALLDATALOAD SWAP4 POP POP POP JUMP JUMPDEST PUSH4 0x4E487B71 PUSH1 0xE0 SHL PUSH0 MSTORE PUSH1 0x11 PUSH1 0x4 MSTORE PUSH1 0x24 PUSH0 REVERT JUMPDEST DUP2 DUP2 SUB DUP2 DUP2 GT ISZERO PUSH2 0xDBA JUMPI PUSH2 0xDBA PUSH2 0xD93 JUMP JUMPDEST SWAP3 SWAP2 POP POP JUMP JUMPDEST PUSH1 0x20 DUP1 DUP3 MSTORE PUSH1 0xB SWAP1 DUP3 ADD MSTORE PUSH11 0x27B7363C9034B9B9BAB2B9 PUSH1 0xA9 SHL PUSH1 0x40 DUP3 ADD MSTORE PUSH1 0x60 ADD SWAP1 JUMP JUMPDEST PUSH0 PUSH1 0x20 DUP3 DUP5 SUB SLT ISZERO PUSH2 0xDF5 JUMPI PUSH0 PUSH0 REVERT JUMPDEST POP MLOAD SWAP2 SWAP1 POP JUMP JUMPDEST PUSH4 0x4E487B71 PUSH1 0xE0 SHL PUSH0 MSTORE PUSH1 0x32 PUSH1 0x4 MSTORE PUSH1 0x24 PUSH0 REVERT JUMPDEST DUP1 DUP3 MUL DUP2 ISZERO DUP3 DUP3 DIV DUP5 EQ OR PUSH2 0xDBA JUMPI PUSH2 0xDBA PUSH2 0xD93 JUMP JUMPDEST PUSH0 DUP3 PUSH2 0xE41 JUMPI PUSH4 0x4E487B71 PUSH1 0xE0 SHL PUSH0 MSTORE PUSH1 0x12 PUSH1 0x4 MSTORE PUSH1 0x24 PUSH0 REVERT JUMPDEST POP DIV SWAP1 JUMP JUMPDEST DUP1 DUP3 ADD DUP1 DUP3 GT ISZERO PUSH2 0xDBA JUMPI PUSH2 0xDBA PUSH2 0xD93 JUMP JUMPDEST PUSH1 0x20 DUP1 DUP3 MSTORE PUSH1 0x17 SWAP1 DUP3 ADD MSTORE PUSH32 0x416D6F756E74206D75737420626520706F736974697665000000000000000000 PUSH1 0x40 DUP3 ADD MSTORE PUSH1 0x60 ADD SWAP1 JUMP JUMPDEST PUSH1 0x20 DUP1 DUP3 MSTORE PUSH1 0x14 SWAP1 DUP3 ADD MSTORE PUSH20 0x496E73756666696369656E742062616C616E6365 PUSH1 0x60 SHL PUSH1 0x40 DUP3 ADD MSTORE PUSH1 0x60 ADD SWAP1 JUMP JUMPDEST PUSH0 PUSH1 0x20 DUP3 DUP5 SUB SLT ISZERO PUSH2 0xECE JUMPI PUSH0 PUSH0 REVERT JUMPDEST DUP2 MLOAD DUP1 ISZERO ISZERO DUP2 EQ PUSH2 0xB86 JUMPI PUSH0 PUSH0 REVERT JUMPDEST PUSH0 PUSH1 0x1 DUP3 ADD PUSH2 0xEEE JUMPI PUSH2 0xEEE PUSH2 0xD93 JUMP JUMPDEST POP PUSH1 0x1 ADD SWAP1 JUMP INVALID LOG2 PUSH5 0x6970667358 0x22 SLT KECCAK256 SWAP11 DUP2 INVALID CALLER 0xE2 PUSH9 0x9BF281515C9A3B0579 PUSH29 0xE5747B204160C29AD1855466529CE44A64736F6C634300081D00330000 "},"methodIdentifiers":{"USDC()":"89a30271","deposit(uint256)":"b6b55f25","distributeRevenue(address,uint256)":"6d0a1cb3","distributeRevenueToHolders(uint256,address[],uint256[])":"4755fd5d","distributionCounter()":"feafdaa7","distributions(uint256)":"4487d3df","farmer()":"d811fcf0","getAvailableBalance()":"809dab6a","getInvestorEarnings(address)":"0c8bc60c","groveToken()":"88987aac","investorEarnings(address)":"c6b7d961","investorWithdrawals(address)":"ff51e702","issuer()":"1d143848","refund(uint256,address)":"7ad226dc","totalDeposited()":"ff50abdc","totalDistributed()":"efca2eed","withdrawEarnings(uint256)":"6e70096e","withdrawFarmerShare(uint256,address)":"5a40af8e"}}}}}