{
  "_format": "hh-sol-artifact-1",
  "contractName": "CoffeeTreeToken",
  "sourceName": "contracts/mantle/tokens/CoffeeTreeToken.sol",
  "abi": [
    {
      "inputs": [
        {
          "internalType": "string",
          "name": "_name",
          "type": "string"
        },
        {
          "internalType": "string",
          "name": "_symbol",
          "type": "string"
        },
        {
          "internalType": "string",
          "name": "_groveName",
          "type": "string"
        },
        {
          "internalType": "string",
          "name": "_location",
          "type": "string"
        },
        {
          "internalType": "string",
          "name": "_coffeeVariety",
          "type": "string"
        },
        {
          "internalType": "uint64",
          "name": "_expectedYield",
          "type": "uint64"
        }
      ],
      "stateMutability": "nonpayable",
      "type": "constructor"
    },
    {
      "inputs": [
        {
          "internalType": "address",
          "name": "spender",
          "type": "address"
        },
        {
          "internalType": "uint256",
          "name": "allowance",
          "type": "uint256"
        },
        {
          "internalType": "uint256",
          "name": "needed",
          "type": "uint256"
        }
      ],
      "name": "ERC20InsufficientAllowance",
      "type": "error"
    },
    {
      "inputs": [
        {
          "internalType": "address",
          "name": "sender",
          "type": "address"
        },
        {
          "internalType": "uint256",
          "name": "balance",
          "type": "uint256"
        },
        {
          "internalType": "uint256",
          "name": "needed",
          "type": "uint256"
        }
      ],
      "name": "ERC20InsufficientBalance",
      "type": "error"
    },
    {
      "inputs": [
        {
          "internalType": "address",
          "name": "approver",
          "type": "address"
        }
      ],
      "name": "ERC20InvalidApprover",
      "type": "error"
    },
    {
      "inputs": [
        {
          "internalType": "address",
          "name": "receiver",
          "type": "address"
        }
      ],
      "name": "ERC20InvalidReceiver",
      "type": "error"
    },
    {
      "inputs": [
        {
          "internalType": "address",
          "name": "sender",
          "type": "address"
        }
      ],
      "name": "ERC20InvalidSender",
      "type": "error"
    },
    {
      "inputs": [
        {
          "internalType": "address",
          "name": "spender",
          "type": "address"
        }
      ],
      "name": "ERC20InvalidSpender",
      "type": "error"
    },
    {
      "inputs": [
        {
          "internalType": "address",
          "name": "owner",
          "type": "address"
        }
      ],
      "name": "OwnableInvalidOwner",
      "type": "error"
    },
    {
      "inputs": [
        {
          "internalType": "address",
          "name": "account",
          "type": "address"
        }
      ],
      "name": "OwnableUnauthorizedAccount",
      "type": "error"
    },
    {
      "anonymous": false,
      "inputs": [
        {
          "indexed": true,
          "internalType": "address",
          "name": "owner",
          "type": "address"
        },
        {
          "indexed": true,
          "internalType": "address",
          "name": "spender",
          "type": "address"
        },
        {
          "indexed": false,
          "internalType": "uint256",
          "name": "value",
          "type": "uint256"
        }
      ],
      "name": "Approval",
      "type": "event"
    },
    {
      "anonymous": false,
      "inputs": [
        {
          "indexed": false,
          "internalType": "string",
          "name": "newPractices",
          "type": "string"
        },
        {
          "indexed": true,
          "internalType": "address",
          "name": "updatedBy",
          "type": "address"
        },
        {
          "indexed": false,
          "internalType": "uint256",
          "name": "timestamp",
          "type": "uint256"
        }
      ],
      "name": "FarmingPracticesUpdated",
      "type": "event"
    },
    {
      "anonymous": false,
      "inputs": [
        {
          "indexed": true,
          "internalType": "address",
          "name": "previousOwner",
          "type": "address"
        },
        {
          "indexed": true,
          "internalType": "address",
          "name": "newOwner",
          "type": "address"
        }
      ],
      "name": "OwnershipTransferred",
      "type": "event"
    },
    {
      "anonymous": false,
      "inputs": [
        {
          "indexed": true,
          "internalType": "address",
          "name": "from",
          "type": "address"
        },
        {
          "indexed": true,
          "internalType": "address",
          "name": "to",
          "type": "address"
        },
        {
          "indexed": false,
          "internalType": "uint256",
          "name": "value",
          "type": "uint256"
        }
      ],
      "name": "Transfer",
      "type": "event"
    },
    {
      "anonymous": false,
      "inputs": [
        {
          "indexed": true,
          "internalType": "uint8",
          "name": "newHealthScore",
          "type": "uint8"
        },
        {
          "indexed": false,
          "internalType": "string",
          "name": "notes",
          "type": "string"
        },
        {
          "indexed": true,
          "internalType": "address",
          "name": "updatedBy",
          "type": "address"
        },
        {
          "indexed": false,
          "internalType": "uint256",
          "name": "timestamp",
          "type": "uint256"
        }
      ],
      "name": "TreeHealthUpdated",
      "type": "event"
    },
    {
      "anonymous": false,
      "inputs": [
        {
          "indexed": false,
          "internalType": "string",
          "name": "field",
          "type": "string"
        },
        {
          "indexed": false,
          "internalType": "string",
          "name": "newValue",
          "type": "string"
        },
        {
          "indexed": true,
          "internalType": "address",
          "name": "updatedBy",
          "type": "address"
        },
        {
          "indexed": false,
          "internalType": "uint256",
          "name": "timestamp",
          "type": "uint256"
        }
      ],
      "name": "TreeMetadataUpdated",
      "type": "event"
    },
    {
      "inputs": [
        {
          "internalType": "address",
          "name": "owner",
          "type": "address"
        },
        {
          "internalType": "address",
          "name": "spender",
          "type": "address"
        }
      ],
      "name": "allowance",
      "outputs": [
        {
          "internalType": "uint256",
          "name": "",
          "type": "uint256"
        }
      ],
      "stateMutability": "view",
      "type": "function"
    },
    {
      "inputs": [
        {
          "internalType": "address",
          "name": "spender",
          "type": "address"
        },
        {
          "internalType": "uint256",
          "name": "value",
          "type": "uint256"
        }
      ],
      "name": "approve",
      "outputs": [
        {
          "internalType": "bool",
          "name": "",
          "type": "bool"
        }
      ],
      "stateMutability": "nonpayable",
      "type": "function"
    },
    {
      "inputs": [
        {
          "internalType": "address",
          "name": "account",
          "type": "address"
        }
      ],
      "name": "balanceOf",
      "outputs": [
        {
          "internalType": "uint256",
          "name": "",
          "type": "uint256"
        }
      ],
      "stateMutability": "view",
      "type": "function"
    },
    {
      "inputs": [
        {
          "internalType": "uint256",
          "name": "amount",
          "type": "uint256"
        }
      ],
      "name": "burn",
      "outputs": [],
      "stateMutability": "nonpayable",
      "type": "function"
    },
    {
      "inputs": [],
      "name": "coffeeVariety",
      "outputs": [
        {
          "internalType": "string",
          "name": "",
          "type": "string"
        }
      ],
      "stateMutability": "view",
      "type": "function"
    },
    {
      "inputs": [],
      "name": "currentHealthScore",
      "outputs": [
        {
          "internalType": "uint8",
          "name": "",
          "type": "uint8"
        }
      ],
      "stateMutability": "view",
      "type": "function"
    },
    {
      "inputs": [],
      "name": "daysSinceLastHealthUpdate",
      "outputs": [
        {
          "internalType": "uint256",
          "name": "",
          "type": "uint256"
        }
      ],
      "stateMutability": "view",
      "type": "function"
    },
    {
      "inputs": [],
      "name": "decimals",
      "outputs": [
        {
          "internalType": "uint8",
          "name": "",
          "type": "uint8"
        }
      ],
      "stateMutability": "view",
      "type": "function"
    },
    {
      "inputs": [],
      "name": "expectedYieldPerSeason",
      "outputs": [
        {
          "internalType": "uint64",
          "name": "",
          "type": "uint64"
        }
      ],
      "stateMutability": "view",
      "type": "function"
    },
    {
      "inputs": [],
      "name": "farmingPractices",
      "outputs": [
        {
          "internalType": "string",
          "name": "",
          "type": "string"
        }
      ],
      "stateMutability": "view",
      "type": "function"
    },
    {
      "inputs": [],
      "name": "getHealthAdjustedYieldProjection",
      "outputs": [
        {
          "internalType": "uint64",
          "name": "",
          "type": "uint64"
        }
      ],
      "stateMutability": "view",
      "type": "function"
    },
    {
      "inputs": [],
      "name": "getHealthHistory",
      "outputs": [
        {
          "components": [
            {
              "internalType": "uint256",
              "name": "updateDate",
              "type": "uint256"
            },
            {
              "internalType": "uint8",
              "name": "healthScore",
              "type": "uint8"
            },
            {
              "internalType": "string",
              "name": "notes",
              "type": "string"
            },
            {
              "internalType": "address",
              "name": "updatedBy",
              "type": "address"
            }
          ],
          "internalType": "struct CoffeeTreeToken.HealthUpdate[]",
          "name": "",
          "type": "tuple[]"
        }
      ],
      "stateMutability": "view",
      "type": "function"
    },
    {
      "inputs": [],
      "name": "getLatestHealthUpdate",
      "outputs": [
        {
          "components": [
            {
              "internalType": "uint256",
              "name": "updateDate",
              "type": "uint256"
            },
            {
              "internalType": "uint8",
              "name": "healthScore",
              "type": "uint8"
            },
            {
              "internalType": "string",
              "name": "notes",
              "type": "string"
            },
            {
              "internalType": "address",
              "name": "updatedBy",
              "type": "address"
            }
          ],
          "internalType": "struct CoffeeTreeToken.HealthUpdate",
          "name": "",
          "type": "tuple"
        }
      ],
      "stateMutability": "view",
      "type": "function"
    },
    {
      "inputs": [],
      "name": "groveName",
      "outputs": [
        {
          "internalType": "string",
          "name": "",
          "type": "string"
        }
      ],
      "stateMutability": "view",
      "type": "function"
    },
    {
      "inputs": [
        {
          "internalType": "uint256",
          "name": "",
          "type": "uint256"
        }
      ],
      "name": "healthHistory",
      "outputs": [
        {
          "internalType": "uint256",
          "name": "updateDate",
          "type": "uint256"
        },
        {
          "internalType": "uint8",
          "name": "healthScore",
          "type": "uint8"
        },
        {
          "internalType": "string",
          "name": "notes",
          "type": "string"
        },
        {
          "internalType": "address",
          "name": "updatedBy",
          "type": "address"
        }
      ],
      "stateMutability": "view",
      "type": "function"
    },
    {
      "inputs": [],
      "name": "lastHealthUpdate",
      "outputs": [
        {
          "internalType": "uint256",
          "name": "",
          "type": "uint256"
        }
      ],
      "stateMutability": "view",
      "type": "function"
    },
    {
      "inputs": [],
      "name": "location",
      "outputs": [
        {
          "internalType": "string",
          "name": "",
          "type": "string"
        }
      ],
      "stateMutability": "view",
      "type": "function"
    },
    {
      "inputs": [
        {
          "internalType": "address",
          "name": "to",
          "type": "address"
        },
        {
          "internalType": "uint256",
          "name": "amount",
          "type": "uint256"
        }
      ],
      "name": "mint",
      "outputs": [],
      "stateMutability": "nonpayable",
      "type": "function"
    },
    {
      "inputs": [],
      "name": "name",
      "outputs": [
        {
          "internalType": "string",
          "name": "",
          "type": "string"
        }
      ],
      "stateMutability": "view",
      "type": "function"
    },
    {
      "inputs": [],
      "name": "needsAttention",
      "outputs": [
        {
          "internalType": "bool",
          "name": "",
          "type": "bool"
        }
      ],
      "stateMutability": "view",
      "type": "function"
    },
    {
      "inputs": [],
      "name": "owner",
      "outputs": [
        {
          "internalType": "address",
          "name": "",
          "type": "address"
        }
      ],
      "stateMutability": "view",
      "type": "function"
    },
    {
      "inputs": [],
      "name": "plantingDate",
      "outputs": [
        {
          "internalType": "uint64",
          "name": "",
          "type": "uint64"
        }
      ],
      "stateMutability": "view",
      "type": "function"
    },
    {
      "inputs": [],
      "name": "renounceOwnership",
      "outputs": [],
      "stateMutability": "nonpayable",
      "type": "function"
    },
    {
      "inputs": [],
      "name": "symbol",
      "outputs": [
        {
          "internalType": "string",
          "name": "",
          "type": "string"
        }
      ],
      "stateMutability": "view",
      "type": "function"
    },
    {
      "inputs": [],
      "name": "totalSupply",
      "outputs": [
        {
          "internalType": "uint256",
          "name": "",
          "type": "uint256"
        }
      ],
      "stateMutability": "view",
      "type": "function"
    },
    {
      "inputs": [
        {
          "internalType": "address",
          "name": "to",
          "type": "address"
        },
        {
          "internalType": "uint256",
          "name": "value",
          "type": "uint256"
        }
      ],
      "name": "transfer",
      "outputs": [
        {
          "internalType": "bool",
          "name": "",
          "type": "bool"
        }
      ],
      "stateMutability": "nonpayable",
      "type": "function"
    },
    {
      "inputs": [
        {
          "internalType": "address",
          "name": "from",
          "type": "address"
        },
        {
          "internalType": "address",
          "name": "to",
          "type": "address"
        },
        {
          "internalType": "uint256",
          "name": "value",
          "type": "uint256"
        }
      ],
      "name": "transferFrom",
      "outputs": [
        {
          "internalType": "bool",
          "name": "",
          "type": "bool"
        }
      ],
      "stateMutability": "nonpayable",
      "type": "function"
    },
    {
      "inputs": [
        {
          "internalType": "address",
          "name": "newOwner",
          "type": "address"
        }
      ],
      "name": "transferOwnership",
      "outputs": [],
      "stateMutability": "nonpayable",
      "type": "function"
    },
    {
      "inputs": [
        {
          "internalType": "uint64",
          "name": "_newExpectedYield",
          "type": "uint64"
        }
      ],
      "name": "updateExpectedYield",
      "outputs": [],
      "stateMutability": "nonpayable",
      "type": "function"
    },
    {
      "inputs": [
        {
          "internalType": "string",
          "name": "_newPractices",
          "type": "string"
        }
      ],
      "name": "updateFarmingPractices",
      "outputs": [],
      "stateMutability": "nonpayable",
      "type": "function"
    },
    {
      "inputs": [
        {
          "internalType": "uint8",
          "name": "_healthScore",
          "type": "uint8"
        },
        {
          "internalType": "string",
          "name": "_notes",
          "type": "string"
        }
      ],
      "name": "updateTreeHealth",
      "outputs": [],
      "stateMutability": "nonpayable",
      "type": "function"
    }
  ],
  "bytecode": "0x608060405234801561000f575f5ffd5b50604051611b8e380380611b8e83398101604081905261002e91610247565b338686600361003d83826103c0565b50600461004a82826103c0565b5050506001600160a01b03811661007a57604051631e4fbdf760e01b81525f600482015260240160405180910390fd5b6100838161013e565b50600661009085826103c0565b50600761009d84826103c0565b5060086100aa83826103c0565b5060098054601960821b60ff60801b19426001600160401b0390811668010000000000000000026001600160801b031990941690861617929092179190911617905560408051808201909152601981527f4f7267616e6963206661726d696e6720707261637469636573000000000000006020820152600a9061012d90826103c0565b505042600b555061047a9350505050565b600580546001600160a01b038381166001600160a01b0319831681179093556040519116919082907f8be0079c531659141344cd1fd0a4f28419497f9722a3daafe3b4186f6b6457e0905f90a35050565b634e487b7160e01b5f52604160045260245ffd5b5f82601f8301126101b2575f5ffd5b81516001600160401b038111156101cb576101cb61018f565b604051601f8201601f19908116603f011681016001600160401b03811182821017156101f9576101f961018f565b604052818152838201602001851015610210575f5ffd5b8160208501602083015e5f918101602001919091529392505050565b80516001600160401b0381168114610242575f5ffd5b919050565b5f5f5f5f5f5f60c0878903121561025c575f5ffd5b86516001600160401b03811115610271575f5ffd5b61027d89828a016101a3565b602089015190975090506001600160401b0381111561029a575f5ffd5b6102a689828a016101a3565b604089015190965090506001600160401b038111156102c3575f5ffd5b6102cf89828a016101a3565b606089015190955090506001600160401b038111156102ec575f5ffd5b6102f889828a016101a3565b608089015190945090506001600160401b03811115610315575f5ffd5b61032189828a016101a3565b92505061033060a0880161022c565b90509295509295509295565b600181811c9082168061035057607f821691505b60208210810361036e57634e487b7160e01b5f52602260045260245ffd5b50919050565b601f8211156103bb57805f5260205f20601f840160051c810160208510156103995750805b601f840160051c820191505b818110156103b8575f81556001016103a5565b50505b505050565b81516001600160401b038111156103d9576103d961018f565b6103ed816103e7845461033c565b84610374565b6020601f82116001811461041f575f83156104085750848201515b5f19600385901b1c1916600184901b1784556103b8565b5f84815260208120601f198516915b8281101561044e578785015182556020948501946001909201910161042e565b508482101561046b57868401515f19600387901b60f8161c191681555b50505050600190811b01905550565b611707806104875f395ff3fe608060405234801561000f575f5ffd5b5060043610610173575f3560e01c806306fdde0314610177578063095ea7b314610195578063145053da146101b857806318160ddd146101cd57806323b872dd146101df578063313ce567146101f257806340c10f191461020757806342966c681461021a57806342a78bb81461022d578063516f279e146102435780636213bca71461024b57806369e08c4f1461027d5780636a6c41bb146102925780636d329988146102a557806370a08231146102ae578063715018a6146102d6578063738b33e6146102de578063776ce7a9146103015780638da5cb5b1461031657806390afeb731461032b57806395d89b4114610333578063a59d93171461033b578063a9059cbb14610343578063af6b60cf14610356578063b95ab51f14610369578063c3f3305b14610371578063ce04327114610379578063dd62ed3e1461038d578063ea9ec928146103a0578063eb9d546c146103b3578063f2fde38b146103bb575b5f5ffd5b61017f6103ce565b60405161018c9190611137565b60405180910390f35b6101a86101a336600461116b565b61045e565b604051901515815260200161018c565b6101cb6101c6366004611193565b610477565b005b6002545b60405190815260200161018c565b6101a86101ed3660046111b9565b61056e565b60125b60405160ff909116815260200161018c565b6101cb61021536600461116b565b610591565b6101cb6102283660046111f3565b6105a7565b6009546046600160801b90910460ff16106101a8565b61017f6105b4565b60095461026590600160401b90046001600160401b031681565b6040516001600160401b03909116815260200161018c565b610285610640565b60405161018c9190611252565b6101cb6102a0366004611301565b6107c7565b6101d1600b5481565b6101d16102bc36600461133a565b6001600160a01b03165f9081526020819052604090205490565b6101cb610871565b6102f16102ec3660046111f3565b610884565b60405161018c9493929190611353565b610309610952565b60405161018c919061138d565b61031e610a6f565b60405161018c91906113f0565b61017f610a7e565b61017f610a8b565b6101d1610a9a565b6101a861035136600461116b565b610aca565b600954610265906001600160401b031681565b61017f610ad7565b61017f610ae4565b6009546101f590600160801b900460ff1681565b6101d161039b366004611404565b610af1565b6101cb6103ae366004611435565b610b1b565b610265610d10565b6101cb6103c936600461133a565b610d3f565b6060600380546103dd90611486565b80601f016020809104026020016040519081016040528092919081815260200182805461040990611486565b80156104545780601f1061042b57610100808354040283529160200191610454565b820191905f5260205f20905b81548152906001019060200180831161043757829003601f168201915b5050505050905090565b5f3361046b818585610d79565b60019150505b92915050565b61047f610d8b565b5f816001600160401b0316116104dc5760405162461bcd60e51b815260206004820152601f60248201527f4578706563746564207969656c64206d75737420626520706f7369746976650060448201526064015b60405180910390fd5b600980546001600160401b0319166001600160401b0383161790556040805160608082526016908201527532bc3832b1ba32b22cb4b2b6322832b929b2b0b9b7b760511b608082015260a0602082018190525f90820152429181019190915233907f14974fd52e3b6cedfe83a63fe05bfc663c45fe63bf37f4a321abc6de35e365119060c0015b60405180910390a250565b5f3361057b858285610dbd565b610586858585610e0e565b506001949350505050565b610599610d8b565b6105a38282610e6b565b5050565b6105b13382610e9f565b50565b600780546105c190611486565b80601f01602080910402602001604051908101604052809291908181526020018280546105ed90611486565b80156106385780601f1061060f57610100808354040283529160200191610638565b820191905f5260205f20905b81548152906001019060200180831161061b57829003601f168201915b505050505081565b61067460405180608001604052805f81526020015f60ff168152602001606081526020015f6001600160a01b031681525090565b600c546106c15760405162461bcd60e51b815260206004820152601b60248201527a4e6f206865616c7468207570646174657320617661696c61626c6560281b60448201526064016104d3565b600c80546106d1906001906114d2565b815481106106e1576106e16114e5565b905f5260205f2090600402016040518060800160405290815f8201548152602001600182015f9054906101000a900460ff1660ff1660ff16815260200160028201805461072d90611486565b80601f016020809104026020016040519081016040528092919081815260200182805461075990611486565b80156107a45780601f1061077b576101008083540402835291602001916107a4565b820191905f5260205f20905b81548152906001019060200180831161078757829003601f168201915b5050509183525050600391909101546001600160a01b0316602090910152919050565b6107cf610d8b565b5f8151116108295760405162461bcd60e51b815260206004820152602160248201527f4661726d696e67207072616374696365732063616e6e6f7420626520656d70746044820152607960f81b60648201526084016104d3565b600a6108358282611544565b50336001600160a01b03167fb14a69ca2215439b8374ee4f4f0401b807b08a7fdda66cc95f0488b892290f2f82426040516105639291906115fe565b610879610d8b565b6108825f610ed3565b565b600c8181548110610893575f80fd5b5f91825260209091206004909102018054600182015460028301805492945060ff90911692916108c290611486565b80601f01602080910402602001604051908101604052809291908181526020018280546108ee90611486565b80156109395780601f1061091057610100808354040283529160200191610939565b820191905f5260205f20905b81548152906001019060200180831161091c57829003601f168201915b505050600390930154919250506001600160a01b031684565b6060600c805480602002602001604051908101604052809291908181526020015f905b82821015610a66575f848152602090819020604080516080810182526004860290920180548352600181015460ff1693830193909352600283018054929392918401916109c190611486565b80601f01602080910402602001604051908101604052809291908181526020018280546109ed90611486565b8015610a385780601f10610a0f57610100808354040283529160200191610a38565b820191905f5260205f20905b815481529060010190602001808311610a1b57829003601f168201915b5050509183525050600391909101546001600160a01b03166020918201529082526001929092019101610975565b50505050905090565b6005546001600160a01b031690565b600680546105c190611486565b6060600480546103dd90611486565b5f600b545f03610aa957505f90565b62015180600b5442610abb91906114d2565b610ac59190611633565b905090565b5f3361046b818585610e0e565b600a80546105c190611486565b600880546105c190611486565b6001600160a01b039182165f90815260016020908152604080832093909416825291909152205490565b610b23610d8b565b60648260ff161115610b745760405162461bcd60e51b815260206004820152601a60248201527904865616c74682073636f7265206d75737420626520302d3130360341b60448201526064016104d3565b5f815111610bbc5760405162461bcd60e51b81526020600482015260156024820152744e6f7465732063616e6e6f7420626520656d70747960581b60448201526064016104d3565b6009805460ff60801b1916600160801b60ff8581169182029290921790925542600b81905560408051608081018252918252602082019384528101848152336060830152600c80546001810182555f9190915282517fdf6966c971051c3d54ec59162606531493a51404a002842f56009d7e5cf4a8c7600490920291820190815594517fdf6966c971051c3d54ec59162606531493a51404a002842f56009d7e5cf4a8c88201805460ff19169190951617909355519092917fdf6966c971051c3d54ec59162606531493a51404a002842f56009d7e5cf4a8c90190610ca19082611544565b5060609190910151600390910180546001600160a01b0319166001600160a01b03909216919091179055604051339060ff8416907f4e978e8d92220b9b03fa8e626d81bf3f9a3c7b14e4ecaba3689569ddfec1f4d590610d0490859042906115fe565b60405180910390a35050565b6009545f90606490610d359060ff600160801b820416906001600160401b0316611646565b610ac5919061166f565b610d47610d8b565b6001600160a01b038116610d70575f604051631e4fbdf760e01b81526004016104d391906113f0565b6105b181610ed3565b610d868383836001610f24565b505050565b33610d94610a6f565b6001600160a01b031614610882573360405163118cdaa760e01b81526004016104d391906113f0565b5f610dc88484610af1565b90505f19811015610e085781811015610dfa57828183604051637dc7a0d960e11b81526004016104d39392919061169d565b610e0884848484035f610f24565b50505050565b6001600160a01b038316610e37575f604051634b637e8f60e11b81526004016104d391906113f0565b6001600160a01b038216610e60575f60405163ec442f0560e01b81526004016104d391906113f0565b610d86838383610ff6565b6001600160a01b038216610e94575f60405163ec442f0560e01b81526004016104d391906113f0565b6105a35f8383610ff6565b6001600160a01b038216610ec8575f604051634b637e8f60e11b81526004016104d391906113f0565b6105a3825f83610ff6565b600580546001600160a01b038381166001600160a01b0319831681179093556040519116919082907f8be0079c531659141344cd1fd0a4f28419497f9722a3daafe3b4186f6b6457e0905f90a35050565b6001600160a01b038416610f4d575f60405163e602df0560e01b81526004016104d391906113f0565b6001600160a01b038316610f76575f604051634a1406b160e11b81526004016104d391906113f0565b6001600160a01b038085165f9081526001602090815260408083209387168352929052208290558015610e0857826001600160a01b0316846001600160a01b03167f8c5be1e5ebec7d5bd14f71427d1e84f3dd0314c0f7b2291e5b200ac8c7c3b92584604051610fe891815260200190565b60405180910390a350505050565b6001600160a01b038316611020578060025f82825461101591906116be565b9091555061107d9050565b6001600160a01b0383165f908152602081905260409020548181101561105f5783818360405163391434e360e21b81526004016104d39392919061169d565b6001600160a01b0384165f9081526020819052604090209082900390555b6001600160a01b038216611099576002805482900390556110b7565b6001600160a01b0382165f9081526020819052604090208054820190555b816001600160a01b0316836001600160a01b03167fddf252ad1be2c89b69c2b068fc378daa952ba7f163c4a11628f55a4df523b3ef836040516110fc91815260200190565b60405180910390a3505050565b5f81518084528060208401602086015e5f602082860101526020601f19601f83011685010191505092915050565b602081525f6111496020830184611109565b9392505050565b80356001600160a01b0381168114611166575f5ffd5b919050565b5f5f6040838503121561117c575f5ffd5b61118583611150565b946020939093013593505050565b5f602082840312156111a3575f5ffd5b81356001600160401b0381168114611149575f5ffd5b5f5f5f606084860312156111cb575f5ffd5b6111d484611150565b92506111e260208501611150565b929592945050506040919091013590565b5f60208284031215611203575f5ffd5b5035919050565b8051825260ff60208201511660208301525f6040820151608060408501526112356080850182611109565b6060938401516001600160a01b0316949093019390935250919050565b602081525f611149602083018461120a565b634e487b7160e01b5f52604160045260245ffd5b5f82601f830112611287575f5ffd5b81356001600160401b038111156112a0576112a0611264565b604051601f8201601f19908116603f011681016001600160401b03811182821017156112ce576112ce611264565b6040528181528382016020018510156112e5575f5ffd5b816020850160208301375f918101602001919091529392505050565b5f60208284031215611311575f5ffd5b81356001600160401b03811115611326575f5ffd5b61133284828501611278565b949350505050565b5f6020828403121561134a575f5ffd5b61114982611150565b84815260ff84166020820152608060408201525f6113746080830185611109565b905060018060a01b038316606083015295945050505050565b5f602082016020835280845180835260408501915060408160051b8601019250602086015f5b828110156113e457603f198786030184526113cf85835161120a565b945060209384019391909101906001016113b3565b50929695505050505050565b6001600160a01b0391909116815260200190565b5f5f60408385031215611415575f5ffd5b61141e83611150565b915061142c60208401611150565b90509250929050565b5f5f60408385031215611446575f5ffd5b823560ff81168114611456575f5ffd5b915060208301356001600160401b03811115611470575f5ffd5b61147c85828601611278565b9150509250929050565b600181811c9082168061149a57607f821691505b6020821081036114b857634e487b7160e01b5f52602260045260245ffd5b50919050565b634e487b7160e01b5f52601160045260245ffd5b81810381811115610471576104716114be565b634e487b7160e01b5f52603260045260245ffd5b601f821115610d8657805f5260205f20601f840160051c8101602085101561151e5750805b601f840160051c820191505b8181101561153d575f815560010161152a565b5050505050565b81516001600160401b0381111561155d5761155d611264565b6115718161156b8454611486565b846114f9565b6020601f8211600181146115a3575f831561158c5750848201515b5f19600385901b1c1916600184901b17845561153d565b5f84815260208120601f198516915b828110156115d257878501518255602094850194600190920191016115b2565b50848210156115ef57868401515f19600387901b60f8161c191681555b50505050600190811b01905550565b604081525f6116106040830185611109565b90508260208301529392505050565b634e487b7160e01b5f52601260045260245ffd5b5f826116415761164161161f565b500490565b6001600160401b038181168382160290811690818114611668576116686114be565b5092915050565b5f6001600160401b038316806116875761168761161f565b6001600160401b03929092169190910492915050565b6001600160a01b039390931683526020830191909152604082015260600190565b80820180821115610471576104716114be56fea264697066735822122088ac7e6e61b5cb0caa07f614e71c6eb675ccd987ce462cba94f91008e1df6e2964736f6c634300081d0033",
  "linkReferences": {},
  "deployedLinkReferences": {}
}