{
  "_format": "hh-sol-artifact-1",
  "contractName": "CoffeeTreeToken",
  "sourceName": "contracts/mantle/tokens/CoffeeTreeToken.sol",
  "abi": [
    {
      "inputs": [
        {
          "internalType": "string",
          "name": "_name",
          "type": "string"
        },
        {
          "internalType": "string",
          "name": "_symbol",
          "type": "string"
        },
        {
          "internalType": "string",
          "name": "_groveName",
          "type": "string"
        },
        {
          "internalType": "string",
          "name": "_location",
          "type": "string"
        },
        {
          "internalType": "string",
          "name": "_coffeeVariety",
          "type": "string"
        },
        {
          "internalType": "uint64",
          "name": "_expectedYield",
          "type": "uint64"
        }
      ],
      "stateMutability": "nonpayable",
      "type": "constructor"
    },
    {
      "inputs": [
        {
          "internalType": "address",
          "name": "spender",
          "type": "address"
        },
        {
          "internalType": "uint256",
          "name": "allowance",
          "type": "uint256"
        },
        {
          "internalType": "uint256",
          "name": "needed",
          "type": "uint256"
        }
      ],
      "name": "ERC20InsufficientAllowance",
      "type": "error"
    },
    {
      "inputs": [
        {
          "internalType": "address",
          "name": "sender",
          "type": "address"
        },
        {
          "internalType": "uint256",
          "name": "balance",
          "type": "uint256"
        },
        {
          "internalType": "uint256",
          "name": "needed",
          "type": "uint256"
        }
      ],
      "name": "ERC20InsufficientBalance",
      "type": "error"
    },
    {
      "inputs": [
        {
          "internalType": "address",
          "name": "approver",
          "type": "address"
        }
      ],
      "name": "ERC20InvalidApprover",
      "type": "error"
    },
    {
      "inputs": [
        {
          "internalType": "address",
          "name": "receiver",
          "type": "address"
        }
      ],
      "name": "ERC20InvalidReceiver",
      "type": "error"
    },
    {
      "inputs": [
        {
          "internalType": "address",
          "name": "sender",
          "type": "address"
        }
      ],
      "name": "ERC20InvalidSender",
      "type": "error"
    },
    {
      "inputs": [
        {
          "internalType": "address",
          "name": "spender",
          "type": "address"
        }
      ],
      "name": "ERC20InvalidSpender",
      "type": "error"
    },
    {
      "inputs": [
        {
          "internalType": "address",
          "name": "owner",
          "type": "address"
        }
      ],
      "name": "OwnableInvalidOwner",
      "type": "error"
    },
    {
      "inputs": [
        {
          "internalType": "address",
          "name": "account",
          "type": "address"
        }
      ],
      "name": "OwnableUnauthorizedAccount",
      "type": "error"
    },
    {
      "anonymous": false,
      "inputs": [
        {
          "indexed": true,
          "internalType": "address",
          "name": "owner",
          "type": "address"
        },
        {
          "indexed": true,
          "internalType": "address",
          "name": "spender",
          "type": "address"
        },
        {
          "indexed": false,
          "internalType": "uint256",
          "name": "value",
          "type": "uint256"
        }
      ],
      "name": "Approval",
      "type": "event"
    },
    {
      "anonymous": false,
      "inputs": [
        {
          "indexed": false,
          "internalType": "string",
          "name": "newPractices",
          "type": "string"
        },
        {
          "indexed": true,
          "internalType": "address",
          "name": "updatedBy",
          "type": "address"
        },
        {
          "indexed": false,
          "internalType": "uint256",
          "name": "timestamp",
          "type": "uint256"
        }
      ],
      "name": "FarmingPracticesUpdated",
      "type": "event"
    },
    {
      "anonymous": false,
      "inputs": [
        {
          "indexed": true,
          "internalType": "address",
          "name": "previousOwner",
          "type": "address"
        },
        {
          "indexed": true,
          "internalType": "address",
          "name": "newOwner",
          "type": "address"
        }
      ],
      "name": "OwnershipTransferred",
      "type": "event"
    },
    {
      "anonymous": false,
      "inputs": [
        {
          "indexed": true,
          "internalType": "address",
          "name": "from",
          "type": "address"
        },
        {
          "indexed": true,
          "internalType": "address",
          "name": "to",
          "type": "address"
        },
        {
          "indexed": false,
          "internalType": "uint256",
          "name": "value",
          "type": "uint256"
        }
      ],
      "name": "Transfer",
      "type": "event"
    },
    {
      "anonymous": false,
      "inputs": [
        {
          "indexed": true,
          "internalType": "uint8",
          "name": "newHealthScore",
          "type": "uint8"
        },
        {
          "indexed": false,
          "internalType": "string",
          "name": "notes",
          "type": "string"
        },
        {
          "indexed": true,
          "internalType": "address",
          "name": "updatedBy",
          "type": "address"
        },
        {
          "indexed": false,
          "internalType": "uint256",
          "name": "timestamp",
          "type": "uint256"
        }
      ],
      "name": "TreeHealthUpdated",
      "type": "event"
    },
    {
      "anonymous": false,
      "inputs": [
        {
          "indexed": false,
          "internalType": "string",
          "name": "field",
          "type": "string"
        },
        {
          "indexed": false,
          "internalType": "string",
          "name": "newValue",
          "type": "string"
        },
        {
          "indexed": true,
          "internalType": "address",
          "name": "updatedBy",
          "type": "address"
        },
        {
          "indexed": false,
          "internalType": "uint256",
          "name": "timestamp",
          "type": "uint256"
        }
      ],
      "name": "TreeMetadataUpdated",
      "type": "event"
    },
    {
      "inputs": [
        {
          "internalType": "address",
          "name": "owner",
          "type": "address"
        },
        {
          "internalType": "address",
          "name": "spender",
          "type": "address"
        }
      ],
      "name": "allowance",
      "outputs": [
        {
          "internalType": "uint256",
          "name": "",
          "type": "uint256"
        }
      ],
      "stateMutability": "view",
      "type": "function"
    },
    {
      "inputs": [
        {
          "internalType": "address",
          "name": "spender",
          "type": "address"
        },
        {
          "internalType": "uint256",
          "name": "value",
          "type": "uint256"
        }
      ],
      "name": "approve",
      "outputs": [
        {
          "internalType": "bool",
          "name": "",
          "type": "bool"
        }
      ],
      "stateMutability": "nonpayable",
      "type": "function"
    },
    {
      "inputs": [
        {
          "internalType": "address",
          "name": "account",
          "type": "address"
        }
      ],
      "name": "balanceOf",
      "outputs": [
        {
          "internalType": "uint256",
          "name": "",
          "type": "uint256"
        }
      ],
      "stateMutability": "view",
      "type": "function"
    },
    {
      "inputs": [
        {
          "internalType": "uint256",
          "name": "amount",
          "type": "uint256"
        }
      ],
      "name": "burn",
      "outputs": [],
      "stateMutability": "nonpayable",
      "type": "function"
    },
    {
      "inputs": [],
      "name": "coffeeVariety",
      "outputs": [
        {
          "internalType": "string",
          "name": "",
          "type": "string"
        }
      ],
      "stateMutability": "view",
      "type": "function"
    },
    {
      "inputs": [],
      "name": "currentHealthScore",
      "outputs": [
        {
          "internalType": "uint8",
          "name": "",
          "type": "uint8"
        }
      ],
      "stateMutability": "view",
      "type": "function"
    },
    {
      "inputs": [],
      "name": "daysSinceLastHealthUpdate",
      "outputs": [
        {
          "internalType": "uint256",
          "name": "",
          "type": "uint256"
        }
      ],
      "stateMutability": "view",
      "type": "function"
    },
    {
      "inputs": [],
      "name": "decimals",
      "outputs": [
        {
          "internalType": "uint8",
          "name": "",
          "type": "uint8"
        }
      ],
      "stateMutability": "view",
      "type": "function"
    },
    {
      "inputs": [],
      "name": "expectedYieldPerSeason",
      "outputs": [
        {
          "internalType": "uint64",
          "name": "",
          "type": "uint64"
        }
      ],
      "stateMutability": "view",
      "type": "function"
    },
    {
      "inputs": [],
      "name": "farmingPractices",
      "outputs": [
        {
          "internalType": "string",
          "name": "",
          "type": "string"
        }
      ],
      "stateMutability": "view",
      "type": "function"
    },
    {
      "inputs": [],
      "name": "getHealthAdjustedYieldProjection",
      "outputs": [
        {
          "internalType": "uint64",
          "name": "",
          "type": "uint64"
        }
      ],
      "stateMutability": "view",
      "type": "function"
    },
    {
      "inputs": [],
      "name": "getHealthHistory",
      "outputs": [
        {
          "components": [
            {
              "internalType": "uint256",
              "name": "updateDate",
              "type": "uint256"
            },
            {
              "internalType": "uint8",
              "name": "healthScore",
              "type": "uint8"
            },
            {
              "internalType": "string",
              "name": "notes",
              "type": "string"
            },
            {
              "internalType": "address",
              "name": "updatedBy",
              "type": "address"
            }
          ],
          "internalType": "struct CoffeeTreeToken.HealthUpdate[]",
          "name": "",
          "type": "tuple[]"
        }
      ],
      "stateMutability": "view",
      "type": "function"
    },
    {
      "inputs": [],
      "name": "getLatestHealthUpdate",
      "outputs": [
        {
          "components": [
            {
              "internalType": "uint256",
              "name": "updateDate",
              "type": "uint256"
            },
            {
              "internalType": "uint8",
              "name": "healthScore",
              "type": "uint8"
            },
            {
              "internalType": "string",
              "name": "notes",
              "type": "string"
            },
            {
              "internalType": "address",
              "name": "updatedBy",
              "type": "address"
            }
          ],
          "internalType": "struct CoffeeTreeToken.HealthUpdate",
          "name": "",
          "type": "tuple"
        }
      ],
      "stateMutability": "view",
      "type": "function"
    },
    {
      "inputs": [],
      "name": "groveName",
      "outputs": [
        {
          "internalType": "string",
          "name": "",
          "type": "string"
        }
      ],
      "stateMutability": "view",
      "type": "function"
    },
    {
      "inputs": [
        {
          "internalType": "uint256",
          "name": "",
          "type": "uint256"
        }
      ],
      "name": "healthHistory",
      "outputs": [
        {
          "internalType": "uint256",
          "name": "updateDate",
          "type": "uint256"
        },
        {
          "internalType": "uint8",
          "name": "healthScore",
          "type": "uint8"
        },
        {
          "internalType": "string",
          "name": "notes",
          "type": "string"
        },
        {
          "internalType": "address",
          "name": "updatedBy",
          "type": "address"
        }
      ],
      "stateMutability": "view",
      "type": "function"
    },
    {
      "inputs": [],
      "name": "lastHealthUpdate",
      "outputs": [
        {
          "internalType": "uint256",
          "name": "",
          "type": "uint256"
        }
      ],
      "stateMutability": "view",
      "type": "function"
    },
    {
      "inputs": [],
      "name": "location",
      "outputs": [
        {
          "internalType": "string",
          "name": "",
          "type": "string"
        }
      ],
      "stateMutability": "view",
      "type": "function"
    },
    {
      "inputs": [
        {
          "internalType": "address",
          "name": "to",
          "type": "address"
        },
        {
          "internalType": "uint256",
          "name": "amount",
          "type": "uint256"
        }
      ],
      "name": "mint",
      "outputs": [],
      "stateMutability": "nonpayable",
      "type": "function"
    },
    {
      "inputs": [],
      "name": "name",
      "outputs": [
        {
          "internalType": "string",
          "name": "",
          "type": "string"
        }
      ],
      "stateMutability": "view",
      "type": "function"
    },
    {
      "inputs": [],
      "name": "needsAttention",
      "outputs": [
        {
          "internalType": "bool",
          "name": "",
          "type": "bool"
        }
      ],
      "stateMutability": "view",
      "type": "function"
    },
    {
      "inputs": [],
      "name": "owner",
      "outputs": [
        {
          "internalType": "address",
          "name": "",
          "type": "address"
        }
      ],
      "stateMutability": "view",
      "type": "function"
    },
    {
      "inputs": [],
      "name": "plantingDate",
      "outputs": [
        {
          "internalType": "uint64",
          "name": "",
          "type": "uint64"
        }
      ],
      "stateMutability": "view",
      "type": "function"
    },
    {
      "inputs": [],
      "name": "renounceOwnership",
      "outputs": [],
      "stateMutability": "nonpayable",
      "type": "function"
    },
    {
      "inputs": [],
      "name": "symbol",
      "outputs": [
        {
          "internalType": "string",
          "name": "",
          "type": "string"
        }
      ],
      "stateMutability": "view",
      "type": "function"
    },
    {
      "inputs": [],
      "name": "totalSupply",
      "outputs": [
        {
          "internalType": "uint256",
          "name": "",
          "type": "uint256"
        }
      ],
      "stateMutability": "view",
      "type": "function"
    },
    {
      "inputs": [
        {
          "internalType": "address",
          "name": "to",
          "type": "address"
        },
        {
          "internalType": "uint256",
          "name": "value",
          "type": "uint256"
        }
      ],
      "name": "transfer",
      "outputs": [
        {
          "internalType": "bool",
          "name": "",
          "type": "bool"
        }
      ],
      "stateMutability": "nonpayable",
      "type": "function"
    },
    {
      "inputs": [
        {
          "internalType": "address",
          "name": "from",
          "type": "address"
        },
        {
          "internalType": "address",
          "name": "to",
          "type": "address"
        },
        {
          "internalType": "uint256",
          "name": "value",
          "type": "uint256"
        }
      ],
      "name": "transferFrom",
      "outputs": [
        {
          "internalType": "bool",
          "name": "",
          "type": "bool"
        }
      ],
      "stateMutability": "nonpayable",
      "type": "function"
    },
    {
      "inputs": [
        {
          "internalType": "address",
          "name": "newOwner",
          "type": "address"
        }
      ],
      "name": "transferOwnership",
      "outputs": [],
      "stateMutability": "nonpayable",
      "type": "function"
    },
    {
      "inputs": [
        {
          "internalType": "uint64",
          "name": "_newExpectedYield",
          "type": "uint64"
        }
      ],
      "name": "updateExpectedYield",
      "outputs": [],
      "stateMutability": "nonpayable",
      "type": "function"
    },
    {
      "inputs": [
        {
          "internalType": "string",
          "name": "_newPractices",
          "type": "string"
        }
      ],
      "name": "updateFarmingPractices",
      "outputs": [],
      "stateMutability": "nonpayable",
      "type": "function"
    },
    {
      "inputs": [
        {
          "internalType": "uint8",
          "name": "_healthScore",
          "type": "uint8"
        },
        {
          "internalType": "string",
          "name": "_notes",
          "type": "string"
        }
      ],
      "name": "updateTreeHealth",
      "outputs": [],
      "stateMutability": "nonpayable",
      "type": "function"
    }
  ],
  "bytecode": "0x608060405234801561000f575f5ffd5b50604051611bf7380380611bf783398101604081905261002e91610247565b338686600361003d83826103c0565b50600461004a82826103c0565b5050506001600160a01b03811661007a57604051631e4fbdf760e01b81525f600482015260240160405180910390fd5b6100838161013e565b50600661009085826103c0565b50600761009d84826103c0565b5060086100aa83826103c0565b5060098054601960821b60ff60801b19426001600160401b0390811668010000000000000000026001600160801b031990941690861617929092179190911617905560408051808201909152601981527f4f7267616e6963206661726d696e6720707261637469636573000000000000006020820152600a9061012d90826103c0565b505042600b555061047a9350505050565b600580546001600160a01b038381166001600160a01b0319831681179093556040519116919082907f8be0079c531659141344cd1fd0a4f28419497f9722a3daafe3b4186f6b6457e0905f90a35050565b634e487b7160e01b5f52604160045260245ffd5b5f82601f8301126101b2575f5ffd5b81516001600160401b038111156101cb576101cb61018f565b604051601f8201601f19908116603f011681016001600160401b03811182821017156101f9576101f961018f565b604052818152838201602001851015610210575f5ffd5b8160208501602083015e5f918101602001919091529392505050565b80516001600160401b0381168114610242575f5ffd5b919050565b5f5f5f5f5f5f60c0878903121561025c575f5ffd5b86516001600160401b03811115610271575f5ffd5b61027d89828a016101a3565b602089015190975090506001600160401b0381111561029a575f5ffd5b6102a689828a016101a3565b604089015190965090506001600160401b038111156102c3575f5ffd5b6102cf89828a016101a3565b606089015190955090506001600160401b038111156102ec575f5ffd5b6102f889828a016101a3565b608089015190945090506001600160401b03811115610315575f5ffd5b61032189828a016101a3565b92505061033060a0880161022c565b90509295509295509295565b600181811c9082168061035057607f821691505b60208210810361036e57634e487b7160e01b5f52602260045260245ffd5b50919050565b601f8211156103bb57805f5260205f20601f840160051c810160208510156103995750805b601f840160051c820191505b818110156103b8575f81556001016103a5565b50505b505050565b81516001600160401b038111156103d9576103d961018f565b6103ed816103e7845461033c565b84610374565b6020601f82116001811461041f575f83156104085750848201515b5f19600385901b1c1916600184901b1784556103b8565b5f84815260208120601f198516915b8281101561044e578785015182556020948501946001909201910161042e565b508482101561046b57868401515f19600387901b60f8161c191681555b50505050600190811b01905550565b611770806104875f395ff3fe608060405234801561000f575f5ffd5b50600436106101dc575f3560e01c8063715018a611610109578063af6b60cf1161009e578063dd62ed3e1161006e578063dd62ed3e14610401578063ea9ec92814610439578063eb9d546c1461044c578063f2fde38b14610454575f5ffd5b8063af6b60cf146103ca578063b95ab51f146103dd578063c3f3305b146103e5578063ce043271146103ed575f5ffd5b806390afeb73116100d957806390afeb731461039f57806395d89b41146103a7578063a59d9317146103af578063a9059cbb146103b7575f5ffd5b8063715018a614610344578063738b33e61461034c578063776ce7a91461036f5780638da5cb5b14610384575f5ffd5b806342966c681161017f57806369e08c4f1161014f57806369e08c4f146102eb5780636a6c41bb146103005780636d3299881461031357806370a082311461031c575f5ffd5b806342966c681461028357806342a78bb814610296578063516f279e146102ac5780636213bca7146102b4575f5ffd5b806318160ddd116101ba57806318160ddd1461023657806323b872dd14610248578063313ce5671461025b57806340c10f1914610270575f5ffd5b806306fdde03146101e0578063095ea7b3146101fe578063145053da14610221575b5f5ffd5b6101e8610467565b6040516101f591906111d6565b60405180910390f35b61021161020c36600461120a565b6104f7565b60405190151581526020016101f5565b61023461022f366004611232565b610510565b005b6002545b6040519081526020016101f5565b610211610256366004611258565b610608565b60125b60405160ff90911681526020016101f5565b61023461027e36600461120a565b61062b565b610234610291366004611292565b610641565b6009546046600160801b90910460ff1610610211565b6101e861064e565b6009546102d3906801000000000000000090046001600160401b031681565b6040516001600160401b0390911681526020016101f5565b6102f36106da565b6040516101f591906112f1565b61023461030e3660046113a0565b610863565b61023a600b5481565b61023a61032a3660046113d9565b6001600160a01b03165f9081526020819052604090205490565b61023461090d565b61035f61035a366004611292565b610920565b6040516101f594939291906113f2565b6103776109ee565b6040516101f5919061142c565b6005546040516001600160a01b0390911681526020016101f5565b6101e8610b0b565b6101e8610b18565b61023a610b27565b6102116103c536600461120a565b610b57565b6009546102d3906001600160401b031681565b6101e8610b64565b6101e8610b71565b60095461025e90600160801b900460ff1681565b61023a61040f36600461148f565b6001600160a01b039182165f90815260016020908152604080832093909416825291909152205490565b6102346104473660046114c0565b610b7e565b6102d3610d76565b6102346104623660046113d9565b610da5565b60606003805461047690611511565b80601f01602080910402602001604051908101604052809291908181526020018280546104a290611511565b80156104ed5780601f106104c4576101008083540402835291602001916104ed565b820191905f5260205f20905b8154815290600101906020018083116104d057829003601f168201915b5050505050905090565b5f33610504818585610ddf565b60019150505b92915050565b610518610df1565b5f816001600160401b0316116105755760405162461bcd60e51b815260206004820152601f60248201527f4578706563746564207969656c64206d75737420626520706f7369746976650060448201526064015b60405180910390fd5b6009805467ffffffffffffffff19166001600160401b0383161790556040805160608082526016908201527532bc3832b1ba32b22cb4b2b6322832b929b2b0b9b7b760511b608082015260a0602082018190525f90820152429181019190915233907f14974fd52e3b6cedfe83a63fe05bfc663c45fe63bf37f4a321abc6de35e365119060c0015b60405180910390a250565b5f33610615858285610e1e565b610620858585610e9a565b506001949350505050565b610633610df1565b61063d8282610ef7565b5050565b61064b3382610f2b565b50565b6007805461065b90611511565b80601f016020809104026020016040519081016040528092919081815260200182805461068790611511565b80156106d25780601f106106a9576101008083540402835291602001916106d2565b820191905f5260205f20905b8154815290600101906020018083116106b557829003601f168201915b505050505081565b61070e60405180608001604052805f81526020015f60ff168152602001606081526020015f6001600160a01b031681525090565b600c5461075d5760405162461bcd60e51b815260206004820152601b60248201527f4e6f206865616c7468207570646174657320617661696c61626c650000000000604482015260640161056c565b600c805461076d9060019061155d565b8154811061077d5761077d611570565b905f5260205f2090600402016040518060800160405290815f8201548152602001600182015f9054906101000a900460ff1660ff1660ff1681526020016002820180546107c990611511565b80601f01602080910402602001604051908101604052809291908181526020018280546107f590611511565b80156108405780601f1061081757610100808354040283529160200191610840565b820191905f5260205f20905b81548152906001019060200180831161082357829003601f168201915b5050509183525050600391909101546001600160a01b0316602090910152919050565b61086b610df1565b5f8151116108c55760405162461bcd60e51b815260206004820152602160248201527f4661726d696e67207072616374696365732063616e6e6f7420626520656d70746044820152607960f81b606482015260840161056c565b600a6108d182826115cf565b50336001600160a01b03167fb14a69ca2215439b8374ee4f4f0401b807b08a7fdda66cc95f0488b892290f2f82426040516105fd929190611689565b610915610df1565b61091e5f610f5f565b565b600c818154811061092f575f80fd5b5f91825260209091206004909102018054600182015460028301805492945060ff909116929161095e90611511565b80601f016020809104026020016040519081016040528092919081815260200182805461098a90611511565b80156109d55780601f106109ac576101008083540402835291602001916109d5565b820191905f5260205f20905b8154815290600101906020018083116109b857829003601f168201915b505050600390930154919250506001600160a01b031684565b6060600c805480602002602001604051908101604052809291908181526020015f905b82821015610b02575f848152602090819020604080516080810182526004860290920180548352600181015460ff169383019390935260028301805492939291840191610a5d90611511565b80601f0160208091040260200160405190810160405280929190818152602001828054610a8990611511565b8015610ad45780601f10610aab57610100808354040283529160200191610ad4565b820191905f5260205f20905b815481529060010190602001808311610ab757829003601f168201915b5050509183525050600391909101546001600160a01b03166020918201529082526001929092019101610a11565b50505050905090565b6006805461065b90611511565b60606004805461047690611511565b5f600b545f03610b3657505f90565b62015180600b5442610b48919061155d565b610b5291906116be565b905090565b5f33610504818585610e9a565b600a805461065b90611511565b6008805461065b90611511565b610b86610df1565b60648260ff161115610bda5760405162461bcd60e51b815260206004820152601a60248201527f4865616c74682073636f7265206d75737420626520302d313030000000000000604482015260640161056c565b5f815111610c225760405162461bcd60e51b81526020600482015260156024820152744e6f7465732063616e6e6f7420626520656d70747960581b604482015260640161056c565b6009805460ff60801b1916600160801b60ff8581169182029290921790925542600b81905560408051608081018252918252602082019384528101848152336060830152600c80546001810182555f9190915282517fdf6966c971051c3d54ec59162606531493a51404a002842f56009d7e5cf4a8c7600490920291820190815594517fdf6966c971051c3d54ec59162606531493a51404a002842f56009d7e5cf4a8c88201805460ff19169190951617909355519092917fdf6966c971051c3d54ec59162606531493a51404a002842f56009d7e5cf4a8c90190610d0790826115cf565b5060609190910151600390910180546001600160a01b0319166001600160a01b03909216919091179055604051339060ff8416907f4e978e8d92220b9b03fa8e626d81bf3f9a3c7b14e4ecaba3689569ddfec1f4d590610d6a9085904290611689565b60405180910390a35050565b6009545f90606490610d9b9060ff600160801b820416906001600160401b03166116d1565b610b5291906116fa565b610dad610df1565b6001600160a01b038116610dd657604051631e4fbdf760e01b81525f600482015260240161056c565b61064b81610f5f565b610dec8383836001610fb0565b505050565b6005546001600160a01b0316331461091e5760405163118cdaa760e01b815233600482015260240161056c565b6001600160a01b038381165f908152600160209081526040808320938616835292905220545f19811015610e945781811015610e8657604051637dc7a0d960e11b81526001600160a01b0384166004820152602481018290526044810183905260640161056c565b610e9484848484035f610fb0565b50505050565b6001600160a01b038316610ec357604051634b637e8f60e11b81525f600482015260240161056c565b6001600160a01b038216610eec5760405163ec442f0560e01b81525f600482015260240161056c565b610dec838383611082565b6001600160a01b038216610f205760405163ec442f0560e01b81525f600482015260240161056c565b61063d5f8383611082565b6001600160a01b038216610f5457604051634b637e8f60e11b81525f600482015260240161056c565b61063d825f83611082565b600580546001600160a01b038381166001600160a01b0319831681179093556040519116919082907f8be0079c531659141344cd1fd0a4f28419497f9722a3daafe3b4186f6b6457e0905f90a35050565b6001600160a01b038416610fd95760405163e602df0560e01b81525f600482015260240161056c565b6001600160a01b03831661100257604051634a1406b160e11b81525f600482015260240161056c565b6001600160a01b038085165f9081526001602090815260408083209387168352929052208290558015610e9457826001600160a01b0316846001600160a01b03167f8c5be1e5ebec7d5bd14f71427d1e84f3dd0314c0f7b2291e5b200ac8c7c3b9258460405161107491815260200190565b60405180910390a350505050565b6001600160a01b0383166110ac578060025f8282546110a19190611727565b9091555061111c9050565b6001600160a01b0383165f90815260208190526040902054818110156110fe5760405163391434e360e21b81526001600160a01b0385166004820152602481018290526044810183905260640161056c565b6001600160a01b0384165f9081526020819052604090209082900390555b6001600160a01b03821661113857600280548290039055611156565b6001600160a01b0382165f9081526020819052604090208054820190555b816001600160a01b0316836001600160a01b03167fddf252ad1be2c89b69c2b068fc378daa952ba7f163c4a11628f55a4df523b3ef8360405161119b91815260200190565b60405180910390a3505050565b5f81518084528060208401602086015e5f602082860101526020601f19601f83011685010191505092915050565b602081525f6111e860208301846111a8565b9392505050565b80356001600160a01b0381168114611205575f5ffd5b919050565b5f5f6040838503121561121b575f5ffd5b611224836111ef565b946020939093013593505050565b5f60208284031215611242575f5ffd5b81356001600160401b03811681146111e8575f5ffd5b5f5f5f6060848603121561126a575f5ffd5b611273846111ef565b9250611281602085016111ef565b929592945050506040919091013590565b5f602082840312156112a2575f5ffd5b5035919050565b8051825260ff60208201511660208301525f6040820151608060408501526112d460808501826111a8565b6060938401516001600160a01b0316949093019390935250919050565b602081525f6111e860208301846112a9565b634e487b7160e01b5f52604160045260245ffd5b5f82601f830112611326575f5ffd5b81356001600160401b0381111561133f5761133f611303565b604051601f8201601f19908116603f011681016001600160401b038111828210171561136d5761136d611303565b604052818152838201602001851015611384575f5ffd5b816020850160208301375f918101602001919091529392505050565b5f602082840312156113b0575f5ffd5b81356001600160401b038111156113c5575f5ffd5b6113d184828501611317565b949350505050565b5f602082840312156113e9575f5ffd5b6111e8826111ef565b84815260ff84166020820152608060408201525f61141360808301856111a8565b905060018060a01b038316606083015295945050505050565b5f602082016020835280845180835260408501915060408160051b8601019250602086015f5b8281101561148357603f1987860301845261146e8583516112a9565b94506020938401939190910190600101611452565b50929695505050505050565b5f5f604083850312156114a0575f5ffd5b6114a9836111ef565b91506114b7602084016111ef565b90509250929050565b5f5f604083850312156114d1575f5ffd5b823560ff811681146114e1575f5ffd5b915060208301356001600160401b038111156114fb575f5ffd5b61150785828601611317565b9150509250929050565b600181811c9082168061152557607f821691505b60208210810361154357634e487b7160e01b5f52602260045260245ffd5b50919050565b634e487b7160e01b5f52601160045260245ffd5b8181038181111561050a5761050a611549565b634e487b7160e01b5f52603260045260245ffd5b601f821115610dec57805f5260205f20601f840160051c810160208510156115a95750805b601f840160051c820191505b818110156115c8575f81556001016115b5565b5050505050565b81516001600160401b038111156115e8576115e8611303565b6115fc816115f68454611511565b84611584565b6020601f82116001811461162e575f83156116175750848201515b5f19600385901b1c1916600184901b1784556115c8565b5f84815260208120601f198516915b8281101561165d578785015182556020948501946001909201910161163d565b508482101561167a57868401515f19600387901b60f8161c191681555b50505050600190811b01905550565b604081525f61169b60408301856111a8565b90508260208301529392505050565b634e487b7160e01b5f52601260045260245ffd5b5f826116cc576116cc6116aa565b500490565b6001600160401b0381811683821602908116908181146116f3576116f3611549565b5092915050565b5f6001600160401b03831680611712576117126116aa565b806001600160401b0384160491505092915050565b8082018082111561050a5761050a61154956fea264697066735822122065b5bd541291e6b0d06371097d710214467e62e0dc0d5a62d43e041c76c30b4864736f6c634300081d0033",
  "linkReferences": {},
  "deployedLinkReferences": {}
}