{
  "_format": "hh-sol-artifact-1",
  "contractName": "CoffeeRevenueReserve",
  "sourceName": "contracts/mantle/CoffeeRevenueReserve.sol",
  "abi": [
    {
      "inputs": [
        {
          "internalType": "address",
          "name": "_groveToken",
          "type": "address"
        },
        {
          "internalType": "address",
          "name": "_farmer",
          "type": "address"
        },
        {
          "internalType": "address",
          "name": "_usdc",
          "type": "address"
        }
      ],
      "stateMutability": "nonpayable",
      "type": "constructor"
    },
    {
      "anonymous": false,
      "inputs": [
        {
          "indexed": true,
          "internalType": "address",
          "name": "farmer",
          "type": "address"
        },
        {
          "indexed": false,
          "internalType": "uint256",
          "name": "amount",
          "type": "uint256"
        }
      ],
      "name": "FarmerShareWithdrawn",
      "type": "event"
    },
    {
      "anonymous": false,
      "inputs": [
        {
          "indexed": false,
          "internalType": "uint256",
          "name": "amount",
          "type": "uint256"
        },
        {
          "indexed": false,
          "internalType": "uint256",
          "name": "timestamp",
          "type": "uint256"
        }
      ],
      "name": "RevenueDeposited",
      "type": "event"
    },
    {
      "anonymous": false,
      "inputs": [
        {
          "indexed": true,
          "internalType": "address",
          "name": "token",
          "type": "address"
        },
        {
          "indexed": false,
          "internalType": "uint256",
          "name": "amount",
          "type": "uint256"
        }
      ],
      "name": "RevenueDistributed",
      "type": "event"
    },
    {
      "inputs": [
        {
          "internalType": "uint256",
          "name": "_amount",
          "type": "uint256"
        }
      ],
      "name": "deposit",
      "outputs": [],
      "stateMutability": "nonpayable",
      "type": "function"
    },
    {
      "inputs": [
        {
          "internalType": "address",
          "name": "_token",
          "type": "address"
        },
        {
          "internalType": "uint256",
          "name": "_amount",
          "type": "uint256"
        }
      ],
      "name": "distributeRevenue",
      "outputs": [],
      "stateMutability": "nonpayable",
      "type": "function"
    },
    {
      "inputs": [],
      "name": "farmer",
      "outputs": [
        {
          "internalType": "address",
          "name": "",
          "type": "address"
        }
      ],
      "stateMutability": "view",
      "type": "function"
    },
    {
      "inputs": [],
      "name": "getBalance",
      "outputs": [
        {
          "internalType": "uint256",
          "name": "",
          "type": "uint256"
        }
      ],
      "stateMutability": "view",
      "type": "function"
    },
    {
      "inputs": [],
      "name": "groveToken",
      "outputs": [
        {
          "internalType": "address",
          "name": "",
          "type": "address"
        }
      ],
      "stateMutability": "view",
      "type": "function"
    },
    {
      "inputs": [],
      "name": "totalDeposited",
      "outputs": [
        {
          "internalType": "uint256",
          "name": "",
          "type": "uint256"
        }
      ],
      "stateMutability": "view",
      "type": "function"
    },
    {
      "inputs": [],
      "name": "totalDistributed",
      "outputs": [
        {
          "internalType": "uint256",
          "name": "",
          "type": "uint256"
        }
      ],
      "stateMutability": "view",
      "type": "function"
    },
    {
      "inputs": [],
      "name": "usdc",
      "outputs": [
        {
          "internalType": "address",
          "name": "",
          "type": "address"
        }
      ],
      "stateMutability": "view",
      "type": "function"
    },
    {
      "inputs": [
        {
          "internalType": "uint256",
          "name": "_amount",
          "type": "uint256"
        },
        {
          "internalType": "address",
          "name": "_recipient",
          "type": "address"
        }
      ],
      "name": "withdrawFarmerShare",
      "outputs": [],
      "stateMutability": "nonpayable",
      "type": "function"
    }
  ],
  "bytecode": "0x6080604052348015600e575f5ffd5b506040516106d83803806106d8833981016040819052602b916085565b5f80546001600160a01b039485166001600160a01b03199182161790915560018054938516938216939093179092556002805491909316911617905560be565b80516001600160a01b03811681146080575f5ffd5b919050565b5f5f5f606084860312156096575f5ffd5b609d84606b565b925060a960208501606b565b915060b560408501606b565b90509250925092565b61060d806100cb5f395ff3fe608060405234801561000f575f5ffd5b5060043610610081575f3560e01c806312065fe0146100855780633e413bee146100a05780635a40af8e146100c05780636d0a1cb3146100d557806388987aac146100e8578063b6b55f25146100fa578063d811fcf01461010d578063efca2eed14610120578063ff50abdc14610129575b5f5ffd5b61008d610132565b6040519081526020015b60405180910390f35b6002546100b3906001600160a01b031681565b60405161009791906104b1565b6100d36100ce3660046104e0565b6101a6565b005b6100d36100e336600461050a565b610385565b5f546100b3906001600160a01b031681565b6100d3610108366004610532565b610441565b6001546100b3906001600160a01b031681565b61008d60045481565b61008d60035481565b6002546040516370a0823160e01b81525f916001600160a01b0316906370a08231906101629030906004016104b1565b602060405180830381865afa15801561017d573d5f5f3e3d5ffd5b505050506040513d601f19601f820116820180604052508101906101a19190610549565b905090565b6001546001600160a01b038281169116146101f65760405162461bcd60e51b815260206004820152600b60248201526a27b7363c903330b936b2b960a91b60448201526064015b60405180910390fd5b5f82116102155760405162461bcd60e51b81526004016101ed90610560565b6002546040516370a0823160e01b815283916001600160a01b0316906370a08231906102459030906004016104b1565b602060405180830381865afa158015610260573d5f5f3e3d5ffd5b505050506040513d601f19601f820116820180604052508101906102849190610549565b10156102c95760405162461bcd60e51b8152602060048201526014602482015273496e73756666696369656e742062616c616e636560601b60448201526064016101ed565b60025460405163a9059cbb60e01b81526001600160a01b038381166004830152602482018590529091169063a9059cbb906044016020604051808303815f875af1158015610319573d5f5f3e3d5ffd5b505050506040513d601f19601f8201168201806040525081019061033d919061058c565b50806001600160a01b03167f5803efca4c862dc35b8d299a0c6732e786a7316c568f9a078aa5b80e42e366aa8360405161037991815260200190565b60405180910390a25050565b5f546001600160a01b038381169116146103d15760405162461bcd60e51b815260206004820152600d60248201526c24b73b30b634b2103a37b5b2b760991b60448201526064016101ed565b5f81116103f05760405162461bcd60e51b81526004016101ed90610560565b8060045f82825461040191906105b2565b90915550506040518181526001600160a01b038316907f8d41c8766c1135ba5f49e1a78778e75075121c93494fcd59d27c505d9814223790602001610379565b5f81116104605760405162461bcd60e51b81526004016101ed90610560565b8060035f82825461047191906105b2565b9091555050604080518281524260208201527fb20d89f6552ecc9b6927807870a2e0a3ead94efac32d88ca11d3ff17b744aa90910160405180910390a150565b6001600160a01b0391909116815260200190565b80356001600160a01b03811681146104db575f5ffd5b919050565b5f5f604083850312156104f1575f5ffd5b82359150610501602084016104c5565b90509250929050565b5f5f6040838503121561051b575f5ffd5b610524836104c5565b946020939093013593505050565b5f60208284031215610542575f5ffd5b5035919050565b5f60208284031215610559575f5ffd5b5051919050565b6020808252601290820152710416d6f756e74206d757374206265203e20360741b604082015260600190565b5f6020828403121561059c575f5ffd5b815180151581146105ab575f5ffd5b9392505050565b808201808211156105d157634e487b7160e01b5f52601160045260245ffd5b9291505056fea26469706673582212204904cd0a81261521aebf27e2e020f0d60073cd0aa66b8f28d21e89d98102da9c64736f6c634300081d0033",
  "linkReferences": {},
  "deployedLinkReferences": {}
}