{
  "_format": "hh-sol-artifact-1",
  "contractName": "CoffeeRevenueReserve",
  "sourceName": "contracts/mantle/CoffeeRevenueReserve.sol",
  "abi": [
    {
      "inputs": [
        {
          "internalType": "address",
          "name": "_groveToken",
          "type": "address"
        },
        {
          "internalType": "address",
          "name": "_farmer",
          "type": "address"
        },
        {
          "internalType": "address",
          "name": "_usdc",
          "type": "address"
        }
      ],
      "stateMutability": "nonpayable",
      "type": "constructor"
    },
    {
      "anonymous": false,
      "inputs": [
        {
          "indexed": true,
          "internalType": "address",
          "name": "investor",
          "type": "address"
        },
        {
          "indexed": false,
          "internalType": "uint256",
          "name": "amount",
          "type": "uint256"
        },
        {
          "indexed": false,
          "internalType": "uint256",
          "name": "timestamp",
          "type": "uint256"
        }
      ],
      "name": "EarningsWithdrawn",
      "type": "event"
    },
    {
      "anonymous": false,
      "inputs": [
        {
          "indexed": true,
          "internalType": "address",
          "name": "farmer",
          "type": "address"
        },
        {
          "indexed": false,
          "internalType": "uint256",
          "name": "amount",
          "type": "uint256"
        },
        {
          "indexed": false,
          "internalType": "uint256",
          "name": "timestamp",
          "type": "uint256"
        }
      ],
      "name": "FarmerShareWithdrawn",
      "type": "event"
    },
    {
      "anonymous": false,
      "inputs": [
        {
          "indexed": false,
          "internalType": "uint256",
          "name": "amount",
          "type": "uint256"
        },
        {
          "indexed": false,
          "internalType": "uint256",
          "name": "timestamp",
          "type": "uint256"
        }
      ],
      "name": "RevenueDeposited",
      "type": "event"
    },
    {
      "anonymous": false,
      "inputs": [
        {
          "indexed": true,
          "internalType": "uint256",
          "name": "distributionId",
          "type": "uint256"
        },
        {
          "indexed": false,
          "internalType": "uint256",
          "name": "totalAmount",
          "type": "uint256"
        },
        {
          "indexed": false,
          "internalType": "uint256",
          "name": "timestamp",
          "type": "uint256"
        }
      ],
      "name": "RevenueDistributed",
      "type": "event"
    },
    {
      "inputs": [],
      "name": "USDC",
      "outputs": [
        {
          "internalType": "address",
          "name": "",
          "type": "address"
        }
      ],
      "stateMutability": "view",
      "type": "function"
    },
    {
      "inputs": [
        {
          "internalType": "uint256",
          "name": "_amount",
          "type": "uint256"
        }
      ],
      "name": "deposit",
      "outputs": [],
      "stateMutability": "nonpayable",
      "type": "function"
    },
    {
      "inputs": [
        {
          "internalType": "address",
          "name": "_token",
          "type": "address"
        },
        {
          "internalType": "uint256",
          "name": "_amount",
          "type": "uint256"
        }
      ],
      "name": "distributeRevenue",
      "outputs": [],
      "stateMutability": "nonpayable",
      "type": "function"
    },
    {
      "inputs": [
        {
          "internalType": "uint256",
          "name": "_distributionId",
          "type": "uint256"
        },
        {
          "internalType": "address[]",
          "name": "_holders",
          "type": "address[]"
        },
        {
          "internalType": "uint256[]",
          "name": "_balances",
          "type": "uint256[]"
        }
      ],
      "name": "distributeRevenueToHolders",
      "outputs": [],
      "stateMutability": "nonpayable",
      "type": "function"
    },
    {
      "inputs": [],
      "name": "distributionCounter",
      "outputs": [
        {
          "internalType": "uint256",
          "name": "",
          "type": "uint256"
        }
      ],
      "stateMutability": "view",
      "type": "function"
    },
    {
      "inputs": [
        {
          "internalType": "uint256",
          "name": "",
          "type": "uint256"
        }
      ],
      "name": "distributions",
      "outputs": [
        {
          "internalType": "uint256",
          "name": "distributionId",
          "type": "uint256"
        },
        {
          "internalType": "uint256",
          "name": "totalAmount",
          "type": "uint256"
        },
        {
          "internalType": "uint256",
          "name": "timestamp",
          "type": "uint256"
        },
        {
          "internalType": "bool",
          "name": "completed",
          "type": "bool"
        }
      ],
      "stateMutability": "view",
      "type": "function"
    },
    {
      "inputs": [],
      "name": "farmer",
      "outputs": [
        {
          "internalType": "address",
          "name": "",
          "type": "address"
        }
      ],
      "stateMutability": "view",
      "type": "function"
    },
    {
      "inputs": [],
      "name": "getAvailableBalance",
      "outputs": [
        {
          "internalType": "uint256",
          "name": "",
          "type": "uint256"
        }
      ],
      "stateMutability": "view",
      "type": "function"
    },
    {
      "inputs": [
        {
          "internalType": "address",
          "name": "_investor",
          "type": "address"
        }
      ],
      "name": "getInvestorEarnings",
      "outputs": [
        {
          "internalType": "uint256",
          "name": "totalEarned",
          "type": "uint256"
        },
        {
          "internalType": "uint256",
          "name": "totalWithdrawn",
          "type": "uint256"
        },
        {
          "internalType": "uint256",
          "name": "available",
          "type": "uint256"
        }
      ],
      "stateMutability": "view",
      "type": "function"
    },
    {
      "inputs": [],
      "name": "groveToken",
      "outputs": [
        {
          "internalType": "address",
          "name": "",
          "type": "address"
        }
      ],
      "stateMutability": "view",
      "type": "function"
    },
    {
      "inputs": [
        {
          "internalType": "address",
          "name": "",
          "type": "address"
        }
      ],
      "name": "investorEarnings",
      "outputs": [
        {
          "internalType": "uint256",
          "name": "",
          "type": "uint256"
        }
      ],
      "stateMutability": "view",
      "type": "function"
    },
    {
      "inputs": [
        {
          "internalType": "address",
          "name": "",
          "type": "address"
        }
      ],
      "name": "investorWithdrawals",
      "outputs": [
        {
          "internalType": "uint256",
          "name": "",
          "type": "uint256"
        }
      ],
      "stateMutability": "view",
      "type": "function"
    },
    {
      "inputs": [],
      "name": "issuer",
      "outputs": [
        {
          "internalType": "address",
          "name": "",
          "type": "address"
        }
      ],
      "stateMutability": "view",
      "type": "function"
    },
    {
      "inputs": [
        {
          "internalType": "uint256",
          "name": "_amount",
          "type": "uint256"
        },
        {
          "internalType": "address",
          "name": "_recipient",
          "type": "address"
        }
      ],
      "name": "refund",
      "outputs": [],
      "stateMutability": "nonpayable",
      "type": "function"
    },
    {
      "inputs": [],
      "name": "totalDeposited",
      "outputs": [
        {
          "internalType": "uint256",
          "name": "",
          "type": "uint256"
        }
      ],
      "stateMutability": "view",
      "type": "function"
    },
    {
      "inputs": [],
      "name": "totalDistributed",
      "outputs": [
        {
          "internalType": "uint256",
          "name": "",
          "type": "uint256"
        }
      ],
      "stateMutability": "view",
      "type": "function"
    },
    {
      "inputs": [
        {
          "internalType": "uint256",
          "name": "_amount",
          "type": "uint256"
        }
      ],
      "name": "withdrawEarnings",
      "outputs": [],
      "stateMutability": "nonpayable",
      "type": "function"
    },
    {
      "inputs": [
        {
          "internalType": "uint256",
          "name": "_amount",
          "type": "uint256"
        },
        {
          "internalType": "address",
          "name": "_recipient",
          "type": "address"
        }
      ],
      "name": "withdrawFarmerShare",
      "outputs": [],
      "stateMutability": "nonpayable",
      "type": "function"
    }
  ],
  "bytecode": "0x6080604052348015600e575f5ffd5b50604051611003380380611003833981016040819052602b916092565b5f80546001600160a01b039485166001600160a01b0319918216179091556001805493851693821693909317909255600280549190931690821617909155600380549091163317905560cb565b80516001600160a01b0381168114608d575f5ffd5b919050565b5f5f5f6060848603121560a3575f5ffd5b60aa846078565b925060b6602085016078565b915060c2604085016078565b90509250925092565b610f2b806100d85f395ff3fe608060405234801561000f575f5ffd5b5060043610610111575f3560e01c806388987aac1161009e578063d811fcf01161006e578063d811fcf01461029a578063efca2eed146102ad578063feafdaa7146102b6578063ff50abdc146102bf578063ff51e702146102c8575f5ffd5b806388987aac1461024357806389a3027114610255578063b6b55f2514610268578063c6b7d9611461027b575f5ffd5b80635a40af8e116100e45780635a40af8e146101e15780636d0a1cb3146101f45780636e70096e146102075780637ad226dc1461021a578063809dab6a1461022d575f5ffd5b80630c8bc60c146101155780631d143848146101485780634487d3df146101735780634755fd5d146101cc575b5f5ffd5b610128610123366004610b6d565b6102e7565b604080519384526020840192909252908201526060015b60405180910390f35b60035461015b906001600160a01b031681565b6040516001600160a01b03909116815260200161013f565b6101aa610181366004610b8d565b60076020525f908152604090208054600182015460028301546003909301549192909160ff1684565b604080519485526020850193909352918301521515606082015260800161013f565b6101df6101da366004610c76565b61031e565b005b6101df6101ef366004610d41565b610581565b6101df610202366004610d6b565b6106ae565b6101df610215366004610b8d565b610825565b6101df610228366004610d41565b610960565b610235610a49565b60405190815260200161013f565b5f5461015b906001600160a01b031681565b60025461015b906001600160a01b031681565b6101df610276366004610b8d565b610ab8565b610235610289366004610b6d565b60086020525f908152604090205481565b60015461015b906001600160a01b031681565b61023560055481565b61023560065481565b61023560045481565b6102356102d6366004610b6d565b60096020525f908152604090205481565b6001600160a01b0381165f90815260086020908152604080832054600990925282205490916103168284610da7565b929491935050565b6003546001600160a01b031633146103515760405162461bcd60e51b815260040161034890610dc0565b60405180910390fd5b80518251146103945760405162461bcd60e51b815260206004820152600f60248201526e098cadccee8d040dad2e6dac2e8c6d608b1b6044820152606401610348565b5f838152600760205260409020600381015460ff16156103ea5760405162461bcd60e51b8152602060048201526011602482015270105b1c9958591e4818dbdb5c1b195d1959607a1b6044820152606401610348565b5f5f5f9054906101000a90046001600160a01b03166001600160a01b03166318160ddd6040518163ffffffff1660e01b8152600401602060405180830381865afa15801561043a573d5f5f3e3d5ffd5b505050506040513d601f19601f8201168201806040525081019061045e9190610de5565b90505f81116104af5760405162461bcd60e51b815260206004820152601860248201527f4e6f20746f6b656e7320696e2063697263756c6174696f6e00000000000000006044820152606401610348565b5f5b845181101561056c575f8482815181106104cd576104cd610dfc565b60200260200101511115610564575f828583815181106104ef576104ef610dfc565b602002602001015185600101546105069190610e10565b6105109190610e27565b90508060085f88858151811061052857610528610dfc565b60200260200101516001600160a01b03166001600160a01b031681526020019081526020015f205f82825461055d9190610e46565b9091555050505b6001016104b1565b5050600301805460ff19166001179055505050565b6003546001600160a01b031633146105ab5760405162461bcd60e51b815260040161034890610dc0565b5f82116105ca5760405162461bcd60e51b815260040161034890610e59565b6105d2610a49565b8211156105f15760405162461bcd60e51b815260040161034890610e90565b60025460405163a9059cbb60e01b81526001600160a01b038381166004830152602482018590529091169063a9059cbb906044016020604051808303815f875af1158015610641573d5f5f3e3d5ffd5b505050506040513d601f19601f820116820180604052508101906106659190610ebe565b50604080518381524260208201526001600160a01b038316917fd4c4f034e6d88080144fb76dbfb71aab31394358b3639babebc2e5cf35c2b76691015b60405180910390a25050565b6003546001600160a01b031633146106d85760405162461bcd60e51b815260040161034890610dc0565b5f546001600160a01b038381169116146107245760405162461bcd60e51b815260206004820152600d60248201526c24b73b30b634b2103a37b5b2b760991b6044820152606401610348565b5f81116107435760405162461bcd60e51b815260040161034890610e59565b61074b610a49565b81111561076a5760405162461bcd60e51b815260040161034890610e90565b60068054905f61077983610edd565b9091555050604080516080810182526006548082526020808301858152428486019081525f6060860181815294815260079093529482209351845551600184015592516002830155516003909101805460ff1916911515919091179055600580548392906107e8908490610e46565b9091555050600654604080518381524260208201527f6215b003e186dbc79e3bd07b486dc69758f50dab026e5d485d4a945d5601544791016106a2565b335f9081526009602090815260408083205460089092528220546108499190610da7565b9050808211156108935760405162461bcd60e51b8152602060048201526015602482015274496e73756666696369656e74206561726e696e677360581b6044820152606401610348565b335f90815260096020526040812080548492906108b1908490610e46565b909155505060025460405163a9059cbb60e01b8152336004820152602481018490526001600160a01b039091169063a9059cbb906044016020604051808303815f875af1158015610904573d5f5f3e3d5ffd5b505050506040513d601f19601f820116820180604052508101906109289190610ebe565b506040805183815242602082015233917f90dac969af4a4897610ef8f0cd934c54409861eb7bd2205e552f8f2296ee5d3e91016106a2565b6003546001600160a01b0316331461098a5760405162461bcd60e51b815260040161034890610dc0565b5f82116109a95760405162461bcd60e51b815260040161034890610e59565b6109b1610a49565b8211156109d05760405162461bcd60e51b815260040161034890610e90565b60025460405163a9059cbb60e01b81526001600160a01b038381166004830152602482018590529091169063a9059cbb906044016020604051808303815f875af1158015610a20573d5f5f3e3d5ffd5b505050506040513d601f19601f82011682018060405250810190610a449190610ebe565b505050565b6002546040516370a0823160e01b81523060048201525f916001600160a01b0316906370a0823190602401602060405180830381865afa158015610a8f573d5f5f3e3d5ffd5b505050506040513d601f19601f82011682018060405250810190610ab39190610de5565b905090565b6003546001600160a01b03163314610ae25760405162461bcd60e51b815260040161034890610dc0565b5f8111610b015760405162461bcd60e51b815260040161034890610e59565b8060045f828254610b129190610e46565b9091555050604080518281524260208201527fb20d89f6552ecc9b6927807870a2e0a3ead94efac32d88ca11d3ff17b744aa90910160405180910390a150565b80356001600160a01b0381168114610b68575f5ffd5b919050565b5f60208284031215610b7d575f5ffd5b610b8682610b52565b9392505050565b5f60208284031215610b9d575f5ffd5b5035919050565b634e487b7160e01b5f52604160045260245ffd5b604051601f8201601f1916810167ffffffffffffffff81118282101715610be157610be1610ba4565b604052919050565b5f67ffffffffffffffff821115610c0257610c02610ba4565b5060051b60200190565b5f82601f830112610c1b575f5ffd5b8135610c2e610c2982610be9565b610bb8565b8082825260208201915060208360051b860101925085831115610c4f575f5ffd5b602085015b83811015610c6c578035835260209283019201610c54565b5095945050505050565b5f5f5f60608486031215610c88575f5ffd5b83359250602084013567ffffffffffffffff811115610ca5575f5ffd5b8401601f81018613610cb5575f5ffd5b8035610cc3610c2982610be9565b8082825260208201915060208360051b850101925088831115610ce4575f5ffd5b6020840193505b82841015610d0d57610cfc84610b52565b825260209384019390910190610ceb565b9450505050604084013567ffffffffffffffff811115610d2b575f5ffd5b610d3786828701610c0c565b9150509250925092565b5f5f60408385031215610d52575f5ffd5b82359150610d6260208401610b52565b90509250929050565b5f5f60408385031215610d7c575f5ffd5b610d8583610b52565b946020939093013593505050565b634e487b7160e01b5f52601160045260245ffd5b81810381811115610dba57610dba610d93565b92915050565b6020808252600b908201526a27b7363c9034b9b9bab2b960a91b604082015260600190565b5f60208284031215610df5575f5ffd5b5051919050565b634e487b7160e01b5f52603260045260245ffd5b8082028115828204841417610dba57610dba610d93565b5f82610e4157634e487b7160e01b5f52601260045260245ffd5b500490565b80820180821115610dba57610dba610d93565b60208082526017908201527f416d6f756e74206d75737420626520706f736974697665000000000000000000604082015260600190565b602080825260149082015273496e73756666696369656e742062616c616e636560601b604082015260600190565b5f60208284031215610ece575f5ffd5b81518015158114610b86575f5ffd5b5f60018201610eee57610eee610d93565b506001019056fea26469706673582212209a81fe33e2689bf281515c9a3b05797ce5747b204160c29ad1855466529ce44a64736f6c634300081d0033",
  "linkReferences": {},
  "deployedLinkReferences": {}
}