{
  "_format": "hh-sol-artifact-1",
  "contractName": "CoffeeRevenueReserve",
  "sourceName": "contracts/mantle/CoffeeRevenueReserve.sol",
  "abi": [
    {
      "inputs": [
        {
          "internalType": "address",
          "name": "_groveToken",
          "type": "address"
        },
        {
          "internalType": "address",
          "name": "_farmer",
          "type": "address"
        },
        {
          "internalType": "address",
          "name": "_usdc",
          "type": "address"
        }
      ],
      "stateMutability": "nonpayable",
      "type": "constructor"
    },
    {
      "anonymous": false,
      "inputs": [
        {
          "indexed": true,
          "internalType": "address",
          "name": "investor",
          "type": "address"
        },
        {
          "indexed": false,
          "internalType": "uint256",
          "name": "amount",
          "type": "uint256"
        },
        {
          "indexed": false,
          "internalType": "uint256",
          "name": "timestamp",
          "type": "uint256"
        }
      ],
      "name": "EarningsWithdrawn",
      "type": "event"
    },
    {
      "anonymous": false,
      "inputs": [
        {
          "indexed": true,
          "internalType": "address",
          "name": "farmer",
          "type": "address"
        },
        {
          "indexed": false,
          "internalType": "uint256",
          "name": "amount",
          "type": "uint256"
        },
        {
          "indexed": false,
          "internalType": "uint256",
          "name": "timestamp",
          "type": "uint256"
        }
      ],
      "name": "FarmerShareWithdrawn",
      "type": "event"
    },
    {
      "anonymous": false,
      "inputs": [
        {
          "indexed": false,
          "internalType": "uint256",
          "name": "amount",
          "type": "uint256"
        },
        {
          "indexed": false,
          "internalType": "uint256",
          "name": "timestamp",
          "type": "uint256"
        }
      ],
      "name": "RevenueDeposited",
      "type": "event"
    },
    {
      "anonymous": false,
      "inputs": [
        {
          "indexed": true,
          "internalType": "uint256",
          "name": "distributionId",
          "type": "uint256"
        },
        {
          "indexed": false,
          "internalType": "uint256",
          "name": "totalAmount",
          "type": "uint256"
        },
        {
          "indexed": false,
          "internalType": "uint256",
          "name": "timestamp",
          "type": "uint256"
        }
      ],
      "name": "RevenueDistributed",
      "type": "event"
    },
    {
      "inputs": [],
      "name": "USDC",
      "outputs": [
        {
          "internalType": "address",
          "name": "",
          "type": "address"
        }
      ],
      "stateMutability": "view",
      "type": "function"
    },
    {
      "inputs": [
        {
          "internalType": "uint256",
          "name": "_amount",
          "type": "uint256"
        }
      ],
      "name": "deposit",
      "outputs": [],
      "stateMutability": "nonpayable",
      "type": "function"
    },
    {
      "inputs": [
        {
          "internalType": "address",
          "name": "_token",
          "type": "address"
        },
        {
          "internalType": "uint256",
          "name": "_amount",
          "type": "uint256"
        }
      ],
      "name": "distributeRevenue",
      "outputs": [],
      "stateMutability": "nonpayable",
      "type": "function"
    },
    {
      "inputs": [
        {
          "internalType": "uint256",
          "name": "_distributionId",
          "type": "uint256"
        },
        {
          "internalType": "address[]",
          "name": "_holders",
          "type": "address[]"
        },
        {
          "internalType": "uint256[]",
          "name": "_balances",
          "type": "uint256[]"
        }
      ],
      "name": "distributeRevenueToHolders",
      "outputs": [],
      "stateMutability": "nonpayable",
      "type": "function"
    },
    {
      "inputs": [],
      "name": "distributionCounter",
      "outputs": [
        {
          "internalType": "uint256",
          "name": "",
          "type": "uint256"
        }
      ],
      "stateMutability": "view",
      "type": "function"
    },
    {
      "inputs": [
        {
          "internalType": "uint256",
          "name": "",
          "type": "uint256"
        }
      ],
      "name": "distributions",
      "outputs": [
        {
          "internalType": "uint256",
          "name": "distributionId",
          "type": "uint256"
        },
        {
          "internalType": "uint256",
          "name": "totalAmount",
          "type": "uint256"
        },
        {
          "internalType": "uint256",
          "name": "timestamp",
          "type": "uint256"
        },
        {
          "internalType": "bool",
          "name": "completed",
          "type": "bool"
        }
      ],
      "stateMutability": "view",
      "type": "function"
    },
    {
      "inputs": [],
      "name": "farmer",
      "outputs": [
        {
          "internalType": "address",
          "name": "",
          "type": "address"
        }
      ],
      "stateMutability": "view",
      "type": "function"
    },
    {
      "inputs": [],
      "name": "getAvailableBalance",
      "outputs": [
        {
          "internalType": "uint256",
          "name": "",
          "type": "uint256"
        }
      ],
      "stateMutability": "view",
      "type": "function"
    },
    {
      "inputs": [
        {
          "internalType": "address",
          "name": "_investor",
          "type": "address"
        }
      ],
      "name": "getInvestorEarnings",
      "outputs": [
        {
          "internalType": "uint256",
          "name": "totalEarned",
          "type": "uint256"
        },
        {
          "internalType": "uint256",
          "name": "totalWithdrawn",
          "type": "uint256"
        },
        {
          "internalType": "uint256",
          "name": "available",
          "type": "uint256"
        }
      ],
      "stateMutability": "view",
      "type": "function"
    },
    {
      "inputs": [],
      "name": "groveToken",
      "outputs": [
        {
          "internalType": "address",
          "name": "",
          "type": "address"
        }
      ],
      "stateMutability": "view",
      "type": "function"
    },
    {
      "inputs": [
        {
          "internalType": "address",
          "name": "",
          "type": "address"
        }
      ],
      "name": "investorEarnings",
      "outputs": [
        {
          "internalType": "uint256",
          "name": "",
          "type": "uint256"
        }
      ],
      "stateMutability": "view",
      "type": "function"
    },
    {
      "inputs": [
        {
          "internalType": "address",
          "name": "",
          "type": "address"
        }
      ],
      "name": "investorWithdrawals",
      "outputs": [
        {
          "internalType": "uint256",
          "name": "",
          "type": "uint256"
        }
      ],
      "stateMutability": "view",
      "type": "function"
    },
    {
      "inputs": [],
      "name": "issuer",
      "outputs": [
        {
          "internalType": "address",
          "name": "",
          "type": "address"
        }
      ],
      "stateMutability": "view",
      "type": "function"
    },
    {
      "inputs": [
        {
          "internalType": "uint256",
          "name": "_amount",
          "type": "uint256"
        },
        {
          "internalType": "address",
          "name": "_recipient",
          "type": "address"
        }
      ],
      "name": "refund",
      "outputs": [],
      "stateMutability": "nonpayable",
      "type": "function"
    },
    {
      "inputs": [],
      "name": "totalDeposited",
      "outputs": [
        {
          "internalType": "uint256",
          "name": "",
          "type": "uint256"
        }
      ],
      "stateMutability": "view",
      "type": "function"
    },
    {
      "inputs": [],
      "name": "totalDistributed",
      "outputs": [
        {
          "internalType": "uint256",
          "name": "",
          "type": "uint256"
        }
      ],
      "stateMutability": "view",
      "type": "function"
    },
    {
      "inputs": [
        {
          "internalType": "uint256",
          "name": "_amount",
          "type": "uint256"
        }
      ],
      "name": "withdrawEarnings",
      "outputs": [],
      "stateMutability": "nonpayable",
      "type": "function"
    },
    {
      "inputs": [
        {
          "internalType": "uint256",
          "name": "_amount",
          "type": "uint256"
        },
        {
          "internalType": "address",
          "name": "_recipient",
          "type": "address"
        }
      ],
      "name": "withdrawFarmerShare",
      "outputs": [],
      "stateMutability": "nonpayable",
      "type": "function"
    }
  ],
  "bytecode": "0x6080604052348015600e575f5ffd5b50604051610ffa380380610ffa833981016040819052602b916092565b5f80546001600160a01b039485166001600160a01b0319918216179091556001805493851693821693909317909255600280549190931690821617909155600380549091163317905560cb565b80516001600160a01b0381168114608d575f5ffd5b919050565b5f5f5f6060848603121560a3575f5ffd5b60aa846078565b925060b6602085016078565b915060c2604085016078565b90509250925092565b610f22806100d85f395ff3fe608060405234801561000f575f5ffd5b50600436106100e4575f3560e01c80630c8bc60c146100e85780631d1438481461011b5780634487d3df1461013b5780634755fd5d146101945780635a40af8e146101a95780636d0a1cb3146101bc5780636e70096e146101cf5780637ad226dc146101e2578063809dab6a146101f557806388987aac1461020b57806389a302711461021d578063b6b55f2514610230578063c6b7d96114610243578063d811fcf014610262578063efca2eed14610275578063feafdaa71461027e578063ff50abdc14610287578063ff51e70214610290575b5f5ffd5b6100fb6100f6366004610b33565b6102af565b604080519384526020840192909252908201526060015b60405180910390f35b60035461012e906001600160a01b031681565b6040516101129190610b53565b610172610149366004610b67565b60076020525f908152604090208054600182015460028301546003909301549192909160ff1684565b6040805194855260208501939093529183015215156060820152608001610112565b6101a76101a2366004610c4e565b6102e6565b005b6101a76101b7366004610d17565b610544565b6101a76101ca366004610d41565b61066e565b6101a76101dd366004610b67565b6107e2565b6101a76101f0366004610d17565b610921565b6101fd610a08565b604051908152602001610112565b5f5461012e906001600160a01b031681565b60025461012e906001600160a01b031681565b6101a761023e366004610b67565b610a7c565b6101fd610251366004610b33565b60086020525f908152604090205481565b60015461012e906001600160a01b031681565b6101fd60055481565b6101fd60065481565b6101fd60045481565b6101fd61029e366004610b33565b60096020525f908152604090205481565b6001600160a01b0381165f90815260086020908152604080832054600990925282205490916102de8284610d7d565b929491935050565b6003546001600160a01b031633146103195760405162461bcd60e51b815260040161031090610d96565b60405180910390fd5b805182511461035c5760405162461bcd60e51b815260206004820152600f60248201526e098cadccee8d040dad2e6dac2e8c6d608b1b6044820152606401610310565b5f838152600760205260409020600381015460ff16156103b25760405162461bcd60e51b8152602060048201526011602482015270105b1c9958591e4818dbdb5c1b195d1959607a1b6044820152606401610310565b5f5f5f9054906101000a90046001600160a01b03166001600160a01b03166318160ddd6040518163ffffffff1660e01b8152600401602060405180830381865afa158015610402573d5f5f3e3d5ffd5b505050506040513d601f19601f820116820180604052508101906104269190610dbb565b90505f81116104725760405162461bcd60e51b81526020600482015260186024820152772737903a37b5b2b7399034b71031b4b931bab630ba34b7b760411b6044820152606401610310565b5f5b845181101561052f575f84828151811061049057610490610dd2565b60200260200101511115610527575f828583815181106104b2576104b2610dd2565b602002602001015185600101546104c99190610de6565b6104d39190610dfd565b90508060085f8885815181106104eb576104eb610dd2565b60200260200101516001600160a01b03166001600160a01b031681526020019081526020015f205f8282546105209190610e1c565b9091555050505b600101610474565b5050600301805460ff19166001179055505050565b6003546001600160a01b0316331461056e5760405162461bcd60e51b815260040161031090610d96565b5f821161058d5760405162461bcd60e51b815260040161031090610e2f565b610595610a08565b8211156105b45760405162461bcd60e51b815260040161031090610e60565b60025460405163a9059cbb60e01b81526001600160a01b039091169063a9059cbb906105e69084908690600401610e8e565b6020604051808303815f875af1158015610602573d5f5f3e3d5ffd5b505050506040513d601f19601f820116820180604052508101906106269190610ea7565b50806001600160a01b03167fd4c4f034e6d88080144fb76dbfb71aab31394358b3639babebc2e5cf35c2b7668342604051610662929190610ec6565b60405180910390a25050565b6003546001600160a01b031633146106985760405162461bcd60e51b815260040161031090610d96565b5f546001600160a01b038381169116146106e45760405162461bcd60e51b815260206004820152600d60248201526c24b73b30b634b2103a37b5b2b760991b6044820152606401610310565b5f81116107035760405162461bcd60e51b815260040161031090610e2f565b61070b610a08565b81111561072a5760405162461bcd60e51b815260040161031090610e60565b60068054905f61073983610ed4565b9091555050604080516080810182526006548082526020808301858152428486019081525f6060860181815294815260079093529482209351845551600184015592516002830155516003909101805460ff1916911515919091179055600580548392906107a8908490610e1c565b90915550506006546040517f6215b003e186dbc79e3bd07b486dc69758f50dab026e5d485d4a945d56015447906106629084904290610ec6565b335f9081526009602090815260408083205460089092528220546108069190610d7d565b9050808211156108505760405162461bcd60e51b8152602060048201526015602482015274496e73756666696369656e74206561726e696e677360581b6044820152606401610310565b335f908152600960205260408120805484929061086e908490610e1c565b909155505060025460405163a9059cbb60e01b81526001600160a01b039091169063a9059cbb906108a59033908690600401610e8e565b6020604051808303815f875af11580156108c1573d5f5f3e3d5ffd5b505050506040513d601f19601f820116820180604052508101906108e59190610ea7565b50336001600160a01b03167f90dac969af4a4897610ef8f0cd934c54409861eb7bd2205e552f8f2296ee5d3e8342604051610662929190610ec6565b6003546001600160a01b0316331461094b5760405162461bcd60e51b815260040161031090610d96565b5f821161096a5760405162461bcd60e51b815260040161031090610e2f565b610972610a08565b8211156109915760405162461bcd60e51b815260040161031090610e60565b60025460405163a9059cbb60e01b81526001600160a01b039091169063a9059cbb906109c39084908690600401610e8e565b6020604051808303815f875af11580156109df573d5f5f3e3d5ffd5b505050506040513d601f19601f82011682018060405250810190610a039190610ea7565b505050565b6002546040516370a0823160e01b81525f916001600160a01b0316906370a0823190610a38903090600401610b53565b602060405180830381865afa158015610a53573d5f5f3e3d5ffd5b505050506040513d601f19601f82011682018060405250810190610a779190610dbb565b905090565b6003546001600160a01b03163314610aa65760405162461bcd60e51b815260040161031090610d96565b5f8111610ac55760405162461bcd60e51b815260040161031090610e2f565b8060045f828254610ad69190610e1c565b90915550506040517fb20d89f6552ecc9b6927807870a2e0a3ead94efac32d88ca11d3ff17b744aa9090610b0d9083904290610ec6565b60405180910390a150565b80356001600160a01b0381168114610b2e575f5ffd5b919050565b5f60208284031215610b43575f5ffd5b610b4c82610b18565b9392505050565b6001600160a01b0391909116815260200190565b5f60208284031215610b77575f5ffd5b5035919050565b634e487b7160e01b5f52604160045260245ffd5b604051601f8201601f191681016001600160401b0381118282101715610bba57610bba610b7e565b604052919050565b5f6001600160401b03821115610bda57610bda610b7e565b5060051b60200190565b5f82601f830112610bf3575f5ffd5b8135610c06610c0182610bc2565b610b92565b8082825260208201915060208360051b860101925085831115610c27575f5ffd5b602085015b83811015610c44578035835260209283019201610c2c565b5095945050505050565b5f5f5f60608486031215610c60575f5ffd5b8335925060208401356001600160401b03811115610c7c575f5ffd5b8401601f81018613610c8c575f5ffd5b8035610c9a610c0182610bc2565b8082825260208201915060208360051b850101925088831115610cbb575f5ffd5b6020840193505b82841015610ce457610cd384610b18565b825260209384019390910190610cc2565b945050505060408401356001600160401b03811115610d01575f5ffd5b610d0d86828701610be4565b9150509250925092565b5f5f60408385031215610d28575f5ffd5b82359150610d3860208401610b18565b90509250929050565b5f5f60408385031215610d52575f5ffd5b610d5b83610b18565b946020939093013593505050565b634e487b7160e01b5f52601160045260245ffd5b81810381811115610d9057610d90610d69565b92915050565b6020808252600b908201526a27b7363c9034b9b9bab2b960a91b604082015260600190565b5f60208284031215610dcb575f5ffd5b5051919050565b634e487b7160e01b5f52603260045260245ffd5b8082028115828204841417610d9057610d90610d69565b5f82610e1757634e487b7160e01b5f52601260045260245ffd5b500490565b80820180821115610d9057610d90610d69565b602080825260179082015276416d6f756e74206d75737420626520706f73697469766560481b604082015260600190565b602080825260149082015273496e73756666696369656e742062616c616e636560601b604082015260600190565b6001600160a01b03929092168252602082015260400190565b5f60208284031215610eb7575f5ffd5b81518015158114610b4c575f5ffd5b918252602082015260400190565b5f60018201610ee557610ee5610d69565b506001019056fea26469706673582212209e5c4f02269333b59a2a6d16b4716024815a885d11978c1ffca600960692828164736f6c634300081d0033",
  "linkReferences": {},
  "deployedLinkReferences": {}
}