{
  "_format": "hh-sol-artifact-1",
  "contractName": "FarmerVerification",
  "sourceName": "contracts/mantle/FarmerVerification.sol",
  "abi": [
    {
      "inputs": [],
      "stateMutability": "nonpayable",
      "type": "constructor"
    },
    {
      "anonymous": false,
      "inputs": [
        {
          "indexed": true,
          "internalType": "address",
          "name": "farmer",
          "type": "address"
        },
        {
          "indexed": false,
          "internalType": "string",
          "name": "name",
          "type": "string"
        },
        {
          "indexed": false,
          "internalType": "string",
          "name": "location",
          "type": "string"
        },
        {
          "indexed": false,
          "internalType": "uint256",
          "name": "timestamp",
          "type": "uint256"
        }
      ],
      "name": "FarmerRegistered",
      "type": "event"
    },
    {
      "anonymous": false,
      "inputs": [
        {
          "indexed": true,
          "internalType": "address",
          "name": "farmer",
          "type": "address"
        },
        {
          "indexed": false,
          "internalType": "uint256",
          "name": "timestamp",
          "type": "uint256"
        }
      ],
      "name": "FarmerRevoked",
      "type": "event"
    },
    {
      "anonymous": false,
      "inputs": [
        {
          "indexed": true,
          "internalType": "address",
          "name": "farmer",
          "type": "address"
        },
        {
          "indexed": false,
          "internalType": "string",
          "name": "documentHash",
          "type": "string"
        },
        {
          "indexed": false,
          "internalType": "uint256",
          "name": "timestamp",
          "type": "uint256"
        }
      ],
      "name": "FarmerVerified",
      "type": "event"
    },
    {
      "inputs": [],
      "name": "admin",
      "outputs": [
        {
          "internalType": "address",
          "name": "",
          "type": "address"
        }
      ],
      "stateMutability": "view",
      "type": "function"
    },
    {
      "inputs": [
        {
          "internalType": "address",
          "name": "",
          "type": "address"
        }
      ],
      "name": "farmers",
      "outputs": [
        {
          "internalType": "address",
          "name": "farmerAddress",
          "type": "address"
        },
        {
          "internalType": "string",
          "name": "name",
          "type": "string"
        },
        {
          "internalType": "string",
          "name": "location",
          "type": "string"
        },
        {
          "internalType": "string",
          "name": "contactInfo",
          "type": "string"
        },
        {
          "internalType": "bool",
          "name": "isVerified",
          "type": "bool"
        },
        {
          "internalType": "uint256",
          "name": "verificationDate",
          "type": "uint256"
        },
        {
          "internalType": "string",
          "name": "verificationDocumentHash",
          "type": "string"
        }
      ],
      "stateMutability": "view",
      "type": "function"
    },
    {
      "inputs": [
        {
          "internalType": "address",
          "name": "_farmer",
          "type": "address"
        }
      ],
      "name": "getFarmerProfile",
      "outputs": [
        {
          "components": [
            {
              "internalType": "address",
              "name": "farmerAddress",
              "type": "address"
            },
            {
              "internalType": "string",
              "name": "name",
              "type": "string"
            },
            {
              "internalType": "string",
              "name": "location",
              "type": "string"
            },
            {
              "internalType": "string",
              "name": "contactInfo",
              "type": "string"
            },
            {
              "internalType": "bool",
              "name": "isVerified",
              "type": "bool"
            },
            {
              "internalType": "uint256",
              "name": "verificationDate",
              "type": "uint256"
            },
            {
              "internalType": "string",
              "name": "verificationDocumentHash",
              "type": "string"
            }
          ],
          "internalType": "struct FarmerVerification.FarmerProfile",
          "name": "",
          "type": "tuple"
        }
      ],
      "stateMutability": "view",
      "type": "function"
    },
    {
      "inputs": [],
      "name": "getVerifiedFarmers",
      "outputs": [
        {
          "internalType": "address[]",
          "name": "",
          "type": "address[]"
        }
      ],
      "stateMutability": "view",
      "type": "function"
    },
    {
      "inputs": [
        {
          "internalType": "address",
          "name": "_farmer",
          "type": "address"
        }
      ],
      "name": "isVerifiedFarmer",
      "outputs": [
        {
          "internalType": "bool",
          "name": "",
          "type": "bool"
        }
      ],
      "stateMutability": "view",
      "type": "function"
    },
    {
      "inputs": [
        {
          "internalType": "string",
          "name": "_name",
          "type": "string"
        },
        {
          "internalType": "string",
          "name": "_location",
          "type": "string"
        },
        {
          "internalType": "string",
          "name": "_contactInfo",
          "type": "string"
        }
      ],
      "name": "registerFarmer",
      "outputs": [],
      "stateMutability": "nonpayable",
      "type": "function"
    },
    {
      "inputs": [
        {
          "internalType": "address",
          "name": "_farmer",
          "type": "address"
        }
      ],
      "name": "revokeFarmer",
      "outputs": [],
      "stateMutability": "nonpayable",
      "type": "function"
    },
    {
      "inputs": [
        {
          "internalType": "uint256",
          "name": "",
          "type": "uint256"
        }
      ],
      "name": "verifiedFarmers",
      "outputs": [
        {
          "internalType": "address",
          "name": "",
          "type": "address"
        }
      ],
      "stateMutability": "view",
      "type": "function"
    },
    {
      "inputs": [
        {
          "internalType": "address",
          "name": "_farmer",
          "type": "address"
        },
        {
          "internalType": "string",
          "name": "_documentHash",
          "type": "string"
        }
      ],
      "name": "verifyFarmer",
      "outputs": [],
      "stateMutability": "nonpayable",
      "type": "function"
    }
  ],
  "bytecode": "0x6080604052348015600e575f5ffd5b505f80546001600160a01b0319163317905561117d8061002d5f395ff3fe608060405234801561000f575f5ffd5b5060043610610090575f3560e01c806385e8aefa1161006357806385e8aefa1461010b578063a5bbd26414610136578063c05806991461014b578063c2b0513a14610189578063f851a4401461019c575f5ffd5b806329a566d21461009457806338cdf135146100a9578063401b2168146100bc5780634410b6b6146100eb575b5f5ffd5b6100a76100a2366004610ce7565b6101ae565b005b6100a76100b7366004610d90565b6103b5565b6100cf6100ca366004610ddb565b610580565b6040516100e29796959493929190610e29565b60405180910390f35b6100fe6100f9366004610ddb565b6107e5565b6040516100e29190610ea2565b61011e610119366004610f50565b610ac2565b6040516001600160a01b0390911681526020016100e2565b61013e610aea565b6040516100e29190610f67565b610179610159366004610ddb565b6001600160a01b03165f9081526001602052604090206004015460ff1690565b60405190151581526020016100e2565b6100a7610197366004610ddb565b610b4a565b5f5461011e906001600160a01b031681565b335f908152600160205260409020546001600160a01b03161561020d5760405162461bcd60e51b8152602060048201526012602482015271105b1c9958591e481c9959da5cdd195c995960721b60448201526064015b60405180910390fd5b5f83511161024d5760405162461bcd60e51b815260206004820152600d60248201526c13985b59481c995c5d5a5c9959609a1b6044820152606401610204565b5f8251116102915760405162461bcd60e51b8152602060048201526011602482015270131bd8d85d1a5bdb881c995c5d5a5c9959607a1b6044820152606401610204565b6040805160e081018252338082526020808301878152838501879052606084018690525f6080850181905260a085018190528551808401875281815260c086015292835260019182905293909120825181546001600160a01b0319166001600160a01b0390911617815592519192919082019061030e9082611036565b50604082015160028201906103239082611036565b50606082015160038201906103389082611036565b50608082015160048201805460ff191691151591909117905560a0820151600582015560c0820151600682019061036f9082611036565b50506040513391507f90021170cf4723f0d0126a8b974a18550b45db58817cbc0ece1e4343e2551e22906103a8908690869042906110f1565b60405180910390a2505050565b5f546001600160a01b031633146103fb5760405162461bcd60e51b815260206004820152600a60248201526927b7363c9030b236b4b760b11b6044820152606401610204565b6001600160a01b038281165f90815260016020526040902054166104595760405162461bcd60e51b815260206004820152601560248201527411985c9b595c881b9bdd081c9959da5cdd195c9959605a1b6044820152606401610204565b6001600160a01b0382165f9081526001602052604090206004015460ff16156104b75760405162461bcd60e51b815260206004820152601060248201526f105b1c9958591e481d995c9a599a595960821b6044820152606401610204565b6001600160a01b0382165f90815260016020819052604090912060048101805460ff19169092179091554260058201556006016104f48282611036565b50600280546001810182555f919091527f405787fa12a823e0f2b7631cc41b3ba8828b3321ca811111fa75cd3aa3bb5ace0180546001600160a01b0319166001600160a01b0384169081179091556040517f87a94731dceda5368e7b3ce1666d63708f498e89e7bf77d980851a9e7ec5cb37906105749084904290611126565b60405180910390a25050565b600160208190525f9182526040909120805491810180546001600160a01b03909316926105ac90610fb2565b80601f01602080910402602001604051908101604052809291908181526020018280546105d890610fb2565b80156106235780601f106105fa57610100808354040283529160200191610623565b820191905f5260205f20905b81548152906001019060200180831161060657829003601f168201915b50505050509080600201805461063890610fb2565b80601f016020809104026020016040519081016040528092919081815260200182805461066490610fb2565b80156106af5780601f10610686576101008083540402835291602001916106af565b820191905f5260205f20905b81548152906001019060200180831161069257829003601f168201915b5050505050908060030180546106c490610fb2565b80601f01602080910402602001604051908101604052809291908181526020018280546106f090610fb2565b801561073b5780601f106107125761010080835404028352916020019161073b565b820191905f5260205f20905b81548152906001019060200180831161071e57829003601f168201915b5050505060048301546005840154600685018054949560ff909316949193509061076490610fb2565b80601f016020809104026020016040519081016040528092919081815260200182805461079090610fb2565b80156107db5780601f106107b2576101008083540402835291602001916107db565b820191905f5260205f20905b8154815290600101906020018083116107be57829003601f168201915b5050505050905087565b61082d6040518060e001604052805f6001600160a01b031681526020016060815260200160608152602001606081526020015f151581526020015f8152602001606081525090565b6001600160a01b038083165f90815260016020818152604092839020835160e081019094528054909416835290830180549293929184019161086e90610fb2565b80601f016020809104026020016040519081016040528092919081815260200182805461089a90610fb2565b80156108e55780601f106108bc576101008083540402835291602001916108e5565b820191905f5260205f20905b8154815290600101906020018083116108c857829003601f168201915b505050505081526020016002820180546108fe90610fb2565b80601f016020809104026020016040519081016040528092919081815260200182805461092a90610fb2565b80156109755780601f1061094c57610100808354040283529160200191610975565b820191905f5260205f20905b81548152906001019060200180831161095857829003601f168201915b5050505050815260200160038201805461098e90610fb2565b80601f01602080910402602001604051908101604052809291908181526020018280546109ba90610fb2565b8015610a055780601f106109dc57610100808354040283529160200191610a05565b820191905f5260205f20905b8154815290600101906020018083116109e857829003601f168201915b5050509183525050600482015460ff161515602082015260058201546040820152600682018054606090920191610a3b90610fb2565b80601f0160208091040260200160405190810160405280929190818152602001828054610a6790610fb2565b8015610ab25780601f10610a8957610100808354040283529160200191610ab2565b820191905f5260205f20905b815481529060010190602001808311610a9557829003601f168201915b5050505050815250509050919050565b60028181548110610ad1575f80fd5b5f918252602090912001546001600160a01b0316905081565b60606002805480602002602001604051908101604052809291908181526020018280548015610b4057602002820191905f5260205f20905b81546001600160a01b03168152600190910190602001808311610b22575b5050505050905090565b5f546001600160a01b03163314610b905760405162461bcd60e51b815260206004820152600a60248201526927b7363c9030b236b4b760b11b6044820152606401610204565b6001600160a01b0381165f9081526001602052604090206004015460ff16610be95760405162461bcd60e51b815260206004820152600c60248201526b139bdd081d995c9a599a595960a21b6044820152606401610204565b6001600160a01b0381165f8181526001602052604090819020600401805460ff19169055517fbb020880861199de9880abc3d9599dd5882ac8083ca3b0eb28bb436f7d3a9eca90610c3d9042815260200190565b60405180910390a250565b634e487b7160e01b5f52604160045260245ffd5b5f82601f830112610c6b575f5ffd5b813567ffffffffffffffff811115610c8557610c85610c48565b604051601f8201601f19908116603f0116810167ffffffffffffffff81118282101715610cb457610cb4610c48565b604052818152838201602001851015610ccb575f5ffd5b816020850160208301375f918101602001919091529392505050565b5f5f5f60608486031215610cf9575f5ffd5b833567ffffffffffffffff811115610d0f575f5ffd5b610d1b86828701610c5c565b935050602084013567ffffffffffffffff811115610d37575f5ffd5b610d4386828701610c5c565b925050604084013567ffffffffffffffff811115610d5f575f5ffd5b610d6b86828701610c5c565b9150509250925092565b80356001600160a01b0381168114610d8b575f5ffd5b919050565b5f5f60408385031215610da1575f5ffd5b610daa83610d75565b9150602083013567ffffffffffffffff811115610dc5575f5ffd5b610dd185828601610c5c565b9150509250929050565b5f60208284031215610deb575f5ffd5b610df482610d75565b9392505050565b5f81518084528060208401602086015e5f602082860101526020601f19601f83011685010191505092915050565b6001600160a01b038816815260e0602082018190525f90610e4c90830189610dfb565b8281036040840152610e5e8189610dfb565b90508281036060840152610e728188610dfb565b905085151560808401528460a084015282810360c0840152610e948185610dfb565b9a9950505050505050505050565b602080825282516001600160a01b03168282015282015160e060408301525f90610ed0610100840182610dfb565b90506040840151601f19848303016060850152610eed8282610dfb565b9150506060840151601f19848303016080850152610f0b8282610dfb565b9150506080840151610f2160a085018215159052565b5060a084015160c084015260c0840151601f198483030160e0850152610f478282610dfb565b95945050505050565b5f60208284031215610f60575f5ffd5b5035919050565b602080825282518282018190525f918401906040840190835b81811015610fa75783516001600160a01b0316835260209384019390920191600101610f80565b509095945050505050565b600181811c90821680610fc657607f821691505b602082108103610fe457634e487b7160e01b5f52602260045260245ffd5b50919050565b601f82111561103157805f5260205f20601f840160051c8101602085101561100f5750805b601f840160051c820191505b8181101561102e575f815560010161101b565b50505b505050565b815167ffffffffffffffff81111561105057611050610c48565b6110648161105e8454610fb2565b84610fea565b6020601f821160018114611096575f831561107f5750848201515b5f19600385901b1c1916600184901b17845561102e565b5f84815260208120601f198516915b828110156110c557878501518255602094850194600190920191016110a5565b50848210156110e257868401515f19600387901b60f8161c191681555b50505050600190811b01905550565b606081525f6111036060830186610dfb565b82810360208401526111158186610dfb565b915050826040830152949350505050565b604081525f6111386040830185610dfb565b9050826020830152939250505056fea26469706673582212206ea5216f5635cbb8e8efe23cd22a05f748ed7d620ff7c7b51b37da9d9b78a69b64736f6c634300081d0033",
  "linkReferences": {},
  "deployedLinkReferences": {}
}