{
  "_format": "hh-sol-artifact-1",
  "contractName": "FarmerVerification",
  "sourceName": "contracts/mantle/FarmerVerification.sol",
  "abi": [
    {
      "inputs": [],
      "stateMutability": "nonpayable",
      "type": "constructor"
    },
    {
      "anonymous": false,
      "inputs": [
        {
          "indexed": true,
          "internalType": "address",
          "name": "farmer",
          "type": "address"
        },
        {
          "indexed": false,
          "internalType": "string",
          "name": "name",
          "type": "string"
        },
        {
          "indexed": false,
          "internalType": "string",
          "name": "location",
          "type": "string"
        },
        {
          "indexed": false,
          "internalType": "uint256",
          "name": "timestamp",
          "type": "uint256"
        }
      ],
      "name": "FarmerRegistered",
      "type": "event"
    },
    {
      "anonymous": false,
      "inputs": [
        {
          "indexed": true,
          "internalType": "address",
          "name": "farmer",
          "type": "address"
        },
        {
          "indexed": false,
          "internalType": "uint256",
          "name": "timestamp",
          "type": "uint256"
        }
      ],
      "name": "FarmerRevoked",
      "type": "event"
    },
    {
      "anonymous": false,
      "inputs": [
        {
          "indexed": true,
          "internalType": "address",
          "name": "farmer",
          "type": "address"
        },
        {
          "indexed": false,
          "internalType": "string",
          "name": "documentHash",
          "type": "string"
        },
        {
          "indexed": false,
          "internalType": "uint256",
          "name": "timestamp",
          "type": "uint256"
        }
      ],
      "name": "FarmerVerified",
      "type": "event"
    },
    {
      "inputs": [],
      "name": "admin",
      "outputs": [
        {
          "internalType": "address",
          "name": "",
          "type": "address"
        }
      ],
      "stateMutability": "view",
      "type": "function"
    },
    {
      "inputs": [
        {
          "internalType": "address",
          "name": "",
          "type": "address"
        }
      ],
      "name": "farmers",
      "outputs": [
        {
          "internalType": "address",
          "name": "farmerAddress",
          "type": "address"
        },
        {
          "internalType": "string",
          "name": "name",
          "type": "string"
        },
        {
          "internalType": "string",
          "name": "location",
          "type": "string"
        },
        {
          "internalType": "string",
          "name": "contactInfo",
          "type": "string"
        },
        {
          "internalType": "bool",
          "name": "isVerified",
          "type": "bool"
        },
        {
          "internalType": "uint256",
          "name": "verificationDate",
          "type": "uint256"
        },
        {
          "internalType": "string",
          "name": "verificationDocumentHash",
          "type": "string"
        }
      ],
      "stateMutability": "view",
      "type": "function"
    },
    {
      "inputs": [
        {
          "internalType": "address",
          "name": "_farmer",
          "type": "address"
        }
      ],
      "name": "getFarmerProfile",
      "outputs": [
        {
          "components": [
            {
              "internalType": "address",
              "name": "farmerAddress",
              "type": "address"
            },
            {
              "internalType": "string",
              "name": "name",
              "type": "string"
            },
            {
              "internalType": "string",
              "name": "location",
              "type": "string"
            },
            {
              "internalType": "string",
              "name": "contactInfo",
              "type": "string"
            },
            {
              "internalType": "bool",
              "name": "isVerified",
              "type": "bool"
            },
            {
              "internalType": "uint256",
              "name": "verificationDate",
              "type": "uint256"
            },
            {
              "internalType": "string",
              "name": "verificationDocumentHash",
              "type": "string"
            }
          ],
          "internalType": "struct FarmerVerification.FarmerProfile",
          "name": "",
          "type": "tuple"
        }
      ],
      "stateMutability": "view",
      "type": "function"
    },
    {
      "inputs": [],
      "name": "getVerifiedFarmers",
      "outputs": [
        {
          "internalType": "address[]",
          "name": "",
          "type": "address[]"
        }
      ],
      "stateMutability": "view",
      "type": "function"
    },
    {
      "inputs": [
        {
          "internalType": "address",
          "name": "_farmer",
          "type": "address"
        }
      ],
      "name": "isVerifiedFarmer",
      "outputs": [
        {
          "internalType": "bool",
          "name": "",
          "type": "bool"
        }
      ],
      "stateMutability": "view",
      "type": "function"
    },
    {
      "inputs": [
        {
          "internalType": "string",
          "name": "_name",
          "type": "string"
        },
        {
          "internalType": "string",
          "name": "_location",
          "type": "string"
        },
        {
          "internalType": "string",
          "name": "_contactInfo",
          "type": "string"
        }
      ],
      "name": "registerFarmer",
      "outputs": [],
      "stateMutability": "nonpayable",
      "type": "function"
    },
    {
      "inputs": [
        {
          "internalType": "address",
          "name": "_farmer",
          "type": "address"
        }
      ],
      "name": "revokeFarmer",
      "outputs": [],
      "stateMutability": "nonpayable",
      "type": "function"
    },
    {
      "inputs": [
        {
          "internalType": "uint256",
          "name": "",
          "type": "uint256"
        }
      ],
      "name": "verifiedFarmers",
      "outputs": [
        {
          "internalType": "address",
          "name": "",
          "type": "address"
        }
      ],
      "stateMutability": "view",
      "type": "function"
    },
    {
      "inputs": [
        {
          "internalType": "address",
          "name": "_farmer",
          "type": "address"
        },
        {
          "internalType": "string",
          "name": "_documentHash",
          "type": "string"
        }
      ],
      "name": "verifyFarmer",
      "outputs": [],
      "stateMutability": "nonpayable",
      "type": "function"
    }
  ],
  "bytecode": "0x6080604052348015600e575f5ffd5b505f80546001600160a01b031916331790556111518061002d5f395ff3fe608060405234801561000f575f5ffd5b5060043610610081575f3560e01c806329a566d21461008557806338cdf1351461009a578063401b2168146100ad5780634410b6b6146100dc57806385e8aefa146100fc578063a5bbd26414610127578063c05806991461013c578063c2b0513a1461017a578063f851a4401461018d575b5f5ffd5b610098610093366004610c9c565b61019f565b005b6100986100a8366004610d42565b6103a6565b6100c06100bb366004610d8c565b610554565b6040516100d39796959493929190610dda565b60405180910390f35b6100ef6100ea366004610d8c565b6107b9565b6040516100d39190610e53565b61010f61010a366004610f01565b610a96565b6040516001600160a01b0390911681526020016100d3565b61012f610abe565b6040516100d39190610f18565b61016a61014a366004610d8c565b6001600160a01b03165f9081526001602052604090206004015460ff1690565b60405190151581526020016100d3565b610098610188366004610d8c565b610b1e565b5f5461010f906001600160a01b031681565b335f908152600160205260409020546001600160a01b0316156101fe5760405162461bcd60e51b8152602060048201526012602482015271105b1c9958591e481c9959da5cdd195c995960721b60448201526064015b60405180910390fd5b5f83511161023e5760405162461bcd60e51b815260206004820152600d60248201526c13985b59481c995c5d5a5c9959609a1b60448201526064016101f5565b5f8251116102825760405162461bcd60e51b8152602060048201526011602482015270131bd8d85d1a5bdb881c995c5d5a5c9959607a1b60448201526064016101f5565b6040805160e081018252338082526020808301878152838501879052606084018690525f6080850181905260a085018190528551808401875281815260c086015292835260019182905293909120825181546001600160a01b0319166001600160a01b039091161781559251919291908201906102ff9082610fe7565b50604082015160028201906103149082610fe7565b50606082015160038201906103299082610fe7565b50608082015160048201805460ff191691151591909117905560a0820151600582015560c082015160068201906103609082610fe7565b50506040513391507f90021170cf4723f0d0126a8b974a18550b45db58817cbc0ece1e4343e2551e2290610399908690869042906110a1565b60405180910390a2505050565b5f546001600160a01b031633146103cf5760405162461bcd60e51b81526004016101f5906110d6565b6001600160a01b038281165f908152600160205260409020541661042d5760405162461bcd60e51b815260206004820152601560248201527411985c9b595c881b9bdd081c9959da5cdd195c9959605a1b60448201526064016101f5565b6001600160a01b0382165f9081526001602052604090206004015460ff161561048b5760405162461bcd60e51b815260206004820152601060248201526f105b1c9958591e481d995c9a599a595960821b60448201526064016101f5565b6001600160a01b0382165f90815260016020819052604090912060048101805460ff19169092179091554260058201556006016104c88282610fe7565b50600280546001810182555f919091527f405787fa12a823e0f2b7631cc41b3ba8828b3321ca811111fa75cd3aa3bb5ace0180546001600160a01b0319166001600160a01b0384169081179091556040517f87a94731dceda5368e7b3ce1666d63708f498e89e7bf77d980851a9e7ec5cb379061054890849042906110fa565b60405180910390a25050565b600160208190525f9182526040909120805491810180546001600160a01b039093169261058090610f63565b80601f01602080910402602001604051908101604052809291908181526020018280546105ac90610f63565b80156105f75780601f106105ce576101008083540402835291602001916105f7565b820191905f5260205f20905b8154815290600101906020018083116105da57829003601f168201915b50505050509080600201805461060c90610f63565b80601f016020809104026020016040519081016040528092919081815260200182805461063890610f63565b80156106835780601f1061065a57610100808354040283529160200191610683565b820191905f5260205f20905b81548152906001019060200180831161066657829003601f168201915b50505050509080600301805461069890610f63565b80601f01602080910402602001604051908101604052809291908181526020018280546106c490610f63565b801561070f5780601f106106e65761010080835404028352916020019161070f565b820191905f5260205f20905b8154815290600101906020018083116106f257829003601f168201915b5050505060048301546005840154600685018054949560ff909316949193509061073890610f63565b80601f016020809104026020016040519081016040528092919081815260200182805461076490610f63565b80156107af5780601f10610786576101008083540402835291602001916107af565b820191905f5260205f20905b81548152906001019060200180831161079257829003601f168201915b5050505050905087565b6108016040518060e001604052805f6001600160a01b031681526020016060815260200160608152602001606081526020015f151581526020015f8152602001606081525090565b6001600160a01b038083165f90815260016020818152604092839020835160e081019094528054909416835290830180549293929184019161084290610f63565b80601f016020809104026020016040519081016040528092919081815260200182805461086e90610f63565b80156108b95780601f10610890576101008083540402835291602001916108b9565b820191905f5260205f20905b81548152906001019060200180831161089c57829003601f168201915b505050505081526020016002820180546108d290610f63565b80601f01602080910402602001604051908101604052809291908181526020018280546108fe90610f63565b80156109495780601f1061092057610100808354040283529160200191610949565b820191905f5260205f20905b81548152906001019060200180831161092c57829003601f168201915b5050505050815260200160038201805461096290610f63565b80601f016020809104026020016040519081016040528092919081815260200182805461098e90610f63565b80156109d95780601f106109b0576101008083540402835291602001916109d9565b820191905f5260205f20905b8154815290600101906020018083116109bc57829003601f168201915b5050509183525050600482015460ff161515602082015260058201546040820152600682018054606090920191610a0f90610f63565b80601f0160208091040260200160405190810160405280929190818152602001828054610a3b90610f63565b8015610a865780601f10610a5d57610100808354040283529160200191610a86565b820191905f5260205f20905b815481529060010190602001808311610a6957829003601f168201915b5050505050815250509050919050565b60028181548110610aa5575f80fd5b5f918252602090912001546001600160a01b0316905081565b60606002805480602002602001604051908101604052809291908181526020018280548015610b1457602002820191905f5260205f20905b81546001600160a01b03168152600190910190602001808311610af6575b5050505050905090565b5f546001600160a01b03163314610b475760405162461bcd60e51b81526004016101f5906110d6565b6001600160a01b0381165f9081526001602052604090206004015460ff16610ba05760405162461bcd60e51b815260206004820152600c60248201526b139bdd081d995c9a599a595960a21b60448201526064016101f5565b6001600160a01b0381165f8181526001602052604090819020600401805460ff19169055517fbb020880861199de9880abc3d9599dd5882ac8083ca3b0eb28bb436f7d3a9eca90610bf49042815260200190565b60405180910390a250565b634e487b7160e01b5f52604160045260245ffd5b5f82601f830112610c22575f5ffd5b81356001600160401b03811115610c3b57610c3b610bff565b604051601f8201601f19908116603f011681016001600160401b0381118282101715610c6957610c69610bff565b604052818152838201602001851015610c80575f5ffd5b816020850160208301375f918101602001919091529392505050565b5f5f5f60608486031215610cae575f5ffd5b83356001600160401b03811115610cc3575f5ffd5b610ccf86828701610c13565b93505060208401356001600160401b03811115610cea575f5ffd5b610cf686828701610c13565b92505060408401356001600160401b03811115610d11575f5ffd5b610d1d86828701610c13565b9150509250925092565b80356001600160a01b0381168114610d3d575f5ffd5b919050565b5f5f60408385031215610d53575f5ffd5b610d5c83610d27565b915060208301356001600160401b03811115610d76575f5ffd5b610d8285828601610c13565b9150509250929050565b5f60208284031215610d9c575f5ffd5b610da582610d27565b9392505050565b5f81518084528060208401602086015e5f602082860101526020601f19601f83011685010191505092915050565b6001600160a01b038816815260e0602082018190525f90610dfd90830189610dac565b8281036040840152610e0f8189610dac565b90508281036060840152610e238188610dac565b905085151560808401528460a084015282810360c0840152610e458185610dac565b9a9950505050505050505050565b602080825282516001600160a01b03168282015282015160e060408301525f90610e81610100840182610dac565b90506040840151601f19848303016060850152610e9e8282610dac565b9150506060840151601f19848303016080850152610ebc8282610dac565b9150506080840151610ed260a085018215159052565b5060a084015160c084015260c0840151601f198483030160e0850152610ef88282610dac565b95945050505050565b5f60208284031215610f11575f5ffd5b5035919050565b602080825282518282018190525f918401906040840190835b81811015610f585783516001600160a01b0316835260209384019390920191600101610f31565b509095945050505050565b600181811c90821680610f7757607f821691505b602082108103610f9557634e487b7160e01b5f52602260045260245ffd5b50919050565b601f821115610fe257805f5260205f20601f840160051c81016020851015610fc05750805b601f840160051c820191505b81811015610fdf575f8155600101610fcc565b50505b505050565b81516001600160401b0381111561100057611000610bff565b6110148161100e8454610f63565b84610f9b565b6020601f821160018114611046575f831561102f5750848201515b5f19600385901b1c1916600184901b178455610fdf565b5f84815260208120601f198516915b828110156110755787850151825560209485019460019092019101611055565b508482101561109257868401515f19600387901b60f8161c191681555b50505050600190811b01905550565b606081525f6110b36060830186610dac565b82810360208401526110c58186610dac565b915050826040830152949350505050565b6020808252600a908201526927b7363c9030b236b4b760b11b604082015260600190565b604081525f61110c6040830185610dac565b9050826020830152939250505056fea2646970667358221220a8ca4a07f11c082cd2227145d78eb5935a4d6bc3c7eb997b2252f753b6394c7764736f6c634300081d0033",
  "linkReferences": {},
  "deployedLinkReferences": {}
}