{
  "_format": "hh-sol-artifact-1",
  "contractName": "PriceOracle",
  "sourceName": "contracts/mantle/PriceOracle.sol",
  "abi": [
    {
      "inputs": [],
      "stateMutability": "nonpayable",
      "type": "constructor"
    },
    {
      "anonymous": false,
      "inputs": [
        {
          "indexed": true,
          "internalType": "string",
          "name": "variety",
          "type": "string"
        },
        {
          "indexed": false,
          "internalType": "uint256",
          "name": "newPrice",
          "type": "uint256"
        },
        {
          "indexed": false,
          "internalType": "uint256",
          "name": "timestamp",
          "type": "uint256"
        }
      ],
      "name": "CoffeePriceUpdated",
      "type": "event"
    },
    {
      "anonymous": false,
      "inputs": [
        {
          "indexed": true,
          "internalType": "address",
          "name": "token",
          "type": "address"
        },
        {
          "indexed": false,
          "internalType": "uint256",
          "name": "newPrice",
          "type": "uint256"
        },
        {
          "indexed": false,
          "internalType": "uint256",
          "name": "timestamp",
          "type": "uint256"
        }
      ],
      "name": "TokenPriceUpdated",
      "type": "event"
    },
    {
      "inputs": [],
      "name": "admin",
      "outputs": [
        {
          "internalType": "address",
          "name": "",
          "type": "address"
        }
      ],
      "stateMutability": "view",
      "type": "function"
    },
    {
      "inputs": [
        {
          "internalType": "address[]",
          "name": "_tokens",
          "type": "address[]"
        },
        {
          "internalType": "uint256[]",
          "name": "_prices",
          "type": "uint256[]"
        }
      ],
      "name": "batchSetTokenPrices",
      "outputs": [],
      "stateMutability": "nonpayable",
      "type": "function"
    },
    {
      "inputs": [
        {
          "internalType": "string",
          "name": "",
          "type": "string"
        }
      ],
      "name": "coffeePrices",
      "outputs": [
        {
          "internalType": "uint256",
          "name": "",
          "type": "uint256"
        }
      ],
      "stateMutability": "view",
      "type": "function"
    },
    {
      "inputs": [
        {
          "internalType": "string",
          "name": "_variety",
          "type": "string"
        }
      ],
      "name": "getCoffeePrice",
      "outputs": [
        {
          "internalType": "uint256",
          "name": "",
          "type": "uint256"
        }
      ],
      "stateMutability": "view",
      "type": "function"
    },
    {
      "inputs": [
        {
          "internalType": "address",
          "name": "_token",
          "type": "address"
        }
      ],
      "name": "getPrice",
      "outputs": [
        {
          "internalType": "uint256",
          "name": "",
          "type": "uint256"
        }
      ],
      "stateMutability": "view",
      "type": "function"
    },
    {
      "inputs": [
        {
          "internalType": "string",
          "name": "_variety",
          "type": "string"
        },
        {
          "internalType": "uint256",
          "name": "_price",
          "type": "uint256"
        }
      ],
      "name": "setCoffeePrice",
      "outputs": [],
      "stateMutability": "nonpayable",
      "type": "function"
    },
    {
      "inputs": [
        {
          "internalType": "address",
          "name": "_token",
          "type": "address"
        },
        {
          "internalType": "uint256",
          "name": "_price",
          "type": "uint256"
        }
      ],
      "name": "setTokenPrice",
      "outputs": [],
      "stateMutability": "nonpayable",
      "type": "function"
    },
    {
      "inputs": [
        {
          "internalType": "address",
          "name": "",
          "type": "address"
        }
      ],
      "name": "tokenPrices",
      "outputs": [
        {
          "internalType": "uint256",
          "name": "",
          "type": "uint256"
        }
      ],
      "stateMutability": "view",
      "type": "function"
    }
  ],
  "bytecode": "0x6080604052348015600e575f5ffd5b505f80546001600160a01b03191633179055604051624c4b4090600290604190664172616269636160c81b815260070190565b9081526040519081900360200181209190915566526f627573746160c81b8152622dc6c09060029060070190815260405190819003602001812091909155674c6962657269636160c01b8152626acfc090600290600801908152604051908190036020019020556109a9806100b55f395ff3fe608060405234801561000f575f5ffd5b5060043610610085575f3560e01c8063431f63c911610058578063431f63c91461010c578063a22c5b3a14610121578063f7dbb00a14610134578063f851a44014610147575f5ffd5b806309e2e8cd146100895780630b78cc29146100c7578063204120bc146100da57806341976e09146100f9575b5f5ffd5b6100b46100973660046106c6565b805160208183018101805160028252928201919093012091525481565b6040519081526020015b60405180910390f35b6100b46100d53660046106c6565b610171565b6100b46100e836600461071b565b60016020525f908152604090205481565b6100b461010736600461071b565b6101de565b61011f61011a36600461073b565b610233565b005b61011f61012f366004610763565b610322565b61011f610142366004610832565b610417565b5f54610159906001600160a01b031681565b6040516001600160a01b0390911681526020016100be565b5f5f60028360405161018391906108f5565b90815260200160405180910390205490505f81116101d85760405162461bcd60e51b815260206004820152600d60248201526c141c9a58d9481b9bdd081cd95d609a1b60448201526064015b60405180910390fd5b92915050565b6001600160a01b0381165f90815260016020526040812054806101d85760405162461bcd60e51b815260206004820152600d60248201526c141c9a58d9481b9bdd081cd95d609a1b60448201526064016101cf565b5f546001600160a01b0316331461025c5760405162461bcd60e51b81526004016101cf9061090b565b6001600160a01b0382166102a25760405162461bcd60e51b815260206004820152600d60248201526c24b73b30b634b2103a37b5b2b760991b60448201526064016101cf565b5f81116102c15760405162461bcd60e51b81526004016101cf9061092f565b6001600160a01b0382165f8181526001602052604090819020839055517f62e2c9c75b287778c0b58f1c1d83fa8f9978a33848e0b423735fd44f48ebe3c1906103169084904290918252602082015260400190565b60405180910390a25050565b5f546001600160a01b0316331461034b5760405162461bcd60e51b81526004016101cf9061090b565b5f82511161038d5760405162461bcd60e51b815260206004820152600f60248201526e496e76616c6964207661726965747960881b60448201526064016101cf565b5f81116103ac5760405162461bcd60e51b81526004016101cf9061092f565b806002836040516103bd91906108f5565b908152604051908190036020018120919091556103db9083906108f5565b60408051918290038220838352426020840152917f7ea2aa60622a16875177a9463ce749f8a0b093c15197a589ee2bd71b44ba55319101610316565b5f546001600160a01b031633146104405760405162461bcd60e51b81526004016101cf9061090b565b80518251146104835760405162461bcd60e51b815260206004820152600f60248201526e098cadccee8d040dad2e6dac2e8c6d608b1b60448201526064016101cf565b5f5b8251811015610610575f6001600160a01b03168382815181106104aa576104aa61095f565b60200260200101516001600160a01b0316036104f85760405162461bcd60e51b815260206004820152600d60248201526c24b73b30b634b2103a37b5b2b760991b60448201526064016101cf565b5f82828151811061050b5761050b61095f565b6020026020010151116105305760405162461bcd60e51b81526004016101cf9061092f565b8181815181106105425761054261095f565b602002602001015160015f85848151811061055f5761055f61095f565b60200260200101516001600160a01b03166001600160a01b031681526020019081526020015f208190555082818151811061059c5761059c61095f565b60200260200101516001600160a01b03167f62e2c9c75b287778c0b58f1c1d83fa8f9978a33848e0b423735fd44f48ebe3c18383815181106105e0576105e061095f565b602002602001015142604051610600929190918252602082015260400190565b60405180910390a2600101610485565b505050565b634e487b7160e01b5f52604160045260245ffd5b604051601f8201601f1916810167ffffffffffffffff8111828210171561065257610652610615565b604052919050565b5f82601f830112610669575f5ffd5b813567ffffffffffffffff81111561068357610683610615565b610696601f8201601f1916602001610629565b8181528460208386010111156106aa575f5ffd5b816020850160208301375f918101602001919091529392505050565b5f602082840312156106d6575f5ffd5b813567ffffffffffffffff8111156106ec575f5ffd5b6106f88482850161065a565b949350505050565b80356001600160a01b0381168114610716575f5ffd5b919050565b5f6020828403121561072b575f5ffd5b61073482610700565b9392505050565b5f5f6040838503121561074c575f5ffd5b61075583610700565b946020939093013593505050565b5f5f60408385031215610774575f5ffd5b823567ffffffffffffffff81111561078a575f5ffd5b6107968582860161065a565b95602094909401359450505050565b5f67ffffffffffffffff8211156107be576107be610615565b5060051b60200190565b5f82601f8301126107d7575f5ffd5b81356107ea6107e5826107a5565b610629565b8082825260208201915060208360051b86010192508583111561080b575f5ffd5b602085015b83811015610828578035835260209283019201610810565b5095945050505050565b5f5f60408385031215610843575f5ffd5b823567ffffffffffffffff811115610859575f5ffd5b8301601f81018513610869575f5ffd5b80356108776107e5826107a5565b8082825260208201915060208360051b850101925087831115610898575f5ffd5b6020840193505b828410156108c1576108b084610700565b82526020938401939091019061089f565b9450505050602083013567ffffffffffffffff8111156108df575f5ffd5b6108eb858286016107c8565b9150509250929050565b5f82518060208501845e5f920191825250919050565b6020808252600a908201526927b7363c9030b236b4b760b11b604082015260600190565b6020808252601690820152755072696365206d75737420626520706f73697469766560501b604082015260600190565b634e487b7160e01b5f52603260045260245ffdfea26469706673582212207f181c8ca126248dcc79391e6e077d2d85813b1f6b77e59a5e7ae235593f1e8764736f6c634300081d0033",
  "linkReferences": {},
  "deployedLinkReferences": {}
}