{
  "_format": "hh-sol-artifact-1",
  "contractName": "PriceOracle",
  "sourceName": "contracts/mantle/PriceOracle.sol",
  "abi": [
    {
      "inputs": [],
      "stateMutability": "nonpayable",
      "type": "constructor"
    },
    {
      "anonymous": false,
      "inputs": [
        {
          "indexed": true,
          "internalType": "string",
          "name": "variety",
          "type": "string"
        },
        {
          "indexed": false,
          "internalType": "uint256",
          "name": "newPrice",
          "type": "uint256"
        },
        {
          "indexed": false,
          "internalType": "uint256",
          "name": "timestamp",
          "type": "uint256"
        }
      ],
      "name": "CoffeePriceUpdated",
      "type": "event"
    },
    {
      "anonymous": false,
      "inputs": [
        {
          "indexed": true,
          "internalType": "address",
          "name": "token",
          "type": "address"
        },
        {
          "indexed": false,
          "internalType": "uint256",
          "name": "newPrice",
          "type": "uint256"
        },
        {
          "indexed": false,
          "internalType": "uint256",
          "name": "timestamp",
          "type": "uint256"
        }
      ],
      "name": "TokenPriceUpdated",
      "type": "event"
    },
    {
      "inputs": [],
      "name": "admin",
      "outputs": [
        {
          "internalType": "address",
          "name": "",
          "type": "address"
        }
      ],
      "stateMutability": "view",
      "type": "function"
    },
    {
      "inputs": [
        {
          "internalType": "address[]",
          "name": "_tokens",
          "type": "address[]"
        },
        {
          "internalType": "uint256[]",
          "name": "_prices",
          "type": "uint256[]"
        }
      ],
      "name": "batchSetTokenPrices",
      "outputs": [],
      "stateMutability": "nonpayable",
      "type": "function"
    },
    {
      "inputs": [
        {
          "internalType": "string",
          "name": "",
          "type": "string"
        }
      ],
      "name": "coffeePrices",
      "outputs": [
        {
          "internalType": "uint256",
          "name": "",
          "type": "uint256"
        }
      ],
      "stateMutability": "view",
      "type": "function"
    },
    {
      "inputs": [
        {
          "internalType": "string",
          "name": "_variety",
          "type": "string"
        }
      ],
      "name": "getCoffeePrice",
      "outputs": [
        {
          "internalType": "uint256",
          "name": "",
          "type": "uint256"
        }
      ],
      "stateMutability": "view",
      "type": "function"
    },
    {
      "inputs": [
        {
          "internalType": "address",
          "name": "_token",
          "type": "address"
        }
      ],
      "name": "getPrice",
      "outputs": [
        {
          "internalType": "uint256",
          "name": "",
          "type": "uint256"
        }
      ],
      "stateMutability": "view",
      "type": "function"
    },
    {
      "inputs": [
        {
          "internalType": "string",
          "name": "_variety",
          "type": "string"
        },
        {
          "internalType": "uint256",
          "name": "_price",
          "type": "uint256"
        }
      ],
      "name": "setCoffeePrice",
      "outputs": [],
      "stateMutability": "nonpayable",
      "type": "function"
    },
    {
      "inputs": [
        {
          "internalType": "address",
          "name": "_token",
          "type": "address"
        },
        {
          "internalType": "uint256",
          "name": "_price",
          "type": "uint256"
        }
      ],
      "name": "setTokenPrice",
      "outputs": [],
      "stateMutability": "nonpayable",
      "type": "function"
    },
    {
      "inputs": [
        {
          "internalType": "address",
          "name": "",
          "type": "address"
        }
      ],
      "name": "tokenPrices",
      "outputs": [
        {
          "internalType": "uint256",
          "name": "",
          "type": "uint256"
        }
      ],
      "stateMutability": "view",
      "type": "function"
    }
  ],
  "bytecode": "0x6080604052348015600e575f5ffd5b505f80546001600160a01b03191633179055604051624c4b4090600290604190664172616269636160c81b815260070190565b9081526040519081900360200181209190915566526f627573746160c81b8152622dc6c09060029060070190815260405190819003602001812091909155674c6962657269636160c01b8152626acfc0906002906008019081526040519081900360200190205561095f806100b55f395ff3fe608060405234801561000f575f5ffd5b5060043610610076575f3560e01c806309e2e8cd1461007a5780630b78cc29146100b8578063204120bc146100cb57806341976e09146100ea578063431f63c9146100fd578063a22c5b3a14610112578063f7dbb00a14610125578063f851a44014610138575b5f5ffd5b6100a5610088366004610613565b805160208183018101805160028252928201919093012091525481565b6040519081526020015b60405180910390f35b6100a56100c6366004610613565b610162565b6100a56100d9366004610667565b60016020525f908152604090205481565b6100a56100f8366004610667565b6101b3565b61011061010b366004610687565b6101e8565b005b6101106101203660046106af565b6102a4565b61011061013336600461077c565b610399565b5f5461014a906001600160a01b031681565b6040516001600160a01b0390911681526020016100af565b5f5f600283604051610174919061083d565b90815260200160405180910390205490505f81116101ad5760405162461bcd60e51b81526004016101a490610853565b60405180910390fd5b92915050565b6001600160a01b0381165f90815260016020526040812054806101ad5760405162461bcd60e51b81526004016101a490610853565b5f546001600160a01b031633146102115760405162461bcd60e51b81526004016101a49061087a565b6001600160a01b0382166102375760405162461bcd60e51b81526004016101a49061089e565b5f81116102565760405162461bcd60e51b81526004016101a4906108c5565b6001600160a01b0382165f8181526001602052604090819020839055515f51602061090a5f395f51905f52906102989084904290918252602082015260400190565b60405180910390a25050565b5f546001600160a01b031633146102cd5760405162461bcd60e51b81526004016101a49061087a565b5f82511161030f5760405162461bcd60e51b815260206004820152600f60248201526e496e76616c6964207661726965747960881b60448201526064016101a4565b5f811161032e5760405162461bcd60e51b81526004016101a4906108c5565b8060028360405161033f919061083d565b9081526040519081900360200181209190915561035d90839061083d565b60408051918290038220838352426020840152917f7ea2aa60622a16875177a9463ce749f8a0b093c15197a589ee2bd71b44ba55319101610298565b5f546001600160a01b031633146103c25760405162461bcd60e51b81526004016101a49061087a565b80518251146104055760405162461bcd60e51b815260206004820152600f60248201526e098cadccee8d040dad2e6dac2e8c6d608b1b60448201526064016101a4565b5f5b825181101561055f575f6001600160a01b031683828151811061042c5761042c6108f5565b60200260200101516001600160a01b03160361045a5760405162461bcd60e51b81526004016101a49061089e565b5f82828151811061046d5761046d6108f5565b6020026020010151116104925760405162461bcd60e51b81526004016101a4906108c5565b8181815181106104a4576104a46108f5565b602002602001015160015f8584815181106104c1576104c16108f5565b60200260200101516001600160a01b03166001600160a01b031681526020019081526020015f20819055508281815181106104fe576104fe6108f5565b60200260200101516001600160a01b03165f51602061090a5f395f51905f5283838151811061052f5761052f6108f5565b60200260200101514260405161054f929190918252602082015260400190565b60405180910390a2600101610407565b505050565b634e487b7160e01b5f52604160045260245ffd5b604051601f8201601f191681016001600160401b03811182821017156105a0576105a0610564565b604052919050565b5f82601f8301126105b7575f5ffd5b81356001600160401b038111156105d0576105d0610564565b6105e3601f8201601f1916602001610578565b8181528460208386010111156105f7575f5ffd5b816020850160208301375f918101602001919091529392505050565b5f60208284031215610623575f5ffd5b81356001600160401b03811115610638575f5ffd5b610644848285016105a8565b949350505050565b80356001600160a01b0381168114610662575f5ffd5b919050565b5f60208284031215610677575f5ffd5b6106808261064c565b9392505050565b5f5f60408385031215610698575f5ffd5b6106a18361064c565b946020939093013593505050565b5f5f604083850312156106c0575f5ffd5b82356001600160401b038111156106d5575f5ffd5b6106e1858286016105a8565b95602094909401359450505050565b5f6001600160401b0382111561070857610708610564565b5060051b60200190565b5f82601f830112610721575f5ffd5b813561073461072f826106f0565b610578565b8082825260208201915060208360051b860101925085831115610755575f5ffd5b602085015b8381101561077257803583526020928301920161075a565b5095945050505050565b5f5f6040838503121561078d575f5ffd5b82356001600160401b038111156107a2575f5ffd5b8301601f810185136107b2575f5ffd5b80356107c061072f826106f0565b8082825260208201915060208360051b8501019250878311156107e1575f5ffd5b6020840193505b8284101561080a576107f98461064c565b8252602093840193909101906107e8565b945050505060208301356001600160401b03811115610827575f5ffd5b61083385828601610712565b9150509250929050565b5f82518060208501845e5f920191825250919050565b6020808252600d908201526c141c9a58d9481b9bdd081cd95d609a1b604082015260600190565b6020808252600a908201526927b7363c9030b236b4b760b11b604082015260600190565b6020808252600d908201526c24b73b30b634b2103a37b5b2b760991b604082015260600190565b6020808252601690820152755072696365206d75737420626520706f73697469766560501b604082015260600190565b634e487b7160e01b5f52603260045260245ffdfe62e2c9c75b287778c0b58f1c1d83fa8f9978a33848e0b423735fd44f48ebe3c1a264697066735822122072f04470961c30a16f02c384936d5cb339aa20ba4d86206af18613f3b155173164736f6c634300081d0033",
  "linkReferences": {},
  "deployedLinkReferences": {}
}