{
  "_format": "hh-sol-artifact-1",
  "contractName": "CoffeeLendingPool",
  "sourceName": "contracts/mantle/CoffeeLendingPool.sol",
  "abi": [
    {
      "inputs": [
        {
          "internalType": "address",
          "name": "_usdcToken",
          "type": "address"
        },
        {
          "internalType": "address",
          "name": "_coffeeTreeToken",
          "type": "address"
        }
      ],
      "stateMutability": "nonpayable",
      "type": "constructor"
    },
    {
      "anonymous": false,
      "inputs": [
        {
          "indexed": true,
          "internalType": "address",
          "name": "provider",
          "type": "address"
        },
        {
          "indexed": false,
          "internalType": "uint256",
          "name": "amount",
          "type": "uint256"
        },
        {
          "indexed": false,
          "internalType": "uint256",
          "name": "lpTokensReceived",
          "type": "uint256"
        },
        {
          "indexed": false,
          "internalType": "uint256",
          "name": "timestamp",
          "type": "uint256"
        }
      ],
      "name": "LiquidityProvided",
      "type": "event"
    },
    {
      "anonymous": false,
      "inputs": [
        {
          "indexed": true,
          "internalType": "address",
          "name": "provider",
          "type": "address"
        },
        {
          "indexed": false,
          "internalType": "uint256",
          "name": "amount",
          "type": "uint256"
        },
        {
          "indexed": false,
          "internalType": "uint256",
          "name": "lpTokensBurned",
          "type": "uint256"
        },
        {
          "indexed": false,
          "internalType": "uint256",
          "name": "interestEarned",
          "type": "uint256"
        },
        {
          "indexed": false,
          "internalType": "uint256",
          "name": "timestamp",
          "type": "uint256"
        }
      ],
      "name": "LiquidityWithdrawn",
      "type": "event"
    },
    {
      "anonymous": false,
      "inputs": [
        {
          "indexed": true,
          "internalType": "address",
          "name": "borrower",
          "type": "address"
        },
        {
          "indexed": false,
          "internalType": "uint256",
          "name": "collateralSeized",
          "type": "uint256"
        },
        {
          "indexed": false,
          "internalType": "uint256",
          "name": "timestamp",
          "type": "uint256"
        }
      ],
      "name": "LoanLiquidated",
      "type": "event"
    },
    {
      "anonymous": false,
      "inputs": [
        {
          "indexed": true,
          "internalType": "address",
          "name": "borrower",
          "type": "address"
        },
        {
          "indexed": false,
          "internalType": "uint256",
          "name": "repayAmount",
          "type": "uint256"
        },
        {
          "indexed": false,
          "internalType": "uint256",
          "name": "timestamp",
          "type": "uint256"
        }
      ],
      "name": "LoanRepaid",
      "type": "event"
    },
    {
      "anonymous": false,
      "inputs": [
        {
          "indexed": true,
          "internalType": "address",
          "name": "borrower",
          "type": "address"
        },
        {
          "indexed": false,
          "internalType": "uint256",
          "name": "loanAmount",
          "type": "uint256"
        },
        {
          "indexed": false,
          "internalType": "uint256",
          "name": "collateralAmount",
          "type": "uint256"
        },
        {
          "indexed": false,
          "internalType": "uint256",
          "name": "repayAmount",
          "type": "uint256"
        },
        {
          "indexed": false,
          "internalType": "uint256",
          "name": "timestamp",
          "type": "uint256"
        }
      ],
      "name": "LoanTaken",
      "type": "event"
    },
    {
      "anonymous": false,
      "inputs": [
        {
          "indexed": false,
          "internalType": "uint256",
          "name": "totalLiquidity",
          "type": "uint256"
        },
        {
          "indexed": false,
          "internalType": "uint256",
          "name": "availableLiquidity",
          "type": "uint256"
        },
        {
          "indexed": false,
          "internalType": "uint256",
          "name": "totalBorrowed",
          "type": "uint256"
        },
        {
          "indexed": false,
          "internalType": "uint256",
          "name": "utilizationRate",
          "type": "uint256"
        },
        {
          "indexed": false,
          "internalType": "uint256",
          "name": "timestamp",
          "type": "uint256"
        }
      ],
      "name": "PoolStatsUpdated",
      "type": "event"
    },
    {
      "inputs": [],
      "name": "COLLATERALIZATION_RATIO",
      "outputs": [
        {
          "internalType": "uint256",
          "name": "",
          "type": "uint256"
        }
      ],
      "stateMutability": "view",
      "type": "function"
    },
    {
      "inputs": [],
      "name": "INTEREST_RATE",
      "outputs": [
        {
          "internalType": "uint256",
          "name": "",
          "type": "uint256"
        }
      ],
      "stateMutability": "view",
      "type": "function"
    },
    {
      "inputs": [],
      "name": "LIQUIDATION_THRESHOLD",
      "outputs": [
        {
          "internalType": "uint256",
          "name": "",
          "type": "uint256"
        }
      ],
      "stateMutability": "view",
      "type": "function"
    },
    {
      "inputs": [],
      "name": "USDC",
      "outputs": [
        {
          "internalType": "address",
          "name": "",
          "type": "address"
        }
      ],
      "stateMutability": "view",
      "type": "function"
    },
    {
      "inputs": [
        {
          "internalType": "uint256",
          "name": "",
          "type": "uint256"
        }
      ],
      "name": "activeBorrowers",
      "outputs": [
        {
          "internalType": "address",
          "name": "",
          "type": "address"
        }
      ],
      "stateMutability": "view",
      "type": "function"
    },
    {
      "inputs": [],
      "name": "admin",
      "outputs": [
        {
          "internalType": "address",
          "name": "",
          "type": "address"
        }
      ],
      "stateMutability": "view",
      "type": "function"
    },
    {
      "inputs": [],
      "name": "availableLiquidity",
      "outputs": [
        {
          "internalType": "uint256",
          "name": "",
          "type": "uint256"
        }
      ],
      "stateMutability": "view",
      "type": "function"
    },
    {
      "inputs": [],
      "name": "baseAPY",
      "outputs": [
        {
          "internalType": "uint256",
          "name": "",
          "type": "uint256"
        }
      ],
      "stateMutability": "view",
      "type": "function"
    },
    {
      "inputs": [],
      "name": "coffeeTreeToken",
      "outputs": [
        {
          "internalType": "address",
          "name": "",
          "type": "address"
        }
      ],
      "stateMutability": "view",
      "type": "function"
    },
    {
      "inputs": [
        {
          "internalType": "string",
          "name": "name",
          "type": "string"
        },
        {
          "internalType": "string",
          "name": "symbol",
          "type": "string"
        }
      ],
      "name": "createLPToken",
      "outputs": [],
      "stateMutability": "nonpayable",
      "type": "function"
    },
    {
      "inputs": [],
      "name": "getLPToken",
      "outputs": [
        {
          "internalType": "address",
          "name": "",
          "type": "address"
        }
      ],
      "stateMutability": "view",
      "type": "function"
    },
    {
      "inputs": [
        {
          "internalType": "address",
          "name": "provider",
          "type": "address"
        }
      ],
      "name": "getLiquidityPosition",
      "outputs": [
        {
          "internalType": "uint256",
          "name": "amountProvided",
          "type": "uint256"
        },
        {
          "internalType": "uint256",
          "name": "lpTokensReceived",
          "type": "uint256"
        },
        {
          "internalType": "uint256",
          "name": "depositDate",
          "type": "uint256"
        },
        {
          "internalType": "uint256",
          "name": "accruedInterest",
          "type": "uint256"
        }
      ],
      "stateMutability": "view",
      "type": "function"
    },
    {
      "inputs": [
        {
          "internalType": "address",
          "name": "borrower",
          "type": "address"
        }
      ],
      "name": "getLoan",
      "outputs": [
        {
          "internalType": "uint256",
          "name": "loanAmount",
          "type": "uint256"
        },
        {
          "internalType": "uint256",
          "name": "collateralAmount",
          "type": "uint256"
        },
        {
          "internalType": "uint256",
          "name": "repayAmount",
          "type": "uint256"
        },
        {
          "internalType": "uint256",
          "name": "borrowDate",
          "type": "uint256"
        },
        {
          "internalType": "bool",
          "name": "isActive",
          "type": "bool"
        },
        {
          "internalType": "bool",
          "name": "isLiquidated",
          "type": "bool"
        }
      ],
      "stateMutability": "view",
      "type": "function"
    },
    {
      "inputs": [],
      "name": "getPoolStats",
      "outputs": [
        {
          "internalType": "uint256",
          "name": "_totalLiquidity",
          "type": "uint256"
        },
        {
          "internalType": "uint256",
          "name": "_availableLiquidity",
          "type": "uint256"
        },
        {
          "internalType": "uint256",
          "name": "_totalBorrowed",
          "type": "uint256"
        },
        {
          "internalType": "uint256",
          "name": "_utilizationRate",
          "type": "uint256"
        },
        {
          "internalType": "uint256",
          "name": "_currentAPY",
          "type": "uint256"
        }
      ],
      "stateMutability": "view",
      "type": "function"
    },
    {
      "inputs": [
        {
          "internalType": "address",
          "name": "borrower",
          "type": "address"
        }
      ],
      "name": "liquidateLoan",
      "outputs": [],
      "stateMutability": "nonpayable",
      "type": "function"
    },
    {
      "inputs": [
        {
          "internalType": "address",
          "name": "",
          "type": "address"
        }
      ],
      "name": "liquidityPositions",
      "outputs": [
        {
          "internalType": "address",
          "name": "provider",
          "type": "address"
        },
        {
          "internalType": "uint256",
          "name": "amountProvided",
          "type": "uint256"
        },
        {
          "internalType": "uint256",
          "name": "lpTokensReceived",
          "type": "uint256"
        },
        {
          "internalType": "uint256",
          "name": "depositDate",
          "type": "uint256"
        },
        {
          "internalType": "uint256",
          "name": "accruedInterest",
          "type": "uint256"
        }
      ],
      "stateMutability": "view",
      "type": "function"
    },
    {
      "inputs": [
        {
          "internalType": "uint256",
          "name": "",
          "type": "uint256"
        }
      ],
      "name": "liquidityProviders",
      "outputs": [
        {
          "internalType": "address",
          "name": "",
          "type": "address"
        }
      ],
      "stateMutability": "view",
      "type": "function"
    },
    {
      "inputs": [
        {
          "internalType": "address",
          "name": "",
          "type": "address"
        }
      ],
      "name": "loans",
      "outputs": [
        {
          "internalType": "address",
          "name": "borrower",
          "type": "address"
        },
        {
          "internalType": "uint256",
          "name": "loanAmountUSDC",
          "type": "uint256"
        },
        {
          "internalType": "uint256",
          "name": "collateralAmount",
          "type": "uint256"
        },
        {
          "internalType": "uint256",
          "name": "liquidationPrice",
          "type": "uint256"
        },
        {
          "internalType": "uint256",
          "name": "repayAmountUSDC",
          "type": "uint256"
        },
        {
          "internalType": "uint256",
          "name": "borrowDate",
          "type": "uint256"
        },
        {
          "internalType": "bool",
          "name": "isActive",
          "type": "bool"
        },
        {
          "internalType": "bool",
          "name": "isLiquidated",
          "type": "bool"
        }
      ],
      "stateMutability": "view",
      "type": "function"
    },
    {
      "inputs": [],
      "name": "lpToken",
      "outputs": [
        {
          "internalType": "contract LPToken",
          "name": "",
          "type": "address"
        }
      ],
      "stateMutability": "view",
      "type": "function"
    },
    {
      "inputs": [
        {
          "internalType": "uint256",
          "name": "amount",
          "type": "uint256"
        }
      ],
      "name": "provideLiquidity",
      "outputs": [],
      "stateMutability": "nonpayable",
      "type": "function"
    },
    {
      "inputs": [],
      "name": "repayLoan",
      "outputs": [],
      "stateMutability": "nonpayable",
      "type": "function"
    },
    {
      "inputs": [
        {
          "internalType": "uint256",
          "name": "collateralAmount",
          "type": "uint256"
        },
        {
          "internalType": "uint256",
          "name": "loanAmount",
          "type": "uint256"
        }
      ],
      "name": "takeLoan",
      "outputs": [],
      "stateMutability": "nonpayable",
      "type": "function"
    },
    {
      "inputs": [],
      "name": "totalBorrowed",
      "outputs": [
        {
          "internalType": "uint256",
          "name": "",
          "type": "uint256"
        }
      ],
      "stateMutability": "view",
      "type": "function"
    },
    {
      "inputs": [],
      "name": "totalLiquidity",
      "outputs": [
        {
          "internalType": "uint256",
          "name": "",
          "type": "uint256"
        }
      ],
      "stateMutability": "view",
      "type": "function"
    },
    {
      "inputs": [
        {
          "internalType": "uint256",
          "name": "newAPY",
          "type": "uint256"
        }
      ],
      "name": "updateAPY",
      "outputs": [],
      "stateMutability": "nonpayable",
      "type": "function"
    },
    {
      "inputs": [
        {
          "internalType": "uint256",
          "name": "lpTokenAmount",
          "type": "uint256"
        }
      ],
      "name": "withdrawLiquidity",
      "outputs": [],
      "stateMutability": "nonpayable",
      "type": "function"
    }
  ],
  "bytecode": "0x6080604052610352600755348015610015575f5ffd5b5060405161280438038061280483398101604081905261003491610145565b6001600160a01b03821661008f5760405162461bcd60e51b815260206004820152601460248201527f496e76616c69642055534443206164647265737300000000000000000000000060448201526064015b60405180910390fd5b6001600160a01b0381166100ef5760405162461bcd60e51b815260206004820152602160248201527f496e76616c696420636f66666565207472656520746f6b656e206164647265736044820152607360f81b6064820152608401610086565b5f80546001600160a01b03199081163317909155600180546001600160a01b0394851690831617905560028054929093169116179055610176565b80516001600160a01b0381168114610140575f5ffd5b919050565b5f5f60408385031215610156575f5ffd5b61015f8361012a565b915061016d6020840161012a565b90509250929050565b612681806101835f395ff3fe608060405234801561000f575f5ffd5b5060043610610187575f3560e01c806374375359116100d9578063a318312511610093578063eb521a4c1161006e578063eb521a4c14610560578063f851a44014610573578063f966ade714610585578063fae728cd1461058d575f5ffd5b8063a31831251461050a578063bbb851881461051d578063bbdfa00e1461054d575f5ffd5b806374375359146104ad5780637f34dc82146104b657806389a30271146104c957806390a8ae9b146104dc57806396212916146104e45780639eb78798146104f7575f5ffd5b80633c1aa925116101445780635b72a33a1161011f5780635b72a33a146103715780635fcbd285146103795780636fd0ea921461038c57806373b4086b14610404575f5ffd5b80633c1aa925146103305780634c19386c146103555780634edec1ff1461035e575f5ffd5b80630416073d1461018b5780630a861f2a1461022157806315770f9214610236578063214405a91461024d57806333481fc9146102565780633402ff1d14610328575b5f5ffd5b6101fc610199366004611786565b6001600160a01b039081165f90815260096020908152604091829020825160a08101845281549094168452600181015491840182905260028101549284018390526003810154606085018190526004909101546080909401849052909391929091565b6040805194855260208501939093529183015260608201526080015b60405180910390f35b61023461022f3660046117b3565b6105a0565b005b61023f60045481565b604051908152602001610218565b61023f60075481565b6102f7610264366004611786565b6001600160a01b039081165f9081526008602090815260409182902082516101008082018552825490951681526001820154928101839052600282015493810184905260038201546060820152600482015460808201819052600583015460a0830181905260069093015460ff808216151560c085018190529790910416151560e0909201829052929593949293919291565b60408051968752602087019590955293850192909252606084015215156080830152151560a082015260c001610218565b61023f607d81565b6003546001600160a01b03165b6040516001600160a01b039091168152602001610218565b61023f60065481565b61023461036c366004611869565b61093a565b61023f600a81565b60035461033d906001600160a01b031681565b6103d261039a366004611786565b60096020525f9081526040902080546001820154600283015460038401546004909401546001600160a01b0390931693919290919085565b604080516001600160a01b0390961686526020860194909452928401919091526060830152608082015260a001610218565b610464610412366004611786565b60086020525f908152604090208054600182015460028301546003840154600485015460058601546006909601546001600160a01b039095169593949293919290919060ff8082169161010090041688565b604080516001600160a01b0390991689526020890197909752958701949094526060860192909252608085015260a0840152151560c0830152151560e082015261010001610218565b61023f60055481565b60025461033d906001600160a01b031681565b60015461033d906001600160a01b031681565b61023f605a81565b61033d6104f23660046117b3565b610a13565b61033d6105053660046117b3565b610a3b565b6102346105183660046118ce565b610a4a565b610525610eaa565b604080519586526020860194909452928401919091526060830152608082015260a001610218565b61023461055b366004611786565b610ef8565b61023461056e3660046117b3565b611032565b5f5461033d906001600160a01b031681565b61023461137f565b61023461059b3660046117b3565b6115cc565b5f81116105ee5760405162461bcd60e51b8152602060048201526017602482015276416d6f756e74206d75737420626520706f73697469766560481b60448201526064015b60405180910390fd5b6003546040516370a0823160e01b815233600482015282916001600160a01b0316906370a0823190602401602060405180830381865afa158015610634573d5f5f3e3d5ffd5b505050506040513d601f19601f8201168201806040525081019061065891906118ee565b101561069f5760405162461bcd60e51b8152602060048201526016602482015275496e73756666696369656e74204c5020746f6b656e7360501b60448201526064016105e5565b600354604080516318160ddd60e01b815290515f926001600160a01b0316916318160ddd9160048083019260209291908290030181865afa1580156106e6573d5f5f3e3d5ffd5b505050506040513d601f19601f8201168201806040525081019061070a91906118ee565b90505f816004548461071c9190611919565b6107269190611936565b905060055481111561077a5760405162461bcd60e51b815260206004820181905260248201527f496e73756666696369656e74206c697175696469747920617661696c61626c6560448201526064016105e5565b600354604051632770a7eb60e21b8152336004820152602481018590526001600160a01b0390911690639dc29fac906044015f604051808303815f87803b1580156107c3575f5ffd5b505af11580156107d5573d5f5f3e3d5ffd5b505060015460405163a9059cbb60e01b8152336004820152602481018590526001600160a01b03909116925063a9059cbb91506044016020604051808303815f875af1158015610827573d5f5f3e3d5ffd5b505050506040513d601f19601f8201168201806040525081019061084b9190611955565b50335f90815260096020526040812060048101546001909101805491928492610875908490611974565b9091555050335f908152600960205260408120600201805486929061089b908490611974565b9091555050335f908152600960205260408120600490810182905580548492906108c6908490611974565b925050819055508160055f8282546108de9190611974565b9091555050604080518381526020810186905290810182905242606082015233907f719aab509d982a076413fcfa8055869d7ac930109cda0dde19dbc605bf2d11319060800160405180910390a2610934611645565b50505050565b5f546001600160a01b031633146109635760405162461bcd60e51b81526004016105e590611987565b6003546001600160a01b0316156109bc5760405162461bcd60e51b815260206004820152601860248201527f4c5020746f6b656e20616c72656164792063726561746564000000000000000060448201526064016105e5565b81816040516109ca90611779565b6109d59291906119d9565b604051809103905ff0801580156109ee573d5f5f3e3d5ffd5b50600380546001600160a01b0319166001600160a01b03929092169190911790555050565b600a8181548110610a22575f80fd5b5f918252602090912001546001600160a01b0316905081565b600b8181548110610a22575f80fd5b5f8211610a995760405162461bcd60e51b815260206004820152601b60248201527f436f6c6c61746572616c206d75737420626520706f736974697665000000000060448201526064016105e5565b5f8111610ae85760405162461bcd60e51b815260206004820152601c60248201527f4c6f616e20616d6f756e74206d75737420626520706f7369746976650000000060448201526064016105e5565b335f9081526008602052604090206006015460ff1615610b555760405162461bcd60e51b815260206004820152602260248201527f4578697374696e67206c6f616e206d75737420626520726570616964206669726044820152611cdd60f21b60648201526084016105e5565b600554811115610ba75760405162461bcd60e51b815260206004820152601b60248201527f496e73756666696369656e7420706f6f6c206c6971756964697479000000000060448201526064016105e5565b5f6064610bb5607d84611919565b610bbf9190611936565b905080831015610c115760405162461bcd60e51b815260206004820152601760248201527f496e73756666696369656e7420636f6c6c61746572616c00000000000000000060448201526064016105e5565b6002546040516323b872dd60e01b8152336004820152306024820152604481018590526001600160a01b03909116906323b872dd906064016020604051808303815f875af1158015610c65573d5f5f3e3d5ffd5b505050506040513d601f19601f82011682018060405250810190610c899190611955565b505f6064610c98605a85611919565b610ca29190611936565b90505f6064610cb2600a82611a06565b610cbc9086611919565b610cc69190611936565b6040805161010080820183523380835260208084018a81528486018c8152606086018a8152608087018981524260a08901908152600160c08a018181525f60e08c018181528a825260089099528c81209b518c546001600160a01b03199081166001600160a01b03928316178e5598518d850155965160028d0155945160038c015592516004808c0191909155915160058b0155915160069099018054965161ffff1990971699151561ff0019169990991795151590970294909417909655600b8054808501825596527f0175b7a638427703f0dbe7bb9bbf987a2551717b34e79f33b5b1008d1fa01db990950180549091168317905554935163a9059cbb60e01b81529182015260248101889052929350169063a9059cbb906044016020604051808303815f875af1158015610dff573d5f5f3e3d5ffd5b505050506040513d601f19601f82011682018060405250810190610e239190611955565b508360055f828254610e359190611974565b925050819055508360065f828254610e4d9190611a06565b9091555050604080518581526020810187905290810182905242606082015233907f3f478d236b455d7d3dc62eca215916a19fd838bae1a6478397e39d840a7a2ff49060800160405180910390a2610ea3611645565b5050505050565b5f5f5f5f5f5f5f60045411610ebf575f610edb565b600454600654610ed190612710611919565b610edb9190611936565b600454600554600654600754929a91995097509195509350915050565b5f546001600160a01b03163314610f215760405162461bcd60e51b81526004016105e590611987565b6001600160a01b0381165f908152600860205260409020600681015460ff16610f7d5760405162461bcd60e51b815260206004820152600e60248201526d27379030b1ba34bb32903637b0b760911b60448201526064016105e5565b6006810154610100900460ff1615610fcc5760405162461bcd60e51b8152602060048201526012602482015271105b1c9958591e481b1a5c5d5a59185d195960721b60448201526064016105e5565b60068101805461ffff19166101001790556002810154604080519182524260208301526001600160a01b038416917fd824958ef8d9fecce6174008737831045eb3ca61b81f1ff2072bb58f919a5a4a91015b60405180910390a261102e611645565b5050565b6003546001600160a01b03166110815760405162461bcd60e51b81526020600482015260146024820152731314081d1bdad95b881b9bdd0818dc99585d195960621b60448201526064016105e5565b5f81116110ca5760405162461bcd60e51b8152602060048201526017602482015276416d6f756e74206d75737420626520706f73697469766560481b60448201526064016105e5565b6001546040516323b872dd60e01b8152336004820152306024820152604481018390526001600160a01b03909116906323b872dd906064016020604051808303815f875af115801561111e573d5f5f3e3d5ffd5b505050506040513d601f19601f820116820180604052508101906111429190611955565b506004548190156111db5760045460035f9054906101000a90046001600160a01b03166001600160a01b03166318160ddd6040518163ffffffff1660e01b8152600401602060405180830381865afa1580156111a0573d5f5f3e3d5ffd5b505050506040513d601f19601f820116820180604052508101906111c491906118ee565b6111ce9084611919565b6111d89190611936565b90505b6003546040516340c10f1960e01b8152336004820152602481018390526001600160a01b03909116906340c10f19906044015f604051808303815f87803b158015611224575f5ffd5b505af1158015611236573d5f5f3e3d5ffd5b5050335f908152600960205260409020546001600160a01b0316915061129a905057600a80546001810182555f919091527fc65a7bb8d6351c1cf70c95a316cc6a92839c986682d98bc35f958f4883f9d2a80180546001600160a01b031916331790555b335f81815260096020526040812080546001600160a01b0319169092178255600190910180548492906112ce908490611a06565b9091555050335f90815260096020526040812060020180548392906112f4908490611a06565b9091555050335f9081526009602052604081204260039091015560048054849290611320908490611a06565b925050819055508160055f8282546113389190611a06565b90915550506040805183815260208101839052429181019190915233907f3bca7014f4c0ccc8016338c79f4c00e82068dbadaf4f01ca5449040fdd39f5009060600161101e565b335f908152600860205260409020600681015460ff166113d25760405162461bcd60e51b815260206004820152600e60248201526d27379030b1ba34bb32903637b0b760911b60448201526064016105e5565b6006810154610100900460ff161561142c5760405162461bcd60e51b815260206004820152601760248201527f4c6f616e20616c7265616479206c69717569646174656400000000000000000060448201526064016105e5565b6001546004828101546040516323b872dd60e01b8152339281019290925230602483015260448201526001600160a01b03909116906323b872dd906064016020604051808303815f875af1158015611486573d5f5f3e3d5ffd5b505050506040513d601f19601f820116820180604052508101906114aa9190611955565b50600280549082015460405163a9059cbb60e01b815233600482015260248101919091526001600160a01b039091169063a9059cbb906044016020604051808303815f875af11580156114ff573d5f5f3e3d5ffd5b505050506040513d601f19601f820116820180604052508101906115239190611955565b505f816001015482600401546115399190611974565b9050816004015460055f8282546115509190611a06565b90915550506001820154600680545f9061156b908490611974565b909155505060048201546040805191825242602083015233917fc7ce0a35f17b490de2a317e7fecb2cae86b1abffb03800b2f492823521382698910160405180910390a260068201805460ff191690556115c4816116cd565b61102e611645565b5f546001600160a01b031633146115f55760405162461bcd60e51b81526004016105e590611987565b6127108111156116405760405162461bcd60e51b81526020600482015260166024820152754150592063616e6e6f7420657863656564203130302560501b60448201526064016105e5565b600755565b5f5f60045411611655575f611671565b60045460065461166790612710611919565b6116719190611936565b60045460055460065460408051938452602084019290925290820152606081018290524260808201529091507f90ba29f082dfd504d4fb7b8e33ef6fbcb73407c960304ced887a1d024903fb619060a00160405180910390a150565b600a5415806116dc5750600454155b156116e45750565b5f5b600a5481101561102e575f600a828154811061170457611704611a19565b5f9182526020808320909101546001600160a01b0316808352600990915260409091206001810154919250901561176f575f6004548583600101546117499190611919565b6117539190611936565b905080826004015f8282546117689190611a06565b9091555050505b50506001016116e6565b610c1e80611a2e83390190565b5f60208284031215611796575f5ffd5b81356001600160a01b03811681146117ac575f5ffd5b9392505050565b5f602082840312156117c3575f5ffd5b5035919050565b634e487b7160e01b5f52604160045260245ffd5b5f82601f8301126117ed575f5ffd5b813567ffffffffffffffff811115611807576118076117ca565b604051601f8201601f19908116603f0116810167ffffffffffffffff81118282101715611836576118366117ca565b60405281815283820160200185101561184d575f5ffd5b816020850160208301375f918101602001919091529392505050565b5f5f6040838503121561187a575f5ffd5b823567ffffffffffffffff811115611890575f5ffd5b61189c858286016117de565b925050602083013567ffffffffffffffff8111156118b8575f5ffd5b6118c4858286016117de565b9150509250929050565b5f5f604083850312156118df575f5ffd5b50508035926020909101359150565b5f602082840312156118fe575f5ffd5b5051919050565b634e487b7160e01b5f52601160045260245ffd5b808202811582820484141761193057611930611905565b92915050565b5f8261195057634e487b7160e01b5f52601260045260245ffd5b500490565b5f60208284031215611965575f5ffd5b815180151581146117ac575f5ffd5b8181038181111561193057611930611905565b6020808252600a908201526927b7363c9030b236b4b760b11b604082015260600190565b5f81518084528060208401602086015e5f602082860101526020601f19601f83011685010191505092915050565b604081525f6119eb60408301856119ab565b82810360208401526119fd81856119ab565b95945050505050565b8082018082111561193057611930611905565b634e487b7160e01b5f52603260045260245ffdfe608060405234801561000f575f5ffd5b50604051610c1e380380610c1e83398101604081905261002e91610179565b338282600361003d8382610262565b50600461004a8282610262565b5050506001600160a01b03811661007a57604051631e4fbdf760e01b81525f600482015260240160405180910390fd5b6100838161008b565b50505061031c565b600580546001600160a01b038381166001600160a01b0319831681179093556040519116919082907f8be0079c531659141344cd1fd0a4f28419497f9722a3daafe3b4186f6b6457e0905f90a35050565b634e487b7160e01b5f52604160045260245ffd5b5f82601f8301126100ff575f5ffd5b81516001600160401b03811115610118576101186100dc565b604051601f8201601f19908116603f011681016001600160401b0381118282101715610146576101466100dc565b60405281815283820160200185101561015d575f5ffd5b8160208501602083015e5f918101602001919091529392505050565b5f5f6040838503121561018a575f5ffd5b82516001600160401b0381111561019f575f5ffd5b6101ab858286016100f0565b602085015190935090506001600160401b038111156101c8575f5ffd5b6101d4858286016100f0565b9150509250929050565b600181811c908216806101f257607f821691505b60208210810361021057634e487b7160e01b5f52602260045260245ffd5b50919050565b601f82111561025d57805f5260205f20601f840160051c8101602085101561023b5750805b601f840160051c820191505b8181101561025a575f8155600101610247565b50505b505050565b81516001600160401b0381111561027b5761027b6100dc565b61028f8161028984546101de565b84610216565b6020601f8211600181146102c1575f83156102aa5750848201515b5f19600385901b1c1916600184901b17845561025a565b5f84815260208120601f198516915b828110156102f057878501518255602094850194600190920191016102d0565b508482101561030d57868401515f19600387901b60f8161c191681555b50505050600190811b01905550565b6108f5806103295f395ff3fe608060405234801561000f575f5ffd5b50600436106100e5575f3560e01c8063715018a6116100885780639dc29fac116100635780639dc29fac146101c6578063a9059cbb146101d9578063dd62ed3e146101ec578063f2fde38b14610224575f5ffd5b8063715018a61461019b5780638da5cb5b146101a357806395d89b41146101be575f5ffd5b806323b872dd116100c357806323b872dd1461013c578063313ce5671461014f57806340c10f191461015e57806370a0823114610173575f5ffd5b806306fdde03146100e9578063095ea7b31461010757806318160ddd1461012a575b5f5ffd5b6100f1610237565b6040516100fe9190610765565b60405180910390f35b61011a6101153660046107b5565b6102c7565b60405190151581526020016100fe565b6002545b6040519081526020016100fe565b61011a61014a3660046107dd565b6102e0565b604051600681526020016100fe565b61017161016c3660046107b5565b610303565b005b61012e610181366004610817565b6001600160a01b03165f9081526020819052604090205490565b610171610319565b6005546040516001600160a01b0390911681526020016100fe565b6100f161032c565b6101716101d43660046107b5565b61033b565b61011a6101e73660046107b5565b61034d565b61012e6101fa366004610837565b6001600160a01b039182165f90815260016020908152604080832093909416825291909152205490565b610171610232366004610817565b61035a565b60606003805461024690610868565b80601f016020809104026020016040519081016040528092919081815260200182805461027290610868565b80156102bd5780601f10610294576101008083540402835291602001916102bd565b820191905f5260205f20905b8154815290600101906020018083116102a057829003601f168201915b5050505050905090565b5f336102d481858561039c565b60019150505b92915050565b5f336102ed8582856103ae565b6102f885858561042a565b506001949350505050565b61030b610487565b61031582826104b4565b5050565b610321610487565b61032a5f6104e8565b565b60606004805461024690610868565b610343610487565b6103158282610539565b5f336102d481858561042a565b610362610487565b6001600160a01b03811661039057604051631e4fbdf760e01b81525f60048201526024015b60405180910390fd5b610399816104e8565b50565b6103a9838383600161056d565b505050565b6001600160a01b038381165f908152600160209081526040808320938616835292905220545f19811015610424578181101561041657604051637dc7a0d960e11b81526001600160a01b03841660048201526024810182905260448101839052606401610387565b61042484848484035f61056d565b50505050565b6001600160a01b03831661045357604051634b637e8f60e11b81525f6004820152602401610387565b6001600160a01b03821661047c5760405163ec442f0560e01b81525f6004820152602401610387565b6103a983838361063f565b6005546001600160a01b0316331461032a5760405163118cdaa760e01b8152336004820152602401610387565b6001600160a01b0382166104dd5760405163ec442f0560e01b81525f6004820152602401610387565b6103155f838361063f565b600580546001600160a01b038381166001600160a01b0319831681179093556040519116919082907f8be0079c531659141344cd1fd0a4f28419497f9722a3daafe3b4186f6b6457e0905f90a35050565b6001600160a01b03821661056257604051634b637e8f60e11b81525f6004820152602401610387565b610315825f8361063f565b6001600160a01b0384166105965760405163e602df0560e01b81525f6004820152602401610387565b6001600160a01b0383166105bf57604051634a1406b160e11b81525f6004820152602401610387565b6001600160a01b038085165f908152600160209081526040808320938716835292905220829055801561042457826001600160a01b0316846001600160a01b03167f8c5be1e5ebec7d5bd14f71427d1e84f3dd0314c0f7b2291e5b200ac8c7c3b9258460405161063191815260200190565b60405180910390a350505050565b6001600160a01b038316610669578060025f82825461065e91906108a0565b909155506106d99050565b6001600160a01b0383165f90815260208190526040902054818110156106bb5760405163391434e360e21b81526001600160a01b03851660048201526024810182905260448101839052606401610387565b6001600160a01b0384165f9081526020819052604090209082900390555b6001600160a01b0382166106f557600280548290039055610713565b6001600160a01b0382165f9081526020819052604090208054820190555b816001600160a01b0316836001600160a01b03167fddf252ad1be2c89b69c2b068fc378daa952ba7f163c4a11628f55a4df523b3ef8360405161075891815260200190565b60405180910390a3505050565b602081525f82518060208401528060208501604085015e5f604082850101526040601f19601f83011684010191505092915050565b80356001600160a01b03811681146107b0575f5ffd5b919050565b5f5f604083850312156107c6575f5ffd5b6107cf8361079a565b946020939093013593505050565b5f5f5f606084860312156107ef575f5ffd5b6107f88461079a565b92506108066020850161079a565b929592945050506040919091013590565b5f60208284031215610827575f5ffd5b6108308261079a565b9392505050565b5f5f60408385031215610848575f5ffd5b6108518361079a565b915061085f6020840161079a565b90509250929050565b600181811c9082168061087c57607f821691505b60208210810361089a57634e487b7160e01b5f52602260045260245ffd5b50919050565b808201808211156102da57634e487b7160e01b5f52601160045260245ffdfea264697066735822122048e7a677684367b31072aadeff0352ef0ee669d6f0c8fc7f871488b8882507e764736f6c634300081d0033a2646970667358221220f5166eb0b946567d758ed27e22bc48f90ca30c7e540a4c3ea7ad1edcafec78c264736f6c634300081d0033",
  "linkReferences": {},
  "deployedLinkReferences": {}
}