{
  "_format": "hh-sol-artifact-1",
  "contractName": "CoffeeLendingPool",
  "sourceName": "contracts/mantle/CoffeeLendingPool.sol",
  "abi": [
    {
      "inputs": [
        {
          "internalType": "address",
          "name": "_usdcToken",
          "type": "address"
        },
        {
          "internalType": "address",
          "name": "_oracle",
          "type": "address"
        }
      ],
      "stateMutability": "nonpayable",
      "type": "constructor"
    },
    {
      "anonymous": false,
      "inputs": [
        {
          "indexed": true,
          "internalType": "address",
          "name": "token",
          "type": "address"
        },
        {
          "indexed": false,
          "internalType": "uint256",
          "name": "timestamp",
          "type": "uint256"
        }
      ],
      "name": "CollateralAdded",
      "type": "event"
    },
    {
      "anonymous": false,
      "inputs": [
        {
          "indexed": true,
          "internalType": "address",
          "name": "token",
          "type": "address"
        },
        {
          "indexed": false,
          "internalType": "uint256",
          "name": "timestamp",
          "type": "uint256"
        }
      ],
      "name": "CollateralRemoved",
      "type": "event"
    },
    {
      "anonymous": false,
      "inputs": [
        {
          "indexed": true,
          "internalType": "address",
          "name": "provider",
          "type": "address"
        },
        {
          "indexed": false,
          "internalType": "uint256",
          "name": "amount",
          "type": "uint256"
        },
        {
          "indexed": false,
          "internalType": "uint256",
          "name": "lpTokensReceived",
          "type": "uint256"
        },
        {
          "indexed": false,
          "internalType": "uint256",
          "name": "timestamp",
          "type": "uint256"
        }
      ],
      "name": "LiquidityProvided",
      "type": "event"
    },
    {
      "anonymous": false,
      "inputs": [
        {
          "indexed": true,
          "internalType": "address",
          "name": "provider",
          "type": "address"
        },
        {
          "indexed": false,
          "internalType": "uint256",
          "name": "amount",
          "type": "uint256"
        },
        {
          "indexed": false,
          "internalType": "uint256",
          "name": "lpTokensBurned",
          "type": "uint256"
        },
        {
          "indexed": false,
          "internalType": "uint256",
          "name": "interestEarned",
          "type": "uint256"
        },
        {
          "indexed": false,
          "internalType": "uint256",
          "name": "timestamp",
          "type": "uint256"
        }
      ],
      "name": "LiquidityWithdrawn",
      "type": "event"
    },
    {
      "anonymous": false,
      "inputs": [
        {
          "indexed": true,
          "internalType": "address",
          "name": "borrower",
          "type": "address"
        },
        {
          "indexed": false,
          "internalType": "uint256",
          "name": "collateralSeized",
          "type": "uint256"
        },
        {
          "indexed": false,
          "internalType": "uint256",
          "name": "timestamp",
          "type": "uint256"
        }
      ],
      "name": "LoanLiquidated",
      "type": "event"
    },
    {
      "anonymous": false,
      "inputs": [
        {
          "indexed": true,
          "internalType": "address",
          "name": "borrower",
          "type": "address"
        },
        {
          "indexed": false,
          "internalType": "uint256",
          "name": "repayAmount",
          "type": "uint256"
        },
        {
          "indexed": false,
          "internalType": "uint256",
          "name": "timestamp",
          "type": "uint256"
        }
      ],
      "name": "LoanRepaid",
      "type": "event"
    },
    {
      "anonymous": false,
      "inputs": [
        {
          "indexed": true,
          "internalType": "address",
          "name": "borrower",
          "type": "address"
        },
        {
          "indexed": false,
          "internalType": "uint256",
          "name": "loanAmount",
          "type": "uint256"
        },
        {
          "indexed": false,
          "internalType": "uint256",
          "name": "collateralAmount",
          "type": "uint256"
        },
        {
          "indexed": false,
          "internalType": "uint256",
          "name": "repayAmount",
          "type": "uint256"
        },
        {
          "indexed": false,
          "internalType": "uint256",
          "name": "timestamp",
          "type": "uint256"
        }
      ],
      "name": "LoanTaken",
      "type": "event"
    },
    {
      "anonymous": false,
      "inputs": [
        {
          "indexed": false,
          "internalType": "uint256",
          "name": "totalLiquidity",
          "type": "uint256"
        },
        {
          "indexed": false,
          "internalType": "uint256",
          "name": "availableLiquidity",
          "type": "uint256"
        },
        {
          "indexed": false,
          "internalType": "uint256",
          "name": "totalBorrowed",
          "type": "uint256"
        },
        {
          "indexed": false,
          "internalType": "uint256",
          "name": "utilizationRate",
          "type": "uint256"
        },
        {
          "indexed": false,
          "internalType": "uint256",
          "name": "timestamp",
          "type": "uint256"
        }
      ],
      "name": "PoolStatsUpdated",
      "type": "event"
    },
    {
      "inputs": [],
      "name": "COLLATERALIZATION_RATIO",
      "outputs": [
        {
          "internalType": "uint256",
          "name": "",
          "type": "uint256"
        }
      ],
      "stateMutability": "view",
      "type": "function"
    },
    {
      "inputs": [],
      "name": "INTEREST_RATE",
      "outputs": [
        {
          "internalType": "uint256",
          "name": "",
          "type": "uint256"
        }
      ],
      "stateMutability": "view",
      "type": "function"
    },
    {
      "inputs": [],
      "name": "LIQUIDATION_THRESHOLD",
      "outputs": [
        {
          "internalType": "uint256",
          "name": "",
          "type": "uint256"
        }
      ],
      "stateMutability": "view",
      "type": "function"
    },
    {
      "inputs": [],
      "name": "USDC",
      "outputs": [
        {
          "internalType": "address",
          "name": "",
          "type": "address"
        }
      ],
      "stateMutability": "view",
      "type": "function"
    },
    {
      "inputs": [
        {
          "internalType": "uint256",
          "name": "",
          "type": "uint256"
        }
      ],
      "name": "activeBorrowers",
      "outputs": [
        {
          "internalType": "address",
          "name": "",
          "type": "address"
        }
      ],
      "stateMutability": "view",
      "type": "function"
    },
    {
      "inputs": [
        {
          "internalType": "address",
          "name": "_token",
          "type": "address"
        }
      ],
      "name": "addCollateralToken",
      "outputs": [],
      "stateMutability": "nonpayable",
      "type": "function"
    },
    {
      "inputs": [],
      "name": "admin",
      "outputs": [
        {
          "internalType": "address",
          "name": "",
          "type": "address"
        }
      ],
      "stateMutability": "view",
      "type": "function"
    },
    {
      "inputs": [],
      "name": "availableLiquidity",
      "outputs": [
        {
          "internalType": "uint256",
          "name": "",
          "type": "uint256"
        }
      ],
      "stateMutability": "view",
      "type": "function"
    },
    {
      "inputs": [],
      "name": "baseAPY",
      "outputs": [
        {
          "internalType": "uint256",
          "name": "",
          "type": "uint256"
        }
      ],
      "stateMutability": "view",
      "type": "function"
    },
    {
      "inputs": [
        {
          "internalType": "uint256",
          "name": "",
          "type": "uint256"
        }
      ],
      "name": "collateralTokens",
      "outputs": [
        {
          "internalType": "address",
          "name": "",
          "type": "address"
        }
      ],
      "stateMutability": "view",
      "type": "function"
    },
    {
      "inputs": [
        {
          "internalType": "address",
          "name": "collateralToken",
          "type": "address"
        },
        {
          "internalType": "uint256",
          "name": "collateralAmount",
          "type": "uint256"
        }
      ],
      "name": "getCollateralValue",
      "outputs": [
        {
          "internalType": "uint256",
          "name": "",
          "type": "uint256"
        }
      ],
      "stateMutability": "view",
      "type": "function"
    },
    {
      "inputs": [],
      "name": "getLPToken",
      "outputs": [
        {
          "internalType": "address",
          "name": "",
          "type": "address"
        }
      ],
      "stateMutability": "view",
      "type": "function"
    },
    {
      "inputs": [
        {
          "internalType": "address",
          "name": "provider",
          "type": "address"
        }
      ],
      "name": "getLiquidityPosition",
      "outputs": [
        {
          "internalType": "uint256",
          "name": "amountProvided",
          "type": "uint256"
        },
        {
          "internalType": "uint256",
          "name": "lpTokensReceived",
          "type": "uint256"
        },
        {
          "internalType": "uint256",
          "name": "depositDate",
          "type": "uint256"
        },
        {
          "internalType": "uint256",
          "name": "accruedInterest",
          "type": "uint256"
        }
      ],
      "stateMutability": "view",
      "type": "function"
    },
    {
      "inputs": [
        {
          "internalType": "address",
          "name": "borrower",
          "type": "address"
        }
      ],
      "name": "getLoan",
      "outputs": [
        {
          "internalType": "address",
          "name": "collateralToken",
          "type": "address"
        },
        {
          "internalType": "uint256",
          "name": "loanAmount",
          "type": "uint256"
        },
        {
          "internalType": "uint256",
          "name": "collateralAmount",
          "type": "uint256"
        },
        {
          "internalType": "uint256",
          "name": "repayAmount",
          "type": "uint256"
        },
        {
          "internalType": "uint256",
          "name": "borrowDate",
          "type": "uint256"
        },
        {
          "internalType": "bool",
          "name": "isActive",
          "type": "bool"
        },
        {
          "internalType": "bool",
          "name": "isLiquidated",
          "type": "bool"
        }
      ],
      "stateMutability": "view",
      "type": "function"
    },
    {
      "inputs": [
        {
          "internalType": "address",
          "name": "collateralToken",
          "type": "address"
        },
        {
          "internalType": "uint256",
          "name": "collateralAmount",
          "type": "uint256"
        }
      ],
      "name": "getMaxLoanAmount",
      "outputs": [
        {
          "internalType": "uint256",
          "name": "",
          "type": "uint256"
        }
      ],
      "stateMutability": "view",
      "type": "function"
    },
    {
      "inputs": [],
      "name": "getPoolStats",
      "outputs": [
        {
          "internalType": "uint256",
          "name": "_totalLiquidity",
          "type": "uint256"
        },
        {
          "internalType": "uint256",
          "name": "_availableLiquidity",
          "type": "uint256"
        },
        {
          "internalType": "uint256",
          "name": "_totalBorrowed",
          "type": "uint256"
        },
        {
          "internalType": "uint256",
          "name": "_utilizationRate",
          "type": "uint256"
        },
        {
          "internalType": "uint256",
          "name": "_currentAPY",
          "type": "uint256"
        }
      ],
      "stateMutability": "view",
      "type": "function"
    },
    {
      "inputs": [],
      "name": "getSupportedCollateral",
      "outputs": [
        {
          "internalType": "address[]",
          "name": "",
          "type": "address[]"
        }
      ],
      "stateMutability": "view",
      "type": "function"
    },
    {
      "inputs": [
        {
          "internalType": "address",
          "name": "token",
          "type": "address"
        }
      ],
      "name": "isCollateralSupported",
      "outputs": [
        {
          "internalType": "bool",
          "name": "",
          "type": "bool"
        }
      ],
      "stateMutability": "view",
      "type": "function"
    },
    {
      "inputs": [
        {
          "internalType": "address",
          "name": "borrower",
          "type": "address"
        }
      ],
      "name": "liquidateLoan",
      "outputs": [],
      "stateMutability": "nonpayable",
      "type": "function"
    },
    {
      "inputs": [
        {
          "internalType": "address",
          "name": "",
          "type": "address"
        }
      ],
      "name": "liquidityPositions",
      "outputs": [
        {
          "internalType": "address",
          "name": "provider",
          "type": "address"
        },
        {
          "internalType": "uint256",
          "name": "amountProvided",
          "type": "uint256"
        },
        {
          "internalType": "uint256",
          "name": "lpTokensReceived",
          "type": "uint256"
        },
        {
          "internalType": "uint256",
          "name": "depositDate",
          "type": "uint256"
        },
        {
          "internalType": "uint256",
          "name": "accruedInterest",
          "type": "uint256"
        }
      ],
      "stateMutability": "view",
      "type": "function"
    },
    {
      "inputs": [
        {
          "internalType": "uint256",
          "name": "",
          "type": "uint256"
        }
      ],
      "name": "liquidityProviders",
      "outputs": [
        {
          "internalType": "address",
          "name": "",
          "type": "address"
        }
      ],
      "stateMutability": "view",
      "type": "function"
    },
    {
      "inputs": [
        {
          "internalType": "address",
          "name": "",
          "type": "address"
        }
      ],
      "name": "loans",
      "outputs": [
        {
          "internalType": "address",
          "name": "borrower",
          "type": "address"
        },
        {
          "internalType": "address",
          "name": "collateralToken",
          "type": "address"
        },
        {
          "internalType": "uint256",
          "name": "loanAmountUSDC",
          "type": "uint256"
        },
        {
          "internalType": "uint256",
          "name": "collateralAmount",
          "type": "uint256"
        },
        {
          "internalType": "uint256",
          "name": "liquidationPrice",
          "type": "uint256"
        },
        {
          "internalType": "uint256",
          "name": "repayAmountUSDC",
          "type": "uint256"
        },
        {
          "internalType": "uint256",
          "name": "borrowDate",
          "type": "uint256"
        },
        {
          "internalType": "bool",
          "name": "isActive",
          "type": "bool"
        },
        {
          "internalType": "bool",
          "name": "isLiquidated",
          "type": "bool"
        }
      ],
      "stateMutability": "view",
      "type": "function"
    },
    {
      "inputs": [],
      "name": "lpToken",
      "outputs": [
        {
          "internalType": "contract LPToken",
          "name": "",
          "type": "address"
        }
      ],
      "stateMutability": "view",
      "type": "function"
    },
    {
      "inputs": [],
      "name": "oracle",
      "outputs": [
        {
          "internalType": "contract PriceOracle",
          "name": "",
          "type": "address"
        }
      ],
      "stateMutability": "view",
      "type": "function"
    },
    {
      "inputs": [
        {
          "internalType": "uint256",
          "name": "amount",
          "type": "uint256"
        }
      ],
      "name": "provideLiquidity",
      "outputs": [],
      "stateMutability": "nonpayable",
      "type": "function"
    },
    {
      "inputs": [
        {
          "internalType": "address",
          "name": "_token",
          "type": "address"
        }
      ],
      "name": "removeCollateralToken",
      "outputs": [],
      "stateMutability": "nonpayable",
      "type": "function"
    },
    {
      "inputs": [],
      "name": "repayLoan",
      "outputs": [],
      "stateMutability": "nonpayable",
      "type": "function"
    },
    {
      "inputs": [
        {
          "internalType": "address",
          "name": "_oracle",
          "type": "address"
        }
      ],
      "name": "setOracle",
      "outputs": [],
      "stateMutability": "nonpayable",
      "type": "function"
    },
    {
      "inputs": [
        {
          "internalType": "address",
          "name": "",
          "type": "address"
        }
      ],
      "name": "supportedCollateral",
      "outputs": [
        {
          "internalType": "bool",
          "name": "",
          "type": "bool"
        }
      ],
      "stateMutability": "view",
      "type": "function"
    },
    {
      "inputs": [
        {
          "internalType": "address",
          "name": "collateralToken",
          "type": "address"
        },
        {
          "internalType": "uint256",
          "name": "collateralAmount",
          "type": "uint256"
        },
        {
          "internalType": "uint256",
          "name": "loanAmount",
          "type": "uint256"
        }
      ],
      "name": "takeLoan",
      "outputs": [],
      "stateMutability": "nonpayable",
      "type": "function"
    },
    {
      "inputs": [],
      "name": "totalBorrowed",
      "outputs": [
        {
          "internalType": "uint256",
          "name": "",
          "type": "uint256"
        }
      ],
      "stateMutability": "view",
      "type": "function"
    },
    {
      "inputs": [],
      "name": "totalLiquidity",
      "outputs": [
        {
          "internalType": "uint256",
          "name": "",
          "type": "uint256"
        }
      ],
      "stateMutability": "view",
      "type": "function"
    },
    {
      "inputs": [
        {
          "internalType": "uint256",
          "name": "newAPY",
          "type": "uint256"
        }
      ],
      "name": "updateAPY",
      "outputs": [],
      "stateMutability": "nonpayable",
      "type": "function"
    },
    {
      "inputs": [
        {
          "internalType": "uint256",
          "name": "lpTokenAmount",
          "type": "uint256"
        }
      ],
      "name": "withdrawLiquidity",
      "outputs": [],
      "stateMutability": "nonpayable",
      "type": "function"
    }
  ],
  "bytecode": "0x6080604052610352600755348015610015575f5ffd5b50604051612d22380380612d22833981016040819052610034916101e6565b6001600160a01b03821661008f5760405162461bcd60e51b815260206004820152601460248201527f496e76616c69642055534443206164647265737300000000000000000000000060448201526064015b60405180910390fd5b6001600160a01b0381166100e55760405162461bcd60e51b815260206004820152601660248201527f496e76616c6964206f7261636c652061646472657373000000000000000000006044820152606401610086565b5f8054336001600160a01b0319918216179091556001805482166001600160a01b03858116919091179091556002805490921690831617905560405161012a906101be565b60408082526016908201527f436f66666565204c656e64696e6720506f6f6c204c50000000000000000000006060820152608060208201819052600690820152650434c502d4c560d41b60a082015260c001604051809103905ff080158015610195573d5f5f3e3d5ffd5b50600380546001600160a01b0319166001600160a01b0392909216919091179055506102179050565b610bff8061212383390190565b80516001600160a01b03811681146101e1575f5ffd5b919050565b5f5f604083850312156101f7575f5ffd5b610200836101cb565b915061020e602084016101cb565b90509250929050565b611eff806102245f395ff3fe608060405234801561000f575f5ffd5b5060043610610194575f3560e01c80630416073d146101985780630a861f2a1461022257806315770f9214610237578063172c48c71461024e578063214405a91461026e57806329918899146102775780632b037c571461028a57806333481fc91461029d5780633402ff1d146103925780633c1aa9251461039a578063448265a7146103ab5780634c19386c146103be5780635b72a33a146103c75780635fcbd285146103cf5780636fd0ea92146103e257806373b4086b1461045a57806374375359146105165780637adbf9731461051f5780637dc0d1d01461053257806389a302711461054557806390a8ae9b1461055857806394f9059f1461056057806396212916146105735780639eb7879814610586578063bbb8518814610599578063bbdfa00e146105b2578063cc1d818f146105c5578063e2ee7f9e146105d8578063eb521a4c146105ed578063f851a44014610600578063f966ade714610612578063fa550eba1461061a578063fa6bd2ee1461064c578063fae728cd14610677575b5f5ffd5b6102096101a6366004611c29565b6001600160a01b039081165f908152600b6020908152604091829020825160a08101845281549094168452600181015491840182905260028101549284018390526003810154606085018190526004909101546080909401849052909391929091565b6040516102199493929190611c49565b60405180910390f35b610235610230366004611c64565b61068a565b005b61024060045481565b604051908152602001610219565b61026161025c366004611c64565b6109fa565b6040516102199190611c7b565b61024060075481565b610235610285366004611c29565b610a22565b610240610298366004611c8f565b610b9c565b61034f6102ab366004611c29565b6001600160a01b039081165f908152600a60209081526040918290208251610120810184528154851681526001820154909416918401829052600281015492840183905260038101546060850181905260048201546080860152600582015460a08601819052600683015460c0870181905260079093015460ff808216151560e0890181905261010092839004909116151591909701819052939694959194909390565b604080516001600160a01b03909816885260208801969096529486019390935260608501919091526080840152151560a0830152151560c082015260e001610219565b610240607d81565b6003546001600160a01b0316610261565b6102356103b9366004611cb7565b610c25565b61024060065481565b610240600a81565b600354610261906001600160a01b031681565b6104286103f0366004611c29565b600b6020525f9081526040902080546001820154600283015460038401546004909401546001600160a01b0390931693919290919085565b604080516001600160a01b0390961686526020860194909452928401919091526060830152608082015260a001610219565b6104c3610468366004611c29565b600a6020525f9081526040902080546001820154600283015460038401546004850154600586015460068701546007909701546001600160a01b03968716979590961695939492939192909160ff8082169161010090041689565b604080516001600160a01b039a8b1681529990981660208a0152968801959095526060870193909352608086019190915260a085015260c0840152151560e0830152151561010082015261012001610219565b61024060055481565b61023561052d366004611c29565b6111ba565b600254610261906001600160a01b031681565b600154610261906001600160a01b031681565b610240605a81565b61023561056e366004611c29565b611254565b610261610581366004611c64565b61132b565b610261610594366004611c64565b61133a565b6105a1611349565b604051610219959493929190611ce7565b6102356105c0366004611c29565b611397565b6102406105d3366004611c8f565b6114b0565b6105e06114d5565b6040516102199190611d0a565b6102356105fb366004611c64565b611535565b5f54610261906001600160a01b031681565b610235611854565b61063c610628366004611c29565b60086020525f908152604090205460ff1681565b6040519015158152602001610219565b61063c61065a366004611c29565b6001600160a01b03165f9081526008602052604090205460ff1690565b610235610685366004611c64565b611a73565b5f81116106b25760405162461bcd60e51b81526004016106a990611d55565b60405180910390fd5b6003546040516370a0823160e01b815282916001600160a01b0316906370a08231906106e2903390600401611c7b565b602060405180830381865afa1580156106fd573d5f5f3e3d5ffd5b505050506040513d601f19601f820116820180604052508101906107219190611d86565b10156107685760405162461bcd60e51b8152602060048201526016602482015275496e73756666696369656e74204c5020746f6b656e7360501b60448201526064016106a9565b600354604080516318160ddd60e01b815290515f926001600160a01b0316916318160ddd9160048083019260209291908290030181865afa1580156107af573d5f5f3e3d5ffd5b505050506040513d601f19601f820116820180604052508101906107d39190611d86565b90505f81600454846107e59190611db1565b6107ef9190611dc8565b90506005548111156108435760405162461bcd60e51b815260206004820181905260248201527f496e73756666696369656e74206c697175696469747920617661696c61626c6560448201526064016106a9565b600354604051632770a7eb60e21b81526001600160a01b0390911690639dc29fac906108759033908790600401611de7565b5f604051808303815f87803b15801561088c575f5ffd5b505af115801561089e573d5f5f3e3d5ffd5b505060015460405163a9059cbb60e01b81526001600160a01b03909116925063a9059cbb91506108d49033908590600401611de7565b6020604051808303815f875af11580156108f0573d5f5f3e3d5ffd5b505050506040513d601f19601f820116820180604052508101906109149190611e00565b50335f908152600b602052604081206004810154600190910180549192849261093e908490611e1f565b9091555050335f908152600b602052604081206002018054869290610964908490611e1f565b9091555050335f908152600b602052604081206004908101829055805484929061098f908490611e1f565b925050819055508160055f8282546109a79190611e1f565b909155505060405133907f719aab509d982a076413fcfa8055869d7ac930109cda0dde19dbc605bf2d1131906109e4908590889086904290611c49565b60405180910390a26109f4611aec565b50505050565b60098181548110610a09575f80fd5b5f918252602090912001546001600160a01b0316905081565b5f546001600160a01b03163314610a4b5760405162461bcd60e51b81526004016106a990611e32565b6001600160a01b038116610a995760405162461bcd60e51b8152602060048201526015602482015274496e76616c696420746f6b656e206164647265737360581b60448201526064016106a9565b6001600160a01b0381165f9081526008602052604090205460ff1615610afb5760405162461bcd60e51b8152602060048201526017602482015276151bdad95b88185b1c9958591e481cdd5c1c1bdc9d1959604a1b60448201526064016106a9565b6001600160a01b0381165f81815260086020526040808220805460ff191660019081179091556009805491820181559092527f6e1540171b6c0c960b71a7020d9f60077f6af931a8bbf590da0223dacf75c7af90910180546001600160a01b03191683179055517f7dba1be544024070cd5eebfa8bdd80a8b198cea8058c7d3cc1f8dd36e41ab2f790610b919042815260200190565b60405180910390a250565b6002546040516341976e0960e01b81525f9182916001600160a01b03909116906341976e0990610bd0908790600401611c7b565b602060405180830381865afa158015610beb573d5f5f3e3d5ffd5b505050506040513d601f19601f82011682018060405250810190610c0f9190611d86565b9050610c1b8184611db1565b9150505b92915050565b6001600160a01b0383165f9081526008602052604090205460ff16610c8c5760405162461bcd60e51b815260206004820152601e60248201527f436f6c6c61746572616c20746f6b656e206e6f7420737570706f72746564000060448201526064016106a9565b5f8211610cd95760405162461bcd60e51b815260206004820152601b60248201527a436f6c6c61746572616c206d75737420626520706f73697469766560281b60448201526064016106a9565b5f8111610d275760405162461bcd60e51b815260206004820152601c60248201527b4c6f616e20616d6f756e74206d75737420626520706f73697469766560201b60448201526064016106a9565b335f908152600a602052604090206007015460ff1615610d945760405162461bcd60e51b815260206004820152602260248201527f4578697374696e67206c6f616e206d75737420626520726570616964206669726044820152611cdd60f21b60648201526084016106a9565b600554811115610de45760405162461bcd60e51b815260206004820152601b60248201527a496e73756666696369656e7420706f6f6c206c697175696469747960281b60448201526064016106a9565b6002546040516341976e0960e01b81525f916001600160a01b0316906341976e0990610e14908790600401611c7b565b602060405180830381865afa158015610e2f573d5f5f3e3d5ffd5b505050506040513d601f19601f82011682018060405250810190610e539190611d86565b90505f8111610e9a5760405162461bcd60e51b8152602060048201526013602482015272151bdad95b881c1c9a58d9481b9bdd081cd95d606a1b60448201526064016106a9565b5f610ea58285611db1565b90505f6064610eb5607d86611db1565b610ebf9190611dc8565b905080821015610f0b5760405162461bcd60e51b8152602060048201526017602482015276125b9cdd59999a58da595b9d0818dbdb1b185d195c985b604a1b60448201526064016106a9565b6040516323b872dd60e01b81526001600160a01b038716906323b872dd90610f3b90339030908a90600401611e56565b6020604051808303815f875af1158015610f57573d5f5f3e3d5ffd5b505050506040513d601f19601f82011682018060405250810190610f7b9190611e00565b505f6064610f8a605a87611db1565b610f949190611dc8565b90505f6064610fa4600a82611e7a565b610fae9088611db1565b610fb89190611dc8565b6040805161012081018252338082526001600160a01b038c811660208085019182528486018d8152606086018f8152608087018b815260a088018a81524260c08a01908152600160e08b018181525f610100808e018281528d8352600a909a528e82209d518e54908d166001600160a01b0319918216178f559a518e85018054918e16918d16919091179055975160028e0155955160038d015593516004808d0191909155925160058c0155905160068b01559151600790990180549551151590940261ff00199915159990991661ffff199095169490941797909717909155600d8054808801825591527fd7b6990105719101dabeb77144f2a3385c8033acd3af97e9423a695e81ad1eb501805490921684179091559254935163a9059cbb60e01b8152949550929092169263a9059cbb926110f99290918b9101611de7565b6020604051808303815f875af1158015611115573d5f5f3e3d5ffd5b505050506040513d601f19601f820116820180604052508101906111399190611e00565b508560055f82825461114b9190611e1f565b925050819055508560065f8282546111639190611e7a565b909155505060405133907f3f478d236b455d7d3dc62eca215916a19fd838bae1a6478397e39d840a7a2ff4906111a09089908b9086904290611c49565b60405180910390a26111b0611aec565b5050505050505050565b5f546001600160a01b031633146111e35760405162461bcd60e51b81526004016106a990611e32565b6001600160a01b0381166112325760405162461bcd60e51b8152602060048201526016602482015275496e76616c6964206f7261636c65206164647265737360501b60448201526064016106a9565b600280546001600160a01b0319166001600160a01b0392909216919091179055565b5f546001600160a01b0316331461127d5760405162461bcd60e51b81526004016106a990611e32565b6001600160a01b0381165f9081526008602052604090205460ff166112da5760405162461bcd60e51b8152602060048201526013602482015272151bdad95b881b9bdd081cdd5c1c1bdc9d1959606a1b60448201526064016106a9565b6001600160a01b0381165f8181526008602052604090819020805460ff19169055517f12c7466676da8453fdc8fb091f1a24d31919043a79a50ebe022867a5f5c1ed3490610b919042815260200190565b600c8181548110610a09575f80fd5b600d8181548110610a09575f80fd5b5f5f5f5f5f5f5f6004541161135e575f61137a565b60045460065461137090612710611db1565b61137a9190611dc8565b600454600554600654600754929a91995097509195509350915050565b5f546001600160a01b031633146113c05760405162461bcd60e51b81526004016106a990611e32565b6001600160a01b0381165f908152600a60205260409020600781015460ff166113fb5760405162461bcd60e51b81526004016106a990611e8d565b6007810154610100900460ff161561144a5760405162461bcd60e51b8152602060048201526012602482015271105b1c9958591e481b1a5c5d5a59185d195960721b60448201526064016106a9565b60078101805461ffff19166101001790556003810154604080519182524260208301526001600160a01b038416917fd824958ef8d9fecce6174008737831045eb3ca61b81f1ff2072bb58f919a5a4a91015b60405180910390a26114ac611aec565b5050565b5f5f6114bc8484610b9c565b9050607d6114cb826064611db1565b610c1b9190611dc8565b6060600980548060200260200160405190810160405280929190818152602001828054801561152b57602002820191905f5260205f20905b81546001600160a01b0316815260019091019060200180831161150d575b5050505050905090565b6003546001600160a01b03166115845760405162461bcd60e51b81526020600482015260146024820152731314081d1bdad95b881b9bdd0818dc99585d195960621b60448201526064016106a9565b5f81116115a35760405162461bcd60e51b81526004016106a990611d55565b6001546040516323b872dd60e01b81526001600160a01b03909116906323b872dd906115d790339030908690600401611e56565b6020604051808303815f875af11580156115f3573d5f5f3e3d5ffd5b505050506040513d601f19601f820116820180604052508101906116179190611e00565b506004548190156116b05760045460035f9054906101000a90046001600160a01b03166001600160a01b03166318160ddd6040518163ffffffff1660e01b8152600401602060405180830381865afa158015611675573d5f5f3e3d5ffd5b505050506040513d601f19601f820116820180604052508101906116999190611d86565b6116a39084611db1565b6116ad9190611dc8565b90505b6003546040516340c10f1960e01b81526001600160a01b03909116906340c10f19906116e29033908590600401611de7565b5f604051808303815f87803b1580156116f9575f5ffd5b505af115801561170b573d5f5f3e3d5ffd5b5050335f908152600b60205260409020546001600160a01b0316915061176f905057600c80546001810182555f919091527fdf6966c971051c3d54ec59162606531493a51404a002842f56009d7e5cf4a8c70180546001600160a01b031916331790555b335f818152600b6020526040812080546001600160a01b0319169092178255600190910180548492906117a3908490611e7a565b9091555050335f908152600b6020526040812060020180548392906117c9908490611e7a565b9091555050335f908152600b6020526040812042600390910155600480548492906117f5908490611e7a565b925050819055508160055f82825461180d9190611e7a565b90915550506040805183815260208101839052429181019190915233907f3bca7014f4c0ccc8016338c79f4c00e82068dbadaf4f01ca5449040fdd39f5009060600161149c565b335f908152600a60205260409020600781015460ff166118865760405162461bcd60e51b81526004016106a990611e8d565b6007810154610100900460ff16156118da5760405162461bcd60e51b8152602060048201526017602482015276131bd85b88185b1c9958591e481b1a5c5d5a59185d1959604a1b60448201526064016106a9565b60015460058201546040516323b872dd60e01b81526001600160a01b03909216916323b872dd916119119133913091600401611e56565b6020604051808303815f875af115801561192d573d5f5f3e3d5ffd5b505050506040513d601f19601f820116820180604052508101906119519190611e00565b506001810154600382015460405163a9059cbb60e01b81526001600160a01b039092169163a9059cbb9161198a91339190600401611de7565b6020604051808303815f875af11580156119a6573d5f5f3e3d5ffd5b505050506040513d601f19601f820116820180604052508101906119ca9190611e00565b505f816002015482600501546119e09190611e1f565b9050816005015460055f8282546119f79190611e7a565b90915550506002820154600680545f90611a12908490611e1f565b909155505060058201546040805191825242602083015233917fc7ce0a35f17b490de2a317e7fecb2cae86b1abffb03800b2f492823521382698910160405180910390a260078201805460ff19169055611a6b81611b62565b6114ac611aec565b5f546001600160a01b03163314611a9c5760405162461bcd60e51b81526004016106a990611e32565b612710811115611ae75760405162461bcd60e51b81526020600482015260166024820152754150592063616e6e6f7420657863656564203130302560501b60448201526064016106a9565b600755565b5f5f60045411611afc575f611b18565b600454600654611b0e90612710611db1565b611b189190611dc8565b90507f90ba29f082dfd504d4fb7b8e33ef6fbcb73407c960304ced887a1d024903fb616004546005546006548442604051611b57959493929190611ce7565b60405180910390a150565b600c541580611b715750600454155b15611b795750565b5f5b600c548110156114ac575f600c8281548110611b9957611b99611eb5565b5f9182526020808320909101546001600160a01b0316808352600b909152604090912060018101549192509015611c04575f600454858360010154611bde9190611db1565b611be89190611dc8565b905080826004015f828254611bfd9190611e7a565b9091555050505b5050600101611b7b565b80356001600160a01b0381168114611c24575f5ffd5b919050565b5f60208284031215611c39575f5ffd5b611c4282611c0e565b9392505050565b93845260208401929092526040830152606082015260800190565b5f60208284031215611c74575f5ffd5b5035919050565b6001600160a01b0391909116815260200190565b5f5f60408385031215611ca0575f5ffd5b611ca983611c0e565b946020939093013593505050565b5f5f5f60608486031215611cc9575f5ffd5b611cd284611c0e565b95602085013595506040909401359392505050565b948552602085019390935260408401919091526060830152608082015260a00190565b602080825282518282018190525f918401906040840190835b81811015611d4a5783516001600160a01b0316835260209384019390920191600101611d23565b509095945050505050565b602080825260179082015276416d6f756e74206d75737420626520706f73697469766560481b604082015260600190565b5f60208284031215611d96575f5ffd5b5051919050565b634e487b7160e01b5f52601160045260245ffd5b8082028115828204841417610c1f57610c1f611d9d565b5f82611de257634e487b7160e01b5f52601260045260245ffd5b500490565b6001600160a01b03929092168252602082015260400190565b5f60208284031215611e10575f5ffd5b81518015158114611c42575f5ffd5b81810381811115610c1f57610c1f611d9d565b6020808252600a908201526927b7363c9030b236b4b760b11b604082015260600190565b6001600160a01b039384168152919092166020820152604081019190915260600190565b80820180821115610c1f57610c1f611d9d565b6020808252600e908201526d27379030b1ba34bb32903637b0b760911b604082015260600190565b634e487b7160e01b5f52603260045260245ffdfea26469706673582212206a2b16cac7228515e614af96446ba549d96702ea7aadaa1ad44cbed57222607b64736f6c634300081d0033608060405234801561000f575f5ffd5b50604051610bff380380610bff83398101604081905261002e91610179565b338282600361003d8382610262565b50600461004a8282610262565b5050506001600160a01b03811661007a57604051631e4fbdf760e01b81525f600482015260240160405180910390fd5b6100838161008b565b50505061031c565b600580546001600160a01b038381166001600160a01b0319831681179093556040519116919082907f8be0079c531659141344cd1fd0a4f28419497f9722a3daafe3b4186f6b6457e0905f90a35050565b634e487b7160e01b5f52604160045260245ffd5b5f82601f8301126100ff575f5ffd5b81516001600160401b03811115610118576101186100dc565b604051601f8201601f19908116603f011681016001600160401b0381118282101715610146576101466100dc565b60405281815283820160200185101561015d575f5ffd5b8160208501602083015e5f918101602001919091529392505050565b5f5f6040838503121561018a575f5ffd5b82516001600160401b0381111561019f575f5ffd5b6101ab858286016100f0565b602085015190935090506001600160401b038111156101c8575f5ffd5b6101d4858286016100f0565b9150509250929050565b600181811c908216806101f257607f821691505b60208210810361021057634e487b7160e01b5f52602260045260245ffd5b50919050565b601f82111561025d57805f5260205f20601f840160051c8101602085101561023b5750805b601f840160051c820191505b8181101561025a575f8155600101610247565b50505b505050565b81516001600160401b0381111561027b5761027b6100dc565b61028f8161028984546101de565b84610216565b6020601f8211600181146102c1575f83156102aa5750848201515b5f19600385901b1c1916600184901b17845561025a565b5f84815260208120601f198516915b828110156102f057878501518255602094850194600190920191016102d0565b508482101561030d57868401515f19600387901b60f8161c191681555b50505050600190811b01905550565b6108d6806103295f395ff3fe608060405234801561000f575f5ffd5b50600436106100b8575f3560e01c806306fdde03146100bc578063095ea7b3146100da57806318160ddd146100fd57806323b872dd1461010f578063313ce5671461012257806340c10f191461013157806370a0823114610146578063715018a61461016e5780638da5cb5b1461017657806395d89b411461018b5780639dc29fac14610193578063a9059cbb146101a6578063dd62ed3e146101b9578063f2fde38b146101cc575b5f5ffd5b6100c46101df565b6040516100d19190610711565b60405180910390f35b6100ed6100e8366004610761565b61026f565b60405190151581526020016100d1565b6002545b6040519081526020016100d1565b6100ed61011d366004610789565b610288565b604051600681526020016100d1565b61014461013f366004610761565b6102ab565b005b6101016101543660046107c3565b6001600160a01b03165f9081526020819052604090205490565b6101446102c1565b61017e6102d4565b6040516100d191906107e3565b6100c46102e3565b6101446101a1366004610761565b6102f2565b6100ed6101b4366004610761565b610304565b6101016101c73660046107f7565b610311565b6101446101da3660046107c3565b61033b565b6060600380546101ee90610828565b80601f016020809104026020016040519081016040528092919081815260200182805461021a90610828565b80156102655780601f1061023c57610100808354040283529160200191610265565b820191905f5260205f20905b81548152906001019060200180831161024857829003601f168201915b5050505050905090565b5f3361027c818585610381565b60019150505b92915050565b5f33610295858285610393565b6102a08585856103e4565b506001949350505050565b6102b3610441565b6102bd8282610473565b5050565b6102c9610441565b6102d25f6104a7565b565b6005546001600160a01b031690565b6060600480546101ee90610828565b6102fa610441565b6102bd82826104f8565b5f3361027c8185856103e4565b6001600160a01b039182165f90815260016020908152604080832093909416825291909152205490565b610343610441565b6001600160a01b038116610375575f604051631e4fbdf760e01b815260040161036c91906107e3565b60405180910390fd5b61037e816104a7565b50565b61038e838383600161052c565b505050565b5f61039e8484610311565b90505f198110156103de57818110156103d057828183604051637dc7a0d960e11b815260040161036c93929190610860565b6103de84848484035f61052c565b50505050565b6001600160a01b03831661040d575f604051634b637e8f60e11b815260040161036c91906107e3565b6001600160a01b038216610436575f60405163ec442f0560e01b815260040161036c91906107e3565b61038e8383836105fe565b3361044a6102d4565b6001600160a01b0316146102d2573360405163118cdaa760e01b815260040161036c91906107e3565b6001600160a01b03821661049c575f60405163ec442f0560e01b815260040161036c91906107e3565b6102bd5f83836105fe565b600580546001600160a01b038381166001600160a01b0319831681179093556040519116919082907f8be0079c531659141344cd1fd0a4f28419497f9722a3daafe3b4186f6b6457e0905f90a35050565b6001600160a01b038216610521575f604051634b637e8f60e11b815260040161036c91906107e3565b6102bd825f836105fe565b6001600160a01b038416610555575f60405163e602df0560e01b815260040161036c91906107e3565b6001600160a01b03831661057e575f604051634a1406b160e11b815260040161036c91906107e3565b6001600160a01b038085165f90815260016020908152604080832093871683529290522082905580156103de57826001600160a01b0316846001600160a01b03167f8c5be1e5ebec7d5bd14f71427d1e84f3dd0314c0f7b2291e5b200ac8c7c3b925846040516105f091815260200190565b60405180910390a350505050565b6001600160a01b038316610628578060025f82825461061d9190610881565b909155506106859050565b6001600160a01b0383165f90815260208190526040902054818110156106675783818360405163391434e360e21b815260040161036c93929190610860565b6001600160a01b0384165f9081526020819052604090209082900390555b6001600160a01b0382166106a1576002805482900390556106bf565b6001600160a01b0382165f9081526020819052604090208054820190555b816001600160a01b0316836001600160a01b03167fddf252ad1be2c89b69c2b068fc378daa952ba7f163c4a11628f55a4df523b3ef8360405161070491815260200190565b60405180910390a3505050565b602081525f82518060208401528060208501604085015e5f604082850101526040601f19601f83011684010191505092915050565b80356001600160a01b038116811461075c575f5ffd5b919050565b5f5f60408385031215610772575f5ffd5b61077b83610746565b946020939093013593505050565b5f5f5f6060848603121561079b575f5ffd5b6107a484610746565b92506107b260208501610746565b929592945050506040919091013590565b5f602082840312156107d3575f5ffd5b6107dc82610746565b9392505050565b6001600160a01b0391909116815260200190565b5f5f60408385031215610808575f5ffd5b61081183610746565b915061081f60208401610746565b90509250929050565b600181811c9082168061083c57607f821691505b60208210810361085a57634e487b7160e01b5f52602260045260245ffd5b50919050565b6001600160a01b039390931683526020830191909152604082015260600190565b8082018082111561028257634e487b7160e01b5f52601160045260245ffdfea2646970667358221220f36dfc85c5e08676fb8f3c8a71926bbf2c1de219d5c7855df19d9a692f4594ca64736f6c634300081d0033",
  "linkReferences": {},
  "deployedLinkReferences": {}
}