{
  "_format": "hh-sol-artifact-1",
  "contractName": "CoffeeLendingPool",
  "sourceName": "contracts/mantle/CoffeeLendingPool.sol",
  "abi": [
    {
      "inputs": [
        {
          "internalType": "address",
          "name": "_usdcToken",
          "type": "address"
        },
        {
          "internalType": "address",
          "name": "_coffeeTreeToken",
          "type": "address"
        }
      ],
      "stateMutability": "nonpayable",
      "type": "constructor"
    },
    {
      "anonymous": false,
      "inputs": [
        {
          "indexed": true,
          "internalType": "address",
          "name": "provider",
          "type": "address"
        },
        {
          "indexed": false,
          "internalType": "uint256",
          "name": "amount",
          "type": "uint256"
        },
        {
          "indexed": false,
          "internalType": "uint256",
          "name": "lpTokensReceived",
          "type": "uint256"
        },
        {
          "indexed": false,
          "internalType": "uint256",
          "name": "timestamp",
          "type": "uint256"
        }
      ],
      "name": "LiquidityProvided",
      "type": "event"
    },
    {
      "anonymous": false,
      "inputs": [
        {
          "indexed": true,
          "internalType": "address",
          "name": "provider",
          "type": "address"
        },
        {
          "indexed": false,
          "internalType": "uint256",
          "name": "amount",
          "type": "uint256"
        },
        {
          "indexed": false,
          "internalType": "uint256",
          "name": "lpTokensBurned",
          "type": "uint256"
        },
        {
          "indexed": false,
          "internalType": "uint256",
          "name": "interestEarned",
          "type": "uint256"
        },
        {
          "indexed": false,
          "internalType": "uint256",
          "name": "timestamp",
          "type": "uint256"
        }
      ],
      "name": "LiquidityWithdrawn",
      "type": "event"
    },
    {
      "anonymous": false,
      "inputs": [
        {
          "indexed": true,
          "internalType": "address",
          "name": "borrower",
          "type": "address"
        },
        {
          "indexed": false,
          "internalType": "uint256",
          "name": "collateralSeized",
          "type": "uint256"
        },
        {
          "indexed": false,
          "internalType": "uint256",
          "name": "timestamp",
          "type": "uint256"
        }
      ],
      "name": "LoanLiquidated",
      "type": "event"
    },
    {
      "anonymous": false,
      "inputs": [
        {
          "indexed": true,
          "internalType": "address",
          "name": "borrower",
          "type": "address"
        },
        {
          "indexed": false,
          "internalType": "uint256",
          "name": "repayAmount",
          "type": "uint256"
        },
        {
          "indexed": false,
          "internalType": "uint256",
          "name": "timestamp",
          "type": "uint256"
        }
      ],
      "name": "LoanRepaid",
      "type": "event"
    },
    {
      "anonymous": false,
      "inputs": [
        {
          "indexed": true,
          "internalType": "address",
          "name": "borrower",
          "type": "address"
        },
        {
          "indexed": false,
          "internalType": "uint256",
          "name": "loanAmount",
          "type": "uint256"
        },
        {
          "indexed": false,
          "internalType": "uint256",
          "name": "collateralAmount",
          "type": "uint256"
        },
        {
          "indexed": false,
          "internalType": "uint256",
          "name": "repayAmount",
          "type": "uint256"
        },
        {
          "indexed": false,
          "internalType": "uint256",
          "name": "timestamp",
          "type": "uint256"
        }
      ],
      "name": "LoanTaken",
      "type": "event"
    },
    {
      "anonymous": false,
      "inputs": [
        {
          "indexed": false,
          "internalType": "uint256",
          "name": "totalLiquidity",
          "type": "uint256"
        },
        {
          "indexed": false,
          "internalType": "uint256",
          "name": "availableLiquidity",
          "type": "uint256"
        },
        {
          "indexed": false,
          "internalType": "uint256",
          "name": "totalBorrowed",
          "type": "uint256"
        },
        {
          "indexed": false,
          "internalType": "uint256",
          "name": "utilizationRate",
          "type": "uint256"
        },
        {
          "indexed": false,
          "internalType": "uint256",
          "name": "timestamp",
          "type": "uint256"
        }
      ],
      "name": "PoolStatsUpdated",
      "type": "event"
    },
    {
      "inputs": [],
      "name": "COLLATERALIZATION_RATIO",
      "outputs": [
        {
          "internalType": "uint256",
          "name": "",
          "type": "uint256"
        }
      ],
      "stateMutability": "view",
      "type": "function"
    },
    {
      "inputs": [],
      "name": "INTEREST_RATE",
      "outputs": [
        {
          "internalType": "uint256",
          "name": "",
          "type": "uint256"
        }
      ],
      "stateMutability": "view",
      "type": "function"
    },
    {
      "inputs": [],
      "name": "LIQUIDATION_THRESHOLD",
      "outputs": [
        {
          "internalType": "uint256",
          "name": "",
          "type": "uint256"
        }
      ],
      "stateMutability": "view",
      "type": "function"
    },
    {
      "inputs": [],
      "name": "USDC",
      "outputs": [
        {
          "internalType": "address",
          "name": "",
          "type": "address"
        }
      ],
      "stateMutability": "view",
      "type": "function"
    },
    {
      "inputs": [
        {
          "internalType": "uint256",
          "name": "",
          "type": "uint256"
        }
      ],
      "name": "activeBorrowers",
      "outputs": [
        {
          "internalType": "address",
          "name": "",
          "type": "address"
        }
      ],
      "stateMutability": "view",
      "type": "function"
    },
    {
      "inputs": [],
      "name": "admin",
      "outputs": [
        {
          "internalType": "address",
          "name": "",
          "type": "address"
        }
      ],
      "stateMutability": "view",
      "type": "function"
    },
    {
      "inputs": [],
      "name": "availableLiquidity",
      "outputs": [
        {
          "internalType": "uint256",
          "name": "",
          "type": "uint256"
        }
      ],
      "stateMutability": "view",
      "type": "function"
    },
    {
      "inputs": [],
      "name": "baseAPY",
      "outputs": [
        {
          "internalType": "uint256",
          "name": "",
          "type": "uint256"
        }
      ],
      "stateMutability": "view",
      "type": "function"
    },
    {
      "inputs": [],
      "name": "coffeeTreeToken",
      "outputs": [
        {
          "internalType": "address",
          "name": "",
          "type": "address"
        }
      ],
      "stateMutability": "view",
      "type": "function"
    },
    {
      "inputs": [
        {
          "internalType": "string",
          "name": "name",
          "type": "string"
        },
        {
          "internalType": "string",
          "name": "symbol",
          "type": "string"
        }
      ],
      "name": "createLPToken",
      "outputs": [],
      "stateMutability": "nonpayable",
      "type": "function"
    },
    {
      "inputs": [],
      "name": "getLPToken",
      "outputs": [
        {
          "internalType": "address",
          "name": "",
          "type": "address"
        }
      ],
      "stateMutability": "view",
      "type": "function"
    },
    {
      "inputs": [
        {
          "internalType": "address",
          "name": "provider",
          "type": "address"
        }
      ],
      "name": "getLiquidityPosition",
      "outputs": [
        {
          "internalType": "uint256",
          "name": "amountProvided",
          "type": "uint256"
        },
        {
          "internalType": "uint256",
          "name": "lpTokensReceived",
          "type": "uint256"
        },
        {
          "internalType": "uint256",
          "name": "depositDate",
          "type": "uint256"
        },
        {
          "internalType": "uint256",
          "name": "accruedInterest",
          "type": "uint256"
        }
      ],
      "stateMutability": "view",
      "type": "function"
    },
    {
      "inputs": [
        {
          "internalType": "address",
          "name": "borrower",
          "type": "address"
        }
      ],
      "name": "getLoan",
      "outputs": [
        {
          "internalType": "uint256",
          "name": "loanAmount",
          "type": "uint256"
        },
        {
          "internalType": "uint256",
          "name": "collateralAmount",
          "type": "uint256"
        },
        {
          "internalType": "uint256",
          "name": "repayAmount",
          "type": "uint256"
        },
        {
          "internalType": "uint256",
          "name": "borrowDate",
          "type": "uint256"
        },
        {
          "internalType": "bool",
          "name": "isActive",
          "type": "bool"
        },
        {
          "internalType": "bool",
          "name": "isLiquidated",
          "type": "bool"
        }
      ],
      "stateMutability": "view",
      "type": "function"
    },
    {
      "inputs": [],
      "name": "getPoolStats",
      "outputs": [
        {
          "internalType": "uint256",
          "name": "_totalLiquidity",
          "type": "uint256"
        },
        {
          "internalType": "uint256",
          "name": "_availableLiquidity",
          "type": "uint256"
        },
        {
          "internalType": "uint256",
          "name": "_totalBorrowed",
          "type": "uint256"
        },
        {
          "internalType": "uint256",
          "name": "_utilizationRate",
          "type": "uint256"
        },
        {
          "internalType": "uint256",
          "name": "_currentAPY",
          "type": "uint256"
        }
      ],
      "stateMutability": "view",
      "type": "function"
    },
    {
      "inputs": [
        {
          "internalType": "address",
          "name": "borrower",
          "type": "address"
        }
      ],
      "name": "liquidateLoan",
      "outputs": [],
      "stateMutability": "nonpayable",
      "type": "function"
    },
    {
      "inputs": [
        {
          "internalType": "address",
          "name": "",
          "type": "address"
        }
      ],
      "name": "liquidityPositions",
      "outputs": [
        {
          "internalType": "address",
          "name": "provider",
          "type": "address"
        },
        {
          "internalType": "uint256",
          "name": "amountProvided",
          "type": "uint256"
        },
        {
          "internalType": "uint256",
          "name": "lpTokensReceived",
          "type": "uint256"
        },
        {
          "internalType": "uint256",
          "name": "depositDate",
          "type": "uint256"
        },
        {
          "internalType": "uint256",
          "name": "accruedInterest",
          "type": "uint256"
        }
      ],
      "stateMutability": "view",
      "type": "function"
    },
    {
      "inputs": [
        {
          "internalType": "uint256",
          "name": "",
          "type": "uint256"
        }
      ],
      "name": "liquidityProviders",
      "outputs": [
        {
          "internalType": "address",
          "name": "",
          "type": "address"
        }
      ],
      "stateMutability": "view",
      "type": "function"
    },
    {
      "inputs": [
        {
          "internalType": "address",
          "name": "",
          "type": "address"
        }
      ],
      "name": "loans",
      "outputs": [
        {
          "internalType": "address",
          "name": "borrower",
          "type": "address"
        },
        {
          "internalType": "uint256",
          "name": "loanAmountUSDC",
          "type": "uint256"
        },
        {
          "internalType": "uint256",
          "name": "collateralAmount",
          "type": "uint256"
        },
        {
          "internalType": "uint256",
          "name": "liquidationPrice",
          "type": "uint256"
        },
        {
          "internalType": "uint256",
          "name": "repayAmountUSDC",
          "type": "uint256"
        },
        {
          "internalType": "uint256",
          "name": "borrowDate",
          "type": "uint256"
        },
        {
          "internalType": "bool",
          "name": "isActive",
          "type": "bool"
        },
        {
          "internalType": "bool",
          "name": "isLiquidated",
          "type": "bool"
        }
      ],
      "stateMutability": "view",
      "type": "function"
    },
    {
      "inputs": [],
      "name": "lpToken",
      "outputs": [
        {
          "internalType": "contract LPToken",
          "name": "",
          "type": "address"
        }
      ],
      "stateMutability": "view",
      "type": "function"
    },
    {
      "inputs": [
        {
          "internalType": "uint256",
          "name": "amount",
          "type": "uint256"
        }
      ],
      "name": "provideLiquidity",
      "outputs": [],
      "stateMutability": "nonpayable",
      "type": "function"
    },
    {
      "inputs": [],
      "name": "repayLoan",
      "outputs": [],
      "stateMutability": "nonpayable",
      "type": "function"
    },
    {
      "inputs": [
        {
          "internalType": "uint256",
          "name": "collateralAmount",
          "type": "uint256"
        },
        {
          "internalType": "uint256",
          "name": "loanAmount",
          "type": "uint256"
        }
      ],
      "name": "takeLoan",
      "outputs": [],
      "stateMutability": "nonpayable",
      "type": "function"
    },
    {
      "inputs": [],
      "name": "totalBorrowed",
      "outputs": [
        {
          "internalType": "uint256",
          "name": "",
          "type": "uint256"
        }
      ],
      "stateMutability": "view",
      "type": "function"
    },
    {
      "inputs": [],
      "name": "totalLiquidity",
      "outputs": [
        {
          "internalType": "uint256",
          "name": "",
          "type": "uint256"
        }
      ],
      "stateMutability": "view",
      "type": "function"
    },
    {
      "inputs": [
        {
          "internalType": "uint256",
          "name": "newAPY",
          "type": "uint256"
        }
      ],
      "name": "updateAPY",
      "outputs": [],
      "stateMutability": "nonpayable",
      "type": "function"
    },
    {
      "inputs": [
        {
          "internalType": "uint256",
          "name": "lpTokenAmount",
          "type": "uint256"
        }
      ],
      "name": "withdrawLiquidity",
      "outputs": [],
      "stateMutability": "nonpayable",
      "type": "function"
    }
  ],
  "bytecode": "0x6080604052610352600755348015610015575f5ffd5b5060405161277a38038061277a83398101604081905261003491610145565b6001600160a01b03821661008f5760405162461bcd60e51b815260206004820152601460248201527f496e76616c69642055534443206164647265737300000000000000000000000060448201526064015b60405180910390fd5b6001600160a01b0381166100ef5760405162461bcd60e51b815260206004820152602160248201527f496e76616c696420636f66666565207472656520746f6b656e206164647265736044820152607360f81b6064820152608401610086565b5f80546001600160a01b03199081163317909155600180546001600160a01b0394851690831617905560028054929093169116179055610176565b80516001600160a01b0381168114610140575f5ffd5b919050565b5f5f60408385031215610156575f5ffd5b61015f8361012a565b915061016d6020840161012a565b90509250929050565b6125f7806101835f395ff3fe608060405234801561000f575f5ffd5b506004361061013c575f3560e01c80630416073d146101405780630a861f2a146101ca57806315770f92146101df578063214405a9146101f657806333481fc9146101ff5780633402ff1d146102d15780633c1aa925146102d95780634c19386c146102f35780634edec1ff146102fc5780635b72a33a1461030f5780635fcbd285146103175780636fd0ea921461032a57806373b4086b146103a2578063743753591461044b5780637f34dc821461045457806389a302711461046757806390a8ae9b1461047a57806396212916146104825780639eb7879814610495578063a3183125146104a8578063bbb85188146104bb578063bbdfa00e146104d4578063eb521a4c146104e7578063f851a440146104fa578063f966ade71461050c578063fae728cd14610514575b5f5ffd5b6101b161014e366004611637565b6001600160a01b039081165f90815260096020908152604091829020825160a08101845281549094168452600181015491840182905260028101549284018390526003810154606085018190526004909101546080909401849052909391929091565b6040516101c19493929190611664565b60405180910390f35b6101dd6101d836600461167f565b610527565b005b6101e860045481565b6040519081526020016101c1565b6101e860075481565b6102a061020d366004611637565b6001600160a01b039081165f9081526008602090815260409182902082516101008082018552825490951681526001820154928101839052600282015493810184905260038201546060820152600482015460808201819052600583015460a0830181905260069093015460ff808216151560c085018190529790910416151560e0909201829052929593949293919291565b60408051968752602087019590955293850192909252606084015215156080830152151560a082015260c0016101c1565b6101e8607d81565b6003546001600160a01b03165b6040516101c19190611696565b6101e860065481565b6101dd61030a366004611747565b610897565b6101e8600a81565b6003546102e6906001600160a01b031681565b610370610338366004611637565b60096020525f9081526040902080546001820154600283015460038401546004909401546001600160a01b0390931693919290919085565b604080516001600160a01b0390961686526020860194909452928401919091526060830152608082015260a0016101c1565b6104026103b0366004611637565b60086020525f908152604090208054600182015460028301546003840154600485015460058601546006909601546001600160a01b039095169593949293919290919060ff8082169161010090041688565b604080516001600160a01b0390991689526020890197909752958701949094526060860192909252608085015260a0840152151560c0830152151560e0820152610100016101c1565b6101e860055481565b6002546102e6906001600160a01b031681565b6001546102e6906001600160a01b031681565b6101e8605a81565b6102e661049036600461167f565b61096b565b6102e66104a336600461167f565b610993565b6101dd6104b63660046117aa565b6109a2565b6104c3610ded565b6040516101c19594939291906117ca565b6101dd6104e2366004611637565b610e3b565b6101dd6104f536600461167f565b610f54565b5f546102e6906001600160a01b031681565b6101dd611273565b6101dd61052236600461167f565b61148f565b5f811161054f5760405162461bcd60e51b8152600401610546906117ed565b60405180910390fd5b6003546040516370a0823160e01b815282916001600160a01b0316906370a082319061057f903390600401611696565b602060405180830381865afa15801561059a573d5f5f3e3d5ffd5b505050506040513d601f19601f820116820180604052508101906105be919061181e565b10156106055760405162461bcd60e51b8152602060048201526016602482015275496e73756666696369656e74204c5020746f6b656e7360501b6044820152606401610546565b600354604080516318160ddd60e01b815290515f926001600160a01b0316916318160ddd9160048083019260209291908290030181865afa15801561064c573d5f5f3e3d5ffd5b505050506040513d601f19601f82011682018060405250810190610670919061181e565b90505f81600454846106829190611849565b61068c9190611866565b90506005548111156106e05760405162461bcd60e51b815260206004820181905260248201527f496e73756666696369656e74206c697175696469747920617661696c61626c656044820152606401610546565b600354604051632770a7eb60e21b81526001600160a01b0390911690639dc29fac906107129033908790600401611885565b5f604051808303815f87803b158015610729575f5ffd5b505af115801561073b573d5f5f3e3d5ffd5b505060015460405163a9059cbb60e01b81526001600160a01b03909116925063a9059cbb91506107719033908590600401611885565b6020604051808303815f875af115801561078d573d5f5f3e3d5ffd5b505050506040513d601f19601f820116820180604052508101906107b1919061189e565b50335f908152600960205260408120600481015460019091018054919284926107db9084906118bd565b9091555050335f90815260096020526040812060020180548692906108019084906118bd565b9091555050335f9081526009602052604081206004908101829055805484929061082c9084906118bd565b925050819055508160055f82825461084491906118bd565b909155505060405133907f719aab509d982a076413fcfa8055869d7ac930109cda0dde19dbc605bf2d113190610881908590889086904290611664565b60405180910390a2610891611508565b50505050565b5f546001600160a01b031633146108c05760405162461bcd60e51b8152600401610546906118d0565b6003546001600160a01b0316156109145760405162461bcd60e51b81526020600482015260186024820152771314081d1bdad95b88185b1c9958591e4818dc99585d195960421b6044820152606401610546565b81816040516109229061162a565b61092d929190611922565b604051809103905ff080158015610946573d5f5f3e3d5ffd5b50600380546001600160a01b0319166001600160a01b03929092169190911790555050565b600a818154811061097a575f80fd5b5f918252602090912001546001600160a01b0316905081565b600b818154811061097a575f80fd5b5f82116109ef5760405162461bcd60e51b815260206004820152601b60248201527a436f6c6c61746572616c206d75737420626520706f73697469766560281b6044820152606401610546565b5f8111610a3d5760405162461bcd60e51b815260206004820152601c60248201527b4c6f616e20616d6f756e74206d75737420626520706f73697469766560201b6044820152606401610546565b335f9081526008602052604090206006015460ff1615610aaa5760405162461bcd60e51b815260206004820152602260248201527f4578697374696e67206c6f616e206d75737420626520726570616964206669726044820152611cdd60f21b6064820152608401610546565b600554811115610afa5760405162461bcd60e51b815260206004820152601b60248201527a496e73756666696369656e7420706f6f6c206c697175696469747960281b6044820152606401610546565b5f6064610b08607d84611849565b610b129190611866565b905080831015610b5e5760405162461bcd60e51b8152602060048201526017602482015276125b9cdd59999a58da595b9d0818dbdb1b185d195c985b604a1b6044820152606401610546565b6002546040516323b872dd60e01b81526001600160a01b03909116906323b872dd90610b929033903090889060040161194f565b6020604051808303815f875af1158015610bae573d5f5f3e3d5ffd5b505050506040513d601f19601f82011682018060405250810190610bd2919061189e565b505f6064610be1605a85611849565b610beb9190611866565b90505f6064610bfb600a82611973565b610c059086611849565b610c0f9190611866565b6040805161010080820183523380835260208084018a81528486018c8152606086018a8152608087018981524260a08901908152600160c08a018181525f60e08c018181528a825260089099528c81209b518c546001600160a01b03199081166001600160a01b03928316178e5598518d850155965160028d0155945160038c015592516004808c0191909155915160058b0155915160069099018054965161ffff1990971699151561ff0019169990991795151590970294909417909655600b8054808501825596527f0175b7a638427703f0dbe7bb9bbf987a2551717b34e79f33b5b1008d1fa01db990950180549091168317905554935163a9059cbb60e01b8152949550929091169263a9059cbb92610d2f929091899101611885565b6020604051808303815f875af1158015610d4b573d5f5f3e3d5ffd5b505050506040513d601f19601f82011682018060405250810190610d6f919061189e565b508360055f828254610d8191906118bd565b925050819055508360065f828254610d999190611973565b909155505060405133907f3f478d236b455d7d3dc62eca215916a19fd838bae1a6478397e39d840a7a2ff490610dd6908790899086904290611664565b60405180910390a2610de6611508565b5050505050565b5f5f5f5f5f5f5f60045411610e02575f610e1e565b600454600654610e1490612710611849565b610e1e9190611866565b600454600554600654600754929a91995097509195509350915050565b5f546001600160a01b03163314610e645760405162461bcd60e51b8152600401610546906118d0565b6001600160a01b0381165f908152600860205260409020600681015460ff16610e9f5760405162461bcd60e51b815260040161054690611986565b6006810154610100900460ff1615610eee5760405162461bcd60e51b8152602060048201526012602482015271105b1c9958591e481b1a5c5d5a59185d195960721b6044820152606401610546565b60068101805461ffff19166101001790556002810154604080519182524260208301526001600160a01b038416917fd824958ef8d9fecce6174008737831045eb3ca61b81f1ff2072bb58f919a5a4a91015b60405180910390a2610f50611508565b5050565b6003546001600160a01b0316610fa35760405162461bcd60e51b81526020600482015260146024820152731314081d1bdad95b881b9bdd0818dc99585d195960621b6044820152606401610546565b5f8111610fc25760405162461bcd60e51b8152600401610546906117ed565b6001546040516323b872dd60e01b81526001600160a01b03909116906323b872dd90610ff69033903090869060040161194f565b6020604051808303815f875af1158015611012573d5f5f3e3d5ffd5b505050506040513d601f19601f82011682018060405250810190611036919061189e565b506004548190156110cf5760045460035f9054906101000a90046001600160a01b03166001600160a01b03166318160ddd6040518163ffffffff1660e01b8152600401602060405180830381865afa158015611094573d5f5f3e3d5ffd5b505050506040513d601f19601f820116820180604052508101906110b8919061181e565b6110c29084611849565b6110cc9190611866565b90505b6003546040516340c10f1960e01b81526001600160a01b03909116906340c10f19906111019033908590600401611885565b5f604051808303815f87803b158015611118575f5ffd5b505af115801561112a573d5f5f3e3d5ffd5b5050335f908152600960205260409020546001600160a01b0316915061118e905057600a80546001810182555f919091527fc65a7bb8d6351c1cf70c95a316cc6a92839c986682d98bc35f958f4883f9d2a80180546001600160a01b031916331790555b335f81815260096020526040812080546001600160a01b0319169092178255600190910180548492906111c2908490611973565b9091555050335f90815260096020526040812060020180548392906111e8908490611973565b9091555050335f9081526009602052604081204260039091015560048054849290611214908490611973565b925050819055508160055f82825461122c9190611973565b90915550506040805183815260208101839052429181019190915233907f3bca7014f4c0ccc8016338c79f4c00e82068dbadaf4f01ca5449040fdd39f50090606001610f40565b335f908152600860205260409020600681015460ff166112a55760405162461bcd60e51b815260040161054690611986565b6006810154610100900460ff16156112f95760405162461bcd60e51b8152602060048201526017602482015276131bd85b88185b1c9958591e481b1a5c5d5a59185d1959604a1b6044820152606401610546565b6001546004808301546040516323b872dd60e01b81526001600160a01b03909316926323b872dd9261132f92339230920161194f565b6020604051808303815f875af115801561134b573d5f5f3e3d5ffd5b505050506040513d601f19601f8201168201806040525081019061136f919061189e565b50600280549082015460405163a9059cbb60e01b81526001600160a01b039092169163a9059cbb916113a691339190600401611885565b6020604051808303815f875af11580156113c2573d5f5f3e3d5ffd5b505050506040513d601f19601f820116820180604052508101906113e6919061189e565b505f816001015482600401546113fc91906118bd565b9050816004015460055f8282546114139190611973565b90915550506001820154600680545f9061142e9084906118bd565b909155505060048201546040805191825242602083015233917fc7ce0a35f17b490de2a317e7fecb2cae86b1abffb03800b2f492823521382698910160405180910390a260068201805460ff191690556114878161157e565b610f50611508565b5f546001600160a01b031633146114b85760405162461bcd60e51b8152600401610546906118d0565b6127108111156115035760405162461bcd60e51b81526020600482015260166024820152754150592063616e6e6f7420657863656564203130302560501b6044820152606401610546565b600755565b5f5f60045411611518575f611534565b60045460065461152a90612710611849565b6115349190611866565b90507f90ba29f082dfd504d4fb7b8e33ef6fbcb73407c960304ced887a1d024903fb6160045460055460065484426040516115739594939291906117ca565b60405180910390a150565b600a54158061158d5750600454155b156115955750565b5f5b600a54811015610f50575f600a82815481106115b5576115b56119ae565b5f9182526020808320909101546001600160a01b03168083526009909152604090912060018101549192509015611620575f6004548583600101546115fa9190611849565b6116049190611866565b905080826004015f8282546116199190611973565b9091555050505b5050600101611597565b610bff806119c383390190565b5f60208284031215611647575f5ffd5b81356001600160a01b038116811461165d575f5ffd5b9392505050565b93845260208401929092526040830152606082015260800190565b5f6020828403121561168f575f5ffd5b5035919050565b6001600160a01b0391909116815260200190565b634e487b7160e01b5f52604160045260245ffd5b5f82601f8301126116cd575f5ffd5b81356001600160401b038111156116e6576116e66116aa565b604051601f8201601f19908116603f011681016001600160401b0381118282101715611714576117146116aa565b60405281815283820160200185101561172b575f5ffd5b816020850160208301375f918101602001919091529392505050565b5f5f60408385031215611758575f5ffd5b82356001600160401b0381111561176d575f5ffd5b611779858286016116be565b92505060208301356001600160401b03811115611794575f5ffd5b6117a0858286016116be565b9150509250929050565b5f5f604083850312156117bb575f5ffd5b50508035926020909101359150565b948552602085019390935260408401919091526060830152608082015260a00190565b602080825260179082015276416d6f756e74206d75737420626520706f73697469766560481b604082015260600190565b5f6020828403121561182e575f5ffd5b5051919050565b634e487b7160e01b5f52601160045260245ffd5b808202811582820484141761186057611860611835565b92915050565b5f8261188057634e487b7160e01b5f52601260045260245ffd5b500490565b6001600160a01b03929092168252602082015260400190565b5f602082840312156118ae575f5ffd5b8151801515811461165d575f5ffd5b8181038181111561186057611860611835565b6020808252600a908201526927b7363c9030b236b4b760b11b604082015260600190565b5f81518084528060208401602086015e5f602082860101526020601f19601f83011685010191505092915050565b604081525f61193460408301856118f4565b828103602084015261194681856118f4565b95945050505050565b6001600160a01b039384168152919092166020820152604081019190915260600190565b8082018082111561186057611860611835565b6020808252600e908201526d27379030b1ba34bb32903637b0b760911b604082015260600190565b634e487b7160e01b5f52603260045260245ffdfe608060405234801561000f575f5ffd5b50604051610bff380380610bff83398101604081905261002e91610179565b338282600361003d8382610262565b50600461004a8282610262565b5050506001600160a01b03811661007a57604051631e4fbdf760e01b81525f600482015260240160405180910390fd5b6100838161008b565b50505061031c565b600580546001600160a01b038381166001600160a01b0319831681179093556040519116919082907f8be0079c531659141344cd1fd0a4f28419497f9722a3daafe3b4186f6b6457e0905f90a35050565b634e487b7160e01b5f52604160045260245ffd5b5f82601f8301126100ff575f5ffd5b81516001600160401b03811115610118576101186100dc565b604051601f8201601f19908116603f011681016001600160401b0381118282101715610146576101466100dc565b60405281815283820160200185101561015d575f5ffd5b8160208501602083015e5f918101602001919091529392505050565b5f5f6040838503121561018a575f5ffd5b82516001600160401b0381111561019f575f5ffd5b6101ab858286016100f0565b602085015190935090506001600160401b038111156101c8575f5ffd5b6101d4858286016100f0565b9150509250929050565b600181811c908216806101f257607f821691505b60208210810361021057634e487b7160e01b5f52602260045260245ffd5b50919050565b601f82111561025d57805f5260205f20601f840160051c8101602085101561023b5750805b601f840160051c820191505b8181101561025a575f8155600101610247565b50505b505050565b81516001600160401b0381111561027b5761027b6100dc565b61028f8161028984546101de565b84610216565b6020601f8211600181146102c1575f83156102aa5750848201515b5f19600385901b1c1916600184901b17845561025a565b5f84815260208120601f198516915b828110156102f057878501518255602094850194600190920191016102d0565b508482101561030d57868401515f19600387901b60f8161c191681555b50505050600190811b01905550565b6108d6806103295f395ff3fe608060405234801561000f575f5ffd5b50600436106100b8575f3560e01c806306fdde03146100bc578063095ea7b3146100da57806318160ddd146100fd57806323b872dd1461010f578063313ce5671461012257806340c10f191461013157806370a0823114610146578063715018a61461016e5780638da5cb5b1461017657806395d89b411461018b5780639dc29fac14610193578063a9059cbb146101a6578063dd62ed3e146101b9578063f2fde38b146101cc575b5f5ffd5b6100c46101df565b6040516100d19190610711565b60405180910390f35b6100ed6100e8366004610761565b61026f565b60405190151581526020016100d1565b6002545b6040519081526020016100d1565b6100ed61011d366004610789565b610288565b604051600681526020016100d1565b61014461013f366004610761565b6102ab565b005b6101016101543660046107c3565b6001600160a01b03165f9081526020819052604090205490565b6101446102c1565b61017e6102d4565b6040516100d191906107e3565b6100c46102e3565b6101446101a1366004610761565b6102f2565b6100ed6101b4366004610761565b610304565b6101016101c73660046107f7565b610311565b6101446101da3660046107c3565b61033b565b6060600380546101ee90610828565b80601f016020809104026020016040519081016040528092919081815260200182805461021a90610828565b80156102655780601f1061023c57610100808354040283529160200191610265565b820191905f5260205f20905b81548152906001019060200180831161024857829003601f168201915b5050505050905090565b5f3361027c818585610381565b60019150505b92915050565b5f33610295858285610393565b6102a08585856103e4565b506001949350505050565b6102b3610441565b6102bd8282610473565b5050565b6102c9610441565b6102d25f6104a7565b565b6005546001600160a01b031690565b6060600480546101ee90610828565b6102fa610441565b6102bd82826104f8565b5f3361027c8185856103e4565b6001600160a01b039182165f90815260016020908152604080832093909416825291909152205490565b610343610441565b6001600160a01b038116610375575f604051631e4fbdf760e01b815260040161036c91906107e3565b60405180910390fd5b61037e816104a7565b50565b61038e838383600161052c565b505050565b5f61039e8484610311565b90505f198110156103de57818110156103d057828183604051637dc7a0d960e11b815260040161036c93929190610860565b6103de84848484035f61052c565b50505050565b6001600160a01b03831661040d575f604051634b637e8f60e11b815260040161036c91906107e3565b6001600160a01b038216610436575f60405163ec442f0560e01b815260040161036c91906107e3565b61038e8383836105fe565b3361044a6102d4565b6001600160a01b0316146102d2573360405163118cdaa760e01b815260040161036c91906107e3565b6001600160a01b03821661049c575f60405163ec442f0560e01b815260040161036c91906107e3565b6102bd5f83836105fe565b600580546001600160a01b038381166001600160a01b0319831681179093556040519116919082907f8be0079c531659141344cd1fd0a4f28419497f9722a3daafe3b4186f6b6457e0905f90a35050565b6001600160a01b038216610521575f604051634b637e8f60e11b815260040161036c91906107e3565b6102bd825f836105fe565b6001600160a01b038416610555575f60405163e602df0560e01b815260040161036c91906107e3565b6001600160a01b03831661057e575f604051634a1406b160e11b815260040161036c91906107e3565b6001600160a01b038085165f90815260016020908152604080832093871683529290522082905580156103de57826001600160a01b0316846001600160a01b03167f8c5be1e5ebec7d5bd14f71427d1e84f3dd0314c0f7b2291e5b200ac8c7c3b925846040516105f091815260200190565b60405180910390a350505050565b6001600160a01b038316610628578060025f82825461061d9190610881565b909155506106859050565b6001600160a01b0383165f90815260208190526040902054818110156106675783818360405163391434e360e21b815260040161036c93929190610860565b6001600160a01b0384165f9081526020819052604090209082900390555b6001600160a01b0382166106a1576002805482900390556106bf565b6001600160a01b0382165f9081526020819052604090208054820190555b816001600160a01b0316836001600160a01b03167fddf252ad1be2c89b69c2b068fc378daa952ba7f163c4a11628f55a4df523b3ef8360405161070491815260200190565b60405180910390a3505050565b602081525f82518060208401528060208501604085015e5f604082850101526040601f19601f83011684010191505092915050565b80356001600160a01b038116811461075c575f5ffd5b919050565b5f5f60408385031215610772575f5ffd5b61077b83610746565b946020939093013593505050565b5f5f5f6060848603121561079b575f5ffd5b6107a484610746565b92506107b260208501610746565b929592945050506040919091013590565b5f602082840312156107d3575f5ffd5b6107dc82610746565b9392505050565b6001600160a01b0391909116815260200190565b5f5f60408385031215610808575f5ffd5b61081183610746565b915061081f60208401610746565b90509250929050565b600181811c9082168061083c57607f821691505b60208210810361085a57634e487b7160e01b5f52602260045260245ffd5b50919050565b6001600160a01b039390931683526020830191909152604082015260600190565b8082018082111561028257634e487b7160e01b5f52601160045260245ffdfea2646970667358221220f36dfc85c5e08676fb8f3c8a71926bbf2c1de219d5c7855df19d9a692f4594ca64736f6c634300081d0033a2646970667358221220add8a73624648b4b7d2b027f96dabd018c6aa29ad6a947c934b86b8ab02d2ad064736f6c634300081d0033",
  "linkReferences": {},
  "deployedLinkReferences": {}
}