{
  "_format": "hh-sol-artifact-1",
  "contractName": "CoffeeTreeIssuer",
  "sourceName": "contracts/mantle/CoffeeTreeIssuer.sol",
  "abi": [
    {
      "inputs": [
        {
          "internalType": "address",
          "name": "_farmerVerification",
          "type": "address"
        },
        {
          "internalType": "address",
          "name": "_usdc",
          "type": "address"
        },
        {
          "internalType": "address",
          "name": "_oracle",
          "type": "address"
        }
      ],
      "stateMutability": "nonpayable",
      "type": "constructor"
    },
    {
      "inputs": [
        {
          "internalType": "string",
          "name": "groveName",
          "type": "string"
        }
      ],
      "name": "GroveAlreadyExists",
      "type": "error"
    },
    {
      "inputs": [
        {
          "internalType": "string",
          "name": "groveName",
          "type": "string"
        }
      ],
      "name": "GroveNotFound",
      "type": "error"
    },
    {
      "inputs": [
        {
          "internalType": "string",
          "name": "groveName",
          "type": "string"
        }
      ],
      "name": "GroveNotTokenized",
      "type": "error"
    },
    {
      "inputs": [
        {
          "internalType": "uint64",
          "name": "requested",
          "type": "uint64"
        },
        {
          "internalType": "uint256",
          "name": "available",
          "type": "uint256"
        }
      ],
      "name": "InsufficientTokens",
      "type": "error"
    },
    {
      "inputs": [
        {
          "internalType": "string",
          "name": "reason",
          "type": "string"
        }
      ],
      "name": "InvalidHarvestData",
      "type": "error"
    },
    {
      "inputs": [
        {
          "internalType": "uint256",
          "name": "harvestIndex",
          "type": "uint256"
        }
      ],
      "name": "RevenueAlreadyDistributed",
      "type": "error"
    },
    {
      "inputs": [
        {
          "internalType": "address",
          "name": "caller",
          "type": "address"
        }
      ],
      "name": "UnauthorizedAccess",
      "type": "error"
    },
    {
      "inputs": [
        {
          "internalType": "address",
          "name": "farmer",
          "type": "address"
        }
      ],
      "name": "UnverifiedFarmer",
      "type": "error"
    },
    {
      "anonymous": false,
      "inputs": [
        {
          "indexed": true,
          "internalType": "bytes32",
          "name": "groveNameHash",
          "type": "bytes32"
        },
        {
          "indexed": true,
          "internalType": "address",
          "name": "farmer",
          "type": "address"
        },
        {
          "indexed": false,
          "internalType": "uint64",
          "name": "treeCount",
          "type": "uint64"
        },
        {
          "indexed": false,
          "internalType": "string",
          "name": "location",
          "type": "string"
        },
        {
          "indexed": false,
          "internalType": "string",
          "name": "coffeeVariety",
          "type": "string"
        }
      ],
      "name": "CoffeeGroveRegistered",
      "type": "event"
    },
    {
      "anonymous": false,
      "inputs": [
        {
          "indexed": true,
          "internalType": "bytes32",
          "name": "groveNameHash",
          "type": "bytes32"
        },
        {
          "indexed": true,
          "internalType": "address",
          "name": "token",
          "type": "address"
        },
        {
          "indexed": false,
          "internalType": "uint64",
          "name": "totalTokens",
          "type": "uint64"
        },
        {
          "indexed": false,
          "internalType": "uint64",
          "name": "tokensPerTree",
          "type": "uint64"
        }
      ],
      "name": "CoffeeGroveTokenized",
      "type": "event"
    },
    {
      "anonymous": false,
      "inputs": [
        {
          "indexed": true,
          "internalType": "bytes32",
          "name": "groveNameHash",
          "type": "bytes32"
        },
        {
          "indexed": false,
          "internalType": "uint64",
          "name": "yieldKg",
          "type": "uint64"
        },
        {
          "indexed": false,
          "internalType": "uint64",
          "name": "totalRevenue",
          "type": "uint64"
        },
        {
          "indexed": false,
          "internalType": "uint64",
          "name": "qualityGrade",
          "type": "uint64"
        },
        {
          "indexed": false,
          "internalType": "uint256",
          "name": "harvestDate",
          "type": "uint256"
        },
        {
          "indexed": true,
          "internalType": "uint256",
          "name": "harvestIndex",
          "type": "uint256"
        }
      ],
      "name": "HarvestReported",
      "type": "event"
    },
    {
      "anonymous": false,
      "inputs": [
        {
          "indexed": true,
          "internalType": "bytes32",
          "name": "groveNameHash",
          "type": "bytes32"
        },
        {
          "indexed": false,
          "internalType": "uint64",
          "name": "totalRevenue",
          "type": "uint64"
        },
        {
          "indexed": false,
          "internalType": "uint64",
          "name": "farmerShare",
          "type": "uint64"
        },
        {
          "indexed": false,
          "internalType": "uint64",
          "name": "investorShare",
          "type": "uint64"
        },
        {
          "indexed": false,
          "internalType": "uint256",
          "name": "timestamp",
          "type": "uint256"
        },
        {
          "indexed": true,
          "internalType": "uint256",
          "name": "harvestIndex",
          "type": "uint256"
        }
      ],
      "name": "RevenueDistributed",
      "type": "event"
    },
    {
      "anonymous": false,
      "inputs": [
        {
          "indexed": true,
          "internalType": "address",
          "name": "token",
          "type": "address"
        },
        {
          "indexed": true,
          "internalType": "uint64",
          "name": "amount",
          "type": "uint64"
        },
        {
          "indexed": true,
          "internalType": "address",
          "name": "investor",
          "type": "address"
        },
        {
          "indexed": false,
          "internalType": "uint256",
          "name": "totalCost",
          "type": "uint256"
        }
      ],
      "name": "TreeTokensPurchased",
      "type": "event"
    },
    {
      "inputs": [],
      "name": "USDC",
      "outputs": [
        {
          "internalType": "address",
          "name": "",
          "type": "address"
        }
      ],
      "stateMutability": "view",
      "type": "function"
    },
    {
      "inputs": [],
      "name": "admin",
      "outputs": [
        {
          "internalType": "address",
          "name": "",
          "type": "address"
        }
      ],
      "stateMutability": "view",
      "type": "function"
    },
    {
      "inputs": [
        {
          "internalType": "string",
          "name": "",
          "type": "string"
        }
      ],
      "name": "coffeeGroves",
      "outputs": [
        {
          "internalType": "string",
          "name": "groveName",
          "type": "string"
        },
        {
          "internalType": "address",
          "name": "farmer",
          "type": "address"
        },
        {
          "internalType": "string",
          "name": "location",
          "type": "string"
        },
        {
          "internalType": "uint64",
          "name": "treeCount",
          "type": "uint64"
        },
        {
          "internalType": "string",
          "name": "coffeeVariety",
          "type": "string"
        },
        {
          "internalType": "uint64",
          "name": "expectedYieldPerTree",
          "type": "uint64"
        },
        {
          "internalType": "bool",
          "name": "isTokenized",
          "type": "bool"
        },
        {
          "internalType": "address",
          "name": "tokenAddress",
          "type": "address"
        },
        {
          "internalType": "uint64",
          "name": "totalTokens",
          "type": "uint64"
        },
        {
          "internalType": "uint64",
          "name": "tokensPerTree",
          "type": "uint64"
        },
        {
          "internalType": "uint256",
          "name": "registrationDate",
          "type": "uint256"
        }
      ],
      "stateMutability": "view",
      "type": "function"
    },
    {
      "inputs": [
        {
          "internalType": "string",
          "name": "_groveName",
          "type": "string"
        },
        {
          "internalType": "uint256",
          "name": "_harvestIndex",
          "type": "uint256"
        }
      ],
      "name": "distributeRevenue",
      "outputs": [],
      "stateMutability": "nonpayable",
      "type": "function"
    },
    {
      "inputs": [],
      "name": "farmerVerification",
      "outputs": [
        {
          "internalType": "contract FarmerVerification",
          "name": "",
          "type": "address"
        }
      ],
      "stateMutability": "view",
      "type": "function"
    },
    {
      "inputs": [],
      "name": "getAllGroves",
      "outputs": [
        {
          "internalType": "string[]",
          "name": "",
          "type": "string[]"
        }
      ],
      "stateMutability": "view",
      "type": "function"
    },
    {
      "inputs": [],
      "name": "getGroveCount",
      "outputs": [
        {
          "internalType": "uint256",
          "name": "",
          "type": "uint256"
        }
      ],
      "stateMutability": "view",
      "type": "function"
    },
    {
      "inputs": [
        {
          "internalType": "string",
          "name": "_groveName",
          "type": "string"
        }
      ],
      "name": "getGroveHarvests",
      "outputs": [
        {
          "components": [
            {
              "internalType": "uint64",
              "name": "harvestDate",
              "type": "uint64"
            },
            {
              "internalType": "uint64",
              "name": "yieldKg",
              "type": "uint64"
            },
            {
              "internalType": "uint64",
              "name": "qualityGrade",
              "type": "uint64"
            },
            {
              "internalType": "uint64",
              "name": "salePricePerKg",
              "type": "uint64"
            },
            {
              "internalType": "uint64",
              "name": "totalRevenue",
              "type": "uint64"
            },
            {
              "internalType": "bool",
              "name": "revenueDistributed",
              "type": "bool"
            }
          ],
          "internalType": "struct CoffeeTreeIssuer.HarvestRecord[]",
          "name": "",
          "type": "tuple[]"
        }
      ],
      "stateMutability": "view",
      "type": "function"
    },
    {
      "inputs": [
        {
          "internalType": "string",
          "name": "_groveName",
          "type": "string"
        }
      ],
      "name": "getGroveInfo",
      "outputs": [
        {
          "components": [
            {
              "internalType": "string",
              "name": "groveName",
              "type": "string"
            },
            {
              "internalType": "address",
              "name": "farmer",
              "type": "address"
            },
            {
              "internalType": "string",
              "name": "location",
              "type": "string"
            },
            {
              "internalType": "uint64",
              "name": "treeCount",
              "type": "uint64"
            },
            {
              "internalType": "string",
              "name": "coffeeVariety",
              "type": "string"
            },
            {
              "internalType": "uint64",
              "name": "expectedYieldPerTree",
              "type": "uint64"
            },
            {
              "internalType": "bool",
              "name": "isTokenized",
              "type": "bool"
            },
            {
              "internalType": "address",
              "name": "tokenAddress",
              "type": "address"
            },
            {
              "internalType": "uint64",
              "name": "totalTokens",
              "type": "uint64"
            },
            {
              "internalType": "uint64",
              "name": "tokensPerTree",
              "type": "uint64"
            },
            {
              "internalType": "uint256",
              "name": "registrationDate",
              "type": "uint256"
            }
          ],
          "internalType": "struct CoffeeTreeIssuer.CoffeeGrove",
          "name": "",
          "type": "tuple"
        }
      ],
      "stateMutability": "view",
      "type": "function"
    },
    {
      "inputs": [
        {
          "internalType": "string",
          "name": "_groveName",
          "type": "string"
        }
      ],
      "name": "getGroveTokenAddress",
      "outputs": [
        {
          "internalType": "address",
          "name": "",
          "type": "address"
        }
      ],
      "stateMutability": "view",
      "type": "function"
    },
    {
      "inputs": [
        {
          "internalType": "string",
          "name": "",
          "type": "string"
        },
        {
          "internalType": "uint256",
          "name": "",
          "type": "uint256"
        }
      ],
      "name": "groveHarvests",
      "outputs": [
        {
          "internalType": "uint64",
          "name": "harvestDate",
          "type": "uint64"
        },
        {
          "internalType": "uint64",
          "name": "yieldKg",
          "type": "uint64"
        },
        {
          "internalType": "uint64",
          "name": "qualityGrade",
          "type": "uint64"
        },
        {
          "internalType": "uint64",
          "name": "salePricePerKg",
          "type": "uint64"
        },
        {
          "internalType": "uint64",
          "name": "totalRevenue",
          "type": "uint64"
        },
        {
          "internalType": "bool",
          "name": "revenueDistributed",
          "type": "bool"
        }
      ],
      "stateMutability": "view",
      "type": "function"
    },
    {
      "inputs": [
        {
          "internalType": "address",
          "name": "",
          "type": "address"
        }
      ],
      "name": "groveReserves",
      "outputs": [
        {
          "internalType": "contract CoffeeRevenueReserve",
          "name": "",
          "type": "address"
        }
      ],
      "stateMutability": "view",
      "type": "function"
    },
    {
      "inputs": [
        {
          "internalType": "string",
          "name": "",
          "type": "string"
        }
      ],
      "name": "groveTokens",
      "outputs": [
        {
          "internalType": "address",
          "name": "",
          "type": "address"
        }
      ],
      "stateMutability": "view",
      "type": "function"
    },
    {
      "inputs": [],
      "name": "oracle",
      "outputs": [
        {
          "internalType": "contract PriceOracle",
          "name": "",
          "type": "address"
        }
      ],
      "stateMutability": "view",
      "type": "function"
    },
    {
      "inputs": [
        {
          "internalType": "string",
          "name": "_groveName",
          "type": "string"
        },
        {
          "internalType": "uint64",
          "name": "_amount",
          "type": "uint64"
        }
      ],
      "name": "purchaseTreeTokens",
      "outputs": [],
      "stateMutability": "nonpayable",
      "type": "function"
    },
    {
      "inputs": [
        {
          "internalType": "string",
          "name": "_groveName",
          "type": "string"
        },
        {
          "internalType": "string",
          "name": "_location",
          "type": "string"
        },
        {
          "internalType": "uint64",
          "name": "_treeCount",
          "type": "uint64"
        },
        {
          "internalType": "string",
          "name": "_coffeeVariety",
          "type": "string"
        },
        {
          "internalType": "uint64",
          "name": "_expectedYieldPerTree",
          "type": "uint64"
        }
      ],
      "name": "registerCoffeeGrove",
      "outputs": [],
      "stateMutability": "nonpayable",
      "type": "function"
    },
    {
      "inputs": [
        {
          "internalType": "uint256",
          "name": "",
          "type": "uint256"
        }
      ],
      "name": "registeredGroveNames",
      "outputs": [
        {
          "internalType": "string",
          "name": "",
          "type": "string"
        }
      ],
      "stateMutability": "view",
      "type": "function"
    },
    {
      "inputs": [
        {
          "internalType": "string",
          "name": "_groveName",
          "type": "string"
        },
        {
          "internalType": "uint64",
          "name": "_yieldKg",
          "type": "uint64"
        },
        {
          "internalType": "uint64",
          "name": "_qualityGrade",
          "type": "uint64"
        },
        {
          "internalType": "uint64",
          "name": "_salePricePerKg",
          "type": "uint64"
        }
      ],
      "name": "reportHarvest",
      "outputs": [],
      "stateMutability": "nonpayable",
      "type": "function"
    },
    {
      "inputs": [
        {
          "internalType": "string",
          "name": "_groveName",
          "type": "string"
        },
        {
          "internalType": "uint64",
          "name": "_tokensPerTree",
          "type": "uint64"
        }
      ],
      "name": "tokenizeCoffeeGrove",
      "outputs": [],
      "stateMutability": "nonpayable",
      "type": "function"
    }
  ],
  "bytecode": "0x6080604052348015600e575f5ffd5b506040516162e53803806162e5833981016040819052602b916090565b5f80546001600160a01b03199081163317909155600380546001600160a01b0395861690831617905560018054938516938216939093179092556002805491909316911617905560c9565b80516001600160a01b0381168114608b575f5ffd5b919050565b5f5f5f6060848603121560a1575f5ffd5b60a8846076565b925060b4602085016076565b915060c0604085016076565b90509250925092565b61620f806100d65f395ff3fe608060405234801561000f575f5ffd5b506004361061011c575f3560e01c80637dc0d1d0116100a9578063b1fa834e1161006e578063b1fa834e146102bb578063cc9cc21a14610311578063cf933f7d14610324578063db6e5bed14610339578063f851a4401461034c575f5ffd5b80637dc0d1d0146102235780638187233c14610236578063821e5bca1461026057806389a3027114610288578063937ee9cd1461029b575f5ffd5b80633e8c0f19116100ef5780633e8c0f19146101b957806353dd60c4146101cc5780636db825fa146101df5780636e1741f2146101ff5780637adb85c314610210575f5ffd5b806305b939e0146101205780630ac9cdd9146101505780631510dbf6146101655780633a3bc92b14610185575b5f5ffd5b61013361012e366004612cad565b61035e565b6040516001600160a01b0390911681526020015b60405180910390f35b61016361015e366004612ce6565b61038e565b005b610178610173366004612cad565b610c32565b6040516101479190612d27565b610133610193366004612cad565b80516020818301810180516005825292820191909301209152546001600160a01b031681565b600354610133906001600160a01b031681565b6101636101da366004612ded565b610d04565b6101f26101ed366004612cad565b6110b7565b6040516101479190612ec7565b600854604051908152602001610147565b61016361021e366004612fdb565b61137a565b600254610133906001600160a01b031681565b610249610244366004612cad565b611a18565b6040516101479b9a99989796959493929190613025565b61013361026e3660046130d9565b60066020525f90815260409020546001600160a01b031681565b600154610133906001600160a01b031681565b6102ae6102a9366004613106565b611c44565b604051610147919061311d565b6102ce6102c9366004612ce6565b611cea565b604080516001600160401b0397881681529587166020870152938616938501939093529084166060840152909216608082015290151560a082015260c001610147565b61016361031f36600461312f565b611d63565b61032c61257d565b6040516101479190613199565b610163610347366004612fdb565b612651565b5f54610133906001600160a01b031681565b5f60058260405161036f9190613213565b908152604051908190036020019020546001600160a01b031692915050565b815f6004826040516103a09190613213565b9081526020016040518091039020604051806101600160405290815f820180546103c99061321e565b80601f01602080910402602001604051908101604052809291908181526020018280546103f59061321e565b80156104405780601f1061041757610100808354040283529160200191610440565b820191905f5260205f20905b81548152906001019060200180831161042357829003601f168201915b505050918352505060018201546001600160a01b031660208201526002820180546040909201916104709061321e565b80601f016020809104026020016040519081016040528092919081815260200182805461049c9061321e565b80156104e75780601f106104be576101008083540402835291602001916104e7565b820191905f5260205f20905b8154815290600101906020018083116104ca57829003601f168201915b505050918352505060038201546001600160401b031660208201526004820180546040909201916105179061321e565b80601f01602080910402602001604051908101604052809291908181526020018280546105439061321e565b801561058e5780601f106105655761010080835404028352916020019161058e565b820191905f5260205f20905b81548152906001019060200180831161057157829003601f168201915b505050918352505060058201546001600160401b0380821660208085019190915260ff600160401b80850491909116151560408601526001600160a01b03600160481b90940484166060860152600686015480841660808701520490911660a084015260079093015460c09092019190915290820151919250166106305781604051633ed98b4360e21b8152600401610627919061311d565b60405180910390fd5b60208101516001600160a01b0316331461065f57604051633733be5960e21b8152336004820152602401610627565b5f6004856040516106709190613213565b9081526020016040518091039020604051806101600160405290815f820180546106999061321e565b80601f01602080910402602001604051908101604052809291908181526020018280546106c59061321e565b80156107105780601f106106e757610100808354040283529160200191610710565b820191905f5260205f20905b8154815290600101906020018083116106f357829003601f168201915b505050918352505060018201546001600160a01b031660208201526002820180546040909201916107409061321e565b80601f016020809104026020016040519081016040528092919081815260200182805461076c9061321e565b80156107b75780601f1061078e576101008083540402835291602001916107b7565b820191905f5260205f20905b81548152906001019060200180831161079a57829003601f168201915b505050918352505060038201546001600160401b031660208201526004820180546040909201916107e79061321e565b80601f01602080910402602001604051908101604052809291908181526020018280546108139061321e565b801561085e5780601f106108355761010080835404028352916020019161085e565b820191905f5260205f20905b81548152906001019060200180831161084157829003601f168201915b505050918352505060058201546001600160401b038082166020840152600160401b80830460ff1615156040850152600160481b9092046001600160a01b0316606084015260068401548082166080850152919091041660a082015260079091015460c0918201528101519091506108eb578460405163152e29c960e31b8152600401610627919061311d565b5f6007866040516108fc9190613213565b908152604051908190036020019020805490915085106109565760405162461bcd60e51b8152602060048201526015602482015274092dcecc2d8d2c840d0c2e4eccae6e840d2dcc8caf605b1b6044820152606401610627565b5f81868154811061096957610969613256565b905f5260205f20906002020190508060010160089054906101000a900460ff16156109aa5760405163367b0dd760e21b815260048101879052602401610627565b60e08301516001600160a01b038082165f9081526006602052604081205460018501549216916001600160401b03169060646109e783601e61327e565b6109f191906132a7565b90505f6109fe82846132e0565b6001546040516323b872dd60e01b81523360048201526001600160a01b0387811660248301526001600160401b03871660448301529293509116906323b872dd906064016020604051808303815f875af1158015610a5e573d5f5f3e3d5ffd5b505050506040513d601f19601f82011682018060405250810190610a829190613305565b5060405163b6b55f2560e01b81526001600160401b03841660048201526001600160a01b0385169063b6b55f25906024015f604051808303815f87803b158015610aca575f5ffd5b505af1158015610adc573d5f5f3e3d5ffd5b5050604051636d0a1cb360e01b81526001600160a01b0388811660048301526001600160401b038516602483015287169250636d0a1cb391506044015f604051808303815f87803b158015610b2f575f5ffd5b505af1158015610b41573d5f5f3e3d5ffd5b5050604051632d2057c760e11b81526001600160401b03851660048201523360248201526001600160a01b0387169250635a40af8e91506044015f604051808303815f87803b158015610b92575f5ffd5b505af1158015610ba4573d5f5f3e3d5ffd5b5050505060018601805468ff00000000000000001916600160401b1790558b516020808e0191909120604080516001600160401b03878116825286811694820194909452928416908301524260608301528c917f71aeb22f6d483d420f1ced0bb3dc6ce135414d638359358ee4199866a3bcb8799060800160405180910390a3505050505050505050505050565b6060600782604051610c449190613213565b9081526020016040518091039020805480602002602001604051908101604052809291908181526020015f905b82821015610cf9575f8481526020908190206040805160c0810182526002860290920180546001600160401b038082168552600160401b808304821686880152600160801b8304821694860194909452600160c01b9091048116606085015260019182015490811660808501529190910460ff16151560a08301529083529092019101610c71565b505050509050919050565b60035460405163c058069960e01b81523360048201526001600160a01b039091169063c058069990602401602060405180830381865afa158015610d4a573d5f5f3e3d5ffd5b505050506040513d601f19601f82011682018060405250810190610d6e9190613305565b610d8d5760405163bcbe309f60e01b8152336004820152602401610627565b5f6001600160a01b0316600486604051610da79190613213565b908152604051908190036020019020600101546001600160a01b031614610de35784604051631a6caf4360e21b8152600401610627919061311d565b5f836001600160401b031611610e3b5760405162461bcd60e51b815260206004820152601b60248201527f5472656520636f756e74206d75737420626520706f73697469766500000000006044820152606401610627565b5f816001600160401b031611610e935760405162461bcd60e51b815260206004820152601f60248201527f4578706563746564207969656c64206d75737420626520706f736974697665006044820152606401610627565b5f855111610ee35760405162461bcd60e51b815260206004820152601a60248201527f47726f7665206e616d652063616e6e6f7420626520656d7074790000000000006044820152606401610627565b5f845111610f335760405162461bcd60e51b815260206004820152601860248201527f4c6f636174696f6e2063616e6e6f7420626520656d70747900000000000000006044820152606401610627565b5f825111610f835760405162461bcd60e51b815260206004820152601e60248201527f436f6666656520766172696574792063616e6e6f7420626520656d70747900006044820152606401610627565b5f600486604051610f949190613213565b908152604051908190036020019020905080610fb08782613370565b506001810180546001600160a01b0319163317905560028101610fd38682613370565b5060038101805467ffffffffffffffff19166001600160401b038616179055600481016110008482613370565b5060058101805468ffffffffffffffffff19166001600160401b038416179055426007820155600880546001810182555f919091527ff3f7a9fe364faab93b216da50a3214154f22a0a2b415b23a84c8169e8b636ee3016110618782613370565b50336001600160a01b031686805190602001207f5124221ffbc8a1e3c472d6987927fea7b42501bd31af75254b493abe448e9b888688876040516110a79392919061342a565b60405180910390a3505050505050565b604080516101608101825260608082525f60208301819052928201819052808201839052608082015260a0810182905260c0810182905260e081018290526101008101829052610120810182905261014081019190915260048260405161111e9190613213565b9081526020016040518091039020604051806101600160405290815f820180546111479061321e565b80601f01602080910402602001604051908101604052809291908181526020018280546111739061321e565b80156111be5780601f10611195576101008083540402835291602001916111be565b820191905f5260205f20905b8154815290600101906020018083116111a157829003601f168201915b505050918352505060018201546001600160a01b031660208201526002820180546040909201916111ee9061321e565b80601f016020809104026020016040519081016040528092919081815260200182805461121a9061321e565b80156112655780601f1061123c57610100808354040283529160200191611265565b820191905f5260205f20905b81548152906001019060200180831161124857829003601f168201915b505050918352505060038201546001600160401b031660208201526004820180546040909201916112959061321e565b80601f01602080910402602001604051908101604052809291908181526020018280546112c19061321e565b801561130c5780601f106112e35761010080835404028352916020019161130c565b820191905f5260205f20905b8154815290600101906020018083116112ef57829003601f168201915b505050918352505060058201546001600160401b038082166020840152600160401b80830460ff1615156040850152600160481b9092046001600160a01b0316606084015260068401548082166080850152919091041660a082015260079091015460c09091015292915050565b815f60048260405161138c9190613213565b9081526020016040518091039020604051806101600160405290815f820180546113b59061321e565b80601f01602080910402602001604051908101604052809291908181526020018280546113e19061321e565b801561142c5780601f106114035761010080835404028352916020019161142c565b820191905f5260205f20905b81548152906001019060200180831161140f57829003601f168201915b505050918352505060018201546001600160a01b0316602082015260028201805460409092019161145c9061321e565b80601f01602080910402602001604051908101604052809291908181526020018280546114889061321e565b80156114d35780601f106114aa576101008083540402835291602001916114d3565b820191905f5260205f20905b8154815290600101906020018083116114b657829003601f168201915b505050918352505060038201546001600160401b031660208201526004820180546040909201916115039061321e565b80601f016020809104026020016040519081016040528092919081815260200182805461152f9061321e565b801561157a5780601f106115515761010080835404028352916020019161157a565b820191905f5260205f20905b81548152906001019060200180831161155d57829003601f168201915b505050918352505060058201546001600160401b0380821660208085019190915260ff600160401b80850491909116151560408601526001600160a01b03600160481b90940484166060860152600686015480841660808701520490911660a084015260079093015460c09092019190915290820151919250166116135781604051633ed98b4360e21b8152600401610627919061311d565b60208101516001600160a01b0316331461164257604051633733be5960e21b8152336004820152602401610627565b5f6004856040516116539190613213565b908152604051908190036020019020600581015490915060ff600160401b90910416156116c25760405162461bcd60e51b815260206004820152601760248201527f47726f766520616c726561647920746f6b656e697a65640000000000000000006044820152606401610627565b5f846001600160401b03161161171a5760405162461bcd60e51b815260206004820181905260248201527f546f6b656e73207065722074726565206d75737420626520706f7369746976656044820152606401610627565b60038101545f906117359086906001600160401b031661327e565b90505f866040516020016117499190613467565b60405160208183030381529060405290505f8760405160200161176c9190613489565b60405160208183030381529060405290505f82828a8760020188600401896005015f9054906101000a90046001600160401b03166040516117ac90612bf6565b6117bb96959493929190613521565b604051809103905ff0801580156117d4573d5f5f3e3d5ffd5b506040516340c10f1960e01b81523060048201526001600160401b03861660248201529091506001600160a01b038216906340c10f19906044015f604051808303815f87803b158015611825575f5ffd5b505af1158015611837573d5f5f3e3d5ffd5b50506001546040515f935084925033916001600160a01b03169061185a90612c03565b6001600160a01b03938416815291831660208301529091166040820152606001604051809103905ff080158015611893573d5f5f3e3d5ffd5b5060058781018054600160401b68010000000000000000600160e81b0319909116600160481b6001600160a01b038816021781179091556006890180546001600160401b038a81166001600160801b031990921691909117908e16909202919091179055604051919250839161190a908d90613213565b908152604080516020928190038301812080546001600160a01b03199081166001600160a01b03968716179091558685165f81815260069095529290932080549093168585161790925560025463431f63c960e01b83526004830191909152620f424060248301529091169063431f63c9906044015f604051808303815f87803b158015611996575f5ffd5b505af11580156119a8573d5f5f3e3d5ffd5b50505050816001600160a01b03168a805190602001207f0b914e7745a124145c02246ad89547c8e6122f33b290d1f7d87de25699b2b219878c604051611a049291906001600160401b0392831681529116602082015260400190565b60405180910390a350505050505050505050565b8051602081830181018051600482529282019190930120915280548190611a3e9061321e565b80601f0160208091040260200160405190810160405280929190818152602001828054611a6a9061321e565b8015611ab55780601f10611a8c57610100808354040283529160200191611ab5565b820191905f5260205f20905b815481529060010190602001808311611a9857829003601f168201915b505050600184015460028501805494956001600160a01b03909216949193509150611adf9061321e565b80601f0160208091040260200160405190810160405280929190818152602001828054611b0b9061321e565b8015611b565780601f10611b2d57610100808354040283529160200191611b56565b820191905f5260205f20905b815481529060010190602001808311611b3957829003601f168201915b505050600384015460048501805494956001600160401b03909216949193509150611b809061321e565b80601f0160208091040260200160405190810160405280929190818152602001828054611bac9061321e565b8015611bf75780601f10611bce57610100808354040283529160200191611bf7565b820191905f5260205f20905b815481529060010190602001808311611bda57829003601f168201915b505050506005830154600684015460079094015492936001600160401b0380831694600160401b80850460ff169550600160481b9094046001600160a01b0316938284169304909116908b565b60088181548110611c53575f80fd5b905f5260205f20015f915090508054611c6b9061321e565b80601f0160208091040260200160405190810160405280929190818152602001828054611c979061321e565b8015611ce25780601f10611cb957610100808354040283529160200191611ce2565b820191905f5260205f20905b815481529060010190602001808311611cc557829003601f168201915b505050505081565b81516020818401810180516007825292820191850191909120919052805482908110611d14575f80fd5b5f918252602090912060029091020180546001909101546001600160401b038083169450600160401b80840482169450600160801b8404821693600160c01b9004821692918216910460ff1686565b835f600482604051611d759190613213565b9081526020016040518091039020604051806101600160405290815f82018054611d9e9061321e565b80601f0160208091040260200160405190810160405280929190818152602001828054611dca9061321e565b8015611e155780601f10611dec57610100808354040283529160200191611e15565b820191905f5260205f20905b815481529060010190602001808311611df857829003601f168201915b505050918352505060018201546001600160a01b03166020820152600282018054604090920191611e459061321e565b80601f0160208091040260200160405190810160405280929190818152602001828054611e719061321e565b8015611ebc5780601f10611e9357610100808354040283529160200191611ebc565b820191905f5260205f20905b815481529060010190602001808311611e9f57829003601f168201915b505050918352505060038201546001600160401b03166020820152600482018054604090920191611eec9061321e565b80601f0160208091040260200160405190810160405280929190818152602001828054611f189061321e565b8015611f635780601f10611f3a57610100808354040283529160200191611f63565b820191905f5260205f20905b815481529060010190602001808311611f4657829003601f168201915b505050918352505060058201546001600160401b0380821660208085019190915260ff600160401b80850491909116151560408601526001600160a01b03600160481b90940484166060860152600686015480841660808701520490911660a084015260079093015460c0909201919091529082015191925016611ffc5781604051633ed98b4360e21b8152600401610627919061311d565b60208101516001600160a01b0316331461202b57604051633733be5960e21b8152336004820152602401610627565b5f60048760405161203c9190613213565b9081526020016040518091039020604051806101600160405290815f820180546120659061321e565b80601f01602080910402602001604051908101604052809291908181526020018280546120919061321e565b80156120dc5780601f106120b3576101008083540402835291602001916120dc565b820191905f5260205f20905b8154815290600101906020018083116120bf57829003601f168201915b505050918352505060018201546001600160a01b0316602082015260028201805460409092019161210c9061321e565b80601f01602080910402602001604051908101604052809291908181526020018280546121389061321e565b80156121835780601f1061215a57610100808354040283529160200191612183565b820191905f5260205f20905b81548152906001019060200180831161216657829003601f168201915b505050918352505060038201546001600160401b031660208201526004820180546040909201916121b39061321e565b80601f01602080910402602001604051908101604052809291908181526020018280546121df9061321e565b801561222a5780601f106122015761010080835404028352916020019161222a565b820191905f5260205f20905b81548152906001019060200180831161220d57829003601f168201915b505050918352505060058201546001600160401b038082166020840152600160401b80830460ff1615156040850152600160481b9092046001600160a01b0316606084015260068401548082166080850152919091041660a082015260079091015460c0918201528101519091506122b7578660405163152e29c960e31b8152600401610627919061311d565b5f866001600160401b0316116123065760405162461bcd60e51b81526020600482015260146024820152735969656c642063616e6e6f74206265207a65726f60601b6044820152606401610627565b5f856001600160401b031611801561232857506064856001600160401b031611155b6123745760405162461bcd60e51b815260206004820152601b60248201527f5175616c697479206772616465206d75737420626520312d31303000000000006044820152606401610627565b5f846001600160401b0316116123cc5760405162461bcd60e51b815260206004820152601960248201527f53616c652070726963652063616e6e6f74206265207a65726f000000000000006044820152606401610627565b5f6123d7858861327e565b6040805160c0810182526001600160401b0342811682528a81166020830152898116828401528881166060830152831660808201525f60a0820152905191925090600790612426908b90613213565b90815260408051602092819003830181208054600180820183555f92835285832087516002909302018054968801519588015160608901516001600160401b039485166001600160801b031990991698909817600160401b9785168802176fffffffffffffffffffffffffffffffff16600160801b918516919091026001600160c01b031617600160c01b978416979097029690961786556080870151958101805460a08901519790931668ffffffffffffffffff1990931692909217951515909402949094179093556007906124fe908d90613213565b90815260405190819003602001902054612518919061359e565b9050808a805190602001207f17a22be0f9fa27697061bffe80565581ce0b35932311c36d3b09993feea3cffc8b868c42604051611a0494939291906001600160401b039485168152928416602084015292166040820152606081019190915260800190565b60606008805480602002602001604051908101604052809291908181526020015f905b82821015612648578382905f5260205f200180546125bd9061321e565b80601f01602080910402602001604051908101604052809291908181526020018280546125e99061321e565b80156126345780601f1061260b57610100808354040283529160200191612634565b820191905f5260205f20905b81548152906001019060200180831161261757829003601f168201915b5050505050815260200190600101906125a0565b50505050905090565b5f6004836040516126629190613213565b9081526020016040518091039020604051806101600160405290815f8201805461268b9061321e565b80601f01602080910402602001604051908101604052809291908181526020018280546126b79061321e565b80156127025780601f106126d957610100808354040283529160200191612702565b820191905f5260205f20905b8154815290600101906020018083116126e557829003601f168201915b505050918352505060018201546001600160a01b031660208201526002820180546040909201916127329061321e565b80601f016020809104026020016040519081016040528092919081815260200182805461275e9061321e565b80156127a95780601f10612780576101008083540402835291602001916127a9565b820191905f5260205f20905b81548152906001019060200180831161278c57829003601f168201915b505050918352505060038201546001600160401b031660208201526004820180546040909201916127d99061321e565b80601f01602080910402602001604051908101604052809291908181526020018280546128059061321e565b80156128505780601f1061282757610100808354040283529160200191612850565b820191905f5260205f20905b81548152906001019060200180831161283357829003601f168201915b505050918352505060058201546001600160401b0380821660208085019190915260ff600160401b80850491909116151560408601526001600160a01b03600160481b90940484166060860152600686015480841660808701520490911660a084015260079093015460c09092019190915290820151919250166128e95782604051633ed98b4360e21b8152600401610627919061311d565b8060c0015161290d578260405163152e29c960e31b8152600401610627919061311d565b60e08101516001600160a01b038082165f818152600660205260408082205490516370a0823160e01b81523060048201529316929091906370a0823190602401602060405180830381865afa158015612968573d5f5f3e3d5ffd5b505050506040513d601f19601f8201168201806040525081019061298c91906135b1565b905080856001600160401b031611156129ca57604051639d9efe3960e01b81526001600160401b038616600482015260248101829052604401610627565b6002546040516341976e0960e01b81526001600160a01b0385811660048301525f9216906341976e0990602401602060405180830381865afa158015612a12573d5f5f3e3d5ffd5b505050506040513d601f19601f82011682018060405250810190612a3691906135b1565b90505f612a4c6001600160401b038816836135c8565b6001546040516323b872dd60e01b81523360048201526001600160a01b038781166024830152604482018490529293509116906323b872dd906064016020604051808303815f875af1158015612aa4573d5f5f3e3d5ffd5b505050506040513d601f19601f82011682018060405250810190612ac89190613305565b5060405163a9059cbb60e01b81523360048201526001600160401b03881660248201526001600160a01b0386169063a9059cbb906044016020604051808303815f875af1158015612b1b573d5f5f3e3d5ffd5b505050506040513d601f19601f82011682018060405250810190612b3f9190613305565b5060405163b6b55f2560e01b8152600481018290526001600160a01b0385169063b6b55f25906024015f604051808303815f87803b158015612b7f575f5ffd5b505af1158015612b91573d5f5f3e3d5ffd5b50505050336001600160a01b0316876001600160401b0316866001600160a01b03167f727a965b3b30a456f10099409a2882638153964320f19bff7a1d7cb141a7c5bd84604051612be491815260200190565b60405180910390a45050505050505050565b611bf7806135e083390190565b611003806151d783390190565b634e487b7160e01b5f52604160045260245ffd5b5f82601f830112612c33575f5ffd5b81356001600160401b03811115612c4c57612c4c612c10565b604051601f8201601f19908116603f011681016001600160401b0381118282101715612c7a57612c7a612c10565b604052818152838201602001851015612c91575f5ffd5b816020850160208301375f918101602001919091529392505050565b5f60208284031215612cbd575f5ffd5b81356001600160401b03811115612cd2575f5ffd5b612cde84828501612c24565b949350505050565b5f5f60408385031215612cf7575f5ffd5b82356001600160401b03811115612d0c575f5ffd5b612d1885828601612c24565b95602094909401359450505050565b602080825282518282018190525f918401906040840190835b81811015612dc75783516001600160401b0381511684526001600160401b0360208201511660208501526001600160401b0360408201511660408501526001600160401b0360608201511660608501526001600160401b03608082015116608085015260a0810151151560a08501525060c083019250602084019350600181019050612d40565b509095945050505050565b80356001600160401b0381168114612de8575f5ffd5b919050565b5f5f5f5f5f60a08688031215612e01575f5ffd5b85356001600160401b03811115612e16575f5ffd5b612e2288828901612c24565b95505060208601356001600160401b03811115612e3d575f5ffd5b612e4988828901612c24565b945050612e5860408701612dd2565b925060608601356001600160401b03811115612e72575f5ffd5b612e7e88828901612c24565b925050612e8d60808701612dd2565b90509295509295909350565b5f81518084528060208401602086015e5f602082860101526020601f19601f83011685010191505092915050565b602081525f82516101606020840152612ee4610180840182612e99565b90506020840151612f0060408501826001600160a01b03169052565b506040840151838203601f19016060850152612f1c8282612e99565b9150506060840151612f3960808501826001600160401b03169052565b506080840151838203601f190160a0850152612f558282612e99565b91505060a0840151612f7260c08501826001600160401b03169052565b5060c084015180151560e08501525060e08401516001600160a01b038116610100850152506101008401516001600160401b038116610120850152506101208401516001600160401b038116610140850152506101408401516101608401528091505092915050565b5f5f60408385031215612fec575f5ffd5b82356001600160401b03811115613001575f5ffd5b61300d85828601612c24565b92505061301c60208401612dd2565b90509250929050565b61016081525f61303961016083018e612e99565b6001600160a01b038d166020840152828103604084015261305a818d612e99565b90506001600160401b038b166060840152828103608084015261307d818b612e99565b9150506001600160401b03881660a083015261309d60c083018815159052565b6001600160a01b039590951660e08201526001600160401b03938416610100820152919092166101208201526101400152979650505050505050565b5f602082840312156130e9575f5ffd5b81356001600160a01b03811681146130ff575f5ffd5b9392505050565b5f60208284031215613116575f5ffd5b5035919050565b602081525f6130ff6020830184612e99565b5f5f5f5f60808587031215613142575f5ffd5b84356001600160401b03811115613157575f5ffd5b61316387828801612c24565b94505061317260208601612dd2565b925061318060408601612dd2565b915061318e60608601612dd2565b905092959194509250565b5f602082016020835280845180835260408501915060408160051b8601019250602086015f5b828110156131f057603f198786030184526131db858351612e99565b945060209384019391909101906001016131bf565b50929695505050505050565b5f81518060208401855e5f93019283525090919050565b5f6130ff82846131fc565b600181811c9082168061323257607f821691505b60208210810361325057634e487b7160e01b5f52602260045260245ffd5b50919050565b634e487b7160e01b5f52603260045260245ffd5b634e487b7160e01b5f52601160045260245ffd5b6001600160401b0381811683821602908116908181146132a0576132a061326a565b5092915050565b5f6001600160401b038316806132cb57634e487b7160e01b5f52601260045260245ffd5b806001600160401b0384160491505092915050565b6001600160401b0382811682821603908111156132ff576132ff61326a565b92915050565b5f60208284031215613315575f5ffd5b815180151581146130ff575f5ffd5b601f82111561336b57805f5260205f20601f840160051c810160208510156133495750805b601f840160051c820191505b81811015613368575f8155600101613355565b50505b505050565b81516001600160401b0381111561338957613389612c10565b61339d81613397845461321e565b84613324565b6020601f8211600181146133cf575f83156133b85750848201515b5f19600385901b1c1916600184901b178455613368565b5f84815260208120601f198516915b828110156133fe57878501518255602094850194600190920191016133de565b508482101561341b57868401515f19600387901b60f8161c191681555b50505050600190811b01905550565b6001600160401b0384168152606060208201525f61344b6060830185612e99565b828103604084015261345d8185612e99565b9695505050505050565b6d021b7b33332b29023b937bb329d160951b81525f6130ff600e8301846131fc565b64545245452d60d81b81525f6130ff60058301846131fc565b5f81546134ae8161321e565b8085526001821680156134c857600181146134e457613518565b60ff1983166020870152602082151560051b8701019350613518565b845f5260205f205f5b8381101561350f5781546020828a0101526001820191506020810190506134ed565b87016020019450505b50505092915050565b60c081525f61353360c0830189612e99565b82810360208401526135458189612e99565b905082810360408401526135598188612e99565b9050828103606084015261356d81876134a2565b9050828103608084015261358181866134a2565b9150506001600160401b03831660a0830152979650505050505050565b818103818111156132ff576132ff61326a565b5f602082840312156135c1575f5ffd5b5051919050565b80820281158282048414176132ff576132ff61326a56fe608060405234801561000f575f5ffd5b50604051611bf7380380611bf783398101604081905261002e91610247565b338686600361003d83826103c0565b50600461004a82826103c0565b5050506001600160a01b03811661007a57604051631e4fbdf760e01b81525f600482015260240160405180910390fd5b6100838161013e565b50600661009085826103c0565b50600761009d84826103c0565b5060086100aa83826103c0565b5060098054601960821b60ff60801b19426001600160401b0390811668010000000000000000026001600160801b031990941690861617929092179190911617905560408051808201909152601981527f4f7267616e6963206661726d696e6720707261637469636573000000000000006020820152600a9061012d90826103c0565b505042600b555061047a9350505050565b600580546001600160a01b038381166001600160a01b0319831681179093556040519116919082907f8be0079c531659141344cd1fd0a4f28419497f9722a3daafe3b4186f6b6457e0905f90a35050565b634e487b7160e01b5f52604160045260245ffd5b5f82601f8301126101b2575f5ffd5b81516001600160401b038111156101cb576101cb61018f565b604051601f8201601f19908116603f011681016001600160401b03811182821017156101f9576101f961018f565b604052818152838201602001851015610210575f5ffd5b8160208501602083015e5f918101602001919091529392505050565b80516001600160401b0381168114610242575f5ffd5b919050565b5f5f5f5f5f5f60c0878903121561025c575f5ffd5b86516001600160401b03811115610271575f5ffd5b61027d89828a016101a3565b602089015190975090506001600160401b0381111561029a575f5ffd5b6102a689828a016101a3565b604089015190965090506001600160401b038111156102c3575f5ffd5b6102cf89828a016101a3565b606089015190955090506001600160401b038111156102ec575f5ffd5b6102f889828a016101a3565b608089015190945090506001600160401b03811115610315575f5ffd5b61032189828a016101a3565b92505061033060a0880161022c565b90509295509295509295565b600181811c9082168061035057607f821691505b60208210810361036e57634e487b7160e01b5f52602260045260245ffd5b50919050565b601f8211156103bb57805f5260205f20601f840160051c810160208510156103995750805b601f840160051c820191505b818110156103b8575f81556001016103a5565b50505b505050565b81516001600160401b038111156103d9576103d961018f565b6103ed816103e7845461033c565b84610374565b6020601f82116001811461041f575f83156104085750848201515b5f19600385901b1c1916600184901b1784556103b8565b5f84815260208120601f198516915b8281101561044e578785015182556020948501946001909201910161042e565b508482101561046b57868401515f19600387901b60f8161c191681555b50505050600190811b01905550565b611770806104875f395ff3fe608060405234801561000f575f5ffd5b50600436106101dc575f3560e01c8063715018a611610109578063af6b60cf1161009e578063dd62ed3e1161006e578063dd62ed3e14610401578063ea9ec92814610439578063eb9d546c1461044c578063f2fde38b14610454575f5ffd5b8063af6b60cf146103ca578063b95ab51f146103dd578063c3f3305b146103e5578063ce043271146103ed575f5ffd5b806390afeb73116100d957806390afeb731461039f57806395d89b41146103a7578063a59d9317146103af578063a9059cbb146103b7575f5ffd5b8063715018a614610344578063738b33e61461034c578063776ce7a91461036f5780638da5cb5b14610384575f5ffd5b806342966c681161017f57806369e08c4f1161014f57806369e08c4f146102eb5780636a6c41bb146103005780636d3299881461031357806370a082311461031c575f5ffd5b806342966c681461028357806342a78bb814610296578063516f279e146102ac5780636213bca7146102b4575f5ffd5b806318160ddd116101ba57806318160ddd1461023657806323b872dd14610248578063313ce5671461025b57806340c10f1914610270575f5ffd5b806306fdde03146101e0578063095ea7b3146101fe578063145053da14610221575b5f5ffd5b6101e8610467565b6040516101f591906111d6565b60405180910390f35b61021161020c36600461120a565b6104f7565b60405190151581526020016101f5565b61023461022f366004611232565b610510565b005b6002545b6040519081526020016101f5565b610211610256366004611258565b610608565b60125b60405160ff90911681526020016101f5565b61023461027e36600461120a565b61062b565b610234610291366004611292565b610641565b6009546046600160801b90910460ff1610610211565b6101e861064e565b6009546102d3906801000000000000000090046001600160401b031681565b6040516001600160401b0390911681526020016101f5565b6102f36106da565b6040516101f591906112f1565b61023461030e3660046113a0565b610863565b61023a600b5481565b61023a61032a3660046113d9565b6001600160a01b03165f9081526020819052604090205490565b61023461090d565b61035f61035a366004611292565b610920565b6040516101f594939291906113f2565b6103776109ee565b6040516101f5919061142c565b6005546040516001600160a01b0390911681526020016101f5565b6101e8610b0b565b6101e8610b18565b61023a610b27565b6102116103c536600461120a565b610b57565b6009546102d3906001600160401b031681565b6101e8610b64565b6101e8610b71565b60095461025e90600160801b900460ff1681565b61023a61040f36600461148f565b6001600160a01b039182165f90815260016020908152604080832093909416825291909152205490565b6102346104473660046114c0565b610b7e565b6102d3610d76565b6102346104623660046113d9565b610da5565b60606003805461047690611511565b80601f01602080910402602001604051908101604052809291908181526020018280546104a290611511565b80156104ed5780601f106104c4576101008083540402835291602001916104ed565b820191905f5260205f20905b8154815290600101906020018083116104d057829003601f168201915b5050505050905090565b5f33610504818585610ddf565b60019150505b92915050565b610518610df1565b5f816001600160401b0316116105755760405162461bcd60e51b815260206004820152601f60248201527f4578706563746564207969656c64206d75737420626520706f7369746976650060448201526064015b60405180910390fd5b6009805467ffffffffffffffff19166001600160401b0383161790556040805160608082526016908201527532bc3832b1ba32b22cb4b2b6322832b929b2b0b9b7b760511b608082015260a0602082018190525f90820152429181019190915233907f14974fd52e3b6cedfe83a63fe05bfc663c45fe63bf37f4a321abc6de35e365119060c0015b60405180910390a250565b5f33610615858285610e1e565b610620858585610e9a565b506001949350505050565b610633610df1565b61063d8282610ef7565b5050565b61064b3382610f2b565b50565b6007805461065b90611511565b80601f016020809104026020016040519081016040528092919081815260200182805461068790611511565b80156106d25780601f106106a9576101008083540402835291602001916106d2565b820191905f5260205f20905b8154815290600101906020018083116106b557829003601f168201915b505050505081565b61070e60405180608001604052805f81526020015f60ff168152602001606081526020015f6001600160a01b031681525090565b600c5461075d5760405162461bcd60e51b815260206004820152601b60248201527f4e6f206865616c7468207570646174657320617661696c61626c650000000000604482015260640161056c565b600c805461076d9060019061155d565b8154811061077d5761077d611570565b905f5260205f2090600402016040518060800160405290815f8201548152602001600182015f9054906101000a900460ff1660ff1660ff1681526020016002820180546107c990611511565b80601f01602080910402602001604051908101604052809291908181526020018280546107f590611511565b80156108405780601f1061081757610100808354040283529160200191610840565b820191905f5260205f20905b81548152906001019060200180831161082357829003601f168201915b5050509183525050600391909101546001600160a01b0316602090910152919050565b61086b610df1565b5f8151116108c55760405162461bcd60e51b815260206004820152602160248201527f4661726d696e67207072616374696365732063616e6e6f7420626520656d70746044820152607960f81b606482015260840161056c565b600a6108d182826115cf565b50336001600160a01b03167fb14a69ca2215439b8374ee4f4f0401b807b08a7fdda66cc95f0488b892290f2f82426040516105fd929190611689565b610915610df1565b61091e5f610f5f565b565b600c818154811061092f575f80fd5b5f91825260209091206004909102018054600182015460028301805492945060ff909116929161095e90611511565b80601f016020809104026020016040519081016040528092919081815260200182805461098a90611511565b80156109d55780601f106109ac576101008083540402835291602001916109d5565b820191905f5260205f20905b8154815290600101906020018083116109b857829003601f168201915b505050600390930154919250506001600160a01b031684565b6060600c805480602002602001604051908101604052809291908181526020015f905b82821015610b02575f848152602090819020604080516080810182526004860290920180548352600181015460ff169383019390935260028301805492939291840191610a5d90611511565b80601f0160208091040260200160405190810160405280929190818152602001828054610a8990611511565b8015610ad45780601f10610aab57610100808354040283529160200191610ad4565b820191905f5260205f20905b815481529060010190602001808311610ab757829003601f168201915b5050509183525050600391909101546001600160a01b03166020918201529082526001929092019101610a11565b50505050905090565b6006805461065b90611511565b60606004805461047690611511565b5f600b545f03610b3657505f90565b62015180600b5442610b48919061155d565b610b5291906116be565b905090565b5f33610504818585610e9a565b600a805461065b90611511565b6008805461065b90611511565b610b86610df1565b60648260ff161115610bda5760405162461bcd60e51b815260206004820152601a60248201527f4865616c74682073636f7265206d75737420626520302d313030000000000000604482015260640161056c565b5f815111610c225760405162461bcd60e51b81526020600482015260156024820152744e6f7465732063616e6e6f7420626520656d70747960581b604482015260640161056c565b6009805460ff60801b1916600160801b60ff8581169182029290921790925542600b81905560408051608081018252918252602082019384528101848152336060830152600c80546001810182555f9190915282517fdf6966c971051c3d54ec59162606531493a51404a002842f56009d7e5cf4a8c7600490920291820190815594517fdf6966c971051c3d54ec59162606531493a51404a002842f56009d7e5cf4a8c88201805460ff19169190951617909355519092917fdf6966c971051c3d54ec59162606531493a51404a002842f56009d7e5cf4a8c90190610d0790826115cf565b5060609190910151600390910180546001600160a01b0319166001600160a01b03909216919091179055604051339060ff8416907f4e978e8d92220b9b03fa8e626d81bf3f9a3c7b14e4ecaba3689569ddfec1f4d590610d6a9085904290611689565b60405180910390a35050565b6009545f90606490610d9b9060ff600160801b820416906001600160401b03166116d1565b610b5291906116fa565b610dad610df1565b6001600160a01b038116610dd657604051631e4fbdf760e01b81525f600482015260240161056c565b61064b81610f5f565b610dec8383836001610fb0565b505050565b6005546001600160a01b0316331461091e5760405163118cdaa760e01b815233600482015260240161056c565b6001600160a01b038381165f908152600160209081526040808320938616835292905220545f19811015610e945781811015610e8657604051637dc7a0d960e11b81526001600160a01b0384166004820152602481018290526044810183905260640161056c565b610e9484848484035f610fb0565b50505050565b6001600160a01b038316610ec357604051634b637e8f60e11b81525f600482015260240161056c565b6001600160a01b038216610eec5760405163ec442f0560e01b81525f600482015260240161056c565b610dec838383611082565b6001600160a01b038216610f205760405163ec442f0560e01b81525f600482015260240161056c565b61063d5f8383611082565b6001600160a01b038216610f5457604051634b637e8f60e11b81525f600482015260240161056c565b61063d825f83611082565b600580546001600160a01b038381166001600160a01b0319831681179093556040519116919082907f8be0079c531659141344cd1fd0a4f28419497f9722a3daafe3b4186f6b6457e0905f90a35050565b6001600160a01b038416610fd95760405163e602df0560e01b81525f600482015260240161056c565b6001600160a01b03831661100257604051634a1406b160e11b81525f600482015260240161056c565b6001600160a01b038085165f9081526001602090815260408083209387168352929052208290558015610e9457826001600160a01b0316846001600160a01b03167f8c5be1e5ebec7d5bd14f71427d1e84f3dd0314c0f7b2291e5b200ac8c7c3b9258460405161107491815260200190565b60405180910390a350505050565b6001600160a01b0383166110ac578060025f8282546110a19190611727565b9091555061111c9050565b6001600160a01b0383165f90815260208190526040902054818110156110fe5760405163391434e360e21b81526001600160a01b0385166004820152602481018290526044810183905260640161056c565b6001600160a01b0384165f9081526020819052604090209082900390555b6001600160a01b03821661113857600280548290039055611156565b6001600160a01b0382165f9081526020819052604090208054820190555b816001600160a01b0316836001600160a01b03167fddf252ad1be2c89b69c2b068fc378daa952ba7f163c4a11628f55a4df523b3ef8360405161119b91815260200190565b60405180910390a3505050565b5f81518084528060208401602086015e5f602082860101526020601f19601f83011685010191505092915050565b602081525f6111e860208301846111a8565b9392505050565b80356001600160a01b0381168114611205575f5ffd5b919050565b5f5f6040838503121561121b575f5ffd5b611224836111ef565b946020939093013593505050565b5f60208284031215611242575f5ffd5b81356001600160401b03811681146111e8575f5ffd5b5f5f5f6060848603121561126a575f5ffd5b611273846111ef565b9250611281602085016111ef565b929592945050506040919091013590565b5f602082840312156112a2575f5ffd5b5035919050565b8051825260ff60208201511660208301525f6040820151608060408501526112d460808501826111a8565b6060938401516001600160a01b0316949093019390935250919050565b602081525f6111e860208301846112a9565b634e487b7160e01b5f52604160045260245ffd5b5f82601f830112611326575f5ffd5b81356001600160401b0381111561133f5761133f611303565b604051601f8201601f19908116603f011681016001600160401b038111828210171561136d5761136d611303565b604052818152838201602001851015611384575f5ffd5b816020850160208301375f918101602001919091529392505050565b5f602082840312156113b0575f5ffd5b81356001600160401b038111156113c5575f5ffd5b6113d184828501611317565b949350505050565b5f602082840312156113e9575f5ffd5b6111e8826111ef565b84815260ff84166020820152608060408201525f61141360808301856111a8565b905060018060a01b038316606083015295945050505050565b5f602082016020835280845180835260408501915060408160051b8601019250602086015f5b8281101561148357603f1987860301845261146e8583516112a9565b94506020938401939190910190600101611452565b50929695505050505050565b5f5f604083850312156114a0575f5ffd5b6114a9836111ef565b91506114b7602084016111ef565b90509250929050565b5f5f604083850312156114d1575f5ffd5b823560ff811681146114e1575f5ffd5b915060208301356001600160401b038111156114fb575f5ffd5b61150785828601611317565b9150509250929050565b600181811c9082168061152557607f821691505b60208210810361154357634e487b7160e01b5f52602260045260245ffd5b50919050565b634e487b7160e01b5f52601160045260245ffd5b8181038181111561050a5761050a611549565b634e487b7160e01b5f52603260045260245ffd5b601f821115610dec57805f5260205f20601f840160051c810160208510156115a95750805b601f840160051c820191505b818110156115c8575f81556001016115b5565b5050505050565b81516001600160401b038111156115e8576115e8611303565b6115fc816115f68454611511565b84611584565b6020601f82116001811461162e575f83156116175750848201515b5f19600385901b1c1916600184901b1784556115c8565b5f84815260208120601f198516915b8281101561165d578785015182556020948501946001909201910161163d565b508482101561167a57868401515f19600387901b60f8161c191681555b50505050600190811b01905550565b604081525f61169b60408301856111a8565b90508260208301529392505050565b634e487b7160e01b5f52601260045260245ffd5b5f826116cc576116cc6116aa565b500490565b6001600160401b0381811683821602908116908181146116f3576116f3611549565b5092915050565b5f6001600160401b03831680611712576117126116aa565b806001600160401b0384160491505092915050565b8082018082111561050a5761050a61154956fea264697066735822122065b5bd541291e6b0d06371097d710214467e62e0dc0d5a62d43e041c76c30b4864736f6c634300081d00336080604052348015600e575f5ffd5b50604051611003380380611003833981016040819052602b916092565b5f80546001600160a01b039485166001600160a01b0319918216179091556001805493851693821693909317909255600280549190931690821617909155600380549091163317905560cb565b80516001600160a01b0381168114608d575f5ffd5b919050565b5f5f5f6060848603121560a3575f5ffd5b60aa846078565b925060b6602085016078565b915060c2604085016078565b90509250925092565b610f2b806100d85f395ff3fe608060405234801561000f575f5ffd5b5060043610610111575f3560e01c806388987aac1161009e578063d811fcf01161006e578063d811fcf01461029a578063efca2eed146102ad578063feafdaa7146102b6578063ff50abdc146102bf578063ff51e702146102c8575f5ffd5b806388987aac1461024357806389a3027114610255578063b6b55f2514610268578063c6b7d9611461027b575f5ffd5b80635a40af8e116100e45780635a40af8e146101e15780636d0a1cb3146101f45780636e70096e146102075780637ad226dc1461021a578063809dab6a1461022d575f5ffd5b80630c8bc60c146101155780631d143848146101485780634487d3df146101735780634755fd5d146101cc575b5f5ffd5b610128610123366004610b6d565b6102e7565b604080519384526020840192909252908201526060015b60405180910390f35b60035461015b906001600160a01b031681565b6040516001600160a01b03909116815260200161013f565b6101aa610181366004610b8d565b60076020525f908152604090208054600182015460028301546003909301549192909160ff1684565b604080519485526020850193909352918301521515606082015260800161013f565b6101df6101da366004610c76565b61031e565b005b6101df6101ef366004610d41565b610581565b6101df610202366004610d6b565b6106ae565b6101df610215366004610b8d565b610825565b6101df610228366004610d41565b610960565b610235610a49565b60405190815260200161013f565b5f5461015b906001600160a01b031681565b60025461015b906001600160a01b031681565b6101df610276366004610b8d565b610ab8565b610235610289366004610b6d565b60086020525f908152604090205481565b60015461015b906001600160a01b031681565b61023560055481565b61023560065481565b61023560045481565b6102356102d6366004610b6d565b60096020525f908152604090205481565b6001600160a01b0381165f90815260086020908152604080832054600990925282205490916103168284610da7565b929491935050565b6003546001600160a01b031633146103515760405162461bcd60e51b815260040161034890610dc0565b60405180910390fd5b80518251146103945760405162461bcd60e51b815260206004820152600f60248201526e098cadccee8d040dad2e6dac2e8c6d608b1b6044820152606401610348565b5f838152600760205260409020600381015460ff16156103ea5760405162461bcd60e51b8152602060048201526011602482015270105b1c9958591e4818dbdb5c1b195d1959607a1b6044820152606401610348565b5f5f5f9054906101000a90046001600160a01b03166001600160a01b03166318160ddd6040518163ffffffff1660e01b8152600401602060405180830381865afa15801561043a573d5f5f3e3d5ffd5b505050506040513d601f19601f8201168201806040525081019061045e9190610de5565b90505f81116104af5760405162461bcd60e51b815260206004820152601860248201527f4e6f20746f6b656e7320696e2063697263756c6174696f6e00000000000000006044820152606401610348565b5f5b845181101561056c575f8482815181106104cd576104cd610dfc565b60200260200101511115610564575f828583815181106104ef576104ef610dfc565b602002602001015185600101546105069190610e10565b6105109190610e27565b90508060085f88858151811061052857610528610dfc565b60200260200101516001600160a01b03166001600160a01b031681526020019081526020015f205f82825461055d9190610e46565b9091555050505b6001016104b1565b5050600301805460ff19166001179055505050565b6003546001600160a01b031633146105ab5760405162461bcd60e51b815260040161034890610dc0565b5f82116105ca5760405162461bcd60e51b815260040161034890610e59565b6105d2610a49565b8211156105f15760405162461bcd60e51b815260040161034890610e90565b60025460405163a9059cbb60e01b81526001600160a01b038381166004830152602482018590529091169063a9059cbb906044016020604051808303815f875af1158015610641573d5f5f3e3d5ffd5b505050506040513d601f19601f820116820180604052508101906106659190610ebe565b50604080518381524260208201526001600160a01b038316917fd4c4f034e6d88080144fb76dbfb71aab31394358b3639babebc2e5cf35c2b76691015b60405180910390a25050565b6003546001600160a01b031633146106d85760405162461bcd60e51b815260040161034890610dc0565b5f546001600160a01b038381169116146107245760405162461bcd60e51b815260206004820152600d60248201526c24b73b30b634b2103a37b5b2b760991b6044820152606401610348565b5f81116107435760405162461bcd60e51b815260040161034890610e59565b61074b610a49565b81111561076a5760405162461bcd60e51b815260040161034890610e90565b60068054905f61077983610edd565b9091555050604080516080810182526006548082526020808301858152428486019081525f6060860181815294815260079093529482209351845551600184015592516002830155516003909101805460ff1916911515919091179055600580548392906107e8908490610e46565b9091555050600654604080518381524260208201527f6215b003e186dbc79e3bd07b486dc69758f50dab026e5d485d4a945d5601544791016106a2565b335f9081526009602090815260408083205460089092528220546108499190610da7565b9050808211156108935760405162461bcd60e51b8152602060048201526015602482015274496e73756666696369656e74206561726e696e677360581b6044820152606401610348565b335f90815260096020526040812080548492906108b1908490610e46565b909155505060025460405163a9059cbb60e01b8152336004820152602481018490526001600160a01b039091169063a9059cbb906044016020604051808303815f875af1158015610904573d5f5f3e3d5ffd5b505050506040513d601f19601f820116820180604052508101906109289190610ebe565b506040805183815242602082015233917f90dac969af4a4897610ef8f0cd934c54409861eb7bd2205e552f8f2296ee5d3e91016106a2565b6003546001600160a01b0316331461098a5760405162461bcd60e51b815260040161034890610dc0565b5f82116109a95760405162461bcd60e51b815260040161034890610e59565b6109b1610a49565b8211156109d05760405162461bcd60e51b815260040161034890610e90565b60025460405163a9059cbb60e01b81526001600160a01b038381166004830152602482018590529091169063a9059cbb906044016020604051808303815f875af1158015610a20573d5f5f3e3d5ffd5b505050506040513d601f19601f82011682018060405250810190610a449190610ebe565b505050565b6002546040516370a0823160e01b81523060048201525f916001600160a01b0316906370a0823190602401602060405180830381865afa158015610a8f573d5f5f3e3d5ffd5b505050506040513d601f19601f82011682018060405250810190610ab39190610de5565b905090565b6003546001600160a01b03163314610ae25760405162461bcd60e51b815260040161034890610dc0565b5f8111610b015760405162461bcd60e51b815260040161034890610e59565b8060045f828254610b129190610e46565b9091555050604080518281524260208201527fb20d89f6552ecc9b6927807870a2e0a3ead94efac32d88ca11d3ff17b744aa90910160405180910390a150565b80356001600160a01b0381168114610b68575f5ffd5b919050565b5f60208284031215610b7d575f5ffd5b610b8682610b52565b9392505050565b5f60208284031215610b9d575f5ffd5b5035919050565b634e487b7160e01b5f52604160045260245ffd5b604051601f8201601f1916810167ffffffffffffffff81118282101715610be157610be1610ba4565b604052919050565b5f67ffffffffffffffff821115610c0257610c02610ba4565b5060051b60200190565b5f82601f830112610c1b575f5ffd5b8135610c2e610c2982610be9565b610bb8565b8082825260208201915060208360051b860101925085831115610c4f575f5ffd5b602085015b83811015610c6c578035835260209283019201610c54565b5095945050505050565b5f5f5f60608486031215610c88575f5ffd5b83359250602084013567ffffffffffffffff811115610ca5575f5ffd5b8401601f81018613610cb5575f5ffd5b8035610cc3610c2982610be9565b8082825260208201915060208360051b850101925088831115610ce4575f5ffd5b6020840193505b82841015610d0d57610cfc84610b52565b825260209384019390910190610ceb565b9450505050604084013567ffffffffffffffff811115610d2b575f5ffd5b610d3786828701610c0c565b9150509250925092565b5f5f60408385031215610d52575f5ffd5b82359150610d6260208401610b52565b90509250929050565b5f5f60408385031215610d7c575f5ffd5b610d8583610b52565b946020939093013593505050565b634e487b7160e01b5f52601160045260245ffd5b81810381811115610dba57610dba610d93565b92915050565b6020808252600b908201526a27b7363c9034b9b9bab2b960a91b604082015260600190565b5f60208284031215610df5575f5ffd5b5051919050565b634e487b7160e01b5f52603260045260245ffd5b8082028115828204841417610dba57610dba610d93565b5f82610e4157634e487b7160e01b5f52601260045260245ffd5b500490565b80820180821115610dba57610dba610d93565b60208082526017908201527f416d6f756e74206d75737420626520706f736974697665000000000000000000604082015260600190565b602080825260149082015273496e73756666696369656e742062616c616e636560601b604082015260600190565b5f60208284031215610ece575f5ffd5b81518015158114610b86575f5ffd5b5f60018201610eee57610eee610d93565b506001019056fea26469706673582212209a81fe33e2689bf281515c9a3b05797ce5747b204160c29ad1855466529ce44a64736f6c634300081d0033a26469706673582212209e0f1e1ebc02e7c012629d7bc1db91dbb6171f87a2a75a382219ef15a4c3525464736f6c634300081d0033",
  "linkReferences": {},
  "deployedLinkReferences": {}
}