{
  "_format": "hh-sol-artifact-1",
  "contractName": "CoffeeTreeIssuer",
  "sourceName": "contracts/mantle/CoffeeTreeIssuer.sol",
  "abi": [
    {
      "inputs": [
        {
          "internalType": "address",
          "name": "_farmerVerification",
          "type": "address"
        },
        {
          "internalType": "address",
          "name": "_usdc",
          "type": "address"
        },
        {
          "internalType": "address",
          "name": "_oracle",
          "type": "address"
        }
      ],
      "stateMutability": "nonpayable",
      "type": "constructor"
    },
    {
      "inputs": [
        {
          "internalType": "string",
          "name": "groveName",
          "type": "string"
        }
      ],
      "name": "GroveAlreadyExists",
      "type": "error"
    },
    {
      "inputs": [
        {
          "internalType": "string",
          "name": "groveName",
          "type": "string"
        }
      ],
      "name": "GroveNotFound",
      "type": "error"
    },
    {
      "inputs": [
        {
          "internalType": "string",
          "name": "groveName",
          "type": "string"
        }
      ],
      "name": "GroveNotTokenized",
      "type": "error"
    },
    {
      "inputs": [
        {
          "internalType": "uint64",
          "name": "requested",
          "type": "uint64"
        },
        {
          "internalType": "uint256",
          "name": "available",
          "type": "uint256"
        }
      ],
      "name": "InsufficientTokens",
      "type": "error"
    },
    {
      "inputs": [
        {
          "internalType": "string",
          "name": "reason",
          "type": "string"
        }
      ],
      "name": "InvalidHarvestData",
      "type": "error"
    },
    {
      "inputs": [
        {
          "internalType": "uint256",
          "name": "harvestIndex",
          "type": "uint256"
        }
      ],
      "name": "RevenueAlreadyDistributed",
      "type": "error"
    },
    {
      "inputs": [
        {
          "internalType": "address",
          "name": "caller",
          "type": "address"
        }
      ],
      "name": "UnauthorizedAccess",
      "type": "error"
    },
    {
      "inputs": [
        {
          "internalType": "address",
          "name": "farmer",
          "type": "address"
        }
      ],
      "name": "UnverifiedFarmer",
      "type": "error"
    },
    {
      "anonymous": false,
      "inputs": [
        {
          "indexed": true,
          "internalType": "bytes32",
          "name": "groveNameHash",
          "type": "bytes32"
        },
        {
          "indexed": true,
          "internalType": "address",
          "name": "farmer",
          "type": "address"
        },
        {
          "indexed": false,
          "internalType": "uint64",
          "name": "treeCount",
          "type": "uint64"
        },
        {
          "indexed": false,
          "internalType": "string",
          "name": "location",
          "type": "string"
        },
        {
          "indexed": false,
          "internalType": "string",
          "name": "coffeeVariety",
          "type": "string"
        }
      ],
      "name": "CoffeeGroveRegistered",
      "type": "event"
    },
    {
      "anonymous": false,
      "inputs": [
        {
          "indexed": true,
          "internalType": "bytes32",
          "name": "groveNameHash",
          "type": "bytes32"
        },
        {
          "indexed": true,
          "internalType": "address",
          "name": "token",
          "type": "address"
        },
        {
          "indexed": false,
          "internalType": "uint64",
          "name": "totalTokens",
          "type": "uint64"
        },
        {
          "indexed": false,
          "internalType": "uint64",
          "name": "tokensPerTree",
          "type": "uint64"
        }
      ],
      "name": "CoffeeGroveTokenized",
      "type": "event"
    },
    {
      "anonymous": false,
      "inputs": [
        {
          "indexed": true,
          "internalType": "bytes32",
          "name": "groveNameHash",
          "type": "bytes32"
        },
        {
          "indexed": false,
          "internalType": "uint64",
          "name": "yieldKg",
          "type": "uint64"
        },
        {
          "indexed": false,
          "internalType": "uint64",
          "name": "totalRevenue",
          "type": "uint64"
        },
        {
          "indexed": false,
          "internalType": "uint64",
          "name": "qualityGrade",
          "type": "uint64"
        },
        {
          "indexed": false,
          "internalType": "uint256",
          "name": "harvestDate",
          "type": "uint256"
        },
        {
          "indexed": true,
          "internalType": "uint256",
          "name": "harvestIndex",
          "type": "uint256"
        }
      ],
      "name": "HarvestReported",
      "type": "event"
    },
    {
      "anonymous": false,
      "inputs": [
        {
          "indexed": true,
          "internalType": "bytes32",
          "name": "groveNameHash",
          "type": "bytes32"
        },
        {
          "indexed": false,
          "internalType": "uint64",
          "name": "totalRevenue",
          "type": "uint64"
        },
        {
          "indexed": false,
          "internalType": "uint64",
          "name": "farmerShare",
          "type": "uint64"
        },
        {
          "indexed": false,
          "internalType": "uint64",
          "name": "investorShare",
          "type": "uint64"
        },
        {
          "indexed": false,
          "internalType": "uint256",
          "name": "timestamp",
          "type": "uint256"
        },
        {
          "indexed": true,
          "internalType": "uint256",
          "name": "harvestIndex",
          "type": "uint256"
        }
      ],
      "name": "RevenueDistributed",
      "type": "event"
    },
    {
      "anonymous": false,
      "inputs": [
        {
          "indexed": true,
          "internalType": "address",
          "name": "token",
          "type": "address"
        },
        {
          "indexed": true,
          "internalType": "uint64",
          "name": "amount",
          "type": "uint64"
        },
        {
          "indexed": true,
          "internalType": "address",
          "name": "investor",
          "type": "address"
        },
        {
          "indexed": false,
          "internalType": "uint256",
          "name": "totalCost",
          "type": "uint256"
        }
      ],
      "name": "TreeTokensPurchased",
      "type": "event"
    },
    {
      "inputs": [],
      "name": "USDC",
      "outputs": [
        {
          "internalType": "address",
          "name": "",
          "type": "address"
        }
      ],
      "stateMutability": "view",
      "type": "function"
    },
    {
      "inputs": [],
      "name": "admin",
      "outputs": [
        {
          "internalType": "address",
          "name": "",
          "type": "address"
        }
      ],
      "stateMutability": "view",
      "type": "function"
    },
    {
      "inputs": [
        {
          "internalType": "string",
          "name": "",
          "type": "string"
        }
      ],
      "name": "coffeeGroves",
      "outputs": [
        {
          "internalType": "string",
          "name": "groveName",
          "type": "string"
        },
        {
          "internalType": "address",
          "name": "farmer",
          "type": "address"
        },
        {
          "internalType": "string",
          "name": "location",
          "type": "string"
        },
        {
          "internalType": "uint64",
          "name": "treeCount",
          "type": "uint64"
        },
        {
          "internalType": "string",
          "name": "coffeeVariety",
          "type": "string"
        },
        {
          "internalType": "uint64",
          "name": "expectedYieldPerTree",
          "type": "uint64"
        },
        {
          "internalType": "bool",
          "name": "isTokenized",
          "type": "bool"
        },
        {
          "internalType": "address",
          "name": "tokenAddress",
          "type": "address"
        },
        {
          "internalType": "uint64",
          "name": "totalTokens",
          "type": "uint64"
        },
        {
          "internalType": "uint64",
          "name": "tokensPerTree",
          "type": "uint64"
        },
        {
          "internalType": "uint256",
          "name": "registrationDate",
          "type": "uint256"
        }
      ],
      "stateMutability": "view",
      "type": "function"
    },
    {
      "inputs": [
        {
          "internalType": "string",
          "name": "_groveName",
          "type": "string"
        },
        {
          "internalType": "uint256",
          "name": "_harvestIndex",
          "type": "uint256"
        }
      ],
      "name": "distributeRevenue",
      "outputs": [],
      "stateMutability": "nonpayable",
      "type": "function"
    },
    {
      "inputs": [],
      "name": "farmerVerification",
      "outputs": [
        {
          "internalType": "contract FarmerVerification",
          "name": "",
          "type": "address"
        }
      ],
      "stateMutability": "view",
      "type": "function"
    },
    {
      "inputs": [],
      "name": "getAllGroves",
      "outputs": [
        {
          "internalType": "string[]",
          "name": "",
          "type": "string[]"
        }
      ],
      "stateMutability": "view",
      "type": "function"
    },
    {
      "inputs": [],
      "name": "getGroveCount",
      "outputs": [
        {
          "internalType": "uint256",
          "name": "",
          "type": "uint256"
        }
      ],
      "stateMutability": "view",
      "type": "function"
    },
    {
      "inputs": [
        {
          "internalType": "string",
          "name": "_groveName",
          "type": "string"
        }
      ],
      "name": "getGroveHarvests",
      "outputs": [
        {
          "components": [
            {
              "internalType": "uint64",
              "name": "harvestDate",
              "type": "uint64"
            },
            {
              "internalType": "uint64",
              "name": "yieldKg",
              "type": "uint64"
            },
            {
              "internalType": "uint64",
              "name": "qualityGrade",
              "type": "uint64"
            },
            {
              "internalType": "uint64",
              "name": "salePricePerKg",
              "type": "uint64"
            },
            {
              "internalType": "uint64",
              "name": "totalRevenue",
              "type": "uint64"
            },
            {
              "internalType": "bool",
              "name": "revenueDistributed",
              "type": "bool"
            }
          ],
          "internalType": "struct CoffeeTreeIssuer.HarvestRecord[]",
          "name": "",
          "type": "tuple[]"
        }
      ],
      "stateMutability": "view",
      "type": "function"
    },
    {
      "inputs": [
        {
          "internalType": "string",
          "name": "_groveName",
          "type": "string"
        }
      ],
      "name": "getGroveInfo",
      "outputs": [
        {
          "components": [
            {
              "internalType": "string",
              "name": "groveName",
              "type": "string"
            },
            {
              "internalType": "address",
              "name": "farmer",
              "type": "address"
            },
            {
              "internalType": "string",
              "name": "location",
              "type": "string"
            },
            {
              "internalType": "uint64",
              "name": "treeCount",
              "type": "uint64"
            },
            {
              "internalType": "string",
              "name": "coffeeVariety",
              "type": "string"
            },
            {
              "internalType": "uint64",
              "name": "expectedYieldPerTree",
              "type": "uint64"
            },
            {
              "internalType": "bool",
              "name": "isTokenized",
              "type": "bool"
            },
            {
              "internalType": "address",
              "name": "tokenAddress",
              "type": "address"
            },
            {
              "internalType": "uint64",
              "name": "totalTokens",
              "type": "uint64"
            },
            {
              "internalType": "uint64",
              "name": "tokensPerTree",
              "type": "uint64"
            },
            {
              "internalType": "uint256",
              "name": "registrationDate",
              "type": "uint256"
            }
          ],
          "internalType": "struct CoffeeTreeIssuer.CoffeeGrove",
          "name": "",
          "type": "tuple"
        }
      ],
      "stateMutability": "view",
      "type": "function"
    },
    {
      "inputs": [
        {
          "internalType": "string",
          "name": "_groveName",
          "type": "string"
        }
      ],
      "name": "getGroveTokenAddress",
      "outputs": [
        {
          "internalType": "address",
          "name": "",
          "type": "address"
        }
      ],
      "stateMutability": "view",
      "type": "function"
    },
    {
      "inputs": [
        {
          "internalType": "string",
          "name": "",
          "type": "string"
        },
        {
          "internalType": "uint256",
          "name": "",
          "type": "uint256"
        }
      ],
      "name": "groveHarvests",
      "outputs": [
        {
          "internalType": "uint64",
          "name": "harvestDate",
          "type": "uint64"
        },
        {
          "internalType": "uint64",
          "name": "yieldKg",
          "type": "uint64"
        },
        {
          "internalType": "uint64",
          "name": "qualityGrade",
          "type": "uint64"
        },
        {
          "internalType": "uint64",
          "name": "salePricePerKg",
          "type": "uint64"
        },
        {
          "internalType": "uint64",
          "name": "totalRevenue",
          "type": "uint64"
        },
        {
          "internalType": "bool",
          "name": "revenueDistributed",
          "type": "bool"
        }
      ],
      "stateMutability": "view",
      "type": "function"
    },
    {
      "inputs": [
        {
          "internalType": "address",
          "name": "",
          "type": "address"
        }
      ],
      "name": "groveReserves",
      "outputs": [
        {
          "internalType": "contract CoffeeRevenueReserve",
          "name": "",
          "type": "address"
        }
      ],
      "stateMutability": "view",
      "type": "function"
    },
    {
      "inputs": [
        {
          "internalType": "string",
          "name": "",
          "type": "string"
        }
      ],
      "name": "groveTokens",
      "outputs": [
        {
          "internalType": "address",
          "name": "",
          "type": "address"
        }
      ],
      "stateMutability": "view",
      "type": "function"
    },
    {
      "inputs": [],
      "name": "oracle",
      "outputs": [
        {
          "internalType": "contract PriceOracle",
          "name": "",
          "type": "address"
        }
      ],
      "stateMutability": "view",
      "type": "function"
    },
    {
      "inputs": [
        {
          "internalType": "string",
          "name": "_groveName",
          "type": "string"
        },
        {
          "internalType": "uint64",
          "name": "_amount",
          "type": "uint64"
        }
      ],
      "name": "purchaseTreeTokens",
      "outputs": [],
      "stateMutability": "nonpayable",
      "type": "function"
    },
    {
      "inputs": [
        {
          "internalType": "string",
          "name": "_groveName",
          "type": "string"
        },
        {
          "internalType": "string",
          "name": "_location",
          "type": "string"
        },
        {
          "internalType": "uint64",
          "name": "_treeCount",
          "type": "uint64"
        },
        {
          "internalType": "string",
          "name": "_coffeeVariety",
          "type": "string"
        },
        {
          "internalType": "uint64",
          "name": "_expectedYieldPerTree",
          "type": "uint64"
        }
      ],
      "name": "registerCoffeeGrove",
      "outputs": [],
      "stateMutability": "nonpayable",
      "type": "function"
    },
    {
      "inputs": [
        {
          "internalType": "uint256",
          "name": "",
          "type": "uint256"
        }
      ],
      "name": "registeredGroveNames",
      "outputs": [
        {
          "internalType": "string",
          "name": "",
          "type": "string"
        }
      ],
      "stateMutability": "view",
      "type": "function"
    },
    {
      "inputs": [
        {
          "internalType": "string",
          "name": "_groveName",
          "type": "string"
        },
        {
          "internalType": "uint64",
          "name": "_yieldKg",
          "type": "uint64"
        },
        {
          "internalType": "uint64",
          "name": "_qualityGrade",
          "type": "uint64"
        },
        {
          "internalType": "uint64",
          "name": "_salePricePerKg",
          "type": "uint64"
        }
      ],
      "name": "reportHarvest",
      "outputs": [],
      "stateMutability": "nonpayable",
      "type": "function"
    },
    {
      "inputs": [
        {
          "internalType": "string",
          "name": "_groveName",
          "type": "string"
        },
        {
          "internalType": "uint64",
          "name": "_tokensPerTree",
          "type": "uint64"
        }
      ],
      "name": "tokenizeCoffeeGrove",
      "outputs": [],
      "stateMutability": "nonpayable",
      "type": "function"
    }
  ],
  "bytecode": "0x6080604052348015600e575f5ffd5b5060405161620e38038061620e833981016040819052602b916090565b5f80546001600160a01b03199081163317909155600380546001600160a01b0395861690831617905560018054938516938216939093179092556002805491909316911617905560c9565b80516001600160a01b0381168114608b575f5ffd5b919050565b5f5f5f6060848603121560a1575f5ffd5b60a8846076565b925060b4602085016076565b915060c0604085016076565b90509250925092565b616138806100d65f395ff3fe608060405234801561000f575f5ffd5b50600436106100ef575f3560e01c806305b939e0146100f35780630ac9cdd91461011c5780631510dbf6146101315780633a3bc92b146101515780633e8c0f191461018557806353dd60c4146101985780636db825fa146101ab5780636e1741f2146101cb5780637adb85c3146101dc5780637dc0d1d0146101ef5780638187233c14610202578063821e5bca1461022c57806389a3027114610254578063937ee9cd14610267578063b1fa834e14610287578063cc9cc21a146102dd578063cf933f7d146102f0578063db6e5bed14610305578063f851a44014610318575b5f5ffd5b610106610101366004612bff565b61032a565b6040516101139190612c45565b60405180910390f35b61012f61012a366004612c59565b61035a565b005b61014461013f366004612bff565b610bd5565b6040516101139190612ca7565b61010661015f366004612bff565b80516020818301810180516005825292820191909301209152546001600160a01b031681565b600354610106906001600160a01b031681565b61012f6101a6366004612d54565b610ca7565b6101be6101b9366004612bff565b611052565b6040516101139190612e2e565b600854604051908152602001610113565b61012f6101ea366004612f24565b611315565b600254610106906001600160a01b031681565b610215610210366004612bff565b6119a0565b6040516101139b9a99989796959493929190612f6e565b61010661023a366004613026565b60066020525f90815260409020546001600160a01b031681565b600154610106906001600160a01b031681565b61027a610275366004613053565b611bcc565b604051610113919061306a565b61029a610295366004612c59565b611c72565b604080516001600160401b0397881681529587166020870152938616938501939093529084166060840152909216608082015290151560a082015260c001610113565b61012f6102eb36600461307c565b611ceb565b6102f86124cf565b60405161011391906130e6565b61012f610313366004612f24565b6125a3565b5f54610106906001600160a01b031681565b5f60058260405161033b9190613160565b908152604051908190036020019020546001600160a01b031692915050565b815f60048260405161036c9190613160565b9081526020016040518091039020604051806101600160405290815f820180546103959061316b565b80601f01602080910402602001604051908101604052809291908181526020018280546103c19061316b565b801561040c5780601f106103e35761010080835404028352916020019161040c565b820191905f5260205f20905b8154815290600101906020018083116103ef57829003601f168201915b505050918352505060018201546001600160a01b0316602082015260028201805460409092019161043c9061316b565b80601f01602080910402602001604051908101604052809291908181526020018280546104689061316b565b80156104b35780601f1061048a576101008083540402835291602001916104b3565b820191905f5260205f20905b81548152906001019060200180831161049657829003601f168201915b505050918352505060038201546001600160401b031660208201526004820180546040909201916104e39061316b565b80601f016020809104026020016040519081016040528092919081815260200182805461050f9061316b565b801561055a5780601f106105315761010080835404028352916020019161055a565b820191905f5260205f20905b81548152906001019060200180831161053d57829003601f168201915b505050918352505060058201546001600160401b0380821660208085019190915260ff600160401b80850491909116151560408601526001600160a01b03600160481b90940484166060860152600686015480841660808701520490911660a084015260079093015460c09092019190915290820151919250166105fc5781604051633ed98b4360e21b81526004016105f3919061306a565b60405180910390fd5b60208101516001600160a01b0316331461062b5733604051633733be5960e21b81526004016105f39190612c45565b5f60048560405161063c9190613160565b9081526020016040518091039020604051806101600160405290815f820180546106659061316b565b80601f01602080910402602001604051908101604052809291908181526020018280546106919061316b565b80156106dc5780601f106106b3576101008083540402835291602001916106dc565b820191905f5260205f20905b8154815290600101906020018083116106bf57829003601f168201915b505050918352505060018201546001600160a01b0316602082015260028201805460409092019161070c9061316b565b80601f01602080910402602001604051908101604052809291908181526020018280546107389061316b565b80156107835780601f1061075a57610100808354040283529160200191610783565b820191905f5260205f20905b81548152906001019060200180831161076657829003601f168201915b505050918352505060038201546001600160401b031660208201526004820180546040909201916107b39061316b565b80601f01602080910402602001604051908101604052809291908181526020018280546107df9061316b565b801561082a5780601f106108015761010080835404028352916020019161082a565b820191905f5260205f20905b81548152906001019060200180831161080d57829003601f168201915b505050918352505060058201546001600160401b038082166020840152600160401b80830460ff1615156040850152600160481b9092046001600160a01b0316606084015260068401548082166080850152919091041660a082015260079091015460c0918201528101519091506108b7578460405163152e29c960e31b81526004016105f3919061306a565b5f6007866040516108c89190613160565b908152604051908190036020019020805490915085106109225760405162461bcd60e51b8152602060048201526015602482015274092dcecc2d8d2c840d0c2e4eccae6e840d2dcc8caf605b1b60448201526064016105f3565b5f818681548110610935576109356131a3565b905f5260205f20906002020190508060010160089054906101000a900460ff16156109765760405163367b0dd760e21b8152600481018790526024016105f3565b60e08301516001600160a01b038082165f9081526006602052604081205460018501549216916001600160401b03169060646109b383601e6131cb565b6109bd91906131f4565b90505f6109ca828461322e565b6001546040516323b872dd60e01b81523360048201526001600160a01b0387811660248301526001600160401b03871660448301529293509116906323b872dd906064016020604051808303815f875af1158015610a2a573d5f5f3e3d5ffd5b505050506040513d601f19601f82011682018060405250810190610a4e9190613253565b5060405163b6b55f2560e01b81526001600160401b03841660048201526001600160a01b0385169063b6b55f25906024015f604051808303815f87803b158015610a96575f5ffd5b505af1158015610aa8573d5f5f3e3d5ffd5b5050604051636d0a1cb360e01b81526001600160a01b0387169250636d0a1cb39150610ada9088908590600401613272565b5f604051808303815f87803b158015610af1575f5ffd5b505af1158015610b03573d5f5f3e3d5ffd5b5050604051632d2057c760e11b81526001600160401b03851660048201523360248201526001600160a01b0387169250635a40af8e91506044015f604051808303815f87803b158015610b54575f5ffd5b505af1158015610b66573d5f5f3e3d5ffd5b5050505060018601805460ff60401b1916600160401b1790558b5160208d01206040518c91907f71aeb22f6d483d420f1ced0bb3dc6ce135414d638359358ee4199866a3bcb87990610bbf908790879087904290613294565b60405180910390a3505050505050505050505050565b6060600782604051610be79190613160565b9081526020016040518091039020805480602002602001604051908101604052809291908181526020015f905b82821015610c9c575f8481526020908190206040805160c0810182526002860290920180546001600160401b038082168552600160401b808304821686880152600160801b8304821694860194909452600160c01b9091048116606085015260019182015490811660808501529190910460ff16151560a08301529083529092019101610c14565b505050509050919050565b60035460405163c058069960e01b81526001600160a01b039091169063c058069990610cd7903390600401612c45565b602060405180830381865afa158015610cf2573d5f5f3e3d5ffd5b505050506040513d601f19601f82011682018060405250810190610d169190613253565b610d35573360405163bcbe309f60e01b81526004016105f39190612c45565b5f6001600160a01b0316600486604051610d4f9190613160565b908152604051908190036020019020600101546001600160a01b031614610d8b5784604051631a6caf4360e21b81526004016105f3919061306a565b5f836001600160401b031611610de15760405162461bcd60e51b815260206004820152601b60248201527a5472656520636f756e74206d75737420626520706f73697469766560281b60448201526064016105f3565b5f816001600160401b031611610e395760405162461bcd60e51b815260206004820152601f60248201527f4578706563746564207969656c64206d75737420626520706f7369746976650060448201526064016105f3565b5f855111610e865760405162461bcd60e51b815260206004820152601a60248201527947726f7665206e616d652063616e6e6f7420626520656d70747960301b60448201526064016105f3565b5f845111610ed15760405162461bcd60e51b81526020600482015260186024820152774c6f636174696f6e2063616e6e6f7420626520656d70747960401b60448201526064016105f3565b5f825111610f215760405162461bcd60e51b815260206004820152601e60248201527f436f6666656520766172696574792063616e6e6f7420626520656d707479000060448201526064016105f3565b5f600486604051610f329190613160565b908152604051908190036020019020905080610f4e878261330a565b506001810180546001600160a01b0319163317905560028101610f71868261330a565b506003810180546001600160401b0319166001600160401b03861617905560048101610f9d848261330a565b506005810180546001600160481b0319166001600160401b038416179055426007820155600880546001810182555f919091527ff3f7a9fe364faab93b216da50a3214154f22a0a2b415b23a84c8169e8b636ee301610ffc878261330a565b50336001600160a01b031686805190602001207f5124221ffbc8a1e3c472d6987927fea7b42501bd31af75254b493abe448e9b88868887604051611042939291906133c4565b60405180910390a3505050505050565b604080516101608101825260608082525f60208301819052928201819052808201839052608082015260a0810182905260c0810182905260e08101829052610100810182905261012081018290526101408101919091526004826040516110b99190613160565b9081526020016040518091039020604051806101600160405290815f820180546110e29061316b565b80601f016020809104026020016040519081016040528092919081815260200182805461110e9061316b565b80156111595780601f1061113057610100808354040283529160200191611159565b820191905f5260205f20905b81548152906001019060200180831161113c57829003601f168201915b505050918352505060018201546001600160a01b031660208201526002820180546040909201916111899061316b565b80601f01602080910402602001604051908101604052809291908181526020018280546111b59061316b565b80156112005780601f106111d757610100808354040283529160200191611200565b820191905f5260205f20905b8154815290600101906020018083116111e357829003601f168201915b505050918352505060038201546001600160401b031660208201526004820180546040909201916112309061316b565b80601f016020809104026020016040519081016040528092919081815260200182805461125c9061316b565b80156112a75780601f1061127e576101008083540402835291602001916112a7565b820191905f5260205f20905b81548152906001019060200180831161128a57829003601f168201915b505050918352505060058201546001600160401b038082166020840152600160401b80830460ff1615156040850152600160481b9092046001600160a01b0316606084015260068401548082166080850152919091041660a082015260079091015460c09091015292915050565b815f6004826040516113279190613160565b9081526020016040518091039020604051806101600160405290815f820180546113509061316b565b80601f016020809104026020016040519081016040528092919081815260200182805461137c9061316b565b80156113c75780601f1061139e576101008083540402835291602001916113c7565b820191905f5260205f20905b8154815290600101906020018083116113aa57829003601f168201915b505050918352505060018201546001600160a01b031660208201526002820180546040909201916113f79061316b565b80601f01602080910402602001604051908101604052809291908181526020018280546114239061316b565b801561146e5780601f106114455761010080835404028352916020019161146e565b820191905f5260205f20905b81548152906001019060200180831161145157829003601f168201915b505050918352505060038201546001600160401b0316602082015260048201805460409092019161149e9061316b565b80601f01602080910402602001604051908101604052809291908181526020018280546114ca9061316b565b80156115155780601f106114ec57610100808354040283529160200191611515565b820191905f5260205f20905b8154815290600101906020018083116114f857829003601f168201915b505050918352505060058201546001600160401b0380821660208085019190915260ff600160401b80850491909116151560408601526001600160a01b03600160481b90940484166060860152600686015480841660808701520490911660a084015260079093015460c09092019190915290820151919250166115ae5781604051633ed98b4360e21b81526004016105f3919061306a565b60208101516001600160a01b031633146115dd5733604051633733be5960e21b81526004016105f39190612c45565b5f6004856040516115ee9190613160565b908152604051908190036020019020600581015490915060ff600160401b90910416156116575760405162461bcd60e51b815260206004820152601760248201527611dc9bdd9948185b1c9958591e481d1bdad95b9a5e9959604a1b60448201526064016105f3565b5f846001600160401b0316116116af5760405162461bcd60e51b815260206004820181905260248201527f546f6b656e73207065722074726565206d75737420626520706f73697469766560448201526064016105f3565b60038101545f906116ca9086906001600160401b03166131cb565b90505f866040516020016116de9190613403565b60405160208183030381529060405290505f876040516020016117019190613425565b60405160208183030381529060405290505f82828a8760020188600401896005015f9054906101000a90046001600160401b031660405161174190612b48565b611750969594939291906134bd565b604051809103905ff080158015611769573d5f5f3e3d5ffd5b506040516340c10f1960e01b81529091506001600160a01b038216906340c10f199061179b9030908890600401613272565b5f604051808303815f87803b1580156117b2575f5ffd5b505af11580156117c4573d5f5f3e3d5ffd5b50506001546040515f935084925033916001600160a01b0316906117e790612b55565b6001600160a01b03938416815291831660208301529091166040820152606001604051809103905ff080158015611820573d5f5f3e3d5ffd5b5060058781018054600160401b600160401b600160e81b0319909116600160481b6001600160a01b038816021781179091556006890180546001600160401b038a81166001600160801b031990921691909117908e169092029190911790556040519192508391611892908d90613160565b908152604080516020928190038301812080546001600160a01b03199081166001600160a01b03968716179091558685165f81815260069095529290932080549093168585161790925560025463431f63c960e01b83526004830191909152620f424060248301529091169063431f63c9906044015f604051808303815f87803b15801561191e575f5ffd5b505af1158015611930573d5f5f3e3d5ffd5b50505050816001600160a01b03168a805190602001207f0b914e7745a124145c02246ad89547c8e6122f33b290d1f7d87de25699b2b219878c60405161198c9291906001600160401b0392831681529116602082015260400190565b60405180910390a350505050505050505050565b80516020818301810180516004825292820191909301209152805481906119c69061316b565b80601f01602080910402602001604051908101604052809291908181526020018280546119f29061316b565b8015611a3d5780601f10611a1457610100808354040283529160200191611a3d565b820191905f5260205f20905b815481529060010190602001808311611a2057829003601f168201915b505050600184015460028501805494956001600160a01b03909216949193509150611a679061316b565b80601f0160208091040260200160405190810160405280929190818152602001828054611a939061316b565b8015611ade5780601f10611ab557610100808354040283529160200191611ade565b820191905f5260205f20905b815481529060010190602001808311611ac157829003601f168201915b505050600384015460048501805494956001600160401b03909216949193509150611b089061316b565b80601f0160208091040260200160405190810160405280929190818152602001828054611b349061316b565b8015611b7f5780601f10611b5657610100808354040283529160200191611b7f565b820191905f5260205f20905b815481529060010190602001808311611b6257829003601f168201915b505050506005830154600684015460079094015492936001600160401b0380831694600160401b80850460ff169550600160481b9094046001600160a01b0316938284169304909116908b565b60088181548110611bdb575f80fd5b905f5260205f20015f915090508054611bf39061316b565b80601f0160208091040260200160405190810160405280929190818152602001828054611c1f9061316b565b8015611c6a5780601f10611c4157610100808354040283529160200191611c6a565b820191905f5260205f20905b815481529060010190602001808311611c4d57829003601f168201915b505050505081565b81516020818401810180516007825292820191850191909120919052805482908110611c9c575f80fd5b5f918252602090912060029091020180546001909101546001600160401b038083169450600160401b80840482169450600160801b8404821693600160c01b9004821692918216910460ff1686565b835f600482604051611cfd9190613160565b9081526020016040518091039020604051806101600160405290815f82018054611d269061316b565b80601f0160208091040260200160405190810160405280929190818152602001828054611d529061316b565b8015611d9d5780601f10611d7457610100808354040283529160200191611d9d565b820191905f5260205f20905b815481529060010190602001808311611d8057829003601f168201915b505050918352505060018201546001600160a01b03166020820152600282018054604090920191611dcd9061316b565b80601f0160208091040260200160405190810160405280929190818152602001828054611df99061316b565b8015611e445780601f10611e1b57610100808354040283529160200191611e44565b820191905f5260205f20905b815481529060010190602001808311611e2757829003601f168201915b505050918352505060038201546001600160401b03166020820152600482018054604090920191611e749061316b565b80601f0160208091040260200160405190810160405280929190818152602001828054611ea09061316b565b8015611eeb5780601f10611ec257610100808354040283529160200191611eeb565b820191905f5260205f20905b815481529060010190602001808311611ece57829003601f168201915b505050918352505060058201546001600160401b0380821660208085019190915260ff600160401b80850491909116151560408601526001600160a01b03600160481b90940484166060860152600686015480841660808701520490911660a084015260079093015460c0909201919091529082015191925016611f845781604051633ed98b4360e21b81526004016105f3919061306a565b60208101516001600160a01b03163314611fb35733604051633733be5960e21b81526004016105f39190612c45565b5f600487604051611fc49190613160565b9081526020016040518091039020604051806101600160405290815f82018054611fed9061316b565b80601f01602080910402602001604051908101604052809291908181526020018280546120199061316b565b80156120645780601f1061203b57610100808354040283529160200191612064565b820191905f5260205f20905b81548152906001019060200180831161204757829003601f168201915b505050918352505060018201546001600160a01b031660208201526002820180546040909201916120949061316b565b80601f01602080910402602001604051908101604052809291908181526020018280546120c09061316b565b801561210b5780601f106120e25761010080835404028352916020019161210b565b820191905f5260205f20905b8154815290600101906020018083116120ee57829003601f168201915b505050918352505060038201546001600160401b0316602082015260048201805460409092019161213b9061316b565b80601f01602080910402602001604051908101604052809291908181526020018280546121679061316b565b80156121b25780601f10612189576101008083540402835291602001916121b2565b820191905f5260205f20905b81548152906001019060200180831161219557829003601f168201915b505050918352505060058201546001600160401b038082166020840152600160401b80830460ff1615156040850152600160481b9092046001600160a01b0316606084015260068401548082166080850152919091041660a082015260079091015460c09182015281015190915061223f578660405163152e29c960e31b81526004016105f3919061306a565b5f866001600160401b03161161228e5760405162461bcd60e51b81526020600482015260146024820152735969656c642063616e6e6f74206265207a65726f60601b60448201526064016105f3565b5f856001600160401b03161180156122b057506064856001600160401b031611155b6122fa5760405162461bcd60e51b815260206004820152601b60248201527a05175616c697479206772616465206d75737420626520312d31303602c1b60448201526064016105f3565b5f846001600160401b03161161234e5760405162461bcd60e51b815260206004820152601960248201527853616c652070726963652063616e6e6f74206265207a65726f60381b60448201526064016105f3565b5f61235985886131cb565b6040805160c0810182526001600160401b0342811682528a81166020830152898116828401528881166060830152831660808201525f60a08201529051919250906007906123a8908b90613160565b90815260408051602092819003830181208054600180820183555f92835285832087516002909302018054968801519588015160608901516001600160401b039485166001600160801b031990991698909817600160401b9785168802176001600160801b0316600160801b918516919091026001600160c01b031617600160c01b978416979097029690961786556080870151958101805460a0890151979093166001600160481b03199093169290921795151590940294909417909355600790612475908d90613160565b9081526040519081900360200190205461248f9190613539565b9050808a805190602001207f17a22be0f9fa27697061bffe80565581ce0b35932311c36d3b09993feea3cffc8b868c4260405161198c9493929190613294565b60606008805480602002602001604051908101604052809291908181526020015f905b8282101561259a578382905f5260205f2001805461250f9061316b565b80601f016020809104026020016040519081016040528092919081815260200182805461253b9061316b565b80156125865780601f1061255d57610100808354040283529160200191612586565b820191905f5260205f20905b81548152906001019060200180831161256957829003601f168201915b5050505050815260200190600101906124f2565b50505050905090565b5f6004836040516125b49190613160565b9081526020016040518091039020604051806101600160405290815f820180546125dd9061316b565b80601f01602080910402602001604051908101604052809291908181526020018280546126099061316b565b80156126545780601f1061262b57610100808354040283529160200191612654565b820191905f5260205f20905b81548152906001019060200180831161263757829003601f168201915b505050918352505060018201546001600160a01b031660208201526002820180546040909201916126849061316b565b80601f01602080910402602001604051908101604052809291908181526020018280546126b09061316b565b80156126fb5780601f106126d2576101008083540402835291602001916126fb565b820191905f5260205f20905b8154815290600101906020018083116126de57829003601f168201915b505050918352505060038201546001600160401b0316602082015260048201805460409092019161272b9061316b565b80601f01602080910402602001604051908101604052809291908181526020018280546127579061316b565b80156127a25780601f10612779576101008083540402835291602001916127a2565b820191905f5260205f20905b81548152906001019060200180831161278557829003601f168201915b505050918352505060058201546001600160401b0380821660208085019190915260ff600160401b80850491909116151560408601526001600160a01b03600160481b90940484166060860152600686015480841660808701520490911660a084015260079093015460c090920191909152908201519192501661283b5782604051633ed98b4360e21b81526004016105f3919061306a565b8060c0015161285f578260405163152e29c960e31b81526004016105f3919061306a565b60e08101516001600160a01b038082165f818152600660205260408082205490516370a0823160e01b81529316929091906370a08231906128a4903090600401612c45565b602060405180830381865afa1580156128bf573d5f5f3e3d5ffd5b505050506040513d601f19601f820116820180604052508101906128e3919061354c565b905080856001600160401b0316111561292157604051639d9efe3960e01b81526001600160401b0386166004820152602481018290526044016105f3565b6002546040516341976e0960e01b81525f916001600160a01b0316906341976e0990612951908790600401612c45565b602060405180830381865afa15801561296c573d5f5f3e3d5ffd5b505050506040513d601f19601f82011682018060405250810190612990919061354c565b90505f6129a66001600160401b03881683613563565b6001546040516323b872dd60e01b81523360048201526001600160a01b038781166024830152604482018490529293509116906323b872dd906064016020604051808303815f875af11580156129fe573d5f5f3e3d5ffd5b505050506040513d601f19601f82011682018060405250810190612a229190613253565b5060405163a9059cbb60e01b81526001600160a01b0386169063a9059cbb90612a519033908b90600401613272565b6020604051808303815f875af1158015612a6d573d5f5f3e3d5ffd5b505050506040513d601f19601f82011682018060405250810190612a919190613253565b5060405163b6b55f2560e01b8152600481018290526001600160a01b0385169063b6b55f25906024015f604051808303815f87803b158015612ad1575f5ffd5b505af1158015612ae3573d5f5f3e3d5ffd5b50505050336001600160a01b0316876001600160401b0316866001600160a01b03167f727a965b3b30a456f10099409a2882638153964320f19bff7a1d7cb141a7c5bd84604051612b3691815260200190565b60405180910390a45050505050505050565b611b8e8061357b83390190565b610ffa8061510983390190565b634e487b7160e01b5f52604160045260245ffd5b5f82601f830112612b85575f5ffd5b81356001600160401b03811115612b9e57612b9e612b62565b604051601f8201601f19908116603f011681016001600160401b0381118282101715612bcc57612bcc612b62565b604052818152838201602001851015612be3575f5ffd5b816020850160208301375f918101602001919091529392505050565b5f60208284031215612c0f575f5ffd5b81356001600160401b03811115612c24575f5ffd5b612c3084828501612b76565b949350505050565b6001600160a01b03169052565b6001600160a01b0391909116815260200190565b5f5f60408385031215612c6a575f5ffd5b82356001600160401b03811115612c7f575f5ffd5b612c8b85828601612b76565b95602094909401359450505050565b6001600160401b03169052565b602080825282518282018190525f918401906040840190835b81811015612d2e57835180516001600160401b0390811685526020808301518216818701526040808401518316908701526060808401518316908701526080808401519092169186019190915260a0918201511515918501919091529093019260c090920191600101612cc0565b509095945050505050565b80356001600160401b0381168114612d4f575f5ffd5b919050565b5f5f5f5f5f60a08688031215612d68575f5ffd5b85356001600160401b03811115612d7d575f5ffd5b612d8988828901612b76565b95505060208601356001600160401b03811115612da4575f5ffd5b612db088828901612b76565b945050612dbf60408701612d39565b925060608601356001600160401b03811115612dd9575f5ffd5b612de588828901612b76565b925050612df460808701612d39565b90509295509295909350565b5f81518084528060208401602086015e5f602082860101526020601f19601f83011685010191505092915050565b602081525f82516101606020840152612e4b610180840182612e00565b90506020840151612e5f6040850182612c38565b506040840151838203601f19016060850152612e7b8282612e00565b9150506060840151612e906080850182612c9a565b506080840151838203601f190160a0850152612eac8282612e00565b91505060a0840151612ec160c0850182612c9a565b5060c084015180151560e08501525060e0840151612ee3610100850182612c38565b50610100840151612ef8610120850182612c9a565b50610120840151612f0d610140850182612c9a565b506101408401516101608401528091505092915050565b5f5f60408385031215612f35575f5ffd5b82356001600160401b03811115612f4a575f5ffd5b612f5685828601612b76565b925050612f6560208401612d39565b90509250929050565b61016081525f612f8261016083018e612e00565b6001600160a01b038d1660208401528281036040840152612fa3818d612e00565b6001600160401b038c16606085015283810360808501529050612fc6818b612e00565b6001600160401b038a1660a085015288151560c08501529150612fe69050565b612ff360e0830187612c38565b613001610100830186612c9a565b61300f610120830185612c9a565b826101408301529c9b505050505050505050505050565b5f60208284031215613036575f5ffd5b81356001600160a01b038116811461304c575f5ffd5b9392505050565b5f60208284031215613063575f5ffd5b5035919050565b602081525f61304c6020830184612e00565b5f5f5f5f6080858703121561308f575f5ffd5b84356001600160401b038111156130a4575f5ffd5b6130b087828801612b76565b9450506130bf60208601612d39565b92506130cd60408601612d39565b91506130db60608601612d39565b905092959194509250565b5f602082016020835280845180835260408501915060408160051b8601019250602086015f5b8281101561313d57603f19878603018452613128858351612e00565b9450602093840193919091019060010161310c565b50929695505050505050565b5f81518060208401855e5f93019283525090919050565b5f61304c8284613149565b600181811c9082168061317f57607f821691505b60208210810361319d57634e487b7160e01b5f52602260045260245ffd5b50919050565b634e487b7160e01b5f52603260045260245ffd5b634e487b7160e01b5f52601160045260245ffd5b6001600160401b0381811683821602908116908181146131ed576131ed6131b7565b5092915050565b5f6001600160401b0383168061321857634e487b7160e01b5f52601260045260245ffd5b6001600160401b03929092169190910492915050565b6001600160401b03828116828216039081111561324d5761324d6131b7565b92915050565b5f60208284031215613263575f5ffd5b8151801515811461304c575f5ffd5b6001600160a01b039290921682526001600160401b0316602082015260400190565b6001600160401b039485168152928416602084015292166040820152606081019190915260800190565b601f82111561330557805f5260205f20601f840160051c810160208510156132e35750805b601f840160051c820191505b81811015613302575f81556001016132ef565b50505b505050565b81516001600160401b0381111561332357613323612b62565b61333781613331845461316b565b846132be565b6020601f821160018114613369575f83156133525750848201515b5f19600385901b1c1916600184901b178455613302565b5f84815260208120601f198516915b828110156133985787850151825560209485019460019092019101613378565b50848210156133b557868401515f19600387901b60f8161c191681555b50505050600190811b01905550565b6001600160401b03841681526060602082018190525f906133e790830185612e00565b82810360408401526133f98185612e00565b9695505050505050565b6d021b7b33332b29023b937bb329d160951b81525f61304c600e830184613149565b64545245452d60d81b81525f61304c6005830184613149565b5f815461344a8161316b565b8085526001821680156134645760018114613480576134b4565b60ff1983166020870152602082151560051b87010193506134b4565b845f5260205f205f5b838110156134ab5781546020828a010152600182019150602081019050613489565b87016020019450505b50505092915050565b60c081525f6134cf60c0830189612e00565b82810360208401526134e18189612e00565b905082810360408401526134f58188612e00565b90508281036060840152613509818761343e565b9050828103608084015261351d818661343e565b91505060018060401b03831660a0830152979650505050505050565b8181038181111561324d5761324d6131b7565b5f6020828403121561355c575f5ffd5b5051919050565b808202811582820484141761324d5761324d6131b756fe608060405234801561000f575f5ffd5b50604051611b8e380380611b8e83398101604081905261002e91610247565b338686600361003d83826103c0565b50600461004a82826103c0565b5050506001600160a01b03811661007a57604051631e4fbdf760e01b81525f600482015260240160405180910390fd5b6100838161013e565b50600661009085826103c0565b50600761009d84826103c0565b5060086100aa83826103c0565b5060098054601960821b60ff60801b19426001600160401b0390811668010000000000000000026001600160801b031990941690861617929092179190911617905560408051808201909152601981527f4f7267616e6963206661726d696e6720707261637469636573000000000000006020820152600a9061012d90826103c0565b505042600b555061047a9350505050565b600580546001600160a01b038381166001600160a01b0319831681179093556040519116919082907f8be0079c531659141344cd1fd0a4f28419497f9722a3daafe3b4186f6b6457e0905f90a35050565b634e487b7160e01b5f52604160045260245ffd5b5f82601f8301126101b2575f5ffd5b81516001600160401b038111156101cb576101cb61018f565b604051601f8201601f19908116603f011681016001600160401b03811182821017156101f9576101f961018f565b604052818152838201602001851015610210575f5ffd5b8160208501602083015e5f918101602001919091529392505050565b80516001600160401b0381168114610242575f5ffd5b919050565b5f5f5f5f5f5f60c0878903121561025c575f5ffd5b86516001600160401b03811115610271575f5ffd5b61027d89828a016101a3565b602089015190975090506001600160401b0381111561029a575f5ffd5b6102a689828a016101a3565b604089015190965090506001600160401b038111156102c3575f5ffd5b6102cf89828a016101a3565b606089015190955090506001600160401b038111156102ec575f5ffd5b6102f889828a016101a3565b608089015190945090506001600160401b03811115610315575f5ffd5b61032189828a016101a3565b92505061033060a0880161022c565b90509295509295509295565b600181811c9082168061035057607f821691505b60208210810361036e57634e487b7160e01b5f52602260045260245ffd5b50919050565b601f8211156103bb57805f5260205f20601f840160051c810160208510156103995750805b601f840160051c820191505b818110156103b8575f81556001016103a5565b50505b505050565b81516001600160401b038111156103d9576103d961018f565b6103ed816103e7845461033c565b84610374565b6020601f82116001811461041f575f83156104085750848201515b5f19600385901b1c1916600184901b1784556103b8565b5f84815260208120601f198516915b8281101561044e578785015182556020948501946001909201910161042e565b508482101561046b57868401515f19600387901b60f8161c191681555b50505050600190811b01905550565b611707806104875f395ff3fe608060405234801561000f575f5ffd5b5060043610610173575f3560e01c806306fdde0314610177578063095ea7b314610195578063145053da146101b857806318160ddd146101cd57806323b872dd146101df578063313ce567146101f257806340c10f191461020757806342966c681461021a57806342a78bb81461022d578063516f279e146102435780636213bca71461024b57806369e08c4f1461027d5780636a6c41bb146102925780636d329988146102a557806370a08231146102ae578063715018a6146102d6578063738b33e6146102de578063776ce7a9146103015780638da5cb5b1461031657806390afeb731461032b57806395d89b4114610333578063a59d93171461033b578063a9059cbb14610343578063af6b60cf14610356578063b95ab51f14610369578063c3f3305b14610371578063ce04327114610379578063dd62ed3e1461038d578063ea9ec928146103a0578063eb9d546c146103b3578063f2fde38b146103bb575b5f5ffd5b61017f6103ce565b60405161018c9190611137565b60405180910390f35b6101a86101a336600461116b565b61045e565b604051901515815260200161018c565b6101cb6101c6366004611193565b610477565b005b6002545b60405190815260200161018c565b6101a86101ed3660046111b9565b61056e565b60125b60405160ff909116815260200161018c565b6101cb61021536600461116b565b610591565b6101cb6102283660046111f3565b6105a7565b6009546046600160801b90910460ff16106101a8565b61017f6105b4565b60095461026590600160401b90046001600160401b031681565b6040516001600160401b03909116815260200161018c565b610285610640565b60405161018c9190611252565b6101cb6102a0366004611301565b6107c7565b6101d1600b5481565b6101d16102bc36600461133a565b6001600160a01b03165f9081526020819052604090205490565b6101cb610871565b6102f16102ec3660046111f3565b610884565b60405161018c9493929190611353565b610309610952565b60405161018c919061138d565b61031e610a6f565b60405161018c91906113f0565b61017f610a7e565b61017f610a8b565b6101d1610a9a565b6101a861035136600461116b565b610aca565b600954610265906001600160401b031681565b61017f610ad7565b61017f610ae4565b6009546101f590600160801b900460ff1681565b6101d161039b366004611404565b610af1565b6101cb6103ae366004611435565b610b1b565b610265610d10565b6101cb6103c936600461133a565b610d3f565b6060600380546103dd90611486565b80601f016020809104026020016040519081016040528092919081815260200182805461040990611486565b80156104545780601f1061042b57610100808354040283529160200191610454565b820191905f5260205f20905b81548152906001019060200180831161043757829003601f168201915b5050505050905090565b5f3361046b818585610d79565b60019150505b92915050565b61047f610d8b565b5f816001600160401b0316116104dc5760405162461bcd60e51b815260206004820152601f60248201527f4578706563746564207969656c64206d75737420626520706f7369746976650060448201526064015b60405180910390fd5b600980546001600160401b0319166001600160401b0383161790556040805160608082526016908201527532bc3832b1ba32b22cb4b2b6322832b929b2b0b9b7b760511b608082015260a0602082018190525f90820152429181019190915233907f14974fd52e3b6cedfe83a63fe05bfc663c45fe63bf37f4a321abc6de35e365119060c0015b60405180910390a250565b5f3361057b858285610dbd565b610586858585610e0e565b506001949350505050565b610599610d8b565b6105a38282610e6b565b5050565b6105b13382610e9f565b50565b600780546105c190611486565b80601f01602080910402602001604051908101604052809291908181526020018280546105ed90611486565b80156106385780601f1061060f57610100808354040283529160200191610638565b820191905f5260205f20905b81548152906001019060200180831161061b57829003601f168201915b505050505081565b61067460405180608001604052805f81526020015f60ff168152602001606081526020015f6001600160a01b031681525090565b600c546106c15760405162461bcd60e51b815260206004820152601b60248201527a4e6f206865616c7468207570646174657320617661696c61626c6560281b60448201526064016104d3565b600c80546106d1906001906114d2565b815481106106e1576106e16114e5565b905f5260205f2090600402016040518060800160405290815f8201548152602001600182015f9054906101000a900460ff1660ff1660ff16815260200160028201805461072d90611486565b80601f016020809104026020016040519081016040528092919081815260200182805461075990611486565b80156107a45780601f1061077b576101008083540402835291602001916107a4565b820191905f5260205f20905b81548152906001019060200180831161078757829003601f168201915b5050509183525050600391909101546001600160a01b0316602090910152919050565b6107cf610d8b565b5f8151116108295760405162461bcd60e51b815260206004820152602160248201527f4661726d696e67207072616374696365732063616e6e6f7420626520656d70746044820152607960f81b60648201526084016104d3565b600a6108358282611544565b50336001600160a01b03167fb14a69ca2215439b8374ee4f4f0401b807b08a7fdda66cc95f0488b892290f2f82426040516105639291906115fe565b610879610d8b565b6108825f610ed3565b565b600c8181548110610893575f80fd5b5f91825260209091206004909102018054600182015460028301805492945060ff90911692916108c290611486565b80601f01602080910402602001604051908101604052809291908181526020018280546108ee90611486565b80156109395780601f1061091057610100808354040283529160200191610939565b820191905f5260205f20905b81548152906001019060200180831161091c57829003601f168201915b505050600390930154919250506001600160a01b031684565b6060600c805480602002602001604051908101604052809291908181526020015f905b82821015610a66575f848152602090819020604080516080810182526004860290920180548352600181015460ff1693830193909352600283018054929392918401916109c190611486565b80601f01602080910402602001604051908101604052809291908181526020018280546109ed90611486565b8015610a385780601f10610a0f57610100808354040283529160200191610a38565b820191905f5260205f20905b815481529060010190602001808311610a1b57829003601f168201915b5050509183525050600391909101546001600160a01b03166020918201529082526001929092019101610975565b50505050905090565b6005546001600160a01b031690565b600680546105c190611486565b6060600480546103dd90611486565b5f600b545f03610aa957505f90565b62015180600b5442610abb91906114d2565b610ac59190611633565b905090565b5f3361046b818585610e0e565b600a80546105c190611486565b600880546105c190611486565b6001600160a01b039182165f90815260016020908152604080832093909416825291909152205490565b610b23610d8b565b60648260ff161115610b745760405162461bcd60e51b815260206004820152601a60248201527904865616c74682073636f7265206d75737420626520302d3130360341b60448201526064016104d3565b5f815111610bbc5760405162461bcd60e51b81526020600482015260156024820152744e6f7465732063616e6e6f7420626520656d70747960581b60448201526064016104d3565b6009805460ff60801b1916600160801b60ff8581169182029290921790925542600b81905560408051608081018252918252602082019384528101848152336060830152600c80546001810182555f9190915282517fdf6966c971051c3d54ec59162606531493a51404a002842f56009d7e5cf4a8c7600490920291820190815594517fdf6966c971051c3d54ec59162606531493a51404a002842f56009d7e5cf4a8c88201805460ff19169190951617909355519092917fdf6966c971051c3d54ec59162606531493a51404a002842f56009d7e5cf4a8c90190610ca19082611544565b5060609190910151600390910180546001600160a01b0319166001600160a01b03909216919091179055604051339060ff8416907f4e978e8d92220b9b03fa8e626d81bf3f9a3c7b14e4ecaba3689569ddfec1f4d590610d0490859042906115fe565b60405180910390a35050565b6009545f90606490610d359060ff600160801b820416906001600160401b0316611646565b610ac5919061166f565b610d47610d8b565b6001600160a01b038116610d70575f604051631e4fbdf760e01b81526004016104d391906113f0565b6105b181610ed3565b610d868383836001610f24565b505050565b33610d94610a6f565b6001600160a01b031614610882573360405163118cdaa760e01b81526004016104d391906113f0565b5f610dc88484610af1565b90505f19811015610e085781811015610dfa57828183604051637dc7a0d960e11b81526004016104d39392919061169d565b610e0884848484035f610f24565b50505050565b6001600160a01b038316610e37575f604051634b637e8f60e11b81526004016104d391906113f0565b6001600160a01b038216610e60575f60405163ec442f0560e01b81526004016104d391906113f0565b610d86838383610ff6565b6001600160a01b038216610e94575f60405163ec442f0560e01b81526004016104d391906113f0565b6105a35f8383610ff6565b6001600160a01b038216610ec8575f604051634b637e8f60e11b81526004016104d391906113f0565b6105a3825f83610ff6565b600580546001600160a01b038381166001600160a01b0319831681179093556040519116919082907f8be0079c531659141344cd1fd0a4f28419497f9722a3daafe3b4186f6b6457e0905f90a35050565b6001600160a01b038416610f4d575f60405163e602df0560e01b81526004016104d391906113f0565b6001600160a01b038316610f76575f604051634a1406b160e11b81526004016104d391906113f0565b6001600160a01b038085165f9081526001602090815260408083209387168352929052208290558015610e0857826001600160a01b0316846001600160a01b03167f8c5be1e5ebec7d5bd14f71427d1e84f3dd0314c0f7b2291e5b200ac8c7c3b92584604051610fe891815260200190565b60405180910390a350505050565b6001600160a01b038316611020578060025f82825461101591906116be565b9091555061107d9050565b6001600160a01b0383165f908152602081905260409020548181101561105f5783818360405163391434e360e21b81526004016104d39392919061169d565b6001600160a01b0384165f9081526020819052604090209082900390555b6001600160a01b038216611099576002805482900390556110b7565b6001600160a01b0382165f9081526020819052604090208054820190555b816001600160a01b0316836001600160a01b03167fddf252ad1be2c89b69c2b068fc378daa952ba7f163c4a11628f55a4df523b3ef836040516110fc91815260200190565b60405180910390a3505050565b5f81518084528060208401602086015e5f602082860101526020601f19601f83011685010191505092915050565b602081525f6111496020830184611109565b9392505050565b80356001600160a01b0381168114611166575f5ffd5b919050565b5f5f6040838503121561117c575f5ffd5b61118583611150565b946020939093013593505050565b5f602082840312156111a3575f5ffd5b81356001600160401b0381168114611149575f5ffd5b5f5f5f606084860312156111cb575f5ffd5b6111d484611150565b92506111e260208501611150565b929592945050506040919091013590565b5f60208284031215611203575f5ffd5b5035919050565b8051825260ff60208201511660208301525f6040820151608060408501526112356080850182611109565b6060938401516001600160a01b0316949093019390935250919050565b602081525f611149602083018461120a565b634e487b7160e01b5f52604160045260245ffd5b5f82601f830112611287575f5ffd5b81356001600160401b038111156112a0576112a0611264565b604051601f8201601f19908116603f011681016001600160401b03811182821017156112ce576112ce611264565b6040528181528382016020018510156112e5575f5ffd5b816020850160208301375f918101602001919091529392505050565b5f60208284031215611311575f5ffd5b81356001600160401b03811115611326575f5ffd5b61133284828501611278565b949350505050565b5f6020828403121561134a575f5ffd5b61114982611150565b84815260ff84166020820152608060408201525f6113746080830185611109565b905060018060a01b038316606083015295945050505050565b5f602082016020835280845180835260408501915060408160051b8601019250602086015f5b828110156113e457603f198786030184526113cf85835161120a565b945060209384019391909101906001016113b3565b50929695505050505050565b6001600160a01b0391909116815260200190565b5f5f60408385031215611415575f5ffd5b61141e83611150565b915061142c60208401611150565b90509250929050565b5f5f60408385031215611446575f5ffd5b823560ff81168114611456575f5ffd5b915060208301356001600160401b03811115611470575f5ffd5b61147c85828601611278565b9150509250929050565b600181811c9082168061149a57607f821691505b6020821081036114b857634e487b7160e01b5f52602260045260245ffd5b50919050565b634e487b7160e01b5f52601160045260245ffd5b81810381811115610471576104716114be565b634e487b7160e01b5f52603260045260245ffd5b601f821115610d8657805f5260205f20601f840160051c8101602085101561151e5750805b601f840160051c820191505b8181101561153d575f815560010161152a565b5050505050565b81516001600160401b0381111561155d5761155d611264565b6115718161156b8454611486565b846114f9565b6020601f8211600181146115a3575f831561158c5750848201515b5f19600385901b1c1916600184901b17845561153d565b5f84815260208120601f198516915b828110156115d257878501518255602094850194600190920191016115b2565b50848210156115ef57868401515f19600387901b60f8161c191681555b50505050600190811b01905550565b604081525f6116106040830185611109565b90508260208301529392505050565b634e487b7160e01b5f52601260045260245ffd5b5f826116415761164161161f565b500490565b6001600160401b038181168382160290811690818114611668576116686114be565b5092915050565b5f6001600160401b038316806116875761168761161f565b6001600160401b03929092169190910492915050565b6001600160a01b039390931683526020830191909152604082015260600190565b80820180821115610471576104716114be56fea264697066735822122088ac7e6e61b5cb0caa07f614e71c6eb675ccd987ce462cba94f91008e1df6e2964736f6c634300081d00336080604052348015600e575f5ffd5b50604051610ffa380380610ffa833981016040819052602b916092565b5f80546001600160a01b039485166001600160a01b0319918216179091556001805493851693821693909317909255600280549190931690821617909155600380549091163317905560cb565b80516001600160a01b0381168114608d575f5ffd5b919050565b5f5f5f6060848603121560a3575f5ffd5b60aa846078565b925060b6602085016078565b915060c2604085016078565b90509250925092565b610f22806100d85f395ff3fe608060405234801561000f575f5ffd5b50600436106100e4575f3560e01c80630c8bc60c146100e85780631d1438481461011b5780634487d3df1461013b5780634755fd5d146101945780635a40af8e146101a95780636d0a1cb3146101bc5780636e70096e146101cf5780637ad226dc146101e2578063809dab6a146101f557806388987aac1461020b57806389a302711461021d578063b6b55f2514610230578063c6b7d96114610243578063d811fcf014610262578063efca2eed14610275578063feafdaa71461027e578063ff50abdc14610287578063ff51e70214610290575b5f5ffd5b6100fb6100f6366004610b33565b6102af565b604080519384526020840192909252908201526060015b60405180910390f35b60035461012e906001600160a01b031681565b6040516101129190610b53565b610172610149366004610b67565b60076020525f908152604090208054600182015460028301546003909301549192909160ff1684565b6040805194855260208501939093529183015215156060820152608001610112565b6101a76101a2366004610c4e565b6102e6565b005b6101a76101b7366004610d17565b610544565b6101a76101ca366004610d41565b61066e565b6101a76101dd366004610b67565b6107e2565b6101a76101f0366004610d17565b610921565b6101fd610a08565b604051908152602001610112565b5f5461012e906001600160a01b031681565b60025461012e906001600160a01b031681565b6101a761023e366004610b67565b610a7c565b6101fd610251366004610b33565b60086020525f908152604090205481565b60015461012e906001600160a01b031681565b6101fd60055481565b6101fd60065481565b6101fd60045481565b6101fd61029e366004610b33565b60096020525f908152604090205481565b6001600160a01b0381165f90815260086020908152604080832054600990925282205490916102de8284610d7d565b929491935050565b6003546001600160a01b031633146103195760405162461bcd60e51b815260040161031090610d96565b60405180910390fd5b805182511461035c5760405162461bcd60e51b815260206004820152600f60248201526e098cadccee8d040dad2e6dac2e8c6d608b1b6044820152606401610310565b5f838152600760205260409020600381015460ff16156103b25760405162461bcd60e51b8152602060048201526011602482015270105b1c9958591e4818dbdb5c1b195d1959607a1b6044820152606401610310565b5f5f5f9054906101000a90046001600160a01b03166001600160a01b03166318160ddd6040518163ffffffff1660e01b8152600401602060405180830381865afa158015610402573d5f5f3e3d5ffd5b505050506040513d601f19601f820116820180604052508101906104269190610dbb565b90505f81116104725760405162461bcd60e51b81526020600482015260186024820152772737903a37b5b2b7399034b71031b4b931bab630ba34b7b760411b6044820152606401610310565b5f5b845181101561052f575f84828151811061049057610490610dd2565b60200260200101511115610527575f828583815181106104b2576104b2610dd2565b602002602001015185600101546104c99190610de6565b6104d39190610dfd565b90508060085f8885815181106104eb576104eb610dd2565b60200260200101516001600160a01b03166001600160a01b031681526020019081526020015f205f8282546105209190610e1c565b9091555050505b600101610474565b5050600301805460ff19166001179055505050565b6003546001600160a01b0316331461056e5760405162461bcd60e51b815260040161031090610d96565b5f821161058d5760405162461bcd60e51b815260040161031090610e2f565b610595610a08565b8211156105b45760405162461bcd60e51b815260040161031090610e60565b60025460405163a9059cbb60e01b81526001600160a01b039091169063a9059cbb906105e69084908690600401610e8e565b6020604051808303815f875af1158015610602573d5f5f3e3d5ffd5b505050506040513d601f19601f820116820180604052508101906106269190610ea7565b50806001600160a01b03167fd4c4f034e6d88080144fb76dbfb71aab31394358b3639babebc2e5cf35c2b7668342604051610662929190610ec6565b60405180910390a25050565b6003546001600160a01b031633146106985760405162461bcd60e51b815260040161031090610d96565b5f546001600160a01b038381169116146106e45760405162461bcd60e51b815260206004820152600d60248201526c24b73b30b634b2103a37b5b2b760991b6044820152606401610310565b5f81116107035760405162461bcd60e51b815260040161031090610e2f565b61070b610a08565b81111561072a5760405162461bcd60e51b815260040161031090610e60565b60068054905f61073983610ed4565b9091555050604080516080810182526006548082526020808301858152428486019081525f6060860181815294815260079093529482209351845551600184015592516002830155516003909101805460ff1916911515919091179055600580548392906107a8908490610e1c565b90915550506006546040517f6215b003e186dbc79e3bd07b486dc69758f50dab026e5d485d4a945d56015447906106629084904290610ec6565b335f9081526009602090815260408083205460089092528220546108069190610d7d565b9050808211156108505760405162461bcd60e51b8152602060048201526015602482015274496e73756666696369656e74206561726e696e677360581b6044820152606401610310565b335f908152600960205260408120805484929061086e908490610e1c565b909155505060025460405163a9059cbb60e01b81526001600160a01b039091169063a9059cbb906108a59033908690600401610e8e565b6020604051808303815f875af11580156108c1573d5f5f3e3d5ffd5b505050506040513d601f19601f820116820180604052508101906108e59190610ea7565b50336001600160a01b03167f90dac969af4a4897610ef8f0cd934c54409861eb7bd2205e552f8f2296ee5d3e8342604051610662929190610ec6565b6003546001600160a01b0316331461094b5760405162461bcd60e51b815260040161031090610d96565b5f821161096a5760405162461bcd60e51b815260040161031090610e2f565b610972610a08565b8211156109915760405162461bcd60e51b815260040161031090610e60565b60025460405163a9059cbb60e01b81526001600160a01b039091169063a9059cbb906109c39084908690600401610e8e565b6020604051808303815f875af11580156109df573d5f5f3e3d5ffd5b505050506040513d601f19601f82011682018060405250810190610a039190610ea7565b505050565b6002546040516370a0823160e01b81525f916001600160a01b0316906370a0823190610a38903090600401610b53565b602060405180830381865afa158015610a53573d5f5f3e3d5ffd5b505050506040513d601f19601f82011682018060405250810190610a779190610dbb565b905090565b6003546001600160a01b03163314610aa65760405162461bcd60e51b815260040161031090610d96565b5f8111610ac55760405162461bcd60e51b815260040161031090610e2f565b8060045f828254610ad69190610e1c565b90915550506040517fb20d89f6552ecc9b6927807870a2e0a3ead94efac32d88ca11d3ff17b744aa9090610b0d9083904290610ec6565b60405180910390a150565b80356001600160a01b0381168114610b2e575f5ffd5b919050565b5f60208284031215610b43575f5ffd5b610b4c82610b18565b9392505050565b6001600160a01b0391909116815260200190565b5f60208284031215610b77575f5ffd5b5035919050565b634e487b7160e01b5f52604160045260245ffd5b604051601f8201601f191681016001600160401b0381118282101715610bba57610bba610b7e565b604052919050565b5f6001600160401b03821115610bda57610bda610b7e565b5060051b60200190565b5f82601f830112610bf3575f5ffd5b8135610c06610c0182610bc2565b610b92565b8082825260208201915060208360051b860101925085831115610c27575f5ffd5b602085015b83811015610c44578035835260209283019201610c2c565b5095945050505050565b5f5f5f60608486031215610c60575f5ffd5b8335925060208401356001600160401b03811115610c7c575f5ffd5b8401601f81018613610c8c575f5ffd5b8035610c9a610c0182610bc2565b8082825260208201915060208360051b850101925088831115610cbb575f5ffd5b6020840193505b82841015610ce457610cd384610b18565b825260209384019390910190610cc2565b945050505060408401356001600160401b03811115610d01575f5ffd5b610d0d86828701610be4565b9150509250925092565b5f5f60408385031215610d28575f5ffd5b82359150610d3860208401610b18565b90509250929050565b5f5f60408385031215610d52575f5ffd5b610d5b83610b18565b946020939093013593505050565b634e487b7160e01b5f52601160045260245ffd5b81810381811115610d9057610d90610d69565b92915050565b6020808252600b908201526a27b7363c9034b9b9bab2b960a91b604082015260600190565b5f60208284031215610dcb575f5ffd5b5051919050565b634e487b7160e01b5f52603260045260245ffd5b8082028115828204841417610d9057610d90610d69565b5f82610e1757634e487b7160e01b5f52601260045260245ffd5b500490565b80820180821115610d9057610d90610d69565b602080825260179082015276416d6f756e74206d75737420626520706f73697469766560481b604082015260600190565b602080825260149082015273496e73756666696369656e742062616c616e636560601b604082015260600190565b6001600160a01b03929092168252602082015260400190565b5f60208284031215610eb7575f5ffd5b81518015158114610b4c575f5ffd5b918252602082015260400190565b5f60018201610ee557610ee5610d69565b506001019056fea26469706673582212209e5c4f02269333b59a2a6d16b4716024815a885d11978c1ffca600960692828164736f6c634300081d0033a26469706673582212202ee6a54c8234bd3fdb7bba1127295fd4fa2a2f11434d0d1600f5424d8acb6f9d64736f6c634300081d0033",
  "linkReferences": {},
  "deployedLinkReferences": {}
}